{
  "_format": "hh-sol-artifact-1",
  "contractName": "FlashArbBotBalancer",
  "sourceName": "contracts/FlashArbBotBalancer.sol",
  "abi": [
    {
      "inputs": [
        {
          "internalType": "address",
          "name": "_vault",
          "type": "address"
        },
        {
          "internalType": "address",
          "name": "_sushiRouter",
          "type": "address"
        },
        {
          "internalType": "address",
          "name": "_uniRouter",
          "type": "address"
        },
        {
          "internalType": "address",
          "name": "_uniV3Quoter",
          "type": "address"
        }
      ],
      "stateMutability": "nonpayable",
      "type": "constructor"
    },
    {
      "anonymous": false,
      "inputs": [
        {
          "indexed": true,
          "internalType": "address",
          "name": "asset",
          "type": "address"
        },
        {
          "indexed": false,
          "internalType": "uint256",
          "name": "amount",
          "type": "uint256"
        },
        {
          "indexed": false,
          "internalType": "uint256",
          "name": "profit",
          "type": "uint256"
        },
        {
          "indexed": false,
          "internalType": "bool",
          "name": "sushiFirst",
          "type": "bool"
        }
      ],
      "name": "ArbitrageExecuted",
      "type": "event"
    },
    {
      "anonymous": false,
      "inputs": [
        {
          "indexed": true,
          "internalType": "uint256",
          "name": "chainId",
          "type": "uint256"
        },
        {
          "indexed": true,
          "internalType": "address",
          "name": "asset",
          "type": "address"
        },
        {
          "indexed": false,
          "internalType": "uint256",
          "name": "spread",
          "type": "uint256"
        },
        {
          "indexed": false,
          "internalType": "uint256",
          "name": "estimatedProfit",
          "type": "uint256"
        }
      ],
      "name": "CrossChainOpportunityDetected",
      "type": "event"
    },
    {
      "anonymous": false,
      "inputs": [
        {
          "indexed": true,
          "internalType": "address",
          "name": "previousOwner",
          "type": "address"
        },
        {
          "indexed": true,
          "internalType": "address",
          "name": "newOwner",
          "type": "address"
        }
      ],
      "name": "OwnershipTransferred",
      "type": "event"
    },
    {
      "anonymous": false,
      "inputs": [
        {
          "indexed": false,
          "internalType": "address",
          "name": "account",
          "type": "address"
        }
      ],
      "name": "Paused",
      "type": "event"
    },
    {
      "anonymous": false,
      "inputs": [
        {
          "indexed": true,
          "internalType": "address",
          "name": "token",
          "type": "address"
        },
        {
          "indexed": false,
          "internalType": "uint256",
          "name": "amount",
          "type": "uint256"
        }
      ],
      "name": "ProfitWithdrawn",
      "type": "event"
    },
    {
      "anonymous": false,
      "inputs": [
        {
          "indexed": true,
          "internalType": "address",
          "name": "tokenA",
          "type": "address"
        },
        {
          "indexed": true,
          "internalType": "address",
          "name": "tokenB",
          "type": "address"
        },
        {
          "indexed": true,
          "internalType": "address",
          "name": "tokenC",
          "type": "address"
        },
        {
          "indexed": false,
          "internalType": "uint256",
          "name": "amount",
          "type": "uint256"
        },
        {
          "indexed": false,
          "internalType": "uint256",
          "name": "profit",
          "type": "uint256"
        }
      ],
      "name": "TriangularArbitrageExecuted",
      "type": "event"
    },
    {
      "anonymous": false,
      "inputs": [
        {
          "indexed": false,
          "internalType": "address",
          "name": "account",
          "type": "address"
        }
      ],
      "name": "Unpaused",
      "type": "event"
    },
    {
      "inputs": [],
      "name": "MAX_SLIPPAGE",
      "outputs": [
        {
          "internalType": "uint256",
          "name": "",
          "type": "uint256"
        }
      ],
      "stateMutability": "view",
      "type": "function"
    },
    {
      "inputs": [],
      "name": "MIN_PROFIT_BPS",
      "outputs": [
        {
          "internalType": "uint256",
          "name": "",
          "type": "uint256"
        }
      ],
      "stateMutability": "view",
      "type": "function"
    },
    {
      "inputs": [],
      "name": "SUSHI_ROUTER_NEW",
      "outputs": [
        {
          "internalType": "address",
          "name": "",
          "type": "address"
        }
      ],
      "stateMutability": "view",
      "type": "function"
    },
    {
      "inputs": [],
      "name": "SUSHI_ROUTER_OPT",
      "outputs": [
        {
          "internalType": "address",
          "name": "",
          "type": "address"
        }
      ],
      "stateMutability": "view",
      "type": "function"
    },
    {
      "inputs": [],
      "name": "UNI_V2_ROUTER_NEW",
      "outputs": [
        {
          "internalType": "address",
          "name": "",
          "type": "address"
        }
      ],
      "stateMutability": "view",
      "type": "function"
    },
    {
      "inputs": [],
      "name": "UNI_V2_ROUTER_OPT",
      "outputs": [
        {
          "internalType": "address",
          "name": "",
          "type": "address"
        }
      ],
      "stateMutability": "view",
      "type": "function"
    },
    {
      "inputs": [],
      "name": "USDC",
      "outputs": [
        {
          "internalType": "address",
          "name": "",
          "type": "address"
        }
      ],
      "stateMutability": "view",
      "type": "function"
    },
    {
      "inputs": [],
      "name": "USDT",
      "outputs": [
        {
          "internalType": "address",
          "name": "",
          "type": "address"
        }
      ],
      "stateMutability": "view",
      "type": "function"
    },
    {
      "inputs": [],
      "name": "WBTC",
      "outputs": [
        {
          "internalType": "address",
          "name": "",
          "type": "address"
        }
      ],
      "stateMutability": "view",
      "type": "function"
    },
    {
      "inputs": [],
      "name": "WETH",
      "outputs": [
        {
          "internalType": "address",
          "name": "",
          "type": "address"
        }
      ],
      "stateMutability": "view",
      "type": "function"
    },
    {
      "inputs": [
        {
          "internalType": "address",
          "name": "",
          "type": "address"
        }
      ],
      "name": "authorizedCallers",
      "outputs": [
        {
          "internalType": "bool",
          "name": "",
          "type": "bool"
        }
      ],
      "stateMutability": "view",
      "type": "function"
    },
    {
      "inputs": [],
      "name": "currentChainId",
      "outputs": [
        {
          "internalType": "uint256",
          "name": "",
          "type": "uint256"
        }
      ],
      "stateMutability": "view",
      "type": "function"
    },
    {
      "inputs": [
        {
          "internalType": "address",
          "name": "token",
          "type": "address"
        }
      ],
      "name": "emergencyWithdraw",
      "outputs": [],
      "stateMutability": "nonpayable",
      "type": "function"
    },
    {
      "inputs": [
        {
          "internalType": "address",
          "name": "asset",
          "type": "address"
        },
        {
          "internalType": "uint256",
          "name": "amount",
          "type": "uint256"
        },
        {
          "internalType": "address[]",
          "name": "path",
          "type": "address[]"
        },
        {
          "internalType": "bool",
          "name": "sushiFirst",
          "type": "bool"
        },
        {
          "internalType": "uint256",
          "name": "expectedProfit",
          "type": "uint256"
        }
      ],
      "name": "executeArb",
      "outputs": [],
      "stateMutability": "nonpayable",
      "type": "function"
    },
    {
      "inputs": [
        {
          "internalType": "address",
          "name": "asset",
          "type": "address"
        },
        {
          "internalType": "uint256",
          "name": "amount",
          "type": "uint256"
        },
        {
          "internalType": "address[]",
          "name": "path",
          "type": "address[]"
        },
        {
          "internalType": "uint256",
          "name": "expectedProfit",
          "type": "uint256"
        }
      ],
      "name": "executeTriangularArb",
      "outputs": [],
      "stateMutability": "nonpayable",
      "type": "function"
    },
    {
      "inputs": [],
      "name": "isArbitrum",
      "outputs": [
        {
          "internalType": "bool",
          "name": "",
          "type": "bool"
        }
      ],
      "stateMutability": "view",
      "type": "function"
    },
    {
      "inputs": [],
      "name": "isOptimism",
      "outputs": [
        {
          "internalType": "bool",
          "name": "",
          "type": "bool"
        }
      ],
      "stateMutability": "view",
      "type": "function"
    },
    {
      "inputs": [],
      "name": "minProfitBps",
      "outputs": [
        {
          "internalType": "uint256",
          "name": "",
          "type": "uint256"
        }
      ],
      "stateMutability": "view",
      "type": "function"
    },
    {
      "inputs": [],
      "name": "owner",
      "outputs": [
        {
          "internalType": "address",
          "name": "",
          "type": "address"
        }
      ],
      "stateMutability": "view",
      "type": "function"
    },
    {
      "inputs": [],
      "name": "pause",
      "outputs": [],
      "stateMutability": "nonpayable",
      "type": "function"
    },
    {
      "inputs": [],
      "name": "paused",
      "outputs": [
        {
          "internalType": "bool",
          "name": "",
          "type": "bool"
        }
      ],
      "stateMutability": "view",
      "type": "function"
    },
    {
      "inputs": [
        {
          "internalType": "address",
          "name": "",
          "type": "address"
        }
      ],
      "name": "priceFeeds",
      "outputs": [
        {
          "internalType": "address",
          "name": "",
          "type": "address"
        }
      ],
      "stateMutability": "view",
      "type": "function"
    },
    {
      "inputs": [
        {
          "internalType": "address[]",
          "name": "tokens",
          "type": "address[]"
        },
        {
          "internalType": "uint256[]",
          "name": "amounts",
          "type": "uint256[]"
        },
        {
          "internalType": "uint256[]",
          "name": "feeAmounts",
          "type": "uint256[]"
        },
        {
          "internalType": "bytes",
          "name": "userData",
          "type": "bytes"
        }
      ],
      "name": "receiveFlashLoan",
      "outputs": [],
      "stateMutability": "nonpayable",
      "type": "function"
    },
    {
      "inputs": [],
      "name": "renounceOwnership",
      "outputs": [],
      "stateMutability": "nonpayable",
      "type": "function"
    },
    {
      "inputs": [
        {
          "internalType": "address",
          "name": "caller",
          "type": "address"
        },
        {
          "internalType": "bool",
          "name": "authorized",
          "type": "bool"
        }
      ],
      "name": "setAuthorizedCaller",
      "outputs": [],
      "stateMutability": "nonpayable",
      "type": "function"
    },
    {
      "inputs": [
        {
          "internalType": "uint256",
          "name": "_minProfit",
          "type": "uint256"
        }
      ],
      "name": "setMinProfitBps",
      "outputs": [],
      "stateMutability": "nonpayable",
      "type": "function"
    },
    {
      "inputs": [
        {
          "internalType": "address",
          "name": "token",
          "type": "address"
        },
        {
          "internalType": "address",
          "name": "feed",
          "type": "address"
        }
      ],
      "name": "setPriceFeed",
      "outputs": [],
      "stateMutability": "nonpayable",
      "type": "function"
    },
    {
      "inputs": [
        {
          "internalType": "uint256",
          "name": "_slippage",
          "type": "uint256"
        }
      ],
      "name": "setSlippageTolerance",
      "outputs": [],
      "stateMutability": "nonpayable",
      "type": "function"
    },
    {
      "inputs": [
        {
          "internalType": "address",
          "name": "asset",
          "type": "address"
        },
        {
          "internalType": "uint256",
          "name": "amount",
          "type": "uint256"
        },
        {
          "internalType": "address[]",
          "name": "path",
          "type": "address[]"
        },
        {
          "internalType": "bool",
          "name": "sushiFirst",
          "type": "bool"
        }
      ],
      "name": "simulateArbitrage",
      "outputs": [
        {
          "internalType": "uint256",
          "name": "profit",
          "type": "uint256"
        }
      ],
      "stateMutability": "view",
      "type": "function"
    },
    {
      "inputs": [
        {
          "internalType": "address",
          "name": "asset",
          "type": "address"
        },
        {
          "internalType": "uint256",
          "name": "amount",
          "type": "uint256"
        },
        {
          "internalType": "address[]",
          "name": "path",
          "type": "address[]"
        }
      ],
      "name": "simulateTriangularArbitrage",
      "outputs": [
        {
          "internalType": "uint256",
          "name": "profit",
          "type": "uint256"
        }
      ],
      "stateMutability": "view",
      "type": "function"
    },
    {
      "inputs": [],
      "name": "slippageTolerance",
      "outputs": [
        {
          "internalType": "uint256",
          "name": "",
          "type": "uint256"
        }
      ],
      "stateMutability": "view",
      "type": "function"
    },
    {
      "inputs": [],
      "name": "sushiRouter",
      "outputs": [
        {
          "internalType": "contract IUniswapV2Router02",
          "name": "",
          "type": "address"
        }
      ],
      "stateMutability": "view",
      "type": "function"
    },
    {
      "inputs": [],
      "name": "sushiRouterNew",
      "outputs": [
        {
          "internalType": "contract IUniswapV2Router02",
          "name": "",
          "type": "address"
        }
      ],
      "stateMutability": "view",
      "type": "function"
    },
    {
      "inputs": [
        {
          "internalType": "address",
          "name": "newOwner",
          "type": "address"
        }
      ],
      "name": "transferOwnership",
      "outputs": [],
      "stateMutability": "nonpayable",
      "type": "function"
    },
    {
      "inputs": [],
      "name": "uniRouter",
      "outputs": [
        {
          "internalType": "contract IUniswapV2Router02",
          "name": "",
          "type": "address"
        }
      ],
      "stateMutability": "view",
      "type": "function"
    },
    {
      "inputs": [],
      "name": "uniV2RouterNew",
      "outputs": [
        {
          "internalType": "contract IUniswapV2Router02",
          "name": "",
          "type": "address"
        }
      ],
      "stateMutability": "view",
      "type": "function"
    },
    {
      "inputs": [],
      "name": "uniV3Quoter",
      "outputs": [
        {
          "internalType": "contract IUniswapV3Quoter",
          "name": "",
          "type": "address"
        }
      ],
      "stateMutability": "view",
      "type": "function"
    },
    {
      "inputs": [],
      "name": "unpause",
      "outputs": [],
      "stateMutability": "nonpayable",
      "type": "function"
    },
    {
      "inputs": [],
      "name": "vault",
      "outputs": [
        {
          "internalType": "contract IBalancerVault",
          "name": "",
          "type": "address"
        }
      ],
      "stateMutability": "view",
      "type": "function"
    },
    {
      "inputs": [
        {
          "internalType": "address",
          "name": "token",
          "type": "address"
        }
      ],
      "name": "withdraw",
      "outputs": [],
      "stateMutability": "nonpayable",
      "type": "function"
    }
  ],
  "bytecode": "0x608034620001e757601f620030c738819003918201601f19168301916001600160401b03831184841017620001ec57808492608094604052833981010312620001e7576200004d8162000202565b6200005b6020830162000202565b91620000786060620000706040840162000202565b920162000202565b60008054336001600160a01b0319808316821784556040519790966001600160a01b039687959094869491908516907f8be0079c531659141344cd1fd0a4f28419497f9722a3daafe3b4186f6b6457e09080a3600180556002549060c8600a55601e600b55610100600160a81b039060081b169060018060a81b031916176002551685600354161760035516836004541617600455168160055416176005554660085560095460ff80600a461416809261ff0061a4b1461460081b169061ffff191617178060095560081c1660001462000197575080734752ba5dbc23f44d87826276bf6fd6b1c372ad2473f2614a233c7c3e7f08b1f887ba133a13f1eb2c5592600654161760065560075416176007555b612eaf9081620002188239f35b620001a4575b506200018a565b80734a7b5da61326a6379179b40d00f57e5bbdc962c2732abf469074dc0b54d793850807e6eb5faf2625b19260065416176006556007541617600755386200019d565b600080fd5b634e487b7160e01b600052604160045260246000fd5b51906001600160a01b0382168203620001e75756fe608080604052600436101561001357600080fd5b600090813560e01c9081624670f11461263457508063117da1ee146125c457806315482ab21461259557806318d0b3ce14612566578063277dd7e0146121a857806329f2c8f014612182578063383aeeae146121645780633b9debf61461213d5780633c9889821461210e5780633f4ba83a14612071578063454bbd291461201c5780634dede3de14611fed578063507a229114611fd157806351cff8d914611e73578063536fff6c14611e365780635c975abb14611e135780636cbadbfa14611df55780636d13582c14611dce5780636ff1c9bc14611ccd578063715018a614611c6757806376e1128614611c02578063795674ff14611bdb5780638456cb5914611b8057806389a3027114611b515780638da5cb5b14611b2b5780639dcb511a14611af0578063a0e47bf614611ac9578063ad5c464814611a9a578063c01f252414611824578063c54e44eb146117f5578063c69aec5614611613578063d03153aa146115f5578063ea046659146115ce578063ec961a05146115ab578063ee9ed9d71461135f578063f04f270714610375578063f2fde38b1461028e578063f975951814610271578063fbfa77cf146102475763fcff2c28146101d857600080fd5b34610244576020366003190112610244576004356101f4612b5d565b801561020057600b5580f35b606460405162461bcd60e51b815260206004820152601b60248201527f4d696e2070726f666974206d75737420626520706f73697469766500000000006044820152fd5b80fd5b503461024457806003193601126102445760206001600160a01b0360025460081c16604051908152f35b503461024457806003193601126102445760206040516101f48152f35b5034610244576020366003190112610244576102a8612662565b6102b0612b5d565b6001600160a01b0380911690811561030b576000548273ffffffffffffffffffffffffffffffffffffffff19821617600055167f8be0079c531659141344cd1fd0a4f28419497f9722a3daafe3b4186f6b6457e0600080a380f35b608460405162461bcd60e51b815260206004820152602660248201527f4f776e61626c653a206e6577206f776e657220697320746865207a65726f206160448201527f64647265737300000000000000000000000000000000000000000000000000006064820152fd5b50346102445760803660031901126102445767ffffffffffffffff60043581811161135b576103a890369060040161268c565b92909160243581811161135b576103c390369060040161268c565b604435838111611357576103db90369060040161268c565b95909660643594808611611353573660238701121561135357856004013581811161130757860190602482019136831161134f576001600160a01b0360025460081c16330361130b57876080910312611307576024870135908111611307578601816043820112156113075790816044602461045a9401359101612973565b96610467604487016126cc565b92610474608488016126cc565b92156112f357610483906126d9565b93156112df57865b8851811015610642576001600160a01b036104a6828b61283d565b51168852600c6020908082526001600160a01b0360408b2054166104cf575b505060010161048b565b6001600160a01b036104e1848d61283d565b51168a5281526001600160a01b0360408a20541660405180917ffeaf968c00000000000000000000000000000000000000000000000000000000825281600460a09384935afa91821561063757908b91829183946105e3575b5050131561059f5761054f610e109142612908565b101561055b57806104c5565b6064906040519062461bcd60e51b82526004820152600d60248201527f507269636520746f6f206f6c64000000000000000000000000000000000000006044820152fd5b6064826040519062461bcd60e51b82526004820152600d60248201527f496e76616c6964207072696365000000000000000000000000000000000000006044820152fd5b925092505081813d8311610630575b6105fc81836127c0565b8101031261062c5761060d81612d56565b508982820151610624608060608501519401612d56565b50388061053a565b8980fd5b503d6105f2565b6040513d8d823e3d90fd5b5088979596976040516370a0823160e01b81523060048201526020816024816001600160a01b038a165afa8015610d1c576112b4575b508215610e2c5760065460405163095ea7b360e01b81526001600160a01b03909116600482015286356024820152602081806044810103818d6001600160a01b038b165af18015610d1c57610e0d575b5060075460405163095ea7b360e01b81526001600160a01b03909116600482015286356024820152602081806044810103818d6001600160a01b038b165af18015610d1c57610dee575b5060405161071f81612788565b6002815260403660208301376001600160a01b0361073c896127fa565b5116610747826127fa565b526001600160a01b036107598961281d565b51166107648261281d565b52610770818835612da5565b906001600160a01b03600654169061012c42014211610dda57918b9189836107b895604051968795869485936338ed173960e01b855261012c42019230923560048701612d6d565b03925af1908115610d1c578a91610dc0575b50805180600019810111610d73576107eb610884928c92600019019061283d565b516040516020826001600160a01b036108438e61080786612788565b60028652604036868801378261081c8261281d565b5116610827876127fa565b52826108328261282d565b511661083d8761281d565b5261281d565b51166001600160a01b03600754168660405180998195829463095ea7b360e01b845260048401602090939291936001600160a01b0360408201951681520152565b03925af1938415610d68576108d794610da1575b506108a38183612e65565b91836001600160a01b036007541692604051968795869485936338ed173960e01b855261012c420192309260048701612d6d565b03925af1908115610d1c578a91610d87575b50805180600019810111610d735761090a6109a3928c92600019019061283d565b516040516020826001600160a01b036109628e61092686612788565b60028652604036868801378261093b8261282d565b5116610946876127fa565b5282610951826127fa565b511661095c8761281d565b5261282d565b51166001600160a01b03600654168660405180998195829463095ea7b360e01b845260048401602090939291936001600160a01b0360408201951681520152565b03925af1938415610d68576109f694610d49575b506109c28183612da5565b91836001600160a01b036006541692604051968795869485936338ed173960e01b855261012c420192309260048701612d6d565b03925af18015610d1c57610d27575b505b604051916370a0823160e01b83523060048401526020836024816001600160a01b038a165afa928315610d1c578a93610ce3575b5015610ccf57358535019081863511610cb957818110610c755781610a5f91612908565b96612710610a70600b548835612b4a565b048810610c315760640135605f8181029180159083049091141715610c1d57606490048710610bd95760025460405163095ea7b360e01b815260089190911c6001600160a01b031660048201526024810191909152602081806044810103818b6001600160a01b0389165af18015610bce57610b9f575b5015610b555750507f511dc6c70263758503ff9aee3e77f3e7bef3cabee21a4eb0b017e7cf0438f2f260406001600160a01b03610b23856127fa565b5116926001600160a01b03610b4381610b3b8861281d565b51169661282d565b5116958251913582526020820152a480f35b7f05625c164577e109e0c8964ab47768b235a36d08f5146dfa9858a382fa5c5efd9350906001600160a01b039160609395604051963587526020870152151560408601521692a280f35b610bc09060203d602011610bc7575b610bb881836127c0565b810190612915565b5087610ae7565b503d610bae565b6040513d8a823e3d90fd5b606460405162461bcd60e51b815260206004820152601960248201527f50726f66697420646576696174696f6e20746f6f2068696768000000000000006044820152fd5b602489634e487b7160e01b81526011600452fd5b606460405162461bcd60e51b815260206004820152600e60248201527f50726f66697420746f6f206c6f770000000000000000000000000000000000006044820152fd5b606460405162461bcd60e51b815260206004820152600c60248201527f556e70726f66697461626c6500000000000000000000000000000000000000006044820152fd5b634e487b7160e01b600052601160045260246000fd5b602489634e487b7160e01b81526032600452fd5b9092506020813d602011610d14575b81610cff602093836127c0565b81010312610d0f5751918a610a3b565b600080fd5b3d9150610cf2565b6040513d8c823e3d90fd5b610d42903d808c833e610d3a81836127c0565b810190612851565b5089610a05565b610d619060203d602011610bc757610bb881836127c0565b508d6109b7565b6040513d85823e3d90fd5b60248b634e487b7160e01b81526011600452fd5b610d9b91503d808c833e610d3a81836127c0565b8a6108e9565b610db99060203d602011610bc757610bb881836127c0565b508d610898565b610dd491503d808c833e610d3a81836127c0565b8a6107ca565b60248c634e487b7160e01b81526011600452fd5b610e069060203d602011610bc757610bb881836127c0565b5089610712565b610e259060203d602011610bc757610bb881836127c0565b50896106c8565b60035460405163095ea7b360e01b81526001600160a01b03909116600482015286356024820152602081806044810103818d6001600160a01b038b165af18015610d1c57611295575b506004805460405163095ea7b360e01b81526001600160a01b039091169181019190915286356024820152602081806044810103818d6001600160a01b038b165af18015610d1c57611276575b5060065460405163095ea7b360e01b81526001600160a01b03909116600482015286356024820152602081806044810103818d6001600160a01b038b165af18015610d1c57611257575b5060075460405163095ea7b360e01b81526001600160a01b03909116600482015286356024820152602081806044810103818d6001600160a01b038b165af18015610d1c57611238575b50831561111557610f68878735612e65565b6001600160a01b03610f78612bd7565b1661012c42014211610d7357610fb3918b9189838c604051968795869485936338ed173960e01b855261012c42019230923560048701612d6d565b03925af1908115610d1c578a916110fb575b50805180600019810111610d7357610fe6611041928c92600019019061283d565b516020816001600160a01b03610ffb8d61281d565b51166001600160a01b0361100d612bb5565b168560405180988195829463095ea7b360e01b845260048401602090939291936001600160a01b0360408201951681520152565b03925af19283156110f0576110a2936110d1575b5061105f8a612c17565b6110698183612da5565b91836001600160a01b0361107b612bb5565b1692604051968795869485936338ed173960e01b855261012c420192309260048701612d6d565b03925af18015610d1c576110b7575b50610a07565b6110ca903d808c833e610d3a81836127c0565b50896110b1565b6110e99060203d602011610bc757610bb881836127c0565b508c611055565b6040513d84823e3d90fd5b61110f91503d808c833e610d3a81836127c0565b8a610fc5565b611120878735612da5565b6001600160a01b03611130612bb5565b1661012c42014211610d735761116b918b9189838c604051968795869485936338ed173960e01b855261012c42019230923560048701612d6d565b03925af1908115610d1c578a9161121e575b50805180600019810111610d735761119e6111c5928c92600019019061283d565b516020816001600160a01b036111b38d61281d565b51166001600160a01b0361100d612bd7565b03925af19283156110f0576110a2936111ff575b506111e38a612c17565b6111ed8183612e65565b91836001600160a01b0361107b612bd7565b6112179060203d602011610bc757610bb881836127c0565b508c6111d9565b61123291503d808c833e610d3a81836127c0565b8a61117d565b6112509060203d602011610bc757610bb881836127c0565b5089610f56565b61126f9060203d602011610bc757610bb881836127c0565b5089610f0c565b61128e9060203d602011610bc757610bb881836127c0565b5089610ec2565b6112ad9060203d602011610bc757610bb881836127c0565b5089610e75565b602090813d83116112d8575b6112ca81836127c0565b81010312610d0f5789610678565b503d6112c0565b602487634e487b7160e01b81526032600452fd5b602488634e487b7160e01b81526032600452fd5b8780fd5b606460405162461bcd60e51b815260206004820152601360248201527f4f6e6c792042616c616e636572207661756c74000000000000000000000000006044820152fd5b8880fd5b8680fd5b8480fd5b8280fd5b503461024457608036600319011261024457611379612662565b9060243560443567ffffffffffffffff811161135b5761139d90369060040161268c565b9390606435338552602091600d835260ff6040872054168015611593575b6113c4906129c9565b6113cc612cb1565b6113d4612d01565b60048703611529578615611515576113eb816126d9565b9680600310156112df57928697926114956114b7936080966114266001600160a01b0397888061141d606087016126d9565b169116146126ed565b6114318a1515612a14565b61143c841515612a5f565b604051986114498a6127a4565b60018a528536818c01378761145d8b6127fa565b911690526040519961146e8b6127a4565b60018b528536818d01376114818b6127fa565b5260405197889586015260a085019161292d565b906000604084015260608301526001608083015203601f1981018452836127c0565b60025460081c16803b15611357576114ea9385809460405196879586948593632e1c224f60e11b85523060048601612aaa565b03925af180156110f057611501575b506001805580f35b61150a9061275e565b6102445780386114f9565b602486634e487b7160e01b81526032600452fd5b6084836040519062461bcd60e51b82526004820152602f60248201527f547269616e67756c61722070617468206d7573742068617665203420746f6b6560448201527f6e732028412d3e422d3e432d3e412900000000000000000000000000000000006064820152fd5b506113c46001600160a01b03875416331490506113bb565b5034610244578060031936011261024457602060ff600954166040519015158152f35b503461024457806003193601126102445760206001600160a01b0360075416604051908152f35b50346102445780600319360112610244576020600a54604051908152f35b50346102445760a03660031901126102445761162d612662565b60243560443567ffffffffffffffff81116117955761165090369060040161268c565b929061165a6126bd565b608435338752602092600d845260ff60408920541680156117dd575b61167f906129c9565b611687612cb1565b61168f612d01565b6002871061179957926080949261173e9261171d88966116b18c9a1515612a14565b6116bc831515612a5f565b6040519a6116c98c6127a4565b60018c528536818e01376116dc8c6127fa565b6001600160a01b038099169052604051986116f68a6127a4565b60018a528636818c01376117098a6127fa565b52604051998a9687015260a086019161292d565b9115156040840152606083015286608083015203601f1981018552846127c0565b60025460081c1690813b1561179557836117709560405196879586948593632e1c224f60e11b85523060048601612aaa565b03925af180156110f05761178657506001805580f35b61178f9061275e565b386114f9565b8380fd5b6064846040519062461bcd60e51b82526004820152600c60248201527f496e76616c6964207061746800000000000000000000000000000000000000006044820152fd5b5061167f6001600160a01b0389541633149050611676565b5034610244578060031936011261024457602060405173fd086bc7cd5c481dcc9c85ebe478a1c0b69fcbb98152f35b50346102445760803660031901126102445761183e612662565b50602490813560443567ffffffffffffffff811161135b5761186490369060040161268c565b61186c6126bd565b61187581612bf9565b916118808215612bf9565b91156119d6576001600160a01b03604051878163d06ca61f60e01b9687825289600483015260408c8301528185816118bd8c8a604484019161292d565b0392165afa908115610bce579088959493929186916119bc575b50805160001981019081116119a95761192a976118fa611903926119089461283d565b51943691612973565b612c17565b93604051968795869485938452600484015260408c84015260448301906128cb565b0392165afa908115610d6857839161198f575b505b805160001981019490851161197d575060209361195b9161283d565b51818111156119765761196e9250612908565b604051908152f35b505061196e565b83634e487b7160e01b81526011600452fd5b6119a391503d8085833e610d3a81836127c0565b3861193d565b8a87634e487b7160e01b81526011600452fd5b6119d091503d8088833e610d3a81836127c0565b386118d7565b6001600160a01b03929192604051878163d06ca61f60e01b9687825289600483015260408c830152818581611a108c8a604484019161292d565b0392165afa908115610bce57908895949392918691611a80575b50805160001981019081116119a957611a4d976118fa611903926119089461283d565b0392165afa908115610d68578391611a66575b5061193f565b611a7a91503d8085833e610d3a81836127c0565b38611a60565b611a9491503d8088833e610d3a81836127c0565b38611a2a565b503461024457806003193601126102445760206040517382af49447d8a07e3bd95bd0d56f35241523fbab18152f35b503461024457806003193601126102445760206001600160a01b0360045416604051908152f35b50346102445760203660031901126102445760209060406001600160a01b039182611b19612662565b168152600c8452205416604051908152f35b50346102445780600319360112610244576001600160a01b036020915416604051908152f35b5034610244578060031936011261024457602060405173ff970a61a04b1ca14834a43f5de4533ebddb5cc88152f35b5034610244578060031936011261024457611b99612b5d565b611ba1612cb1565b600160ff1960025416176002557f62e78cea01bee320cd4e420270b5ea74000d11b0c9f74754ebdbfc544b05a2586020604051338152a180f35b503461024457806003193601126102445760206001600160a01b0360055416604051908152f35b503461024457604036600319011261024457611c1c612662565b602435906001600160a01b039081831680930361179557611c3b612b5d565b168252600c602052604082209073ffffffffffffffffffffffffffffffffffffffff1982541617905580f35b5034610244578060031936011261024457611c80612b5d565b806001600160a01b03815473ffffffffffffffffffffffffffffffffffffffff1981168355167f8be0079c531659141344cd1fd0a4f28419497f9722a3daafe3b4186f6b6457e08280a380f35b503461024457602080600319360112611dca57611ce8612662565b611cf0612b5d565b6001600160a01b03809116906040516370a0823160e01b81523060048201528381602481865afa908115611dbf578591611d92575b5080611d2f578480f35b845460405163a9059cbb60e01b815292166001600160a01b03166004830152602482015290829082908186816044810103925af18015610d6857611d74575b80808480f35b81611d8a92903d10610bc757610bb881836127c0565b503880611d6e565b90508381813d8311611db8575b611da981836127c0565b81010312611357575138611d25565b503d611d9f565b6040513d87823e3d90fd5b5080fd5b503461024457806003193601126102445760206001600160a01b0360035416604051908152f35b50346102445780600319360112610244576020600854604051908152f35b5034610244578060031936011261024457602060ff600254166040519015158152f35b50346102445760203660031901126102445760ff60406020926001600160a01b03611e5f612662565b168152600d84522054166040519015158152f35b503461024457602080600319360112611dca57611e8e612662565b90611e97612b5d565b6040516370a0823160e01b81523060048201526001600160a01b03928316928282602481875afa918215611dbf578592611fa2575b508115611f5e57845460405163a9059cbb60e01b815291166001600160a01b0316600482015260248101829052919081838060448101038188885af1928315611dbf577f016e128b6bdadd9e9068abd0b18db2fc8b27ed3dbced50e4aa6cc0a6934251ab93611f41575b50604051908152a280f35b611f5790833d8511610bc757610bb881836127c0565b5038611f36565b6064836040519062461bcd60e51b82526004820152601660248201527f4e6f2062616c616e636520746f207769746864726177000000000000000000006044820152fd5b9091508281813d8311611fca575b611fba81836127c0565b8101031261135757519038611ecc565b503d611fb0565b5034610244578060031936011261024457602060405160328152f35b50346102445780600319360112610244576020604051732f2a2543b76a4166549f7aab2e75bef0aefc5b0f8152f35b503461024457604036600319011261024457612036612662565b6024359081151580920361135b576001600160a01b0390612055612b5d565b168252600d602052604082209060ff8019835416911617905580f35b503461024457806003193601126102445761208a612b5d565b60025460ff8116156120ca5760ff19166002557f5db9ee0a495bf2e6ff9c91a7834c1ba4fdd244a5e8aa4e537bd38aeae4b073aa6020604051338152a180f35b606460405162461bcd60e51b815260206004820152601460248201527f5061757361626c653a206e6f74207061757365640000000000000000000000006044820152fd5b50346102445780600319360112610244576020604051734a7b5da61326a6379179b40d00f57e5bbdc962c28152f35b503461024457806003193601126102445760206001600160a01b0360065416604051908152f35b50346102445780600319360112610244576020600b54604051908152f35b5034610244578060031936011261024457602060ff60095460081c166040519015158152f35b5034610244576060366003190112610244576121c2612662565b50602490813560443567ffffffffffffffff811161135b576121e890369060040161268c565b90939060031981016124fc5780156124e957612203856126d9565b81600310156124d6576122266001600160a01b0391828061141d60608b016126d9565b6040519561223387612788565b600287526040366020890137612248816126d9565b82612252896127fa565b9116905282600110156124c357602081019661226d886126d9565b836122778361281d565b9116905282600654169260405198888a806122ad63d06ca61f60e01b968783528c600484015260408c84015260448301906128cb565b0381885afa998a1561247657899a6124a7575b5089516000199a8b820191821161249457906122db9161283d565b51956122fe604051926122ed84612788565b6002845260403660208601376126d9565b83612308846127fa565b91169052600210156124815788604080860197612324896126d9565b8561232e8661281d565b911690528985600754169161235a8451968795869485948c8652600486015284015260448301906128cb565b03915afa90811561247657899161245c575b508051908a820191821161244957916123c76123918b9795936123f69a99979561283d565b51936123b4604051976123a389612788565b6002895260403660208b01376126d9565b836123be896127fa565b911690526126d9565b906123d18661281d565b91169052604051968794859384938452600484015260408884015260448301906128cb565b03915afa91821561243e578492612422575b50815194850194851161197d575060209361195b9161283d565b6124379192503d8086833e610d3a81836127c0565b9038612408565b6040513d86823e3d90fd5b878a634e487b7160e01b81526011600452fd5b61247091503d808b833e610d3a81836127c0565b3861236c565b6040513d8b823e3d90fd5b8689634e487b7160e01b81526032600452fd5b888b634e487b7160e01b81526011600452fd5b6124bc919a503d808b833e610d3a81836127c0565b98386122c0565b8386634e487b7160e01b81526032600452fd5b8285634e487b7160e01b81526032600452fd5b5082634e487b7160e01b81526032600452fd5b60848260226040519162461bcd60e51b8352602060048401528201527f547269616e67756c61722070617468206d7573742068617665203420746f6b6560448201527f6e730000000000000000000000000000000000000000000000000000000000006064820152fd5b50346102445780600319360112610244576020604051734752ba5dbc23f44d87826276bf6fd6b1c372ad248152f35b50346102445780600319360112610244576020604051732abf469074dc0b54d793850807e6eb5faf2625b18152f35b5034610244576020366003190112610244576004356125e1612b5d565b6101f481116125f057600a5580f35b606460405162461bcd60e51b815260206004820152601160248201527f536c69707061676520746f6f20686967680000000000000000000000000000006044820152fd5b905034611dca5781600319360112611dca578073f2614a233c7c3e7f08b1f887ba133a13f1eb2c5560209252f35b600435906001600160a01b0382168203610d0f57565b35906001600160a01b0382168203610d0f57565b9181601f84011215610d0f5782359167ffffffffffffffff8311610d0f576020808501948460051b010111610d0f57565b606435908115158203610d0f57565b35908115158203610d0f57565b356001600160a01b0381168103610d0f5790565b156126f457565b608460405162461bcd60e51b815260206004820152602760248201527f50617468206d75737420737461727420616e6420656e6420776974682073616d60448201527f6520746f6b656e000000000000000000000000000000000000000000000000006064820152fd5b67ffffffffffffffff811161277257604052565b634e487b7160e01b600052604160045260246000fd5b6060810190811067ffffffffffffffff82111761277257604052565b6040810190811067ffffffffffffffff82111761277257604052565b90601f8019910116810190811067ffffffffffffffff82111761277257604052565b67ffffffffffffffff81116127725760051b60200190565b8051156128075760200190565b634e487b7160e01b600052603260045260246000fd5b8051600110156128075760400190565b8051600210156128075760600190565b80518210156128075760209160051b010190565b6020908181840312610d0f5780519067ffffffffffffffff8211610d0f57019180601f84011215610d0f578251612887816127e2565b9361289560405195866127c0565b818552838086019260051b820101928311610d0f578301905b8282106128bc575050505090565b815181529083019083016128ae565b90815180825260208080930193019160005b8281106128eb575050505090565b83516001600160a01b0316855293810193928101926001016128dd565b91908203918211610cb957565b90816020910312610d0f57518015158103610d0f5790565b91908082526020809201929160005b82811061294a575050505090565b9091929382806001926001600160a01b0361296489612678565b1681520195019392910161293c565b929161297e826127e2565b9161298c60405193846127c0565b829481845260208094019160051b8101928311610d0f57905b8282106129b25750505050565b8380916129be84612678565b8152019101906129a5565b156129d057565b606460405162461bcd60e51b815260206004820152600e60248201527f4e6f7420617574686f72697a65640000000000000000000000000000000000006044820152fd5b15612a1b57565b606460405162461bcd60e51b815260206004820152601760248201527f416d6f756e74206d75737420626520706f7369746976650000000000000000006044820152fd5b15612a6657565b606460405162461bcd60e51b815260206004820152602060248201527f45787065637465642070726f666974206d75737420626520706f7369746976656044820152fd5b906001600160a01b0390949294168152612ad060209460808684015260808301906128cb565b818103604083015284808551928381520194019060005b86828210612b36575050505060608184039101528051908183528360005b838110612b225750600091508284010152601f8019910116010190565b818184010151828287010152018490612b05565b835187529586019590920191600101612ae7565b81810292918115918404141715610cb957565b6001600160a01b03600054163303612b7157565b606460405162461bcd60e51b815260206004820152602060248201527f4f776e61626c653a2063616c6c6572206973206e6f7420746865206f776e65726044820152fd5b6006546001600160a01b03908116908115612bce575090565b90506004541690565b6007546001600160a01b03908116908115612bf0575090565b90506003541690565b15612bb5576007546001600160a01b03908116908115612bf0575090565b908151612c23816127e2565b90612c3160405192836127c0565b808252612c40601f19916127e2565b0136602083013780916000805b855180821015612ca8576000198101908111612c9457906001600160a01b03612c81612c7b83600195612908565b8961283d565b5116612c8d828761283d565b5201612c4d565b602483634e487b7160e01b81526011600452fd5b50505091925050565b60ff60025416612cbd57565b606460405162461bcd60e51b815260206004820152601060248201527f5061757361626c653a20706175736564000000000000000000000000000000006044820152fd5b600260015414612d12576002600155565b606460405162461bcd60e51b815260206004820152601f60248201527f5265656e7472616e637947756172643a207265656e7472616e742063616c6c006044820152fd5b519069ffffffffffffffffffff82168203610d0f57565b91608093612d9a916001600160a01b0393989796988552602085015260a0604085015260a08401906128cb565b951660608201520152565b612de8916001600160a01b03612db9612bb5565b169160405192839163d06ca61f60e01b83526004830152604060248301528180600096879560448301906128cb565b03915afa9081156110f0578291612e4b575b508051600019810191908211612c945790612e149161283d565b5190600a549161271092830391838311612e37575090612e3391612b4a565b0490565b80634e487b7160e01b602492526011600452fd5b612e5f91503d8084833e610d3a81836127c0565b38612dfa565b612de8916001600160a01b03612db9612bd756fea2646970667358221220aeaea44e86f0abcc08bba424b8dcc4a2a0f17cfb86f750d85873d73b6f5ff45e64736f6c63430008180033",
  "linkReferences": {},
  "deployedLinkReferences": {}
}