{
  "_format": "hh-sol-artifact-1",
  "contractName": "FlashArbBotBalancer",
  "sourceName": "contracts/FlashArbBotBalancer.sol",
  "abi": [
    {
      "inputs": [
        {
          "internalType": "address",
          "name": "_vault",
          "type": "address"
        },
        {
          "internalType": "address",
          "name": "_sushiRouter",
          "type": "address"
        },
        {
          "internalType": "address",
          "name": "_uniRouter",
          "type": "address"
        },
        {
          "internalType": "address",
          "name": "_uniV3Quoter",
          "type": "address"
        }
      ],
      "stateMutability": "nonpayable",
      "type": "constructor"
    },
    {
      "anonymous": false,
      "inputs": [
        {
          "indexed": true,
          "internalType": "address",
          "name": "asset",
          "type": "address"
        },
        {
          "indexed": false,
          "internalType": "uint256",
          "name": "amount",
          "type": "uint256"
        },
        {
          "indexed": false,
          "internalType": "uint256",
          "name": "profit",
          "type": "uint256"
        },
        {
          "indexed": false,
          "internalType": "bool",
          "name": "sushiFirst",
          "type": "bool"
        }
      ],
      "name": "ArbitrageExecuted",
      "type": "event"
    },
    {
      "anonymous": false,
      "inputs": [
        {
          "indexed": false,
          "internalType": "uint256",
          "name": "tradesCount",
          "type": "uint256"
        },
        {
          "indexed": false,
          "internalType": "uint256",
          "name": "totalProfit",
          "type": "uint256"
        }
      ],
      "name": "BatchArbitrageExecuted",
      "type": "event"
    },
    {
      "anonymous": false,
      "inputs": [
        {
          "indexed": true,
          "internalType": "uint256",
          "name": "chainId",
          "type": "uint256"
        },
        {
          "indexed": true,
          "internalType": "address",
          "name": "asset",
          "type": "address"
        },
        {
          "indexed": false,
          "internalType": "uint256",
          "name": "spread",
          "type": "uint256"
        },
        {
          "indexed": false,
          "internalType": "uint256",
          "name": "estimatedProfit",
          "type": "uint256"
        }
      ],
      "name": "CrossChainOpportunityDetected",
      "type": "event"
    },
    {
      "anonymous": false,
      "inputs": [
        {
          "indexed": false,
          "internalType": "enum FlashArbBotBalancer.FlashLoanProvider",
          "name": "provider",
          "type": "uint8"
        },
        {
          "indexed": false,
          "internalType": "address",
          "name": "asset",
          "type": "address"
        },
        {
          "indexed": false,
          "internalType": "uint256",
          "name": "amount",
          "type": "uint256"
        }
      ],
      "name": "FlashLoanProviderSelected",
      "type": "event"
    },
    {
      "anonymous": false,
      "inputs": [
        {
          "indexed": true,
          "internalType": "address",
          "name": "previousOwner",
          "type": "address"
        },
        {
          "indexed": true,
          "internalType": "address",
          "name": "newOwner",
          "type": "address"
        }
      ],
      "name": "OwnershipTransferred",
      "type": "event"
    },
    {
      "anonymous": false,
      "inputs": [
        {
          "indexed": false,
          "internalType": "address",
          "name": "account",
          "type": "address"
        }
      ],
      "name": "Paused",
      "type": "event"
    },
    {
      "anonymous": false,
      "inputs": [
        {
          "indexed": true,
          "internalType": "address",
          "name": "token",
          "type": "address"
        },
        {
          "indexed": false,
          "internalType": "uint256",
          "name": "amount",
          "type": "uint256"
        }
      ],
      "name": "ProfitWithdrawn",
      "type": "event"
    },
    {
      "anonymous": false,
      "inputs": [
        {
          "indexed": true,
          "internalType": "address",
          "name": "tokenA",
          "type": "address"
        },
        {
          "indexed": true,
          "internalType": "address",
          "name": "tokenB",
          "type": "address"
        },
        {
          "indexed": true,
          "internalType": "address",
          "name": "tokenC",
          "type": "address"
        },
        {
          "indexed": false,
          "internalType": "uint256",
          "name": "amount",
          "type": "uint256"
        },
        {
          "indexed": false,
          "internalType": "uint256",
          "name": "profit",
          "type": "uint256"
        }
      ],
      "name": "TriangularArbitrageExecuted",
      "type": "event"
    },
    {
      "anonymous": false,
      "inputs": [
        {
          "indexed": false,
          "internalType": "address",
          "name": "account",
          "type": "address"
        }
      ],
      "name": "Unpaused",
      "type": "event"
    },
    {
      "inputs": [],
      "name": "AAVE_POOL_ARBITRUM",
      "outputs": [
        {
          "internalType": "address",
          "name": "",
          "type": "address"
        }
      ],
      "stateMutability": "view",
      "type": "function"
    },
    {
      "inputs": [],
      "name": "AAVE_POOL_OPTIMISM",
      "outputs": [
        {
          "internalType": "address",
          "name": "",
          "type": "address"
        }
      ],
      "stateMutability": "view",
      "type": "function"
    },
    {
      "inputs": [],
      "name": "MAX_SLIPPAGE",
      "outputs": [
        {
          "internalType": "uint256",
          "name": "",
          "type": "uint256"
        }
      ],
      "stateMutability": "view",
      "type": "function"
    },
    {
      "inputs": [],
      "name": "MIN_PROFIT_BPS",
      "outputs": [
        {
          "internalType": "uint256",
          "name": "",
          "type": "uint256"
        }
      ],
      "stateMutability": "view",
      "type": "function"
    },
    {
      "inputs": [],
      "name": "SUSHI_ROUTER_NEW",
      "outputs": [
        {
          "internalType": "address",
          "name": "",
          "type": "address"
        }
      ],
      "stateMutability": "view",
      "type": "function"
    },
    {
      "inputs": [],
      "name": "SUSHI_ROUTER_OPT",
      "outputs": [
        {
          "internalType": "address",
          "name": "",
          "type": "address"
        }
      ],
      "stateMutability": "view",
      "type": "function"
    },
    {
      "inputs": [],
      "name": "UNI_V2_ROUTER_NEW",
      "outputs": [
        {
          "internalType": "address",
          "name": "",
          "type": "address"
        }
      ],
      "stateMutability": "view",
      "type": "function"
    },
    {
      "inputs": [],
      "name": "UNI_V2_ROUTER_OPT",
      "outputs": [
        {
          "internalType": "address",
          "name": "",
          "type": "address"
        }
      ],
      "stateMutability": "view",
      "type": "function"
    },
    {
      "inputs": [],
      "name": "USDC",
      "outputs": [
        {
          "internalType": "address",
          "name": "",
          "type": "address"
        }
      ],
      "stateMutability": "view",
      "type": "function"
    },
    {
      "inputs": [],
      "name": "USDT",
      "outputs": [
        {
          "internalType": "address",
          "name": "",
          "type": "address"
        }
      ],
      "stateMutability": "view",
      "type": "function"
    },
    {
      "inputs": [],
      "name": "WBTC",
      "outputs": [
        {
          "internalType": "address",
          "name": "",
          "type": "address"
        }
      ],
      "stateMutability": "view",
      "type": "function"
    },
    {
      "inputs": [],
      "name": "WETH",
      "outputs": [
        {
          "internalType": "address",
          "name": "",
          "type": "address"
        }
      ],
      "stateMutability": "view",
      "type": "function"
    },
    {
      "inputs": [],
      "name": "aavePool",
      "outputs": [
        {
          "internalType": "contract IPool",
          "name": "",
          "type": "address"
        }
      ],
      "stateMutability": "view",
      "type": "function"
    },
    {
      "inputs": [
        {
          "internalType": "address",
          "name": "",
          "type": "address"
        }
      ],
      "name": "authorizedCallers",
      "outputs": [
        {
          "internalType": "bool",
          "name": "",
          "type": "bool"
        }
      ],
      "stateMutability": "view",
      "type": "function"
    },
    {
      "inputs": [],
      "name": "currentChainId",
      "outputs": [
        {
          "internalType": "uint256",
          "name": "",
          "type": "uint256"
        }
      ],
      "stateMutability": "view",
      "type": "function"
    },
    {
      "inputs": [
        {
          "internalType": "address",
          "name": "token",
          "type": "address"
        }
      ],
      "name": "emergencyWithdraw",
      "outputs": [],
      "stateMutability": "nonpayable",
      "type": "function"
    },
    {
      "inputs": [
        {
          "internalType": "address",
          "name": "asset",
          "type": "address"
        },
        {
          "internalType": "uint256",
          "name": "amount",
          "type": "uint256"
        },
        {
          "internalType": "address[]",
          "name": "path",
          "type": "address[]"
        },
        {
          "internalType": "bool",
          "name": "sushiFirst",
          "type": "bool"
        },
        {
          "internalType": "uint256",
          "name": "expectedProfit",
          "type": "uint256"
        }
      ],
      "name": "executeArb",
      "outputs": [],
      "stateMutability": "nonpayable",
      "type": "function"
    },
    {
      "inputs": [
        {
          "components": [
            {
              "components": [
                {
                  "internalType": "address",
                  "name": "asset",
                  "type": "address"
                },
                {
                  "internalType": "uint96",
                  "name": "amount",
                  "type": "uint96"
                },
                {
                  "internalType": "address",
                  "name": "tokenA",
                  "type": "address"
                },
                {
                  "internalType": "address",
                  "name": "tokenB",
                  "type": "address"
                },
                {
                  "internalType": "bool",
                  "name": "sushiFirst",
                  "type": "bool"
                },
                {
                  "internalType": "uint32",
                  "name": "slippageBps",
                  "type": "uint32"
                },
                {
                  "internalType": "uint32",
                  "name": "minProfitBps",
                  "type": "uint32"
                }
              ],
              "internalType": "struct FlashArbBotBalancer.ArbitrageParams[]",
              "name": "trades",
              "type": "tuple[]"
            },
            {
              "internalType": "uint256",
              "name": "deadline",
              "type": "uint256"
            }
          ],
          "internalType": "struct FlashArbBotBalancer.BatchArbitrageParams",
          "name": "params",
          "type": "tuple"
        }
      ],
      "name": "executeBatchArbitrage",
      "outputs": [],
      "stateMutability": "nonpayable",
      "type": "function"
    },
    {
      "inputs": [
        {
          "internalType": "address",
          "name": "asset",
          "type": "address"
        },
        {
          "internalType": "uint256",
          "name": "amount",
          "type": "uint256"
        },
        {
          "internalType": "uint256",
          "name": "premium",
          "type": "uint256"
        },
        {
          "internalType": "address",
          "name": "initiator",
          "type": "address"
        },
        {
          "internalType": "bytes",
          "name": "params",
          "type": "bytes"
        }
      ],
      "name": "executeOperation",
      "outputs": [
        {
          "internalType": "bool",
          "name": "",
          "type": "bool"
        }
      ],
      "stateMutability": "nonpayable",
      "type": "function"
    },
    {
      "inputs": [
        {
          "internalType": "address",
          "name": "asset",
          "type": "address"
        },
        {
          "internalType": "uint256",
          "name": "amount",
          "type": "uint256"
        },
        {
          "internalType": "address[]",
          "name": "path",
          "type": "address[]"
        },
        {
          "internalType": "uint256",
          "name": "expectedProfit",
          "type": "uint256"
        }
      ],
      "name": "executeTriangularArb",
      "outputs": [],
      "stateMutability": "nonpayable",
      "type": "function"
    },
    {
      "inputs": [
        {
          "internalType": "address",
          "name": "asset",
          "type": "address"
        },
        {
          "internalType": "uint256",
          "name": "amount",
          "type": "uint256"
        }
      ],
      "name": "getOptimalProvider",
      "outputs": [
        {
          "internalType": "enum FlashArbBotBalancer.FlashLoanProvider",
          "name": "provider",
          "type": "uint8"
        },
        {
          "internalType": "uint256",
          "name": "fee",
          "type": "uint256"
        }
      ],
      "stateMutability": "view",
      "type": "function"
    },
    {
      "inputs": [],
      "name": "isArbitrum",
      "outputs": [
        {
          "internalType": "bool",
          "name": "",
          "type": "bool"
        }
      ],
      "stateMutability": "view",
      "type": "function"
    },
    {
      "inputs": [],
      "name": "isOptimism",
      "outputs": [
        {
          "internalType": "bool",
          "name": "",
          "type": "bool"
        }
      ],
      "stateMutability": "view",
      "type": "function"
    },
    {
      "inputs": [],
      "name": "minProfitBps",
      "outputs": [
        {
          "internalType": "uint256",
          "name": "",
          "type": "uint256"
        }
      ],
      "stateMutability": "view",
      "type": "function"
    },
    {
      "inputs": [],
      "name": "owner",
      "outputs": [
        {
          "internalType": "address",
          "name": "",
          "type": "address"
        }
      ],
      "stateMutability": "view",
      "type": "function"
    },
    {
      "inputs": [],
      "name": "pause",
      "outputs": [],
      "stateMutability": "nonpayable",
      "type": "function"
    },
    {
      "inputs": [],
      "name": "paused",
      "outputs": [
        {
          "internalType": "bool",
          "name": "",
          "type": "bool"
        }
      ],
      "stateMutability": "view",
      "type": "function"
    },
    {
      "inputs": [
        {
          "internalType": "address",
          "name": "",
          "type": "address"
        }
      ],
      "name": "priceFeeds",
      "outputs": [
        {
          "internalType": "address",
          "name": "",
          "type": "address"
        }
      ],
      "stateMutability": "view",
      "type": "function"
    },
    {
      "inputs": [
        {
          "internalType": "address[]",
          "name": "tokens",
          "type": "address[]"
        },
        {
          "internalType": "uint256[]",
          "name": "amounts",
          "type": "uint256[]"
        },
        {
          "internalType": "uint256[]",
          "name": "feeAmounts",
          "type": "uint256[]"
        },
        {
          "internalType": "bytes",
          "name": "userData",
          "type": "bytes"
        }
      ],
      "name": "receiveFlashLoan",
      "outputs": [],
      "stateMutability": "nonpayable",
      "type": "function"
    },
    {
      "inputs": [],
      "name": "renounceOwnership",
      "outputs": [],
      "stateMutability": "nonpayable",
      "type": "function"
    },
    {
      "inputs": [
        {
          "internalType": "address",
          "name": "caller",
          "type": "address"
        },
        {
          "internalType": "bool",
          "name": "authorized",
          "type": "bool"
        }
      ],
      "name": "setAuthorizedCaller",
      "outputs": [],
      "stateMutability": "nonpayable",
      "type": "function"
    },
    {
      "inputs": [
        {
          "internalType": "uint256",
          "name": "_minProfit",
          "type": "uint256"
        }
      ],
      "name": "setMinProfitBps",
      "outputs": [],
      "stateMutability": "nonpayable",
      "type": "function"
    },
    {
      "inputs": [
        {
          "internalType": "address",
          "name": "token",
          "type": "address"
        },
        {
          "internalType": "address",
          "name": "feed",
          "type": "address"
        }
      ],
      "name": "setPriceFeed",
      "outputs": [],
      "stateMutability": "nonpayable",
      "type": "function"
    },
    {
      "inputs": [
        {
          "internalType": "uint256",
          "name": "_slippage",
          "type": "uint256"
        }
      ],
      "name": "setSlippageTolerance",
      "outputs": [],
      "stateMutability": "nonpayable",
      "type": "function"
    },
    {
      "inputs": [
        {
          "internalType": "address",
          "name": "asset",
          "type": "address"
        },
        {
          "internalType": "uint256",
          "name": "amount",
          "type": "uint256"
        },
        {
          "internalType": "address[]",
          "name": "path",
          "type": "address[]"
        },
        {
          "internalType": "bool",
          "name": "sushiFirst",
          "type": "bool"
        }
      ],
      "name": "simulateArbitrage",
      "outputs": [
        {
          "internalType": "uint256",
          "name": "profit",
          "type": "uint256"
        }
      ],
      "stateMutability": "view",
      "type": "function"
    },
    {
      "inputs": [
        {
          "internalType": "address",
          "name": "asset",
          "type": "address"
        },
        {
          "internalType": "uint256",
          "name": "amount",
          "type": "uint256"
        },
        {
          "internalType": "address[]",
          "name": "path",
          "type": "address[]"
        }
      ],
      "name": "simulateTriangularArbitrage",
      "outputs": [
        {
          "internalType": "uint256",
          "name": "profit",
          "type": "uint256"
        }
      ],
      "stateMutability": "view",
      "type": "function"
    },
    {
      "inputs": [],
      "name": "slippageTolerance",
      "outputs": [
        {
          "internalType": "uint256",
          "name": "",
          "type": "uint256"
        }
      ],
      "stateMutability": "view",
      "type": "function"
    },
    {
      "inputs": [],
      "name": "sushiRouter",
      "outputs": [
        {
          "internalType": "contract IUniswapV2Router02",
          "name": "",
          "type": "address"
        }
      ],
      "stateMutability": "view",
      "type": "function"
    },
    {
      "inputs": [],
      "name": "sushiRouterNew",
      "outputs": [
        {
          "internalType": "contract IUniswapV2Router02",
          "name": "",
          "type": "address"
        }
      ],
      "stateMutability": "view",
      "type": "function"
    },
    {
      "inputs": [
        {
          "internalType": "address",
          "name": "newOwner",
          "type": "address"
        }
      ],
      "name": "transferOwnership",
      "outputs": [],
      "stateMutability": "nonpayable",
      "type": "function"
    },
    {
      "inputs": [],
      "name": "uniRouter",
      "outputs": [
        {
          "internalType": "contract IUniswapV2Router02",
          "name": "",
          "type": "address"
        }
      ],
      "stateMutability": "view",
      "type": "function"
    },
    {
      "inputs": [],
      "name": "uniV2RouterNew",
      "outputs": [
        {
          "internalType": "contract IUniswapV2Router02",
          "name": "",
          "type": "address"
        }
      ],
      "stateMutability": "view",
      "type": "function"
    },
    {
      "inputs": [],
      "name": "uniV3Quoter",
      "outputs": [
        {
          "internalType": "contract IUniswapV3Quoter",
          "name": "",
          "type": "address"
        }
      ],
      "stateMutability": "view",
      "type": "function"
    },
    {
      "inputs": [],
      "name": "unpause",
      "outputs": [],
      "stateMutability": "nonpayable",
      "type": "function"
    },
    {
      "inputs": [],
      "name": "vault",
      "outputs": [
        {
          "internalType": "contract IBalancerVault",
          "name": "",
          "type": "address"
        }
      ],
      "stateMutability": "view",
      "type": "function"
    },
    {
      "inputs": [
        {
          "internalType": "address",
          "name": "token",
          "type": "address"
        }
      ],
      "name": "withdraw",
      "outputs": [],
      "stateMutability": "nonpayable",
      "type": "function"
    }
  ],
  "bytecode": "0x6080346200021f57601f62003d7538819003918201601f19168301916001600160401b0383118484101762000224578084926080946040528339810103126200021f576200004d816200023a565b6200005b602083016200023a565b6200007760606200006f604086016200023a565b94016200023a565b600080546001600160a01b03198082163390811784556040519791956001600160a01b0395948694859391908416907f8be0079c531659141344cd1fd0a4f28419497f9722a3daafe3b4186f6b6457e09080a36001805560025460c8600b55601e600c55600898610100600160a81b03908a1b169060018060a81b0319161760025516856004541617600455168360055416176005551681600654161760065546600955600a5460ff80600a461416809261ff0061a4b14614871b169061ffff1916171780600a55841c16600014620001b1575073794a61358d6845594f94dc1db02a252b5b4814ad91734752ba5dbc23f44d87826276bf6fd6b1c372ad2482600754161760075573f2614a233c7c3e7f08b1f887ba133a13f1eb2c558282541617905560035416176003555b613b259081620002508239f35b620001bf575b5050620001a4565b73794a61358d6845594f94dc1db02a252b5b4814ad91734a7b5da61326a6379179b40d00f57e5bbdc962c2826007541617600755732abf469074dc0b54d793850807e6eb5faf2625b18282541617905560035416176003553880620001b7565b600080fd5b634e487b7160e01b600052604160045260246000fd5b51906001600160a01b03821682036200021f5756fe608080604052600436101561001357600080fd5b60e060003560e01c9182624670f11461256157508163117da1ee146124f357816315482ab2146124c457816318d0b3ce146124955781631b11d0ff146120fd578163277dd7e014611d6157816329f2c8f014611d3b578163383aeeae14611d1d5781633b9debf614611cf65781633c98898214611cc75781633cd3d2ec14610b8b5781633f4ba83a14611c2b578163454bbd2914611bd35781634dede3de14611ba4578163507a229114611b8857816351cff8d914611a29578163536fff6c146119ea5781635c975abb146119c75781636cbadbfa146119a95781636d13582c146119825781636ff1c9bc1461188f578163715018a61461182957816376e11286146117c1578163795674ff1461179a5781638456cb591461174057816389a30271146117115781638da5cb5b146116ea5781639dcb511a146116af578163a03e4bc314611688578163a0e47bf614611661578163a6fed78e1461160c578163ad5c4648146115dd578163c01f25241461134d578163c54e44eb1461131e578163c69aec5614610fe5578163d03153aa14610fc7578163d138b28e14610bda57508063ea04665914610bb3578063ec961a0514610b90578063ed6f1f4c14610b8b578063ee9ed9d714610794578063f04f2707146103b7578063f2fde38b146102d2578063f9759518146102b5578063fbfa77cf1461028b5763fcff2c281461021b57600080fd5b3461028657602036600319011261028657600435610237612c1d565b801561024257600c55005b606460405162461bcd60e51b815260206004820152601b60248201527f4d696e2070726f666974206d75737420626520706f73697469766500000000006044820152fd5b600080fd5b346102865760003660031901126102865760206001600160a01b0360025460081c16604051908152f35b346102865760003660031901126102865760206040516101f48152f35b34610286576020366003190112610286576102eb61258e565b6102f3612c1d565b6001600160a01b0380911690811561034d576000548273ffffffffffffffffffffffffffffffffffffffff19821617600055167f8be0079c531659141344cd1fd0a4f28419497f9722a3daafe3b4186f6b6457e0600080a3005b608460405162461bcd60e51b815260206004820152602660248201527f4f776e61626c653a206e6577206f776e657220697320746865207a65726f206160448201527f64647265737300000000000000000000000000000000000000000000000000006064820152fd5b346102865760803660031901126102865767ffffffffffffffff600435818111610286576103e99036906004016125e6565b9190602435828111610286576104039036906004016125e6565b90916044358481116102865761041d9036906004016125e6565b9094606435908111610286576104379036906004016125b8565b906001600160a01b0360025460081c1633036107505761045991810190612754565b93929791949098156106c95761046e90612962565b94156106c95761048561048088612c8c565b6127b0565b6040516370a0823160e01b81523060048201526020816024816001600160a01b038a165afa80156106a757610725575b508215610713576104c8878735876132a4565b604051916370a0823160e01b83523060048401526020836024816001600160a01b038a165afa9283156106a7576000936106df575b50156106c957610512610525913587356127fb565b826105208280951015612808565b612853565b96610542612710610539600c5489356128ab565b04891015612860565b605f810290808204605f14901517156106b3576105a29161056a6064602093048a10156128be565b60025460405163095ea7b360e01b815260089190911c6001600160a01b03166004820152602481019190915291829081906044820190565b038160006001600160a01b0389165af180156106a757610678575b501561062a5750507f511dc6c70263758503ff9aee3e77f3e7bef3cabee21a4eb0b017e7cf0438f2f260406001600160a01b036105f985612921565b5116926001600160a01b03610619816106118861292e565b51169661293e565b5116958251913582526020820152a4005b604080519335845260208401959095521515938201939093526001600160a01b03909216917f05625c164577e109e0c8964ab47768b235a36d08f5146dfa9858a382fa5c5efd9150606090a2005b6106999060203d6020116106a0575b61069181836126c4565b810190612909565b50866105bd565b503d610687565b6040513d6000823e3d90fd5b634e487b7160e01b600052601160045260246000fd5b634e487b7160e01b600052603260045260246000fd5b9092506020813d60201161070b575b816106fb602093836126c4565b81010312610286575191896104fd565b3d91506106ee565b6107208488883588612e69565b6104c8565b602090813d8311610749575b61073b81836126c4565b8101031261028657886104b5565b503d610731565b606460405162461bcd60e51b815260206004820152601360248201527f4f6e6c792042616c616e636572207661756c74000000000000000000000000006044820152fd5b3461028657600319608036820112610286576107ae61258e565b90602491823560443567ffffffffffffffff8111610286576107d49036906004016125e6565b9390926064359233600052602094600e865260ff604060002054168015610b72575b6107ff90612af5565b6108076138da565b61080f61392a565b60048703610b09578615610af45761082681612962565b968060031015610adf576108536001600160a01b0398898061084a60608701612962565b16911614612976565b61085e831515612b40565b610869861515612b8b565b6108738385613683565b6002811015610aca576109eb579061088c9136916126fe565b946040519661089a886126a8565b7ff5ea93fa71a16e89b26b22976590659f91d44ae3f503be2afcd292796d305218606060019560018b528436818d0137836108d48c612921565b9116809152604051956108e6876126a8565b600187526109208688019b878d369037826109008a612921565b526109126040519c8d928a84016139a9565b03601f1981018c528b6126c4565b6040519160008352868301526040820152a160025460081c1696873b1561028657918161097260809a9897969593946040519b8c9a632e1c224f60e11b8c523060048d01528b015260848a0190612a61565b91858984030160448a0152519182815201959260005b8281106109d5575050505050836109af8482946000989694848a96030160648501526139d4565b03925af180156106a7576109c6575b505b60018055005b6109cf90612662565b806109be565b845188528a985096810196938101938301610988565b606092969598979450610a257ff5ea93fa71a16e89b26b22976590659f91d44ae3f503be2afcd292796d3052189492610a449236916126fe565b610a366040519a8b928984016139a9565b03601f1981018a52896126c4565b836040519160018352168095820152856040820152a16003541690813b156102865760008094610aa0604051978896879586946310ac2ddf60e21b8652306004870152850152604484015260a0606484015260a48301906139d4565b82608483015203925af180156106a757610abb575b506109c0565b610ac490612662565b80610ab5565b89634e487b7160e01b60005260216004526000fd5b88634e487b7160e01b60005260326004526000fd5b87634e487b7160e01b60005260326004526000fd5b608486602f8a6040519262461bcd60e51b845260048401528201527f547269616e67756c61722070617468206d7573742068617665203420746f6b6560448201527f6e732028412d3e422d3e432d3e412900000000000000000000000000000000006064820152fd5b506107ff6001600160a01b0360005416331490506107f6565b612617565b3461028657600036600319011261028657602060ff600a54166040519015158152f35b346102865760003660031901126102865760206001600160a01b0360085416604051908152f35b3461028657600319602036820181136102865767ffffffffffffffff906004358281116102865760408160040194823603011261028657610c1961392a565b610c216138da565b33600052600e825260ff604060002054168015610fae575b610c4290612af5565b6024809101354211610f6b57610c588480612bd6565b905015610f2857600a610c6b8580612bd6565b905011610ee557600092835b610c818680612bd6565b9050851015610e5857610c948680612bd6565b861015610e43578786020187813603126102865760405188810181811085821117610e2e57604052610cc5826125a4565b91828252868101356bffffffffffffffffffffffff811681036102865787830152610cf2604082016125a4565b60408301526060610d048183016125a4565b908301526080610d15818301612655565b9083015260a0610d26818301612c0c565b90830152610d3760c0809201612c0c565b908201526001600160a01b036040519087828881846370a0823160e01b98898352306004840152165afa9283156106a7578892600094610dfd575b50511692866040518095819382523060048301525afa9182156106a757600092610dcb575b5091610db991600193808211600014610dc157610db391612853565b906127fb565b940193610c77565b50506000906127fb565b9150918582813d8311610df6575b610de381836126c4565b8101031261028657905190916001610d97565b503d610dd9565b8381949295503d8311610e27575b610e1581836126c4565b8101031261028657879151928c610d72565b503d610e0b565b85634e487b7160e01b60005260416004526000fd5b83634e487b7160e01b60005260326004526000fd5b8386848315610ea2577fcccf891412a70ad9fb0665c9d1959b16f1232c4dfd1a529b5528b3e1e7e5935760408486610e908680612bd6565b9290508351928352820152a160018055005b8260146064926040519262461bcd60e51b845260048401528201527f4261746368206e6f742070726f66697461626c650000000000000000000000006044820152fd5b90600f6064926040519262461bcd60e51b845260048401528201527f546f6f206d616e792074726164657300000000000000000000000000000000006044820152fd5b9060126064926040519262461bcd60e51b845260048401528201527f4e6f207472616465732070726f766964656400000000000000000000000000006044820152fd5b9060136064926040519262461bcd60e51b845260048401528201527f5472616e73616374696f6e2065787069726564000000000000000000000000006044820152fd5b50610c426001600160a01b036000541633149050610c39565b34610286576000366003190112610286576020600b54604051908152f35b346102865760031960a03682011261028657610fff61258e565b6024359060443567ffffffffffffffff8111610286576110239036906004016125e6565b91909361102e612646565b936084359433600052602094600e865260ff604060002054168015611305575b61105790612af5565b61105f6138da565b61106761392a565b600281106112c15761107a831515612b40565b611085871515612b8b565b61108f8386613683565b60028110156112ab576111ed578596976110aa9136916126fe565b937ff5ea93fa71a16e89b26b22976590659f91d44ae3f503be2afcd292796d3052186060604051998a956110dd876126a8565b6111478a6111396110f960019a60018152833681830137612921565b946001600160a01b03809916809652604051996111158b6126a8565b60018b52838b019e8f3690378561112b8c612921565b526040519d8e94850161397f565b03601f1981018b528a6126c4565b60405191600083528b8301526040820152a160025460081c1695863b1561028657909161119a979594939282604051998a98632e1c224f60e11b8a523060048b0152608060248b015260848a0190612a61565b91858984030160448a0152519182815201959260005b8281106111d7575050505050836109af8482946000989694848a96030160648501526139d4565b845188528a9850968101969381019383016111b0565b611222935061121491959692976112059136916126fe565b9160405195869388850161397f565b03601f1981018452836126c4565b7ff5ea93fa71a16e89b26b22976590659f91d44ae3f503be2afcd292796d3052186060604051600181526001600160a01b038094168096820152866040820152a160035416803b1561028657610aa09360008094604051968795869485936310ac2ddf60e21b85523060048601526024850152604484015260a0606484015260a48301906139d4565b634e487b7160e01b600052602160045260246000fd5b6064866040519062461bcd60e51b82526004820152600c60248201527f496e76616c6964207061746800000000000000000000000000000000000000006044820152fd5b506110576001600160a01b03600054163314905061104e565b3461028657600036600319011261028657602060405173fd086bc7cd5c481dcc9c85ebe478a1c0b69fcbb98152f35b346102865760803660031901126102865761136661258e565b506024803560443567ffffffffffffffff81116102865761138b9036906004016125e6565b9082611395612646565b61139e81613822565b936113a98215613822565b9115611522576001600160a01b03600060405180978184816113db888c63d06ca61f60e01b9c8d855260048501612a9e565b0392165afa9586156106a757600096611505575b5085516000198101969087116114f05761141e600096611415611445996114239461294e565b519436916126fe565b613840565b93604051968795869485938452600484015260408b8401526044830190612a61565b0392165afa9081156106a7576000916114cd575b505b80516000198101919082116114b857906114749161294e565b51818111156114ad5761148a8261149092612853565b9161371d565b90818111156114ad576020916114a591612853565b604051908152f35b5050602060006114a5565b83634e487b7160e01b60005260116004526000fd5b6114ea91503d806000833e6114e281836126c4565b8101906129e7565b83611459565b88634e487b7160e01b60005260116004526000fd5b61151b9196503d806000833e6114e281836126c4565b94886113ef565b6001600160a01b0394919460006040518097818481611551888c63d06ca61f60e01b9c8d855260048501612a9e565b0392165afa9586156106a7576000966115c0575b5085516000198101969087116114f05761141e60009661141561158b996114239461294e565b0392165afa9081156106a7576000916115a5575b5061145b565b6115ba91503d806000833e6114e281836126c4565b8361159f565b6115d69196503d806000833e6114e281836126c4565b9488611565565b346102865760003660031901126102865760206040517382af49447d8a07e3bd95bd0d56f35241523fbab18152f35b346102865760403660031901126102865761162561258e565b6116326024358092613683565b60028110156112ab5760409181611653575060005b82519182526020820152f35b61165c9061371d565b611647565b346102865760003660031901126102865760206001600160a01b0360055416604051908152f35b346102865760003660031901126102865760206001600160a01b0360035416604051908152f35b346102865760203660031901126102865760206001600160a01b03806116d361258e565b16600052600d825260406000205416604051908152f35b346102865760003660031901126102865760206001600160a01b0360005416604051908152f35b3461028657600036600319011261028657602060405173ff970a61a04b1ca14834a43f5de4533ebddb5cc88152f35b3461028657600036600319011261028657611759612c1d565b6117616138da565b600160ff1960025416176002557f62e78cea01bee320cd4e420270b5ea74000d11b0c9f74754ebdbfc544b05a2586020604051338152a1005b346102865760003660031901126102865760206001600160a01b0360065416604051908152f35b34610286576040366003190112610286576117da61258e565b602435906001600160a01b0390818316809303610286576117f9612c1d565b16600052600d60205260406000209073ffffffffffffffffffffffffffffffffffffffff19825416179055600080f35b3461028657600036600319011261028657611842612c1d565b60006001600160a01b03815473ffffffffffffffffffffffffffffffffffffffff1981168355167f8be0079c531659141344cd1fd0a4f28419497f9722a3daafe3b4186f6b6457e08280a3005b3461028657602080600319360112610286576118a961258e565b6118b1612c1d565b6001600160a01b03809116906040516370a0823160e01b81523060048201528381602481865afa9081156106a757600091611955575b50806118ef57005b61192d92849260005416600060405180968195829463a9059cbb60e01b845260048401602090939291936001600160a01b0360408201951681520152565b03925af180156106a75761193d57005b8161195392903d106106a05761069181836126c4565b005b90508381813d831161197b575b61196c81836126c4565b810103126102865751846118e7565b503d611962565b346102865760003660031901126102865760206001600160a01b0360045416604051908152f35b34610286576000366003190112610286576020600954604051908152f35b3461028657600036600319011261028657602060ff600254166040519015158152f35b34610286576020366003190112610286576001600160a01b03611a0b61258e565b16600052600e602052602060ff604060002054166040519015158152f35b346102865760208060031936011261028657611a4361258e565b90611a4c612c1d565b6040516370a0823160e01b81523060048201526001600160a01b03928316928282602481875afa9182156106a757600092611b59575b508115611b155760005460405163a9059cbb60e01b815291166001600160a01b031660048201526024810182905291908183806044810103816000885af19283156106a7577f016e128b6bdadd9e9068abd0b18db2fc8b27ed3dbced50e4aa6cc0a6934251ab93611af8575b50604051908152a2005b611b0e90833d85116106a05761069181836126c4565b5084611aee565b6064836040519062461bcd60e51b82526004820152601660248201527f4e6f2062616c616e636520746f207769746864726177000000000000000000006044820152fd5b9091508281813d8311611b81575b611b7181836126c4565b8101031261028657519084611a82565b503d611b67565b3461028657600036600319011261028657602060405160328152f35b34610286576000366003190112610286576020604051732f2a2543b76a4166549f7aab2e75bef0aefc5b0f8152f35b3461028657604036600319011261028657611bec61258e565b60243590811515809203610286576001600160a01b0390611c0b612c1d565b16600052600e60205260406000209060ff80198354169116179055600080f35b3461028657600036600319011261028657611c44612c1d565b60025460ff811615611c835760ff19166002557f5db9ee0a495bf2e6ff9c91a7834c1ba4fdd244a5e8aa4e537bd38aeae4b073aa6020604051338152a1005b606460405162461bcd60e51b815260206004820152601460248201527f5061757361626c653a206e6f74207061757365640000000000000000000000006044820152fd5b34610286576000366003190112610286576020604051734a7b5da61326a6379179b40d00f57e5bbdc962c28152f35b346102865760003660031901126102865760206001600160a01b0360075416604051908152f35b34610286576000366003190112610286576020600c54604051908152f35b3461028657600036600319011261028657602060ff600a5460081c166040519015158152f35b3461028657606036600319011261028657611d7a61258e565b506024803560443567ffffffffffffffff811161028657611d9f9036906004016125e6565b9060048203612093578115610e4357611db781612962565b90826003101561207e57611ddb6001600160a01b0392838061084a60608601612962565b60405192611de88461268c565b600284526040366020860137611dfd82612962565b83611e0786612921565b911690528060011015612069576020820191611e2283612962565b84611e2c8761292e565b9116905283600754169086600060408a611e6482519a8b93849363d06ca61f60e01b9788865260048601528401526044830190612a61565b0381865afa9687156106a75760009761204c575b508651600019979088810190811161203757611e939161294e565b5193611eb660405196611ea58861268c565b6002885260403660208a0137612962565b87611ec088612921565b9116905260021015610adf576000604080840195611edd87612962565b89611ee78a61292e565b911690528b896008541691611f1384519a8b95869485948a865260048601528401526044830190612a61565b03915afa9485156106a75760009561201a575b5084519587870196871161200557611f7c611f46611fab9860009861294e565b5193611f6960405197611f588961268c565b6002895260403660208b0137612962565b83611f7389612921565b91169052612962565b90611f868661292e565b91169052604051958694859384938452600484015260408b8401526044830190612a61565b03915afa9081156106a757600091611fea575b5080519182019182116114b85790611fd59161294e565b51818111156114ad576020916114a591612853565b611fff91503d806000833e6114e281836126c4565b84611fbe565b89634e487b7160e01b60005260116004526000fd5b6120309195503d806000833e6114e281836126c4565b9389611f26565b8a634e487b7160e01b60005260116004526000fd5b6120629197503d806000833e6114e281836126c4565b9589611e78565b85634e487b7160e01b60005260326004526000fd5b84634e487b7160e01b60005260326004526000fd5b60848460226040519162461bcd60e51b8352602060048401528201527f547269616e67756c61722070617468206d7573742068617665203420746f6b6560448201527f6e730000000000000000000000000000000000000000000000000000000000006064820152fd5b346102865760a03660031901126102865761211661258e565b6024906064356001600160a01b0381168091036102865760843567ffffffffffffffff81116102865761214d9036906004016125b8565b90916001600160a01b0360035416330361245157300361240d579061217491810190612754565b612185610480859694939795612c8c565b6040516370a0823160e01b815230600482015260208186816001600160a01b0388165afa80156106a7576123e2575b5080156123d0576121c7858535856132a4565b6040516370a0823160e01b815230600482015260208186816001600160a01b0388165afa9081156106a75760009161239e575b5061220b61051260443587356127fb565b9661223361222b604435612710612225600c548b356128ab565b046127fb565b891015612860565b605a810290808204605a14901517156123895761228f9161225b6064602093048a10156128be565b60035460405163095ea7b360e01b81526001600160a01b039091166004820152602481019190915291829081906044820190565b038160006001600160a01b0389165af180156106a75761236a575b50156123195750507f511dc6c70263758503ff9aee3e77f3e7bef3cabee21a4eb0b017e7cf0438f2f260406001600160a01b036122e685612921565b5116926001600160a01b036122fe816106118861292e565b5116958251913582526020820152a45b602060405160018152f35b604080519335845260208401959095521515938201939093526001600160a01b03909216917f05625c164577e109e0c8964ab47768b235a36d08f5146dfa9858a382fa5c5efd9150606090a261230e565b6123829060203d6020116106a05761069181836126c4565b50866122aa565b85634e487b7160e01b60005260116004526000fd5b90506020813d6020116123c8575b816123b9602093836126c4565b810103126102865751876121fa565b3d91506123ac565b6123dd8286863586612e69565b6121c7565b602090813d8311612406575b6123f881836126c4565b8101031261028657866121b4565b503d6123ee565b60648460116040519162461bcd60e51b8352602060048401528201527f496e76616c696420696e69746961746f720000000000000000000000000000006044820152fd5b606485600e6040519162461bcd60e51b8352602060048401528201527f4f6e6c79204161766520706f6f6c0000000000000000000000000000000000006044820152fd5b34610286576000366003190112610286576020604051734752ba5dbc23f44d87826276bf6fd6b1c372ad248152f35b34610286576000366003190112610286576020604051732abf469074dc0b54d793850807e6eb5faf2625b18152f35b346102865760203660031901126102865760043561250f612c1d565b6101f4811161251d57600b55005b606460405162461bcd60e51b815260206004820152601160248201527f536c69707061676520746f6f20686967680000000000000000000000000000006044820152fd5b34610286576000366003190112610286578073f2614a233c7c3e7f08b1f887ba133a13f1eb2c5560209252f35b600435906001600160a01b038216820361028657565b35906001600160a01b038216820361028657565b9181601f840112156102865782359167ffffffffffffffff8311610286576020838186019501011161028657565b9181601f840112156102865782359167ffffffffffffffff8311610286576020808501948460051b01011161028657565b3461028657600036600319011261028657602060405173794a61358d6845594f94dc1db02a252b5b4814ad8152f35b60643590811515820361028657565b3590811515820361028657565b67ffffffffffffffff811161267657604052565b634e487b7160e01b600052604160045260246000fd5b6060810190811067ffffffffffffffff82111761267657604052565b6040810190811067ffffffffffffffff82111761267657604052565b90601f8019910116810190811067ffffffffffffffff82111761267657604052565b67ffffffffffffffff81116126765760051b60200190565b9291612709826126e6565b9161271760405193846126c4565b829481845260208094019160051b810192831161028657905b82821061273d5750505050565b838091612749846125a4565b815201910190612730565b919060808382031261028657823567ffffffffffffffff81116102865783019080601f830112156102865781602061278e933591016126fe565b9161279b60208201612655565b916127ad606060408401359301612655565b90565b156127b757565b606460405162461bcd60e51b815260206004820152601260248201527f496e76616c6964207072696365206665656400000000000000000000000000006044820152fd5b919082018092116106b357565b1561280f57565b606460405162461bcd60e51b815260206004820152600c60248201527f556e70726f66697461626c6500000000000000000000000000000000000000006044820152fd5b919082039182116106b357565b1561286757565b606460405162461bcd60e51b815260206004820152600e60248201527f50726f66697420746f6f206c6f770000000000000000000000000000000000006044820152fd5b818102929181159184041417156106b357565b156128c557565b606460405162461bcd60e51b815260206004820152601960248201527f50726f66697420646576696174696f6e20746f6f2068696768000000000000006044820152fd5b90816020910312610286575180151581036102865790565b8051156106c95760200190565b8051600110156106c95760400190565b8051600210156106c95760600190565b80518210156106c95760209160051b010190565b356001600160a01b03811681036102865790565b1561297d57565b608460405162461bcd60e51b815260206004820152602760248201527f50617468206d75737420737461727420616e6420656e6420776974682073616d60448201527f6520746f6b656e000000000000000000000000000000000000000000000000006064820152fd5b60209081818403126102865780519067ffffffffffffffff821161028657019180601f84011215610286578251612a1d816126e6565b93612a2b60405195866126c4565b818552838086019260051b820101928311610286578301905b828210612a52575050505090565b81518152908301908301612a44565b90815180825260208080930193019160005b828110612a81575050505090565b83516001600160a01b031685529381019392810192600101612a73565b606090939192936040810193815282602094604060208401525201929160005b828110612acc575050505090565b9091929382806001926001600160a01b03612ae6896125a4565b16815201950193929101612abe565b15612afc57565b606460405162461bcd60e51b815260206004820152600e60248201527f4e6f7420617574686f72697a65640000000000000000000000000000000000006044820152fd5b15612b4757565b606460405162461bcd60e51b815260206004820152601760248201527f416d6f756e74206d75737420626520706f7369746976650000000000000000006044820152fd5b15612b9257565b606460405162461bcd60e51b815260206004820152602060248201527f45787065637465642070726f666974206d75737420626520706f7369746976656044820152fd5b903590601e1981360301821215610286570180359067ffffffffffffffff8211610286576020019160e082023603831361028657565b359063ffffffff8216820361028657565b6001600160a01b03600054163303612c3157565b606460405162461bcd60e51b815260206004820152602060248201527f4f776e61626c653a2063616c6c6572206973206e6f7420746865206f776e65726044820152fd5b519069ffffffffffffffffffff8216820361028657565b60005b8151811015612e2a576001600160a01b0380612cab838561294e565b5116600052600d602081815260409280846000205416612cd2575b50505050600101612c8f565b80612cdd868861294e565b51166000528282528360002054169280518080957ffeaf968c00000000000000000000000000000000000000000000000000000000825260a091829160049889915afa918215612e1f576000918293612dcc575b505060001215612d8c57612d48610e109142612853565b10612cc65760649450519262461bcd60e51b845283015260248201527f507269636520746f6f206f6c64000000000000000000000000000000000000006044820152fd5b5060649450519262461bcd60e51b845283015260248201527f496e76616c6964207072696365000000000000000000000000000000000000006044820152fd5b90809350813d8311612e18575b612de381836126c4565b81010312612e155750612df581612c75565b50600083820151612e0d608060608501519401612c75565b509038612d31565b80fd5b503d612dd9565b83513d6000823e3d90fd5b5050600190565b91608093612e5e916001600160a01b0393989796988552602085015260a0604085015260a0840190612a61565b951660608201520152565b600480546040805163095ea7b360e01b8082526001600160a01b0393841682860152602482018790526000989697929693959093602092909187169083816044818e865af1801561326057613287575b508883898c8989612ef08d6005541694519687958694859485528401602090939291936001600160a01b0360408201951681520152565b0391865af180156132605761326a575b508883898c8989612f378d6007541694519687958694859485528401602090939291936001600160a01b0360408201951681520152565b0391865af18015613260578a9285928b92613243575b50888d89612f818d6008541695519788968795869485528401602090939291936001600160a01b0360408201951681520152565b03925af180156130fe57613226575b501561313557612fa08288613adb565b9285612faa613800565b169761012c420198894211613108578a9182918b8b519485809481938d8c6338ed173960e01b9e8f86523092860194612fe295612e31565b03925af19081156130fe578a9161311b575b50805160001981019190821161310857926130148193928a97969561294e565b51958692888d8b6130248961292e565b51169261305c8d6130336137de565b1695519788968795869485528401602090939291936001600160a01b0360408201951681520152565b03925af180156130fe578a97969594929388946130ad93613083936130e0575b5050613840565b9861308e8a86613a14565b966130976137de565b169589519a8b9889978896875230938701612e31565b03925af19081156130d757506130c1575050565b6130d4913d8091833e6114e281836126c4565b50565b513d84823e3d90fd5b816130f692903d106106a05761069181836126c4565b50388061307c565b88513d8c823e3d90fd5b60248b601189634e487b7160e01b835252fd5b61312f91503d808c833e6114e281836126c4565b38612ff4565b61313f8288613a14565b92856131496137de565b169761012c420198894211613108578a9182918b8b519485809481938d8c6338ed173960e01b9e8f8652309286019461318195612e31565b03925af19081156130fe578a9161320c575b50805160001981019190821161310857926131b38193928a97969561294e565b51958692888d8b6131c38961292e565b5116926131d28d613033613800565b03925af180156130fe578a97969594929388946130ad936131f8936130e0575050613840565b986132038a86613adb565b96613097613800565b61322091503d808c833e6114e281836126c4565b38613193565b61323c90833d85116106a05761069181836126c4565b5038612f90565b61325990843d86116106a05761069181836126c4565b5038612f4d565b89513d8d823e3d90fd5b61328090843d86116106a05761069181836126c4565b5038612f00565b61329d90843d86116106a05761069181836126c4565b5038612eb9565b6007546040805163095ea7b360e01b8082526001600160a01b03938416600480840191909152602483018790526000979693959093919260209186169082816044818d865af180156130fe5761332d9284928692613666575b5088600854168c8b518096819582948c84528d8401602090939291936001600160a01b0360408201951681520152565b03925af1801561365c5761363f575b508551906133498261268c565b600282528636828401378561335d89612921565b511661336883612921565b52856133738961292e565b511661337e8361292e565b526133898284613a14565b9186600754169061012c4201938442116136125784928c92838a936133c58e51978896879586946338ed173960e01b9e8f875230938701612e31565b03925af19081156130fe578a91613625575b50805160001991828201918211613612578b848b8b6133f88f968d9661294e565b519485948c61347c8461344d87519b6134108d61268c565b60028d5288368b8f01378c613430846134288461292e565b511691612921565b528c6134478461343f8461293e565b51169161292e565b5261292e565b5116946008541695519788968795869485528401602090939291936001600160a01b0360408201951681520152565b03925af18015613608578d9283896134be8f948f968f908d926135eb575b506134a58a87613adb565b97600854169651998a9889978896875230938701612e31565b03925af1908115613260578b916135d1575b508051918201918211613108576134e98b92849261294e565b5195888a519b6134f88d61268c565b60028d528b36858f01378c8261350d8361293e565b51169061351990612921565b528c8261352583612921565b5116906135319061292e565b5261353b9061293e565b51168960075416918b5194858094819382528b8d83019161357192602090939291936001600160a01b0360408201951681520152565b03925af180156130fe57928a97969594926130ad9289956135b3575b50506135998a86613a14565b96600754169589519a8b9889978896875230938701612e31565b816135c992903d106106a05761069181836126c4565b50388061358d565b6135e591503d808d833e6114e281836126c4565b386134d0565b613601908d803d106106a05761069181836126c4565b503861349a565b8b513d8f823e3d90fd5b60248c60118a634e487b7160e01b835252fd5b61363991503d808c833e6114e281836126c4565b386133d7565b61365590823d84116106a05761069181836126c4565b503861333c565b87513d8b823e3d90fd5b61367c90843d86116106a05761069181836126c4565b50386132fd565b60206001600160a01b0360248160025460081c169360405194859384927f613255ab0000000000000000000000000000000000000000000000000000000084521660048301525afa9081156106a7576000916136eb575b5010156136e657600190565b600090565b90506020813d602011613715575b81613706602093836126c4565b810103126102865751386136da565b3d91506136f9565b600460206001600160a01b0360035416604051928380927f074b2e430000000000000000000000000000000000000000000000000000000082525afa9081156106a75760009161378d575b50612710916fffffffffffffffffffffffffffffffff6137899216906128ab565b0490565b6020813d6020116137d6575b816137a6602093836126c4565b810103126137d25751906fffffffffffffffffffffffffffffffff82168203612e155750612710613768565b5080fd5b3d9150613799565b6007546001600160a01b039081169081156137f7575090565b90506005541690565b6008546001600160a01b03908116908115613819575090565b90506004541690565b156137de576008546001600160a01b03908116908115613819575090565b90815161384c816126e6565b9061385a60405192836126c4565b808252613869601f19916126e6565b0136602083013780916000805b8551808210156138d15760001981019081116138bd57906001600160a01b036138aa6138a483600195612853565b8961294e565b51166138b6828761294e565b5201613876565b602483634e487b7160e01b81526011600452fd5b50505091925050565b60ff600254166138e657565b606460405162461bcd60e51b815260206004820152601060248201527f5061757361626c653a20706175736564000000000000000000000000000000006044820152fd5b60026001541461393b576002600155565b606460405162461bcd60e51b815260206004820152601f60248201527f5265656e7472616e637947756172643a207265656e7472616e742063616c6c006044820152fd5b6000929493613998606093608084526080840190612a61565b951515602083015260408201520152565b6060906139c3600193959495608083526080830190612a61565b946000602083015260408201520152565b919082519283825260005b848110613a00575050826000602080949584010152601f8019910116010190565b6020818301810151848301820152016139df565b613a57916001600160a01b03613a286137de565b169160405192839163d06ca61f60e01b8352600483015260406024830152818060009687956044830190612a61565b03915afa908115613ad0578291613ab6575b5080516000198101919082116138bd5790613a839161294e565b5190600b549161271092830391838311613aa2575090613789916128ab565b80634e487b7160e01b602492526011600452fd5b613aca91503d8084833e6114e281836126c4565b38613a69565b6040513d84823e3d90fd5b613a57916001600160a01b03613a2861380056fea264697066735822122035c1b3b05e86b3b47a3a580e275f3b9da3b263349a42775052dadb9e717861f164736f6c63430008180033",
  "linkReferences": {},
  "deployedLinkReferences": {}
}