{
  "_format": "hh-sol-artifact-1",
  "contractName": "FlashArbBotBalancer",
  "sourceName": "contracts/FlashArbBotBalancer.sol",
  "abi": [
    {
      "inputs": [
        {
          "internalType": "address",
          "name": "_vault",
          "type": "address"
        },
        {
          "internalType": "address",
          "name": "_sushiRouter",
          "type": "address"
        },
        {
          "internalType": "address",
          "name": "_uniRouter",
          "type": "address"
        },
        {
          "internalType": "address",
          "name": "_uniV3Quoter",
          "type": "address"
        }
      ],
      "stateMutability": "nonpayable",
      "type": "constructor"
    },
    {
      "anonymous": false,
      "inputs": [
        {
          "indexed": true,
          "internalType": "address",
          "name": "asset",
          "type": "address"
        },
        {
          "indexed": false,
          "internalType": "uint256",
          "name": "amount",
          "type": "uint256"
        },
        {
          "indexed": false,
          "internalType": "uint256",
          "name": "profit",
          "type": "uint256"
        },
        {
          "indexed": false,
          "internalType": "bool",
          "name": "sushiFirst",
          "type": "bool"
        }
      ],
      "name": "ArbitrageExecuted",
      "type": "event"
    },
    {
      "anonymous": false,
      "inputs": [
        {
          "indexed": false,
          "internalType": "uint256",
          "name": "tradesCount",
          "type": "uint256"
        },
        {
          "indexed": false,
          "internalType": "uint256",
          "name": "totalProfit",
          "type": "uint256"
        }
      ],
      "name": "BatchArbitrageExecuted",
      "type": "event"
    },
    {
      "anonymous": false,
      "inputs": [
        {
          "indexed": true,
          "internalType": "uint256",
          "name": "chainId",
          "type": "uint256"
        },
        {
          "indexed": true,
          "internalType": "address",
          "name": "asset",
          "type": "address"
        },
        {
          "indexed": false,
          "internalType": "uint256",
          "name": "spread",
          "type": "uint256"
        },
        {
          "indexed": false,
          "internalType": "uint256",
          "name": "estimatedProfit",
          "type": "uint256"
        }
      ],
      "name": "CrossChainOpportunityDetected",
      "type": "event"
    },
    {
      "anonymous": false,
      "inputs": [
        {
          "indexed": false,
          "internalType": "enum FlashArbBotBalancer.FlashLoanProvider",
          "name": "provider",
          "type": "uint8"
        },
        {
          "indexed": false,
          "internalType": "address",
          "name": "asset",
          "type": "address"
        },
        {
          "indexed": false,
          "internalType": "uint256",
          "name": "amount",
          "type": "uint256"
        }
      ],
      "name": "FlashLoanProviderSelected",
      "type": "event"
    },
    {
      "anonymous": false,
      "inputs": [
        {
          "indexed": true,
          "internalType": "address",
          "name": "newGasFundingWallet",
          "type": "address"
        },
        {
          "indexed": false,
          "internalType": "uint256",
          "name": "newPercentage",
          "type": "uint256"
        }
      ],
      "name": "GasFundingConfigUpdated",
      "type": "event"
    },
    {
      "anonymous": false,
      "inputs": [
        {
          "indexed": true,
          "internalType": "address",
          "name": "token",
          "type": "address"
        },
        {
          "indexed": false,
          "internalType": "uint256",
          "name": "amount",
          "type": "uint256"
        },
        {
          "indexed": true,
          "internalType": "address",
          "name": "gasFundingWallet",
          "type": "address"
        }
      ],
      "name": "GasFundingTransfer",
      "type": "event"
    },
    {
      "anonymous": false,
      "inputs": [
        {
          "indexed": true,
          "internalType": "address",
          "name": "previousOwner",
          "type": "address"
        },
        {
          "indexed": true,
          "internalType": "address",
          "name": "newOwner",
          "type": "address"
        }
      ],
      "name": "OwnershipTransferred",
      "type": "event"
    },
    {
      "anonymous": false,
      "inputs": [
        {
          "indexed": false,
          "internalType": "address",
          "name": "account",
          "type": "address"
        }
      ],
      "name": "Paused",
      "type": "event"
    },
    {
      "anonymous": false,
      "inputs": [
        {
          "indexed": true,
          "internalType": "address",
          "name": "token",
          "type": "address"
        },
        {
          "indexed": false,
          "internalType": "uint256",
          "name": "amount",
          "type": "uint256"
        }
      ],
      "name": "ProfitWithdrawn",
      "type": "event"
    },
    {
      "anonymous": false,
      "inputs": [
        {
          "indexed": true,
          "internalType": "address",
          "name": "tokenA",
          "type": "address"
        },
        {
          "indexed": true,
          "internalType": "address",
          "name": "tokenB",
          "type": "address"
        },
        {
          "indexed": true,
          "internalType": "address",
          "name": "tokenC",
          "type": "address"
        },
        {
          "indexed": false,
          "internalType": "uint256",
          "name": "amount",
          "type": "uint256"
        },
        {
          "indexed": false,
          "internalType": "uint256",
          "name": "profit",
          "type": "uint256"
        }
      ],
      "name": "TriangularArbitrageExecuted",
      "type": "event"
    },
    {
      "anonymous": false,
      "inputs": [
        {
          "indexed": false,
          "internalType": "address",
          "name": "account",
          "type": "address"
        }
      ],
      "name": "Unpaused",
      "type": "event"
    },
    {
      "inputs": [],
      "name": "AAVE_POOL_ARBITRUM",
      "outputs": [
        {
          "internalType": "address",
          "name": "",
          "type": "address"
        }
      ],
      "stateMutability": "view",
      "type": "function"
    },
    {
      "inputs": [],
      "name": "AAVE_POOL_OPTIMISM",
      "outputs": [
        {
          "internalType": "address",
          "name": "",
          "type": "address"
        }
      ],
      "stateMutability": "view",
      "type": "function"
    },
    {
      "inputs": [],
      "name": "MAX_GAS_FUNDING_PERCENTAGE",
      "outputs": [
        {
          "internalType": "uint256",
          "name": "",
          "type": "uint256"
        }
      ],
      "stateMutability": "view",
      "type": "function"
    },
    {
      "inputs": [],
      "name": "MAX_SLIPPAGE",
      "outputs": [
        {
          "internalType": "uint256",
          "name": "",
          "type": "uint256"
        }
      ],
      "stateMutability": "view",
      "type": "function"
    },
    {
      "inputs": [],
      "name": "MIN_PROFIT_BPS",
      "outputs": [
        {
          "internalType": "uint256",
          "name": "",
          "type": "uint256"
        }
      ],
      "stateMutability": "view",
      "type": "function"
    },
    {
      "inputs": [],
      "name": "SUSHI_ROUTER_NEW",
      "outputs": [
        {
          "internalType": "address",
          "name": "",
          "type": "address"
        }
      ],
      "stateMutability": "view",
      "type": "function"
    },
    {
      "inputs": [],
      "name": "SUSHI_ROUTER_OPT",
      "outputs": [
        {
          "internalType": "address",
          "name": "",
          "type": "address"
        }
      ],
      "stateMutability": "view",
      "type": "function"
    },
    {
      "inputs": [],
      "name": "UNI_V2_ROUTER_NEW",
      "outputs": [
        {
          "internalType": "address",
          "name": "",
          "type": "address"
        }
      ],
      "stateMutability": "view",
      "type": "function"
    },
    {
      "inputs": [],
      "name": "UNI_V2_ROUTER_OPT",
      "outputs": [
        {
          "internalType": "address",
          "name": "",
          "type": "address"
        }
      ],
      "stateMutability": "view",
      "type": "function"
    },
    {
      "inputs": [],
      "name": "USDC",
      "outputs": [
        {
          "internalType": "address",
          "name": "",
          "type": "address"
        }
      ],
      "stateMutability": "view",
      "type": "function"
    },
    {
      "inputs": [],
      "name": "USDT",
      "outputs": [
        {
          "internalType": "address",
          "name": "",
          "type": "address"
        }
      ],
      "stateMutability": "view",
      "type": "function"
    },
    {
      "inputs": [],
      "name": "WBTC",
      "outputs": [
        {
          "internalType": "address",
          "name": "",
          "type": "address"
        }
      ],
      "stateMutability": "view",
      "type": "function"
    },
    {
      "inputs": [],
      "name": "WETH",
      "outputs": [
        {
          "internalType": "address",
          "name": "",
          "type": "address"
        }
      ],
      "stateMutability": "view",
      "type": "function"
    },
    {
      "inputs": [],
      "name": "aavePool",
      "outputs": [
        {
          "internalType": "contract IPool",
          "name": "",
          "type": "address"
        }
      ],
      "stateMutability": "view",
      "type": "function"
    },
    {
      "inputs": [
        {
          "internalType": "address",
          "name": "",
          "type": "address"
        }
      ],
      "name": "authorizedCallers",
      "outputs": [
        {
          "internalType": "bool",
          "name": "",
          "type": "bool"
        }
      ],
      "stateMutability": "view",
      "type": "function"
    },
    {
      "inputs": [],
      "name": "currentChainId",
      "outputs": [
        {
          "internalType": "uint256",
          "name": "",
          "type": "uint256"
        }
      ],
      "stateMutability": "view",
      "type": "function"
    },
    {
      "inputs": [],
      "name": "disableGasFunding",
      "outputs": [],
      "stateMutability": "nonpayable",
      "type": "function"
    },
    {
      "inputs": [
        {
          "internalType": "address",
          "name": "token",
          "type": "address"
        }
      ],
      "name": "emergencyWithdraw",
      "outputs": [],
      "stateMutability": "nonpayable",
      "type": "function"
    },
    {
      "inputs": [
        {
          "internalType": "address",
          "name": "asset",
          "type": "address"
        },
        {
          "internalType": "uint256",
          "name": "amount",
          "type": "uint256"
        },
        {
          "internalType": "address[]",
          "name": "path",
          "type": "address[]"
        },
        {
          "internalType": "bool",
          "name": "sushiFirst",
          "type": "bool"
        },
        {
          "internalType": "uint256",
          "name": "expectedProfit",
          "type": "uint256"
        }
      ],
      "name": "executeArb",
      "outputs": [],
      "stateMutability": "nonpayable",
      "type": "function"
    },
    {
      "inputs": [
        {
          "components": [
            {
              "components": [
                {
                  "internalType": "address",
                  "name": "asset",
                  "type": "address"
                },
                {
                  "internalType": "uint96",
                  "name": "amount",
                  "type": "uint96"
                },
                {
                  "internalType": "address",
                  "name": "tokenA",
                  "type": "address"
                },
                {
                  "internalType": "address",
                  "name": "tokenB",
                  "type": "address"
                },
                {
                  "internalType": "bool",
                  "name": "sushiFirst",
                  "type": "bool"
                },
                {
                  "internalType": "uint32",
                  "name": "slippageBps",
                  "type": "uint32"
                },
                {
                  "internalType": "uint32",
                  "name": "minProfitBps",
                  "type": "uint32"
                }
              ],
              "internalType": "struct FlashArbBotBalancer.ArbitrageParams[]",
              "name": "trades",
              "type": "tuple[]"
            },
            {
              "internalType": "uint256",
              "name": "deadline",
              "type": "uint256"
            }
          ],
          "internalType": "struct FlashArbBotBalancer.BatchArbitrageParams",
          "name": "params",
          "type": "tuple"
        }
      ],
      "name": "executeBatchArbitrage",
      "outputs": [],
      "stateMutability": "nonpayable",
      "type": "function"
    },
    {
      "inputs": [
        {
          "internalType": "address",
          "name": "asset",
          "type": "address"
        },
        {
          "internalType": "uint256",
          "name": "amount",
          "type": "uint256"
        },
        {
          "internalType": "uint256",
          "name": "premium",
          "type": "uint256"
        },
        {
          "internalType": "address",
          "name": "initiator",
          "type": "address"
        },
        {
          "internalType": "bytes",
          "name": "params",
          "type": "bytes"
        }
      ],
      "name": "executeOperation",
      "outputs": [
        {
          "internalType": "bool",
          "name": "",
          "type": "bool"
        }
      ],
      "stateMutability": "nonpayable",
      "type": "function"
    },
    {
      "inputs": [
        {
          "internalType": "address",
          "name": "asset",
          "type": "address"
        },
        {
          "internalType": "uint256",
          "name": "amount",
          "type": "uint256"
        },
        {
          "internalType": "address[]",
          "name": "path",
          "type": "address[]"
        },
        {
          "internalType": "uint256",
          "name": "expectedProfit",
          "type": "uint256"
        }
      ],
      "name": "executeTriangularArb",
      "outputs": [],
      "stateMutability": "nonpayable",
      "type": "function"
    },
    {
      "inputs": [],
      "name": "gasFundingPercentage",
      "outputs": [
        {
          "internalType": "uint256",
          "name": "",
          "type": "uint256"
        }
      ],
      "stateMutability": "view",
      "type": "function"
    },
    {
      "inputs": [],
      "name": "gasFundingWallet",
      "outputs": [
        {
          "internalType": "address",
          "name": "",
          "type": "address"
        }
      ],
      "stateMutability": "view",
      "type": "function"
    },
    {
      "inputs": [],
      "name": "getGasFundingStats",
      "outputs": [
        {
          "internalType": "address",
          "name": "wallet",
          "type": "address"
        },
        {
          "internalType": "uint256",
          "name": "percentage",
          "type": "uint256"
        },
        {
          "internalType": "uint256",
          "name": "totalTransferred",
          "type": "uint256"
        }
      ],
      "stateMutability": "view",
      "type": "function"
    },
    {
      "inputs": [
        {
          "internalType": "address",
          "name": "asset",
          "type": "address"
        },
        {
          "internalType": "uint256",
          "name": "amount",
          "type": "uint256"
        }
      ],
      "name": "getOptimalProvider",
      "outputs": [
        {
          "internalType": "enum FlashArbBotBalancer.FlashLoanProvider",
          "name": "provider",
          "type": "uint8"
        },
        {
          "internalType": "uint256",
          "name": "fee",
          "type": "uint256"
        }
      ],
      "stateMutability": "view",
      "type": "function"
    },
    {
      "inputs": [],
      "name": "isArbitrum",
      "outputs": [
        {
          "internalType": "bool",
          "name": "",
          "type": "bool"
        }
      ],
      "stateMutability": "view",
      "type": "function"
    },
    {
      "inputs": [],
      "name": "isOptimism",
      "outputs": [
        {
          "internalType": "bool",
          "name": "",
          "type": "bool"
        }
      ],
      "stateMutability": "view",
      "type": "function"
    },
    {
      "inputs": [],
      "name": "minProfitBps",
      "outputs": [
        {
          "internalType": "uint256",
          "name": "",
          "type": "uint256"
        }
      ],
      "stateMutability": "view",
      "type": "function"
    },
    {
      "inputs": [],
      "name": "owner",
      "outputs": [
        {
          "internalType": "address",
          "name": "",
          "type": "address"
        }
      ],
      "stateMutability": "view",
      "type": "function"
    },
    {
      "inputs": [],
      "name": "pause",
      "outputs": [],
      "stateMutability": "nonpayable",
      "type": "function"
    },
    {
      "inputs": [],
      "name": "paused",
      "outputs": [
        {
          "internalType": "bool",
          "name": "",
          "type": "bool"
        }
      ],
      "stateMutability": "view",
      "type": "function"
    },
    {
      "inputs": [
        {
          "internalType": "address",
          "name": "",
          "type": "address"
        }
      ],
      "name": "priceFeeds",
      "outputs": [
        {
          "internalType": "address",
          "name": "",
          "type": "address"
        }
      ],
      "stateMutability": "view",
      "type": "function"
    },
    {
      "inputs": [
        {
          "internalType": "address[]",
          "name": "tokens",
          "type": "address[]"
        },
        {
          "internalType": "uint256[]",
          "name": "amounts",
          "type": "uint256[]"
        },
        {
          "internalType": "uint256[]",
          "name": "feeAmounts",
          "type": "uint256[]"
        },
        {
          "internalType": "bytes",
          "name": "userData",
          "type": "bytes"
        }
      ],
      "name": "receiveFlashLoan",
      "outputs": [],
      "stateMutability": "nonpayable",
      "type": "function"
    },
    {
      "inputs": [],
      "name": "renounceOwnership",
      "outputs": [],
      "stateMutability": "nonpayable",
      "type": "function"
    },
    {
      "inputs": [
        {
          "internalType": "address",
          "name": "caller",
          "type": "address"
        },
        {
          "internalType": "bool",
          "name": "authorized",
          "type": "bool"
        }
      ],
      "name": "setAuthorizedCaller",
      "outputs": [],
      "stateMutability": "nonpayable",
      "type": "function"
    },
    {
      "inputs": [
        {
          "internalType": "uint256",
          "name": "_percentage",
          "type": "uint256"
        }
      ],
      "name": "setGasFundingPercentage",
      "outputs": [],
      "stateMutability": "nonpayable",
      "type": "function"
    },
    {
      "inputs": [
        {
          "internalType": "address",
          "name": "_gasFundingWallet",
          "type": "address"
        }
      ],
      "name": "setGasFundingWallet",
      "outputs": [],
      "stateMutability": "nonpayable",
      "type": "function"
    },
    {
      "inputs": [
        {
          "internalType": "uint256",
          "name": "_minProfit",
          "type": "uint256"
        }
      ],
      "name": "setMinProfitBps",
      "outputs": [],
      "stateMutability": "nonpayable",
      "type": "function"
    },
    {
      "inputs": [
        {
          "internalType": "address",
          "name": "token",
          "type": "address"
        },
        {
          "internalType": "address",
          "name": "feed",
          "type": "address"
        }
      ],
      "name": "setPriceFeed",
      "outputs": [],
      "stateMutability": "nonpayable",
      "type": "function"
    },
    {
      "inputs": [
        {
          "internalType": "uint256",
          "name": "_slippage",
          "type": "uint256"
        }
      ],
      "name": "setSlippageTolerance",
      "outputs": [],
      "stateMutability": "nonpayable",
      "type": "function"
    },
    {
      "inputs": [
        {
          "internalType": "address",
          "name": "asset",
          "type": "address"
        },
        {
          "internalType": "uint256",
          "name": "amount",
          "type": "uint256"
        },
        {
          "internalType": "address[]",
          "name": "path",
          "type": "address[]"
        },
        {
          "internalType": "bool",
          "name": "sushiFirst",
          "type": "bool"
        }
      ],
      "name": "simulateArbitrage",
      "outputs": [
        {
          "internalType": "uint256",
          "name": "profit",
          "type": "uint256"
        }
      ],
      "stateMutability": "view",
      "type": "function"
    },
    {
      "inputs": [
        {
          "internalType": "address",
          "name": "asset",
          "type": "address"
        },
        {
          "internalType": "uint256",
          "name": "amount",
          "type": "uint256"
        },
        {
          "internalType": "address[]",
          "name": "path",
          "type": "address[]"
        }
      ],
      "name": "simulateTriangularArbitrage",
      "outputs": [
        {
          "internalType": "uint256",
          "name": "profit",
          "type": "uint256"
        }
      ],
      "stateMutability": "view",
      "type": "function"
    },
    {
      "inputs": [],
      "name": "slippageTolerance",
      "outputs": [
        {
          "internalType": "uint256",
          "name": "",
          "type": "uint256"
        }
      ],
      "stateMutability": "view",
      "type": "function"
    },
    {
      "inputs": [],
      "name": "sushiRouter",
      "outputs": [
        {
          "internalType": "contract IUniswapV2Router02",
          "name": "",
          "type": "address"
        }
      ],
      "stateMutability": "view",
      "type": "function"
    },
    {
      "inputs": [],
      "name": "sushiRouterNew",
      "outputs": [
        {
          "internalType": "contract IUniswapV2Router02",
          "name": "",
          "type": "address"
        }
      ],
      "stateMutability": "view",
      "type": "function"
    },
    {
      "inputs": [],
      "name": "totalGasFundingTransferred",
      "outputs": [
        {
          "internalType": "uint256",
          "name": "",
          "type": "uint256"
        }
      ],
      "stateMutability": "view",
      "type": "function"
    },
    {
      "inputs": [
        {
          "internalType": "address",
          "name": "newOwner",
          "type": "address"
        }
      ],
      "name": "transferOwnership",
      "outputs": [],
      "stateMutability": "nonpayable",
      "type": "function"
    },
    {
      "inputs": [],
      "name": "uniRouter",
      "outputs": [
        {
          "internalType": "contract IUniswapV2Router02",
          "name": "",
          "type": "address"
        }
      ],
      "stateMutability": "view",
      "type": "function"
    },
    {
      "inputs": [],
      "name": "uniV2RouterNew",
      "outputs": [
        {
          "internalType": "contract IUniswapV2Router02",
          "name": "",
          "type": "address"
        }
      ],
      "stateMutability": "view",
      "type": "function"
    },
    {
      "inputs": [],
      "name": "uniV3Quoter",
      "outputs": [
        {
          "internalType": "contract IUniswapV3Quoter",
          "name": "",
          "type": "address"
        }
      ],
      "stateMutability": "view",
      "type": "function"
    },
    {
      "inputs": [],
      "name": "unpause",
      "outputs": [],
      "stateMutability": "nonpayable",
      "type": "function"
    },
    {
      "inputs": [],
      "name": "vault",
      "outputs": [
        {
          "internalType": "contract IBalancerVault",
          "name": "",
          "type": "address"
        }
      ],
      "stateMutability": "view",
      "type": "function"
    },
    {
      "inputs": [
        {
          "internalType": "address",
          "name": "token",
          "type": "address"
        }
      ],
      "name": "withdraw",
      "outputs": [],
      "stateMutability": "nonpayable",
      "type": "function"
    }
  ],
  "bytecode": "0x6080346200022557601f6200416b38819003918201601f19168301916001600160401b038311848410176200022a5780849260809460405283398101031262000225576200004d8162000240565b6200005b6020830162000240565b6200007760606200006f6040860162000240565b940162000240565b600080546001600160a01b03198082163390811784556040519791956001600160a01b0395948694859391908416907f8be0079c531659141344cd1fd0a4f28419497f9722a3daafe3b4186f6b6457e09080a36001805560025460c8600b55601e600c556103e8601055600898610100600160a81b03908a1b169060018060a81b0319161760025516856004541617600455168360055416176005551681600654161760065546600955600a5460ff80600a461416809261ff0061a4b14614871b169061ffff1916171780600a55841c16600014620001b7575073794a61358d6845594f94dc1db02a252b5b4814ad91734752ba5dbc23f44d87826276bf6fd6b1c372ad2482600754161760075573f2614a233c7c3e7f08b1f887ba133a13f1eb2c558282541617905560035416176003555b613f159081620002568239f35b620001c5575b5050620001aa565b73794a61358d6845594f94dc1db02a252b5b4814ad91734a7b5da61326a6379179b40d00f57e5bbdc962c2826007541617600755732abf469074dc0b54d793850807e6eb5faf2625b18282541617905560035416176003553880620001bd565b600080fd5b634e487b7160e01b600052604160045260246000fd5b51906001600160a01b0382168203620002255756fe608080604052600436101561001357600080fd5b60e060003560e01c9182624670f1146127ea57508163117da1ee1461277c57816315482ab21461274d57816318d0b3ce1461271e5781631b11d0ff146123a7578163277dd7e01461200b57816329f2c8f014611fe5578163314cce8a14611fc7578163383aeeae14611fa95781633b9debf614611f825781633c98898214611f535781633cd3d2ec14610be05781633f4ba83a14611eb7578163454bbd2914611e5f5781634dede3de14611e30578163507a229114611e1457816351cff8d914611cb5578163536fff6c14611c765781635c975abb14611c535781636cbadbfa14611c355781636d13582c14611c0e5781636ff1c9bc14611b1b578163715018a614611ac25781637448f57514611a6657816376e1128614611a0b578163795674ff146119e45781638456cb591461198a57816389a302711461195b5781638da5cb5b146119345781639dcb511a146118f9578163a03e4bc3146118d2578163a0e47bf6146118ab578163a6fed78e14611856578163acfcc89514611839578163ad5c46481461180a578163c01f25241461157a578163c257cdc31461155c578163c2dd302b146114b6578163c54e44eb14611487578163c62655761461144f578163c69aec5614611116578163d03153aa146110f8578163d138b28e14610d0b57508063d66d5b0814610c56578063dad0b87c14610c2f578063ea04665914610c08578063ec961a0514610be5578063ed6f1f4c14610be0578063ee9ed9d7146107e9578063f04f270714610402578063f2fde38b1461032a578063f97595181461030d578063fbfa77cf146102e35763fcff2c281461027357600080fd5b346102de5760203660031901126102de5760043561028f612ea6565b801561029a57600c55005b606460405162461bcd60e51b815260206004820152601b60248201527f4d696e2070726f666974206d75737420626520706f73697469766500000000006044820152fd5b600080fd5b346102de5760003660031901126102de5760206001600160a01b0360025460081c16604051908152f35b346102de5760003660031901126102de5760206040516101f48152f35b346102de5760203660031901126102de57610343612817565b61034b612ea6565b6001600160a01b0380911690811561039857600054826001600160a01b0319821617600055167f8be0079c531659141344cd1fd0a4f28419497f9722a3daafe3b4186f6b6457e0600080a3005b608460405162461bcd60e51b815260206004820152602660248201527f4f776e61626c653a206e6577206f776e657220697320746865207a65726f206160448201527f64647265737300000000000000000000000000000000000000000000000000006064820152fd5b346102de5760803660031901126102de5767ffffffffffffffff6004358181116102de5761043490369060040161286f565b91906024358281116102de5761044e90369060040161286f565b90916044358481116102de5761046890369060040161286f565b90946064359081116102de57610482903690600401612841565b906001600160a01b0360025460081c1633036107a5576104a4918101906129dd565b939297919490981561071e576104b990612beb565b941561071e576104d06104cb88612f15565b612a39565b6040516370a0823160e01b81523060048201526020816024816001600160a01b038a165afa80156106fc5761077a575b508215610768576105138787358761352d565b604051916370a0823160e01b83523060048401526020836024816001600160a01b038a165afa9283156106fc57600093610734575b501561071e5761055d61057091358735612a84565b8261056b8280951015612a91565b612adc565b9661058d612710610584600c548935612b34565b04891015612ae9565b605f810290808204605f1490151715610708576105ed916105b56064602093048a1015612b47565b60025460405163095ea7b360e01b815260089190911c6001600160a01b03166004820152602481019190915291829081906044820190565b038160006001600160a01b0389165af180156106fc576106cd575b50610613868461390c565b1561067f5750507f511dc6c70263758503ff9aee3e77f3e7bef3cabee21a4eb0b017e7cf0438f2f260406001600160a01b0361064e85612baa565b5116926001600160a01b0361066e8161066688612bb7565b511696612bc7565b5116958251913582526020820152a4005b604080519335845260208401959095521515938201939093526001600160a01b03909216917f05625c164577e109e0c8964ab47768b235a36d08f5146dfa9858a382fa5c5efd9150606090a2005b6106ee9060203d6020116106f5575b6106e6818361294d565b810190612b92565b5086610608565b503d6106dc565b6040513d6000823e3d90fd5b634e487b7160e01b600052601160045260246000fd5b634e487b7160e01b600052603260045260246000fd5b9092506020813d602011610760575b816107506020938361294d565b810103126102de57519189610548565b3d9150610743565b61077584888835886130f2565b610513565b602090813d831161079e575b610790818361294d565b810103126102de5788610500565b503d610786565b606460405162461bcd60e51b815260206004820152601360248201527f4f6e6c792042616c616e636572207661756c74000000000000000000000000006044820152fd5b346102de576003196080368201126102de57610803612817565b90602491823560443567ffffffffffffffff81116102de5761082990369060040161286f565b9390926064359233600052602094600e865260ff604060002054168015610bc7575b61085490612d7e565b61085c613cca565b610864613d1a565b60048703610b5e578615610b495761087b81612beb565b968060031015610b34576108a86001600160a01b0398898061089f60608701612beb565b16911614612bff565b6108b3831515612dc9565b6108be861515612e14565b6108c88385613a73565b6002811015610b1f57610a4057906108e1913691612987565b94604051966108ef88612931565b7ff5ea93fa71a16e89b26b22976590659f91d44ae3f503be2afcd292796d305218606060019560018b528436818d0137836109298c612baa565b91168091526040519561093b87612931565b600187526109758688019b878d369037826109558a612baa565b526109676040519c8d928a8401613d99565b03601f1981018c528b61294d565b6040519160008352868301526040820152a160025460081c1696873b156102de5791816109c760809a9897969593946040519b8c9a632e1c224f60e11b8c523060048d01528b015260848a0190612cea565b91858984030160448a0152519182815201959260005b828110610a2a57505050505083610a048482946000989694848a9603016064850152613dc4565b03925af180156106fc57610a1b575b505b60018055005b610a24906128eb565b80610a13565b845188528a9850968101969381019383016109dd565b606092969598979450610a7a7ff5ea93fa71a16e89b26b22976590659f91d44ae3f503be2afcd292796d3052189492610a99923691612987565b610a8b6040519a8b92898401613d99565b03601f1981018a528961294d565b836040519160018352168095820152856040820152a16003541690813b156102de5760008094610af5604051978896879586946310ac2ddf60e21b8652306004870152850152604484015260a0606484015260a4830190613dc4565b82608483015203925af180156106fc57610b10575b50610a15565b610b19906128eb565b80610b0a565b89634e487b7160e01b60005260216004526000fd5b88634e487b7160e01b60005260326004526000fd5b87634e487b7160e01b60005260326004526000fd5b608486602f8a6040519262461bcd60e51b845260048401528201527f547269616e67756c61722070617468206d7573742068617665203420746f6b6560448201527f6e732028412d3e422d3e432d3e412900000000000000000000000000000000006064820152fd5b506108546001600160a01b03600054163314905061084b565b6128a0565b346102de5760003660031901126102de57602060ff600a54166040519015158152f35b346102de5760003660031901126102de5760206001600160a01b0360085416604051908152f35b346102de5760003660031901126102de5760206001600160a01b03600f5416604051908152f35b346102de5760203660031901126102de576001600160a01b03610c77612817565b610c7f612ea6565b168015610cc757806001600160a01b0319600f541617600f557f5d4263eb49a8092ea4735dc1e5200292fe3ac3afb2d5d3f3339034efbe9ae4f06020601054604051908152a2005b606460405162461bcd60e51b815260206004820152601a60248201527f496e76616c6964206761732066756e64696e672077616c6c65740000000000006044820152fd5b346102de57600319602036820181136102de5767ffffffffffffffff906004358281116102de576040816004019482360301126102de57610d4a613d1a565b610d52613cca565b33600052600e825260ff6040600020541680156110df575b610d7390612d7e565b602480910135421161109c57610d898480612e5f565b90501561105957600a610d9c8580612e5f565b90501161101657600092835b610db28680612e5f565b9050851015610f8957610dc58680612e5f565b861015610f74578786020187813603126102de5760405188810181811085821117610f5f57604052610df68261282d565b91828252868101356bffffffffffffffffffffffff811681036102de5787830152610e236040820161282d565b60408301526060610e3581830161282d565b908301526080610e468183016128de565b9083015260a0610e57818301612e95565b90830152610e6860c0809201612e95565b908201526001600160a01b036040519087828881846370a0823160e01b98898352306004840152165afa9283156106fc578892600094610f2e575b50511692866040518095819382523060048301525afa9182156106fc57600092610efc575b5091610eea91600193808211600014610ef257610ee491612adc565b90612a84565b940193610da8565b5050600090612a84565b9150918582813d8311610f27575b610f14818361294d565b810103126102de57905190916001610ec8565b503d610f0a565b8381949295503d8311610f58575b610f46818361294d565b810103126102de57879151928c610ea3565b503d610f3c565b85634e487b7160e01b60005260416004526000fd5b83634e487b7160e01b60005260326004526000fd5b8386848315610fd3577fcccf891412a70ad9fb0665c9d1959b16f1232c4dfd1a529b5528b3e1e7e5935760408486610fc18680612e5f565b9290508351928352820152a160018055005b8260146064926040519262461bcd60e51b845260048401528201527f4261746368206e6f742070726f66697461626c650000000000000000000000006044820152fd5b90600f6064926040519262461bcd60e51b845260048401528201527f546f6f206d616e792074726164657300000000000000000000000000000000006044820152fd5b9060126064926040519262461bcd60e51b845260048401528201527f4e6f207472616465732070726f766964656400000000000000000000000000006044820152fd5b9060136064926040519262461bcd60e51b845260048401528201527f5472616e73616374696f6e2065787069726564000000000000000000000000006044820152fd5b50610d736001600160a01b036000541633149050610d6a565b346102de5760003660031901126102de576020600b54604051908152f35b346102de5760031960a0368201126102de57611130612817565b6024359060443567ffffffffffffffff81116102de5761115490369060040161286f565b91909361115f6128cf565b936084359433600052602094600e865260ff604060002054168015611436575b61118890612d7e565b611190613cca565b611198613d1a565b600281106113f2576111ab831515612dc9565b6111b6871515612e14565b6111c08386613a73565b60028110156113dc5761131e578596976111db913691612987565b937ff5ea93fa71a16e89b26b22976590659f91d44ae3f503be2afcd292796d3052186060604051998a9561120e87612931565b6112788a61126a61122a60019a60018152833681830137612baa565b946001600160a01b03809916809652604051996112468b612931565b60018b52838b019e8f3690378561125c8c612baa565b526040519d8e948501613d6f565b03601f1981018b528a61294d565b60405191600083528b8301526040820152a160025460081c1695863b156102de5790916112cb979594939282604051998a98632e1c224f60e11b8a523060048b0152608060248b015260848a0190612cea565b91858984030160448a0152519182815201959260005b82811061130857505050505083610a048482946000989694848a9603016064850152613dc4565b845188528a9850968101969381019383016112e1565b61135393506113459195969297611336913691612987565b91604051958693888501613d6f565b03601f19810184528361294d565b7ff5ea93fa71a16e89b26b22976590659f91d44ae3f503be2afcd292796d3052186060604051600181526001600160a01b038094168096820152866040820152a160035416803b156102de57610af59360008094604051968795869485936310ac2ddf60e21b85523060048601526024850152604484015260a0606484015260a4830190613dc4565b634e487b7160e01b600052602160045260246000fd5b6064866040519062461bcd60e51b82526004820152600c60248201527f496e76616c6964207061746800000000000000000000000000000000000000006044820152fd5b506111886001600160a01b03600054163314905061117f565b346102de5760003660031901126102de5760606001600160a01b03600f54166010546011549060405192835260208301526040820152f35b346102de5760003660031901126102de57602060405173fd086bc7cd5c481dcc9c85ebe478a1c0b69fcbb98152f35b346102de5760203660031901126102de576004356114d2612ea6565b611388811161151857806010557f5d4263eb49a8092ea4735dc1e5200292fe3ac3afb2d5d3f3339034efbe9ae4f060206001600160a01b03600f541692604051908152a2005b606460405162461bcd60e51b815260206004820152601360248201527f50657263656e7461676520746f6f2068696768000000000000000000000000006044820152fd5b346102de5760003660031901126102de576020601054604051908152f35b346102de5760803660031901126102de57611593612817565b506024803560443567ffffffffffffffff81116102de576115b890369060040161286f565b90826115c26128cf565b6115cb81613c12565b936115d68215613c12565b911561174f576001600160a01b0360006040518097818481611608888c63d06ca61f60e01b9c8d855260048501612d27565b0392165afa9586156106fc57600096611732575b50855160001981019690871161171d5761164b6000966116426116729961165094612bd7565b51943691612987565b613c30565b93604051968795869485938452600484015260408b8401526044830190612cea565b0392165afa9081156106fc576000916116fa575b505b80516000198101919082116116e557906116a191612bd7565b51818111156116da576116b7826116bd92612adc565b91613b0d565b90818111156116da576020916116d291612adc565b604051908152f35b5050602060006116d2565b83634e487b7160e01b60005260116004526000fd5b61171791503d806000833e61170f818361294d565b810190612c70565b83611686565b88634e487b7160e01b60005260116004526000fd5b6117489196503d806000833e61170f818361294d565b948861161c565b6001600160a01b039491946000604051809781848161177e888c63d06ca61f60e01b9c8d855260048501612d27565b0392165afa9586156106fc576000966117ed575b50855160001981019690871161171d5761164b6000966116426117b89961165094612bd7565b0392165afa9081156106fc576000916117d2575b50611688565b6117e791503d806000833e61170f818361294d565b836117cc565b6118039196503d806000833e61170f818361294d565b9488611792565b346102de5760003660031901126102de5760206040517382af49447d8a07e3bd95bd0d56f35241523fbab18152f35b346102de5760003660031901126102de5760206040516113888152f35b346102de5760403660031901126102de5761186f612817565b61187c6024358092613a73565b60028110156113dc576040918161189d575060005b82519182526020820152f35b6118a690613b0d565b611891565b346102de5760003660031901126102de5760206001600160a01b0360055416604051908152f35b346102de5760003660031901126102de5760206001600160a01b0360035416604051908152f35b346102de5760203660031901126102de5760206001600160a01b038061191d612817565b16600052600d825260406000205416604051908152f35b346102de5760003660031901126102de5760206001600160a01b0360005416604051908152f35b346102de5760003660031901126102de57602060405173ff970a61a04b1ca14834a43f5de4533ebddb5cc88152f35b346102de5760003660031901126102de576119a3612ea6565b6119ab613cca565b600160ff1960025416176002557f62e78cea01bee320cd4e420270b5ea74000d11b0c9f74754ebdbfc544b05a2586020604051338152a1005b346102de5760003660031901126102de5760206001600160a01b0360065416604051908152f35b346102de5760403660031901126102de57611a24612817565b602435906001600160a01b03908183168093036102de57611a43612ea6565b16600052600d6020526040600020906001600160a01b0319825416179055600080f35b346102de5760003660031901126102de57611a7f612ea6565b6001600160a01b0319600f5416600f55600060105560007f5d4263eb49a8092ea4735dc1e5200292fe3ac3afb2d5d3f3339034efbe9ae4f06020604051838152a2005b346102de5760003660031901126102de57611adb612ea6565b60006001600160a01b0381546001600160a01b031981168355167f8be0079c531659141344cd1fd0a4f28419497f9722a3daafe3b4186f6b6457e08280a3005b346102de576020806003193601126102de57611b35612817565b611b3d612ea6565b6001600160a01b03809116906040516370a0823160e01b81523060048201528381602481865afa9081156106fc57600091611be1575b5080611b7b57005b611bb992849260005416600060405180968195829463a9059cbb60e01b845260048401602090939291936001600160a01b0360408201951681520152565b03925af180156106fc57611bc957005b81611bdf92903d106106f5576106e6818361294d565b005b90508381813d8311611c07575b611bf8818361294d565b810103126102de575184611b73565b503d611bee565b346102de5760003660031901126102de5760206001600160a01b0360045416604051908152f35b346102de5760003660031901126102de576020600954604051908152f35b346102de5760003660031901126102de57602060ff600254166040519015158152f35b346102de5760203660031901126102de576001600160a01b03611c97612817565b16600052600e602052602060ff604060002054166040519015158152f35b346102de576020806003193601126102de57611ccf612817565b90611cd8612ea6565b6040516370a0823160e01b81523060048201526001600160a01b03928316928282602481875afa9182156106fc57600092611de5575b508115611da15760005460405163a9059cbb60e01b815291166001600160a01b031660048201526024810182905291908183806044810103816000885af19283156106fc577f016e128b6bdadd9e9068abd0b18db2fc8b27ed3dbced50e4aa6cc0a6934251ab93611d84575b50604051908152a2005b611d9a90833d85116106f5576106e6818361294d565b5084611d7a565b6064836040519062461bcd60e51b82526004820152601660248201527f4e6f2062616c616e636520746f207769746864726177000000000000000000006044820152fd5b9091508281813d8311611e0d575b611dfd818361294d565b810103126102de57519084611d0e565b503d611df3565b346102de5760003660031901126102de57602060405160328152f35b346102de5760003660031901126102de576020604051732f2a2543b76a4166549f7aab2e75bef0aefc5b0f8152f35b346102de5760403660031901126102de57611e78612817565b602435908115158092036102de576001600160a01b0390611e97612ea6565b16600052600e60205260406000209060ff80198354169116179055600080f35b346102de5760003660031901126102de57611ed0612ea6565b60025460ff811615611f0f5760ff19166002557f5db9ee0a495bf2e6ff9c91a7834c1ba4fdd244a5e8aa4e537bd38aeae4b073aa6020604051338152a1005b606460405162461bcd60e51b815260206004820152601460248201527f5061757361626c653a206e6f74207061757365640000000000000000000000006044820152fd5b346102de5760003660031901126102de576020604051734a7b5da61326a6379179b40d00f57e5bbdc962c28152f35b346102de5760003660031901126102de5760206001600160a01b0360075416604051908152f35b346102de5760003660031901126102de576020600c54604051908152f35b346102de5760003660031901126102de576020601154604051908152f35b346102de5760003660031901126102de57602060ff600a5460081c166040519015158152f35b346102de5760603660031901126102de57612024612817565b506024803560443567ffffffffffffffff81116102de5761204990369060040161286f565b906004820361233d578115610f745761206181612beb565b908260031015612328576120856001600160a01b0392838061089f60608601612beb565b6040519261209284612915565b6002845260403660208601376120a782612beb565b836120b186612baa565b9116905280600110156123135760208201916120cc83612beb565b846120d687612bb7565b9116905283600754169086600060408a61210e82519a8b93849363d06ca61f60e01b9788865260048601528401526044830190612cea565b0381865afa9687156106fc576000976122f6575b50865160001997908881019081116122e15761213d91612bd7565b51936121606040519661214f88612915565b6002885260403660208a0137612beb565b8761216a88612baa565b9116905260021015610b3457600060408084019561218787612beb565b896121918a612bb7565b911690528b8960085416916121bd84519a8b95869485948a865260048601528401526044830190612cea565b03915afa9485156106fc576000956122c4575b508451958787019687116122af576122266121f061225598600098612bd7565b51936122136040519761220289612915565b6002895260403660208b0137612beb565b8361221d89612baa565b91169052612beb565b9061223086612bb7565b91169052604051958694859384938452600484015260408b8401526044830190612cea565b03915afa9081156106fc57600091612294575b5080519182019182116116e5579061227f91612bd7565b51818111156116da576020916116d291612adc565b6122a991503d806000833e61170f818361294d565b84612268565b89634e487b7160e01b60005260116004526000fd5b6122da9195503d806000833e61170f818361294d565b93896121d0565b8a634e487b7160e01b60005260116004526000fd5b61230c9197503d806000833e61170f818361294d565b9589612122565b85634e487b7160e01b60005260326004526000fd5b84634e487b7160e01b60005260326004526000fd5b60848460226040519162461bcd60e51b8352602060048401528201527f547269616e67756c61722070617468206d7573742068617665203420746f6b6560448201527f6e730000000000000000000000000000000000000000000000000000000000006064820152fd5b346102de5760a03660031901126102de576123c0612817565b602490604435906001600160a01b038335606435828116908190036102de5760843567ffffffffffffffff81116102de576123ff903690600401612841565b9091846003541633036126da573003612696579061241f918101906129dd565b9097929561242f6104cb88612f15565b85811693604051996370a0823160e01b91828c523060048d015260209b8c8183818b5afa9081156106fc578d9161266d575b5050841561265c576124748a898661352d565b6040519283523060048401528b8382818a5afa9283156106fc578b90600094612628575b506124d06124ba6124ac6124d8938c612a84565b8661056b8280991015612a91565b9c6127106124ca600c548d612b34565b04612a84565b8c1015612ae9565b605a820291808304605a14901517156126145750612537929161250160648d93048c1015612b47565b8860035416604051948592839263095ea7b360e01b845260048401602090939291936001600160a01b0360408201951681520152565b03816000895af19081156106fc57612556928a926125f7575b5061390c565b156125b257505060407f511dc6c70263758503ff9aee3e77f3e7bef3cabee21a4eb0b017e7cf0438f2f2918361258b86612baa565b51169361259b8161066688612bb7565b511695825191825287820152a45b60405160018152f35b6040805193845260208401969096521515948201949094527f05625c164577e109e0c8964ab47768b235a36d08f5146dfa9858a382fa5c5efd925060609150a26125a9565b61260d908c8d3d106106f5576106e6818361294d565b508b612550565b634e487b7160e01b60005260116004526000fd5b8094508d8092503d8311612655575b612641818361294d565b810103126102de579151918a6124d0612498565b503d612637565b612668868b8a876130f2565b612474565b813d831161268f575b612680818361294d565b810103126102de578b8d612461565b503d612676565b60648760116040519162461bcd60e51b8352602060048401528201527f496e76616c696420696e69746961746f720000000000000000000000000000006044820152fd5b606488600e6040519162461bcd60e51b8352602060048401528201527f4f6e6c79204161766520706f6f6c0000000000000000000000000000000000006044820152fd5b346102de5760003660031901126102de576020604051734752ba5dbc23f44d87826276bf6fd6b1c372ad248152f35b346102de5760003660031901126102de576020604051732abf469074dc0b54d793850807e6eb5faf2625b18152f35b346102de5760203660031901126102de57600435612798612ea6565b6101f481116127a657600b55005b606460405162461bcd60e51b815260206004820152601160248201527f536c69707061676520746f6f20686967680000000000000000000000000000006044820152fd5b346102de5760003660031901126102de578073f2614a233c7c3e7f08b1f887ba133a13f1eb2c5560209252f35b600435906001600160a01b03821682036102de57565b35906001600160a01b03821682036102de57565b9181601f840112156102de5782359167ffffffffffffffff83116102de57602083818601950101116102de57565b9181601f840112156102de5782359167ffffffffffffffff83116102de576020808501948460051b0101116102de57565b346102de5760003660031901126102de57602060405173794a61358d6845594f94dc1db02a252b5b4814ad8152f35b6064359081151582036102de57565b359081151582036102de57565b67ffffffffffffffff81116128ff57604052565b634e487b7160e01b600052604160045260246000fd5b6060810190811067ffffffffffffffff8211176128ff57604052565b6040810190811067ffffffffffffffff8211176128ff57604052565b90601f8019910116810190811067ffffffffffffffff8211176128ff57604052565b67ffffffffffffffff81116128ff5760051b60200190565b92916129928261296f565b916129a0604051938461294d565b829481845260208094019160051b81019283116102de57905b8282106129c65750505050565b8380916129d28461282d565b8152019101906129b9565b91906080838203126102de57823567ffffffffffffffff81116102de5783019080601f830112156102de57816020612a1793359101612987565b91612a24602082016128de565b91612a366060604084013593016128de565b90565b15612a4057565b606460405162461bcd60e51b815260206004820152601260248201527f496e76616c6964207072696365206665656400000000000000000000000000006044820152fd5b9190820180921161070857565b15612a9857565b606460405162461bcd60e51b815260206004820152600c60248201527f556e70726f66697461626c6500000000000000000000000000000000000000006044820152fd5b9190820391821161070857565b15612af057565b606460405162461bcd60e51b815260206004820152600e60248201527f50726f66697420746f6f206c6f770000000000000000000000000000000000006044820152fd5b8181029291811591840414171561070857565b15612b4e57565b606460405162461bcd60e51b815260206004820152601960248201527f50726f66697420646576696174696f6e20746f6f2068696768000000000000006044820152fd5b908160209103126102de575180151581036102de5790565b80511561071e5760200190565b80516001101561071e5760400190565b80516002101561071e5760600190565b805182101561071e5760209160051b010190565b356001600160a01b03811681036102de5790565b15612c0657565b608460405162461bcd60e51b815260206004820152602760248201527f50617468206d75737420737461727420616e6420656e6420776974682073616d60448201527f6520746f6b656e000000000000000000000000000000000000000000000000006064820152fd5b60209081818403126102de5780519067ffffffffffffffff82116102de57019180601f840112156102de578251612ca68161296f565b93612cb4604051958661294d565b818552838086019260051b8201019283116102de578301905b828210612cdb575050505090565b81518152908301908301612ccd565b90815180825260208080930193019160005b828110612d0a575050505090565b83516001600160a01b031685529381019392810192600101612cfc565b606090939192936040810193815282602094604060208401525201929160005b828110612d55575050505090565b9091929382806001926001600160a01b03612d6f8961282d565b16815201950193929101612d47565b15612d8557565b606460405162461bcd60e51b815260206004820152600e60248201527f4e6f7420617574686f72697a65640000000000000000000000000000000000006044820152fd5b15612dd057565b606460405162461bcd60e51b815260206004820152601760248201527f416d6f756e74206d75737420626520706f7369746976650000000000000000006044820152fd5b15612e1b57565b606460405162461bcd60e51b815260206004820152602060248201527f45787065637465642070726f666974206d75737420626520706f7369746976656044820152fd5b903590601e19813603018212156102de570180359067ffffffffffffffff82116102de576020019160e08202360383136102de57565b359063ffffffff821682036102de57565b6001600160a01b03600054163303612eba57565b606460405162461bcd60e51b815260206004820152602060248201527f4f776e61626c653a2063616c6c6572206973206e6f7420746865206f776e65726044820152fd5b519069ffffffffffffffffffff821682036102de57565b60005b81518110156130b3576001600160a01b0380612f348385612bd7565b5116600052600d602081815260409280846000205416612f5b575b50505050600101612f18565b80612f668688612bd7565b51166000528282528360002054169280518080957ffeaf968c00000000000000000000000000000000000000000000000000000000825260a091829160049889915afa9182156130a8576000918293613055575b50506000121561301557612fd1610e109142612adc565b10612f4f5760649450519262461bcd60e51b845283015260248201527f507269636520746f6f206f6c64000000000000000000000000000000000000006044820152fd5b5060649450519262461bcd60e51b845283015260248201527f496e76616c6964207072696365000000000000000000000000000000000000006044820152fd5b90809350813d83116130a1575b61306c818361294d565b8101031261309e575061307e81612efe565b50600083820151613096608060608501519401612efe565b509038612fba565b80fd5b503d613062565b83513d6000823e3d90fd5b5050600190565b916080936130e7916001600160a01b0393989796988552602085015260a0604085015260a0840190612cea565b951660608201520152565b600480546040805163095ea7b360e01b8082526001600160a01b0393841682860152602482018790526000989697929693959093602092909187169083816044818e865af180156134e957613510575b508883898c89896131798d6005541694519687958694859485528401602090939291936001600160a01b0360408201951681520152565b0391865af180156134e9576134f3575b508883898c89896131c08d6007541694519687958694859485528401602090939291936001600160a01b0360408201951681520152565b0391865af180156134e9578a9285928b926134cc575b50888d8961320a8d6008541695519788968795869485528401602090939291936001600160a01b0360408201951681520152565b03925af18015613387576134af575b50156133be576132298288613ecb565b9285613233613bf0565b169761012c420198894211613391578a9182918b8b519485809481938d8c6338ed173960e01b9e8f8652309286019461326b956130ba565b03925af1908115613387578a916133a4575b508051600019810191908211613391579261329d8193928a979695612bd7565b51958692888d8b6132ad89612bb7565b5116926132e58d6132bc613bce565b1695519788968795869485528401602090939291936001600160a01b0360408201951681520152565b03925af18015613387578a97969594929388946133369361330c93613369575b5050613c30565b986133178a86613e04565b96613320613bce565b169589519a8b98899788968752309387016130ba565b03925af1908115613360575061334a575050565b61335d913d8091833e61170f818361294d565b50565b513d84823e3d90fd5b8161337f92903d106106f5576106e6818361294d565b503880613305565b88513d8c823e3d90fd5b60248b601189634e487b7160e01b835252fd5b6133b891503d808c833e61170f818361294d565b3861327d565b6133c88288613e04565b92856133d2613bce565b169761012c420198894211613391578a9182918b8b519485809481938d8c6338ed173960e01b9e8f8652309286019461340a956130ba565b03925af1908115613387578a91613495575b508051600019810191908211613391579261343c8193928a979695612bd7565b51958692888d8b61344c89612bb7565b51169261345b8d6132bc613bf0565b03925af18015613387578a97969594929388946133369361348193613369575050613c30565b9861348c8a86613ecb565b96613320613bf0565b6134a991503d808c833e61170f818361294d565b3861341c565b6134c590833d85116106f5576106e6818361294d565b5038613219565b6134e290843d86116106f5576106e6818361294d565b50386131d6565b89513d8d823e3d90fd5b61350990843d86116106f5576106e6818361294d565b5038613189565b61352690843d86116106f5576106e6818361294d565b5038613142565b6007546040805163095ea7b360e01b8082526001600160a01b03938416600480840191909152602483018790526000979693959093919260209186169082816044818d865af18015613387576135b692849286926138ef575b5088600854168c8b518096819582948c84528d8401602090939291936001600160a01b0360408201951681520152565b03925af180156138e5576138c8575b508551906135d282612915565b60028252863682840137856135e689612baa565b51166135f183612baa565b52856135fc89612bb7565b511661360783612bb7565b526136128284613e04565b9186600754169061012c42019384421161389b5784928c92838a9361364e8e51978896879586946338ed173960e01b9e8f8752309387016130ba565b03925af1908115613387578a916138ae575b5080516000199182820191821161389b578b848b8b6136818f968d96612bd7565b519485948c613705846136d687519b6136998d612915565b60028d5288368b8f01378c6136b9846136b184612bb7565b511691612baa565b528c6136d0846136c884612bc7565b511691612bb7565b52612bb7565b5116946008541695519788968795869485528401602090939291936001600160a01b0360408201951681520152565b03925af18015613891578d9283896137478f948f968f908d92613874575b5061372e8a87613ecb565b97600854169651998a98899788968752309387016130ba565b03925af19081156134e9578b9161385a575b508051918201918211613391576137728b928492612bd7565b5195888a519b6137818d612915565b60028d528b36858f01378c8261379683612bc7565b5116906137a290612baa565b528c826137ae83612baa565b5116906137ba90612bb7565b526137c490612bc7565b51168960075416918b5194858094819382528b8d8301916137fa92602090939291936001600160a01b0360408201951681520152565b03925af1801561338757928a979695949261333692899561383c575b50506138228a86613e04565b96600754169589519a8b98899788968752309387016130ba565b8161385292903d106106f5576106e6818361294d565b503880613816565b61386e91503d808d833e61170f818361294d565b38613759565b61388a908d803d106106f5576106e6818361294d565b5038613723565b8b513d8f823e3d90fd5b60248c60118a634e487b7160e01b835252fd5b6138c291503d808c833e61170f818361294d565b38613660565b6138de90823d84116106f5576106e6818361294d565b50386135c5565b87513d8b823e3d90fd5b61390590843d86116106f5576106e6818361294d565b5038613586565b906001600160a01b039081600f54169081151580613a68575b80613a5f575b613936575b50505050565b6139466127109160105490612b34565b0492831561393057821691604051906370a0823160e01b82523060048301526020918281602481885afa80156106fc578691600091613a2e575b50101561398e575b50613930565b60405163a9059cbb60e01b81526001600160a01b039390931660048401526024830185905281836044816000885af19283156106fc577fae31919ed2f5e0afd03e95e56d2d512a4cfdfdfe29ae313f92dfccd88b47e68f93613a11575b506139f885601154612a84565b601155600f541693604051908152a33880808080613988565b613a2790833d85116106f5576106e6818361294d565b50386139eb565b809250848092503d8311613a58575b613a47818361294d565b810103126102de5785905138613980565b503d613a3d565b5080151561392b565b506010541515613925565b60206001600160a01b0360248160025460081c169360405194859384927f613255ab0000000000000000000000000000000000000000000000000000000084521660048301525afa9081156106fc57600091613adb575b501015613ad657600190565b600090565b90506020813d602011613b05575b81613af66020938361294d565b810103126102de575138613aca565b3d9150613ae9565b600460206001600160a01b0360035416604051928380927f074b2e430000000000000000000000000000000000000000000000000000000082525afa9081156106fc57600091613b7d575b50612710916fffffffffffffffffffffffffffffffff613b79921690612b34565b0490565b6020813d602011613bc6575b81613b966020938361294d565b81010312613bc25751906fffffffffffffffffffffffffffffffff8216820361309e5750612710613b58565b5080fd5b3d9150613b89565b6007546001600160a01b03908116908115613be7575090565b90506005541690565b6008546001600160a01b03908116908115613c09575090565b90506004541690565b15613bce576008546001600160a01b03908116908115613c09575090565b908151613c3c8161296f565b90613c4a604051928361294d565b808252613c59601f199161296f565b0136602083013780916000805b855180821015613cc1576000198101908111613cad57906001600160a01b03613c9a613c9483600195612adc565b89612bd7565b5116613ca68287612bd7565b5201613c66565b602483634e487b7160e01b81526011600452fd5b50505091925050565b60ff60025416613cd657565b606460405162461bcd60e51b815260206004820152601060248201527f5061757361626c653a20706175736564000000000000000000000000000000006044820152fd5b600260015414613d2b576002600155565b606460405162461bcd60e51b815260206004820152601f60248201527f5265656e7472616e637947756172643a207265656e7472616e742063616c6c006044820152fd5b6000929493613d88606093608084526080840190612cea565b951515602083015260408201520152565b606090613db3600193959495608083526080830190612cea565b946000602083015260408201520152565b919082519283825260005b848110613df0575050826000602080949584010152601f8019910116010190565b602081830181015184830182015201613dcf565b613e47916001600160a01b03613e18613bce565b169160405192839163d06ca61f60e01b8352600483015260406024830152818060009687956044830190612cea565b03915afa908115613ec0578291613ea6575b508051600019810191908211613cad5790613e7391612bd7565b5190600b549161271092830391838311613e92575090613b7991612b34565b80634e487b7160e01b602492526011600452fd5b613eba91503d8084833e61170f818361294d565b38613e59565b6040513d84823e3d90fd5b613e47916001600160a01b03613e18613bf056fea264697066735822122013067209d2278e3373071c948e15de041f450da244de642c76a5271d0b97e92664736f6c63430008180033",
  "linkReferences": {},
  "deployedLinkReferences": {}
}