{
  "_format": "hh-sol-artifact-1",
  "contractName": "FlashArbBotBalancer",
  "sourceName": "contracts/FlashArbBotBalancer.sol",
  "abi": [
    {
      "inputs": [
        {
          "internalType": "address",
          "name": "_vault",
          "type": "address"
        },
        {
          "internalType": "address",
          "name": "_sushiRouter",
          "type": "address"
        },
        {
          "internalType": "address",
          "name": "_uniRouter",
          "type": "address"
        },
        {
          "internalType": "address",
          "name": "_uniV3Quoter",
          "type": "address"
        }
      ],
      "stateMutability": "nonpayable",
      "type": "constructor"
    },
    {
      "anonymous": false,
      "inputs": [
        {
          "indexed": true,
          "internalType": "address",
          "name": "asset",
          "type": "address"
        },
        {
          "indexed": false,
          "internalType": "uint256",
          "name": "amount",
          "type": "uint256"
        },
        {
          "indexed": false,
          "internalType": "uint256",
          "name": "profit",
          "type": "uint256"
        },
        {
          "indexed": false,
          "internalType": "bool",
          "name": "sushiFirst",
          "type": "bool"
        }
      ],
      "name": "ArbitrageExecuted",
      "type": "event"
    },
    {
      "anonymous": false,
      "inputs": [
        {
          "indexed": false,
          "internalType": "uint256",
          "name": "tradesCount",
          "type": "uint256"
        },
        {
          "indexed": false,
          "internalType": "uint256",
          "name": "totalProfit",
          "type": "uint256"
        }
      ],
      "name": "BatchArbitrageExecuted",
      "type": "event"
    },
    {
      "anonymous": false,
      "inputs": [
        {
          "indexed": true,
          "internalType": "uint256",
          "name": "chainId",
          "type": "uint256"
        },
        {
          "indexed": true,
          "internalType": "address",
          "name": "asset",
          "type": "address"
        },
        {
          "indexed": false,
          "internalType": "uint256",
          "name": "spread",
          "type": "uint256"
        },
        {
          "indexed": false,
          "internalType": "uint256",
          "name": "estimatedProfit",
          "type": "uint256"
        }
      ],
      "name": "CrossChainOpportunityDetected",
      "type": "event"
    },
    {
      "anonymous": false,
      "inputs": [
        {
          "indexed": false,
          "internalType": "enum FlashArbBotBalancer.FlashLoanProvider",
          "name": "provider",
          "type": "uint8"
        },
        {
          "indexed": false,
          "internalType": "address",
          "name": "asset",
          "type": "address"
        },
        {
          "indexed": false,
          "internalType": "uint256",
          "name": "amount",
          "type": "uint256"
        }
      ],
      "name": "FlashLoanProviderSelected",
      "type": "event"
    },
    {
      "anonymous": false,
      "inputs": [
        {
          "indexed": true,
          "internalType": "address",
          "name": "newGasFundingWallet",
          "type": "address"
        },
        {
          "indexed": false,
          "internalType": "uint256",
          "name": "newPercentage",
          "type": "uint256"
        }
      ],
      "name": "GasFundingConfigUpdated",
      "type": "event"
    },
    {
      "anonymous": false,
      "inputs": [
        {
          "indexed": true,
          "internalType": "address",
          "name": "token",
          "type": "address"
        },
        {
          "indexed": false,
          "internalType": "uint256",
          "name": "amount",
          "type": "uint256"
        },
        {
          "indexed": true,
          "internalType": "address",
          "name": "gasFundingWallet",
          "type": "address"
        }
      ],
      "name": "GasFundingTransfer",
      "type": "event"
    },
    {
      "anonymous": false,
      "inputs": [
        {
          "indexed": true,
          "internalType": "address",
          "name": "previousOwner",
          "type": "address"
        },
        {
          "indexed": true,
          "internalType": "address",
          "name": "newOwner",
          "type": "address"
        }
      ],
      "name": "OwnershipTransferred",
      "type": "event"
    },
    {
      "anonymous": false,
      "inputs": [
        {
          "indexed": false,
          "internalType": "address",
          "name": "account",
          "type": "address"
        }
      ],
      "name": "Paused",
      "type": "event"
    },
    {
      "anonymous": false,
      "inputs": [
        {
          "indexed": true,
          "internalType": "address",
          "name": "oldWallet",
          "type": "address"
        },
        {
          "indexed": true,
          "internalType": "address",
          "name": "newWallet",
          "type": "address"
        }
      ],
      "name": "ProfitWalletUpdated",
      "type": "event"
    },
    {
      "anonymous": false,
      "inputs": [
        {
          "indexed": true,
          "internalType": "address",
          "name": "token",
          "type": "address"
        },
        {
          "indexed": false,
          "internalType": "uint256",
          "name": "amount",
          "type": "uint256"
        }
      ],
      "name": "ProfitWithdrawn",
      "type": "event"
    },
    {
      "anonymous": false,
      "inputs": [
        {
          "indexed": true,
          "internalType": "address",
          "name": "tokenA",
          "type": "address"
        },
        {
          "indexed": true,
          "internalType": "address",
          "name": "tokenB",
          "type": "address"
        },
        {
          "indexed": true,
          "internalType": "address",
          "name": "tokenC",
          "type": "address"
        },
        {
          "indexed": false,
          "internalType": "uint256",
          "name": "amount",
          "type": "uint256"
        },
        {
          "indexed": false,
          "internalType": "uint256",
          "name": "profit",
          "type": "uint256"
        }
      ],
      "name": "TriangularArbitrageExecuted",
      "type": "event"
    },
    {
      "anonymous": false,
      "inputs": [
        {
          "indexed": false,
          "internalType": "address",
          "name": "account",
          "type": "address"
        }
      ],
      "name": "Unpaused",
      "type": "event"
    },
    {
      "inputs": [],
      "name": "AAVE_POOL_ARBITRUM",
      "outputs": [
        {
          "internalType": "address",
          "name": "",
          "type": "address"
        }
      ],
      "stateMutability": "view",
      "type": "function"
    },
    {
      "inputs": [],
      "name": "AAVE_POOL_OPTIMISM",
      "outputs": [
        {
          "internalType": "address",
          "name": "",
          "type": "address"
        }
      ],
      "stateMutability": "view",
      "type": "function"
    },
    {
      "inputs": [],
      "name": "MAX_GAS_FUNDING_PERCENTAGE",
      "outputs": [
        {
          "internalType": "uint256",
          "name": "",
          "type": "uint256"
        }
      ],
      "stateMutability": "view",
      "type": "function"
    },
    {
      "inputs": [],
      "name": "MAX_SLIPPAGE",
      "outputs": [
        {
          "internalType": "uint256",
          "name": "",
          "type": "uint256"
        }
      ],
      "stateMutability": "view",
      "type": "function"
    },
    {
      "inputs": [],
      "name": "MIN_PROFIT_BPS",
      "outputs": [
        {
          "internalType": "uint256",
          "name": "",
          "type": "uint256"
        }
      ],
      "stateMutability": "view",
      "type": "function"
    },
    {
      "inputs": [],
      "name": "SUSHI_ROUTER_NEW",
      "outputs": [
        {
          "internalType": "address",
          "name": "",
          "type": "address"
        }
      ],
      "stateMutability": "view",
      "type": "function"
    },
    {
      "inputs": [],
      "name": "SUSHI_ROUTER_OPT",
      "outputs": [
        {
          "internalType": "address",
          "name": "",
          "type": "address"
        }
      ],
      "stateMutability": "view",
      "type": "function"
    },
    {
      "inputs": [],
      "name": "UNI_V2_ROUTER_NEW",
      "outputs": [
        {
          "internalType": "address",
          "name": "",
          "type": "address"
        }
      ],
      "stateMutability": "view",
      "type": "function"
    },
    {
      "inputs": [],
      "name": "UNI_V2_ROUTER_OPT",
      "outputs": [
        {
          "internalType": "address",
          "name": "",
          "type": "address"
        }
      ],
      "stateMutability": "view",
      "type": "function"
    },
    {
      "inputs": [],
      "name": "USDC",
      "outputs": [
        {
          "internalType": "address",
          "name": "",
          "type": "address"
        }
      ],
      "stateMutability": "view",
      "type": "function"
    },
    {
      "inputs": [],
      "name": "USDT",
      "outputs": [
        {
          "internalType": "address",
          "name": "",
          "type": "address"
        }
      ],
      "stateMutability": "view",
      "type": "function"
    },
    {
      "inputs": [],
      "name": "WBTC",
      "outputs": [
        {
          "internalType": "address",
          "name": "",
          "type": "address"
        }
      ],
      "stateMutability": "view",
      "type": "function"
    },
    {
      "inputs": [],
      "name": "WETH",
      "outputs": [
        {
          "internalType": "address",
          "name": "",
          "type": "address"
        }
      ],
      "stateMutability": "view",
      "type": "function"
    },
    {
      "inputs": [],
      "name": "aavePool",
      "outputs": [
        {
          "internalType": "contract IPool",
          "name": "",
          "type": "address"
        }
      ],
      "stateMutability": "view",
      "type": "function"
    },
    {
      "inputs": [
        {
          "internalType": "address",
          "name": "",
          "type": "address"
        }
      ],
      "name": "authorizedCallers",
      "outputs": [
        {
          "internalType": "bool",
          "name": "",
          "type": "bool"
        }
      ],
      "stateMutability": "view",
      "type": "function"
    },
    {
      "inputs": [],
      "name": "currentChainId",
      "outputs": [
        {
          "internalType": "uint256",
          "name": "",
          "type": "uint256"
        }
      ],
      "stateMutability": "view",
      "type": "function"
    },
    {
      "inputs": [],
      "name": "disableGasFunding",
      "outputs": [],
      "stateMutability": "nonpayable",
      "type": "function"
    },
    {
      "inputs": [
        {
          "internalType": "address",
          "name": "token",
          "type": "address"
        }
      ],
      "name": "emergencyWithdraw",
      "outputs": [],
      "stateMutability": "nonpayable",
      "type": "function"
    },
    {
      "inputs": [
        {
          "internalType": "address",
          "name": "asset",
          "type": "address"
        },
        {
          "internalType": "uint256",
          "name": "amount",
          "type": "uint256"
        },
        {
          "internalType": "address[]",
          "name": "path",
          "type": "address[]"
        },
        {
          "internalType": "bool",
          "name": "sushiFirst",
          "type": "bool"
        },
        {
          "internalType": "uint256",
          "name": "expectedProfit",
          "type": "uint256"
        }
      ],
      "name": "executeArb",
      "outputs": [],
      "stateMutability": "nonpayable",
      "type": "function"
    },
    {
      "inputs": [
        {
          "components": [
            {
              "components": [
                {
                  "internalType": "address",
                  "name": "asset",
                  "type": "address"
                },
                {
                  "internalType": "uint96",
                  "name": "amount",
                  "type": "uint96"
                },
                {
                  "internalType": "address",
                  "name": "tokenA",
                  "type": "address"
                },
                {
                  "internalType": "address",
                  "name": "tokenB",
                  "type": "address"
                },
                {
                  "internalType": "bool",
                  "name": "sushiFirst",
                  "type": "bool"
                },
                {
                  "internalType": "uint32",
                  "name": "slippageBps",
                  "type": "uint32"
                },
                {
                  "internalType": "uint32",
                  "name": "minProfitBps",
                  "type": "uint32"
                }
              ],
              "internalType": "struct FlashArbBotBalancer.ArbitrageParams[]",
              "name": "trades",
              "type": "tuple[]"
            },
            {
              "internalType": "uint256",
              "name": "deadline",
              "type": "uint256"
            }
          ],
          "internalType": "struct FlashArbBotBalancer.BatchArbitrageParams",
          "name": "params",
          "type": "tuple"
        }
      ],
      "name": "executeBatchArbitrage",
      "outputs": [],
      "stateMutability": "nonpayable",
      "type": "function"
    },
    {
      "inputs": [
        {
          "internalType": "address",
          "name": "asset",
          "type": "address"
        },
        {
          "internalType": "uint256",
          "name": "amount",
          "type": "uint256"
        },
        {
          "internalType": "uint256",
          "name": "premium",
          "type": "uint256"
        },
        {
          "internalType": "address",
          "name": "initiator",
          "type": "address"
        },
        {
          "internalType": "bytes",
          "name": "params",
          "type": "bytes"
        }
      ],
      "name": "executeOperation",
      "outputs": [
        {
          "internalType": "bool",
          "name": "",
          "type": "bool"
        }
      ],
      "stateMutability": "nonpayable",
      "type": "function"
    },
    {
      "inputs": [
        {
          "internalType": "address",
          "name": "asset",
          "type": "address"
        },
        {
          "internalType": "uint256",
          "name": "amount",
          "type": "uint256"
        },
        {
          "internalType": "address[]",
          "name": "path",
          "type": "address[]"
        },
        {
          "internalType": "uint256",
          "name": "expectedProfit",
          "type": "uint256"
        }
      ],
      "name": "executeTriangularArb",
      "outputs": [],
      "stateMutability": "nonpayable",
      "type": "function"
    },
    {
      "inputs": [],
      "name": "gasFundingPercentage",
      "outputs": [
        {
          "internalType": "uint256",
          "name": "",
          "type": "uint256"
        }
      ],
      "stateMutability": "view",
      "type": "function"
    },
    {
      "inputs": [],
      "name": "gasFundingWallet",
      "outputs": [
        {
          "internalType": "address",
          "name": "",
          "type": "address"
        }
      ],
      "stateMutability": "view",
      "type": "function"
    },
    {
      "inputs": [],
      "name": "getGasFundingStats",
      "outputs": [
        {
          "internalType": "address",
          "name": "wallet",
          "type": "address"
        },
        {
          "internalType": "uint256",
          "name": "percentage",
          "type": "uint256"
        },
        {
          "internalType": "uint256",
          "name": "totalTransferred",
          "type": "uint256"
        }
      ],
      "stateMutability": "view",
      "type": "function"
    },
    {
      "inputs": [
        {
          "internalType": "address",
          "name": "asset",
          "type": "address"
        },
        {
          "internalType": "uint256",
          "name": "amount",
          "type": "uint256"
        }
      ],
      "name": "getOptimalProvider",
      "outputs": [
        {
          "internalType": "enum FlashArbBotBalancer.FlashLoanProvider",
          "name": "provider",
          "type": "uint8"
        },
        {
          "internalType": "uint256",
          "name": "fee",
          "type": "uint256"
        }
      ],
      "stateMutability": "view",
      "type": "function"
    },
    {
      "inputs": [],
      "name": "isArbitrum",
      "outputs": [
        {
          "internalType": "bool",
          "name": "",
          "type": "bool"
        }
      ],
      "stateMutability": "view",
      "type": "function"
    },
    {
      "inputs": [],
      "name": "isOptimism",
      "outputs": [
        {
          "internalType": "bool",
          "name": "",
          "type": "bool"
        }
      ],
      "stateMutability": "view",
      "type": "function"
    },
    {
      "inputs": [],
      "name": "minProfitBps",
      "outputs": [
        {
          "internalType": "uint256",
          "name": "",
          "type": "uint256"
        }
      ],
      "stateMutability": "view",
      "type": "function"
    },
    {
      "inputs": [],
      "name": "owner",
      "outputs": [
        {
          "internalType": "address",
          "name": "",
          "type": "address"
        }
      ],
      "stateMutability": "view",
      "type": "function"
    },
    {
      "inputs": [],
      "name": "pause",
      "outputs": [],
      "stateMutability": "nonpayable",
      "type": "function"
    },
    {
      "inputs": [],
      "name": "paused",
      "outputs": [
        {
          "internalType": "bool",
          "name": "",
          "type": "bool"
        }
      ],
      "stateMutability": "view",
      "type": "function"
    },
    {
      "inputs": [
        {
          "internalType": "address",
          "name": "",
          "type": "address"
        }
      ],
      "name": "priceFeeds",
      "outputs": [
        {
          "internalType": "address",
          "name": "",
          "type": "address"
        }
      ],
      "stateMutability": "view",
      "type": "function"
    },
    {
      "inputs": [],
      "name": "profitWallet",
      "outputs": [
        {
          "internalType": "address",
          "name": "",
          "type": "address"
        }
      ],
      "stateMutability": "view",
      "type": "function"
    },
    {
      "inputs": [
        {
          "internalType": "address[]",
          "name": "tokens",
          "type": "address[]"
        },
        {
          "internalType": "uint256[]",
          "name": "amounts",
          "type": "uint256[]"
        },
        {
          "internalType": "uint256[]",
          "name": "feeAmounts",
          "type": "uint256[]"
        },
        {
          "internalType": "bytes",
          "name": "userData",
          "type": "bytes"
        }
      ],
      "name": "receiveFlashLoan",
      "outputs": [],
      "stateMutability": "nonpayable",
      "type": "function"
    },
    {
      "inputs": [],
      "name": "renounceOwnership",
      "outputs": [],
      "stateMutability": "nonpayable",
      "type": "function"
    },
    {
      "inputs": [
        {
          "internalType": "address",
          "name": "caller",
          "type": "address"
        },
        {
          "internalType": "bool",
          "name": "authorized",
          "type": "bool"
        }
      ],
      "name": "setAuthorizedCaller",
      "outputs": [],
      "stateMutability": "nonpayable",
      "type": "function"
    },
    {
      "inputs": [
        {
          "internalType": "uint256",
          "name": "_percentage",
          "type": "uint256"
        }
      ],
      "name": "setGasFundingPercentage",
      "outputs": [],
      "stateMutability": "nonpayable",
      "type": "function"
    },
    {
      "inputs": [
        {
          "internalType": "address",
          "name": "_gasFundingWallet",
          "type": "address"
        }
      ],
      "name": "setGasFundingWallet",
      "outputs": [],
      "stateMutability": "nonpayable",
      "type": "function"
    },
    {
      "inputs": [
        {
          "internalType": "uint256",
          "name": "_minProfit",
          "type": "uint256"
        }
      ],
      "name": "setMinProfitBps",
      "outputs": [],
      "stateMutability": "nonpayable",
      "type": "function"
    },
    {
      "inputs": [
        {
          "internalType": "address",
          "name": "token",
          "type": "address"
        },
        {
          "internalType": "address",
          "name": "feed",
          "type": "address"
        }
      ],
      "name": "setPriceFeed",
      "outputs": [],
      "stateMutability": "nonpayable",
      "type": "function"
    },
    {
      "inputs": [
        {
          "internalType": "address",
          "name": "_profitWallet",
          "type": "address"
        }
      ],
      "name": "setProfitWallet",
      "outputs": [],
      "stateMutability": "nonpayable",
      "type": "function"
    },
    {
      "inputs": [
        {
          "internalType": "uint256",
          "name": "_slippage",
          "type": "uint256"
        }
      ],
      "name": "setSlippageTolerance",
      "outputs": [],
      "stateMutability": "nonpayable",
      "type": "function"
    },
    {
      "inputs": [
        {
          "internalType": "address",
          "name": "asset",
          "type": "address"
        },
        {
          "internalType": "uint256",
          "name": "amount",
          "type": "uint256"
        },
        {
          "internalType": "address[]",
          "name": "path",
          "type": "address[]"
        },
        {
          "internalType": "bool",
          "name": "sushiFirst",
          "type": "bool"
        }
      ],
      "name": "simulateArbitrage",
      "outputs": [
        {
          "internalType": "uint256",
          "name": "profit",
          "type": "uint256"
        }
      ],
      "stateMutability": "view",
      "type": "function"
    },
    {
      "inputs": [
        {
          "internalType": "address",
          "name": "asset",
          "type": "address"
        },
        {
          "internalType": "uint256",
          "name": "amount",
          "type": "uint256"
        },
        {
          "internalType": "address[]",
          "name": "path",
          "type": "address[]"
        }
      ],
      "name": "simulateTriangularArbitrage",
      "outputs": [
        {
          "internalType": "uint256",
          "name": "profit",
          "type": "uint256"
        }
      ],
      "stateMutability": "view",
      "type": "function"
    },
    {
      "inputs": [],
      "name": "slippageTolerance",
      "outputs": [
        {
          "internalType": "uint256",
          "name": "",
          "type": "uint256"
        }
      ],
      "stateMutability": "view",
      "type": "function"
    },
    {
      "inputs": [],
      "name": "sushiRouter",
      "outputs": [
        {
          "internalType": "contract IUniswapV2Router02",
          "name": "",
          "type": "address"
        }
      ],
      "stateMutability": "view",
      "type": "function"
    },
    {
      "inputs": [],
      "name": "sushiRouterNew",
      "outputs": [
        {
          "internalType": "contract IUniswapV2Router02",
          "name": "",
          "type": "address"
        }
      ],
      "stateMutability": "view",
      "type": "function"
    },
    {
      "inputs": [],
      "name": "totalGasFundingTransferred",
      "outputs": [
        {
          "internalType": "uint256",
          "name": "",
          "type": "uint256"
        }
      ],
      "stateMutability": "view",
      "type": "function"
    },
    {
      "inputs": [
        {
          "internalType": "address",
          "name": "newOwner",
          "type": "address"
        }
      ],
      "name": "transferOwnership",
      "outputs": [],
      "stateMutability": "nonpayable",
      "type": "function"
    },
    {
      "inputs": [],
      "name": "uniRouter",
      "outputs": [
        {
          "internalType": "contract IUniswapV2Router02",
          "name": "",
          "type": "address"
        }
      ],
      "stateMutability": "view",
      "type": "function"
    },
    {
      "inputs": [],
      "name": "uniV2RouterNew",
      "outputs": [
        {
          "internalType": "contract IUniswapV2Router02",
          "name": "",
          "type": "address"
        }
      ],
      "stateMutability": "view",
      "type": "function"
    },
    {
      "inputs": [],
      "name": "uniV3Quoter",
      "outputs": [
        {
          "internalType": "contract IUniswapV3Quoter",
          "name": "",
          "type": "address"
        }
      ],
      "stateMutability": "view",
      "type": "function"
    },
    {
      "inputs": [],
      "name": "unpause",
      "outputs": [],
      "stateMutability": "nonpayable",
      "type": "function"
    },
    {
      "inputs": [],
      "name": "vault",
      "outputs": [
        {
          "internalType": "contract IBalancerVault",
          "name": "",
          "type": "address"
        }
      ],
      "stateMutability": "view",
      "type": "function"
    },
    {
      "inputs": [
        {
          "internalType": "address",
          "name": "token",
          "type": "address"
        }
      ],
      "name": "withdraw",
      "outputs": [],
      "stateMutability": "nonpayable",
      "type": "function"
    }
  ],
  "bytecode": "0x6080346200022d57601f6200425638819003918201601f19168301916001600160401b0383118484101762000232578084926080946040528339810103126200022d576200004d8162000248565b6200005b6020830162000248565b90620000786060620000706040860162000248565b940162000248565b906000549360018060a01b03928380928160018060a01b03199733898b161760005560405199823391167f8be0079c531659141344cd1fd0a4f28419497f9722a3daafe3b4186f6b6457e0600080a36001805560025460c8600b55601e600c556103e8601155600897610100600160a81b0390891b169060018060a81b0319161760025516876004541617600455168560055416176005551683600654161760065546600955600a5460ff80600a461416809261ff0061a4b14614861b169061ffff1916171780600a55831c16600014620001c15750734752ba5dbc23f44d87826276bf6fd6b1c372ad2483600754161760075573f2614a233c7c3e7f08b1f887ba133a13f1eb2c558382541617905573794a61358d6845594f94dc1db02a252b5b4814ad8260035416176003555b6000541690600f541617600f55613ff890816200025e8239f35b620001ce575b50620001a7565b734a7b5da61326a6379179b40d00f57e5bbdc962c2836007541617600755732abf469074dc0b54d793850807e6eb5faf2625b18382541617905573794a61358d6845594f94dc1db02a252b5b4814ad82600354161760035538620001c7565b600080fd5b634e487b7160e01b600052604160045260246000fd5b51906001600160a01b03821682036200022d5756fe608080604052600436101561001357600080fd5b60e060003560e01c9182624670f1146128cd57508163117da1ee1461285f57816315482ab21461283057816318d0b3ce146128015781631b11d0ff1461248a5781632301d77514612463578163277dd7e0146120c757816329f2c8f0146120a1578163314cce8a14612083578163383aeeae146120655781633b9debf61461203e5781633c9889821461200f5781633cd3d2ec14610bf65781633f4ba83a14611f73578163454bbd2914611f1b5781634dede3de14611eec578163507a229114611ed057816351cff8d914611d71578163536fff6c14611d325781635c975abb14611d0f5781636cbadbfa14611cf15781636d13582c14611cca5781636ff1c9bc14611be3578163715018a614611b8a5781637448f57514611b2e57816376e1128614611ad3578163795674ff14611aac5781638456cb5914611a5257816389a3027114611a235781638da5cb5b146119fc5781639dcb511a146119c1578163a03e4bc31461199a578163a0e47bf614611973578163a6fed78e1461191e578163acfcc89514611901578163ad5c4648146118d2578163c01f252414611642578163c257cdc314611624578163c2dd302b1461157e578163c54e44eb1461154f578163c626557614611517578163c69aec56146111de578163d03153aa146111c0578163d138b28e14610dd357508063d66d5b0814610d1e578063da2ca9b514610c6c578063dad0b87c14610c45578063ea04665914610c1e578063ec961a0514610bfb578063ed6f1f4c14610bf6578063ee9ed9d7146107ff578063f04f270714610418578063f2fde38b14610340578063f975951814610323578063fbfa77cf146102f95763fcff2c281461028957600080fd5b346102f45760203660031901126102f4576004356102a5612f89565b80156102b057600c55005b606460405162461bcd60e51b815260206004820152601b60248201527f4d696e2070726f666974206d75737420626520706f73697469766500000000006044820152fd5b600080fd5b346102f45760003660031901126102f45760206001600160a01b0360025460081c16604051908152f35b346102f45760003660031901126102f45760206040516101f48152f35b346102f45760203660031901126102f4576103596128fa565b610361612f89565b6001600160a01b038091169081156103ae57600054826001600160a01b0319821617600055167f8be0079c531659141344cd1fd0a4f28419497f9722a3daafe3b4186f6b6457e0600080a3005b608460405162461bcd60e51b815260206004820152602660248201527f4f776e61626c653a206e6577206f776e657220697320746865207a65726f206160448201527f64647265737300000000000000000000000000000000000000000000000000006064820152fd5b346102f45760803660031901126102f45767ffffffffffffffff6004358181116102f45761044a903690600401612952565b91906024358281116102f457610464903690600401612952565b90916044358481116102f45761047e903690600401612952565b90946064359081116102f457610498903690600401612924565b906001600160a01b0360025460081c1633036107bb576104ba91810190612ac0565b9392979194909815610734576104cf90612cce565b9415610734576104e66104e188612ff8565b612b1c565b6040516370a0823160e01b81523060048201526020816024816001600160a01b038a165afa801561071257610790575b50821561077e5761052987873587613610565b604051916370a0823160e01b83523060048401526020836024816001600160a01b038a165afa9283156107125760009361074a575b50156107345761057361058691358735612b67565b826105818280951015612b74565b612bbf565b966105a361271061059a600c548935612c17565b04891015612bcc565b605f810290808204605f149015171561071e57610603916105cb6064602093048a1015612c2a565b60025460405163095ea7b360e01b815260089190911c6001600160a01b03166004820152602481019190915291829081906044820190565b038160006001600160a01b0389165af18015610712576106e3575b5061062986846139ef565b156106955750507f511dc6c70263758503ff9aee3e77f3e7bef3cabee21a4eb0b017e7cf0438f2f260406001600160a01b0361066485612c8d565b5116926001600160a01b036106848161067c88612c9a565b511696612caa565b5116958251913582526020820152a4005b604080519335845260208401959095521515938201939093526001600160a01b03909216917f05625c164577e109e0c8964ab47768b235a36d08f5146dfa9858a382fa5c5efd9150606090a2005b6107049060203d60201161070b575b6106fc8183612a30565b810190612c75565b508661061e565b503d6106f2565b6040513d6000823e3d90fd5b634e487b7160e01b600052601160045260246000fd5b634e487b7160e01b600052603260045260246000fd5b9092506020813d602011610776575b8161076660209383612a30565b810103126102f45751918961055e565b3d9150610759565b61078b84888835886131d5565b610529565b602090813d83116107b4575b6107a68183612a30565b810103126102f45788610516565b503d61079c565b606460405162461bcd60e51b815260206004820152601360248201527f4f6e6c792042616c616e636572207661756c74000000000000000000000000006044820152fd5b346102f4576003196080368201126102f4576108196128fa565b90602491823560443567ffffffffffffffff81116102f45761083f903690600401612952565b9390926064359233600052602094600e865260ff604060002054168015610bdd575b61086a90612e61565b610872613dad565b61087a613dfd565b60048703610b74578615610b5f5761089181612cce565b968060031015610b4a576108be6001600160a01b039889806108b560608701612cce565b16911614612ce2565b6108c9831515612eac565b6108d4861515612ef7565b6108de8385613b56565b6002811015610b3557610a5657906108f7913691612a6a565b946040519661090588612a14565b7ff5ea93fa71a16e89b26b22976590659f91d44ae3f503be2afcd292796d305218606060019560018b528436818d01378361093f8c612c8d565b91168091526040519561095187612a14565b6001875261098b8688019b878d3690378261096b8a612c8d565b5261097d6040519c8d928a8401613e7c565b03601f1981018c528b612a30565b6040519160008352868301526040820152a160025460081c1696873b156102f45791816109dd60809a9897969593946040519b8c9a632e1c224f60e11b8c523060048d01528b015260848a0190612dcd565b91858984030160448a0152519182815201959260005b828110610a4057505050505083610a1a8482946000989694848a9603016064850152613ea7565b03925af1801561071257610a31575b505b60018055005b610a3a906129ce565b80610a29565b845188528a9850968101969381019383016109f3565b606092969598979450610a907ff5ea93fa71a16e89b26b22976590659f91d44ae3f503be2afcd292796d3052189492610aaf923691612a6a565b610aa16040519a8b92898401613e7c565b03601f1981018a5289612a30565b836040519160018352168095820152856040820152a16003541690813b156102f45760008094610b0b604051978896879586946310ac2ddf60e21b8652306004870152850152604484015260a0606484015260a4830190613ea7565b82608483015203925af1801561071257610b26575b50610a2b565b610b2f906129ce565b80610b20565b89634e487b7160e01b60005260216004526000fd5b88634e487b7160e01b60005260326004526000fd5b87634e487b7160e01b60005260326004526000fd5b608486602f8a6040519262461bcd60e51b845260048401528201527f547269616e67756c61722070617468206d7573742068617665203420746f6b6560448201527f6e732028412d3e422d3e432d3e412900000000000000000000000000000000006064820152fd5b5061086a6001600160a01b036000541633149050610861565b612983565b346102f45760003660031901126102f457602060ff600a54166040519015158152f35b346102f45760003660031901126102f45760206001600160a01b0360085416604051908152f35b346102f45760003660031901126102f45760206001600160a01b0360105416604051908152f35b346102f45760203660031901126102f457610c856128fa565b610c8d612f89565b6001600160a01b03809116908115610cda57600f54826001600160a01b0319821617600f55167fe4de69ef21cd49dac1d5fdbf2461976cfbefcb315afbc932a9c0a755068b6489600080a3005b606460405162461bcd60e51b815260206004820152601d60248201527f496e76616c69642070726f6669742077616c6c657420616464726573730000006044820152fd5b346102f45760203660031901126102f4576001600160a01b03610d3f6128fa565b610d47612f89565b168015610d8f57806001600160a01b031960105416176010557f5d4263eb49a8092ea4735dc1e5200292fe3ac3afb2d5d3f3339034efbe9ae4f06020601154604051908152a2005b606460405162461bcd60e51b815260206004820152601a60248201527f496e76616c6964206761732066756e64696e672077616c6c65740000000000006044820152fd5b346102f457600319602036820181136102f45767ffffffffffffffff906004358281116102f4576040816004019482360301126102f457610e12613dfd565b610e1a613dad565b33600052600e825260ff6040600020541680156111a7575b610e3b90612e61565b602480910135421161116457610e518480612f42565b90501561112157600a610e648580612f42565b9050116110de57600092835b610e7a8680612f42565b905085101561105157610e8d8680612f42565b86101561103c578786020187813603126102f4576040518881018181108582111761102757604052610ebe82612910565b91828252868101356bffffffffffffffffffffffff811681036102f45787830152610eeb60408201612910565b60408301526060610efd818301612910565b908301526080610f0e8183016129c1565b9083015260a0610f1f818301612f78565b90830152610f3060c0809201612f78565b908201526001600160a01b036040519087828881846370a0823160e01b98898352306004840152165afa928315610712578892600094610ff6575b50511692866040518095819382523060048301525afa91821561071257600092610fc4575b5091610fb291600193808211600014610fba57610fac91612bbf565b90612b67565b940193610e70565b5050600090612b67565b9150918582813d8311610fef575b610fdc8183612a30565b810103126102f457905190916001610f90565b503d610fd2565b8381949295503d8311611020575b61100e8183612a30565b810103126102f457879151928c610f6b565b503d611004565b85634e487b7160e01b60005260416004526000fd5b83634e487b7160e01b60005260326004526000fd5b838684831561109b577fcccf891412a70ad9fb0665c9d1959b16f1232c4dfd1a529b5528b3e1e7e59357604084866110898680612f42565b9290508351928352820152a160018055005b8260146064926040519262461bcd60e51b845260048401528201527f4261746368206e6f742070726f66697461626c650000000000000000000000006044820152fd5b90600f6064926040519262461bcd60e51b845260048401528201527f546f6f206d616e792074726164657300000000000000000000000000000000006044820152fd5b9060126064926040519262461bcd60e51b845260048401528201527f4e6f207472616465732070726f766964656400000000000000000000000000006044820152fd5b9060136064926040519262461bcd60e51b845260048401528201527f5472616e73616374696f6e2065787069726564000000000000000000000000006044820152fd5b50610e3b6001600160a01b036000541633149050610e32565b346102f45760003660031901126102f4576020600b54604051908152f35b346102f45760031960a0368201126102f4576111f86128fa565b6024359060443567ffffffffffffffff81116102f45761121c903690600401612952565b9190936112276129b2565b936084359433600052602094600e865260ff6040600020541680156114fe575b61125090612e61565b611258613dad565b611260613dfd565b600281106114ba57611273831515612eac565b61127e871515612ef7565b6112888386613b56565b60028110156114a4576113e6578596976112a3913691612a6a565b937ff5ea93fa71a16e89b26b22976590659f91d44ae3f503be2afcd292796d3052186060604051998a956112d687612a14565b6113408a6113326112f260019a60018152833681830137612c8d565b946001600160a01b038099168096526040519961130e8b612a14565b60018b52838b019e8f369037856113248c612c8d565b526040519d8e948501613e52565b03601f1981018b528a612a30565b60405191600083528b8301526040820152a160025460081c1695863b156102f4579091611393979594939282604051998a98632e1c224f60e11b8a523060048b0152608060248b015260848a0190612dcd565b91858984030160448a0152519182815201959260005b8281106113d057505050505083610a1a8482946000989694848a9603016064850152613ea7565b845188528a9850968101969381019383016113a9565b61141b935061140d91959692976113fe913691612a6a565b91604051958693888501613e52565b03601f198101845283612a30565b7ff5ea93fa71a16e89b26b22976590659f91d44ae3f503be2afcd292796d3052186060604051600181526001600160a01b038094168096820152866040820152a160035416803b156102f457610b0b9360008094604051968795869485936310ac2ddf60e21b85523060048601526024850152604484015260a0606484015260a4830190613ea7565b634e487b7160e01b600052602160045260246000fd5b6064866040519062461bcd60e51b82526004820152600c60248201527f496e76616c6964207061746800000000000000000000000000000000000000006044820152fd5b506112506001600160a01b036000541633149050611247565b346102f45760003660031901126102f45760606001600160a01b03601054166011546012549060405192835260208301526040820152f35b346102f45760003660031901126102f457602060405173fd086bc7cd5c481dcc9c85ebe478a1c0b69fcbb98152f35b346102f45760203660031901126102f45760043561159a612f89565b61138881116115e057806011557f5d4263eb49a8092ea4735dc1e5200292fe3ac3afb2d5d3f3339034efbe9ae4f060206001600160a01b036010541692604051908152a2005b606460405162461bcd60e51b815260206004820152601360248201527f50657263656e7461676520746f6f2068696768000000000000000000000000006044820152fd5b346102f45760003660031901126102f4576020601154604051908152f35b346102f45760803660031901126102f45761165b6128fa565b506024803560443567ffffffffffffffff81116102f457611680903690600401612952565b908261168a6129b2565b61169381613cf5565b9361169e8215613cf5565b9115611817576001600160a01b03600060405180978184816116d0888c63d06ca61f60e01b9c8d855260048501612e0a565b0392165afa958615610712576000966117fa575b5085516000198101969087116117e55761171360009661170a61173a9961171894612cba565b51943691612a6a565b613d13565b93604051968795869485938452600484015260408b8401526044830190612dcd565b0392165afa908115610712576000916117c2575b505b80516000198101919082116117ad579061176991612cba565b51818111156117a25761177f8261178592612bbf565b91613bf0565b90818111156117a25760209161179a91612bbf565b604051908152f35b50506020600061179a565b83634e487b7160e01b60005260116004526000fd5b6117df91503d806000833e6117d78183612a30565b810190612d53565b8361174e565b88634e487b7160e01b60005260116004526000fd5b6118109196503d806000833e6117d78183612a30565b94886116e4565b6001600160a01b0394919460006040518097818481611846888c63d06ca61f60e01b9c8d855260048501612e0a565b0392165afa958615610712576000966118b5575b5085516000198101969087116117e55761171360009661170a6118809961171894612cba565b0392165afa9081156107125760009161189a575b50611750565b6118af91503d806000833e6117d78183612a30565b83611894565b6118cb9196503d806000833e6117d78183612a30565b948861185a565b346102f45760003660031901126102f45760206040517382af49447d8a07e3bd95bd0d56f35241523fbab18152f35b346102f45760003660031901126102f45760206040516113888152f35b346102f45760403660031901126102f4576119376128fa565b6119446024358092613b56565b60028110156114a45760409181611965575060005b82519182526020820152f35b61196e90613bf0565b611959565b346102f45760003660031901126102f45760206001600160a01b0360055416604051908152f35b346102f45760003660031901126102f45760206001600160a01b0360035416604051908152f35b346102f45760203660031901126102f45760206001600160a01b03806119e56128fa565b16600052600d825260406000205416604051908152f35b346102f45760003660031901126102f45760206001600160a01b0360005416604051908152f35b346102f45760003660031901126102f457602060405173ff970a61a04b1ca14834a43f5de4533ebddb5cc88152f35b346102f45760003660031901126102f457611a6b612f89565b611a73613dad565b600160ff1960025416176002557f62e78cea01bee320cd4e420270b5ea74000d11b0c9f74754ebdbfc544b05a2586020604051338152a1005b346102f45760003660031901126102f45760206001600160a01b0360065416604051908152f35b346102f45760403660031901126102f457611aec6128fa565b602435906001600160a01b03908183168093036102f457611b0b612f89565b16600052600d6020526040600020906001600160a01b0319825416179055600080f35b346102f45760003660031901126102f457611b47612f89565b6001600160a01b031960105416601055600060115560007f5d4263eb49a8092ea4735dc1e5200292fe3ac3afb2d5d3f3339034efbe9ae4f06020604051838152a2005b346102f45760003660031901126102f457611ba3612f89565b60006001600160a01b0381546001600160a01b031981168355167f8be0079c531659141344cd1fd0a4f28419497f9722a3daafe3b4186f6b6457e08280a3005b346102f4576020806003193601126102f457611bfd6128fa565b611c05612f89565b6001600160a01b03809116906040516370a0823160e01b81523060048201528381602481865afa90811561071257600091611c9d575b5080611c4357005b600f5460405163a9059cbb60e01b815292166001600160a01b0316600483015260248201529082908290816000816044810103925af1801561071257611c8557005b81611c9b92903d1061070b576106fc8183612a30565b005b90508381813d8311611cc3575b611cb48183612a30565b810103126102f4575184611c3b565b503d611caa565b346102f45760003660031901126102f45760206001600160a01b0360045416604051908152f35b346102f45760003660031901126102f4576020600954604051908152f35b346102f45760003660031901126102f457602060ff600254166040519015158152f35b346102f45760203660031901126102f4576001600160a01b03611d536128fa565b16600052600e602052602060ff604060002054166040519015158152f35b346102f4576020806003193601126102f457611d8b6128fa565b90611d94612f89565b6040516370a0823160e01b81523060048201526001600160a01b03928316928282602481875afa91821561071257600092611ea1575b508115611e5d57600f5460405163a9059cbb60e01b815291166001600160a01b031660048201526024810182905291908183806044810103816000885af1928315610712577f016e128b6bdadd9e9068abd0b18db2fc8b27ed3dbced50e4aa6cc0a6934251ab93611e40575b50604051908152a2005b611e5690833d851161070b576106fc8183612a30565b5084611e36565b6064836040519062461bcd60e51b82526004820152601660248201527f4e6f2062616c616e636520746f207769746864726177000000000000000000006044820152fd5b9091508281813d8311611ec9575b611eb98183612a30565b810103126102f457519084611dca565b503d611eaf565b346102f45760003660031901126102f457602060405160328152f35b346102f45760003660031901126102f4576020604051732f2a2543b76a4166549f7aab2e75bef0aefc5b0f8152f35b346102f45760403660031901126102f457611f346128fa565b602435908115158092036102f4576001600160a01b0390611f53612f89565b16600052600e60205260406000209060ff80198354169116179055600080f35b346102f45760003660031901126102f457611f8c612f89565b60025460ff811615611fcb5760ff19166002557f5db9ee0a495bf2e6ff9c91a7834c1ba4fdd244a5e8aa4e537bd38aeae4b073aa6020604051338152a1005b606460405162461bcd60e51b815260206004820152601460248201527f5061757361626c653a206e6f74207061757365640000000000000000000000006044820152fd5b346102f45760003660031901126102f4576020604051734a7b5da61326a6379179b40d00f57e5bbdc962c28152f35b346102f45760003660031901126102f45760206001600160a01b0360075416604051908152f35b346102f45760003660031901126102f4576020600c54604051908152f35b346102f45760003660031901126102f4576020601254604051908152f35b346102f45760003660031901126102f457602060ff600a5460081c166040519015158152f35b346102f45760603660031901126102f4576120e06128fa565b506024803560443567ffffffffffffffff81116102f457612105903690600401612952565b90600482036123f957811561103c5761211d81612cce565b9082600310156123e4576121416001600160a01b039283806108b560608601612cce565b6040519261214e846129f8565b60028452604036602086013761216382612cce565b8361216d86612c8d565b9116905280600110156123cf57602082019161218883612cce565b8461219287612c9a565b9116905283600754169086600060408a6121ca82519a8b93849363d06ca61f60e01b9788865260048601528401526044830190612dcd565b0381865afa968715610712576000976123b2575b508651600019979088810190811161239d576121f991612cba565b519361221c6040519661220b886129f8565b6002885260403660208a0137612cce565b8761222688612c8d565b9116905260021015610b4a57600060408084019561224387612cce565b8961224d8a612c9a565b911690528b89600854169161227984519a8b95869485948a865260048601528401526044830190612dcd565b03915afa94851561071257600095612380575b5084519587870196871161236b576122e26122ac61231198600098612cba565b51936122cf604051976122be896129f8565b6002895260403660208b0137612cce565b836122d989612c8d565b91169052612cce565b906122ec86612c9a565b91169052604051958694859384938452600484015260408b8401526044830190612dcd565b03915afa90811561071257600091612350575b5080519182019182116117ad579061233b91612cba565b51818111156117a25760209161179a91612bbf565b61236591503d806000833e6117d78183612a30565b84612324565b89634e487b7160e01b60005260116004526000fd5b6123969195503d806000833e6117d78183612a30565b938961228c565b8a634e487b7160e01b60005260116004526000fd5b6123c89197503d806000833e6117d78183612a30565b95896121de565b85634e487b7160e01b60005260326004526000fd5b84634e487b7160e01b60005260326004526000fd5b60848460226040519162461bcd60e51b8352602060048401528201527f547269616e67756c61722070617468206d7573742068617665203420746f6b6560448201527f6e730000000000000000000000000000000000000000000000000000000000006064820152fd5b346102f45760003660031901126102f45760206001600160a01b03600f5416604051908152f35b346102f45760a03660031901126102f4576124a36128fa565b602490604435906001600160a01b038335606435828116908190036102f45760843567ffffffffffffffff81116102f4576124e2903690600401612924565b9091846003541633036127bd573003612779579061250291810190612ac0565b909792956125126104e188612ff8565b85811693604051996370a0823160e01b91828c523060048d015260209b8c8183818b5afa908115610712578d91612750575b5050841561273f576125578a8986613610565b6040519283523060048401528b8382818a5afa928315610712578b9060009461270b575b506125b361259d61258f6125bb938c612b67565b866105818280991015612b74565b9c6127106125ad600c548d612c17565b04612b67565b8c1015612bcc565b605a820291808304605a14901517156126f7575061261a92916125e460648d93048c1015612c2a565b8860035416604051948592839263095ea7b360e01b845260048401602090939291936001600160a01b0360408201951681520152565b03816000895af190811561071257612639928a926126da575b506139ef565b1561269557505060407f511dc6c70263758503ff9aee3e77f3e7bef3cabee21a4eb0b017e7cf0438f2f2918361266e86612c8d565b51169361267e8161067c88612c9a565b511695825191825287820152a45b60405160018152f35b6040805193845260208401969096521515948201949094527f05625c164577e109e0c8964ab47768b235a36d08f5146dfa9858a382fa5c5efd925060609150a261268c565b6126f0908c8d3d1061070b576106fc8183612a30565b508b612633565b634e487b7160e01b60005260116004526000fd5b8094508d8092503d8311612738575b6127248183612a30565b810103126102f4579151918a6125b361257b565b503d61271a565b61274b868b8a876131d5565b612557565b813d8311612772575b6127638183612a30565b810103126102f4578b8d612544565b503d612759565b60648760116040519162461bcd60e51b8352602060048401528201527f496e76616c696420696e69746961746f720000000000000000000000000000006044820152fd5b606488600e6040519162461bcd60e51b8352602060048401528201527f4f6e6c79204161766520706f6f6c0000000000000000000000000000000000006044820152fd5b346102f45760003660031901126102f4576020604051734752ba5dbc23f44d87826276bf6fd6b1c372ad248152f35b346102f45760003660031901126102f4576020604051732abf469074dc0b54d793850807e6eb5faf2625b18152f35b346102f45760203660031901126102f45760043561287b612f89565b6101f4811161288957600b55005b606460405162461bcd60e51b815260206004820152601160248201527f536c69707061676520746f6f20686967680000000000000000000000000000006044820152fd5b346102f45760003660031901126102f4578073f2614a233c7c3e7f08b1f887ba133a13f1eb2c5560209252f35b600435906001600160a01b03821682036102f457565b35906001600160a01b03821682036102f457565b9181601f840112156102f45782359167ffffffffffffffff83116102f457602083818601950101116102f457565b9181601f840112156102f45782359167ffffffffffffffff83116102f4576020808501948460051b0101116102f457565b346102f45760003660031901126102f457602060405173794a61358d6845594f94dc1db02a252b5b4814ad8152f35b6064359081151582036102f457565b359081151582036102f457565b67ffffffffffffffff81116129e257604052565b634e487b7160e01b600052604160045260246000fd5b6060810190811067ffffffffffffffff8211176129e257604052565b6040810190811067ffffffffffffffff8211176129e257604052565b90601f8019910116810190811067ffffffffffffffff8211176129e257604052565b67ffffffffffffffff81116129e25760051b60200190565b9291612a7582612a52565b91612a836040519384612a30565b829481845260208094019160051b81019283116102f457905b828210612aa95750505050565b838091612ab584612910565b815201910190612a9c565b91906080838203126102f457823567ffffffffffffffff81116102f45783019080601f830112156102f457816020612afa93359101612a6a565b91612b07602082016129c1565b91612b196060604084013593016129c1565b90565b15612b2357565b606460405162461bcd60e51b815260206004820152601260248201527f496e76616c6964207072696365206665656400000000000000000000000000006044820152fd5b9190820180921161071e57565b15612b7b57565b606460405162461bcd60e51b815260206004820152600c60248201527f556e70726f66697461626c6500000000000000000000000000000000000000006044820152fd5b9190820391821161071e57565b15612bd357565b606460405162461bcd60e51b815260206004820152600e60248201527f50726f66697420746f6f206c6f770000000000000000000000000000000000006044820152fd5b8181029291811591840414171561071e57565b15612c3157565b606460405162461bcd60e51b815260206004820152601960248201527f50726f66697420646576696174696f6e20746f6f2068696768000000000000006044820152fd5b908160209103126102f4575180151581036102f45790565b8051156107345760200190565b8051600110156107345760400190565b8051600210156107345760600190565b80518210156107345760209160051b010190565b356001600160a01b03811681036102f45790565b15612ce957565b608460405162461bcd60e51b815260206004820152602760248201527f50617468206d75737420737461727420616e6420656e6420776974682073616d60448201527f6520746f6b656e000000000000000000000000000000000000000000000000006064820152fd5b60209081818403126102f45780519067ffffffffffffffff82116102f457019180601f840112156102f4578251612d8981612a52565b93612d976040519586612a30565b818552838086019260051b8201019283116102f4578301905b828210612dbe575050505090565b81518152908301908301612db0565b90815180825260208080930193019160005b828110612ded575050505090565b83516001600160a01b031685529381019392810192600101612ddf565b606090939192936040810193815282602094604060208401525201929160005b828110612e38575050505090565b9091929382806001926001600160a01b03612e5289612910565b16815201950193929101612e2a565b15612e6857565b606460405162461bcd60e51b815260206004820152600e60248201527f4e6f7420617574686f72697a65640000000000000000000000000000000000006044820152fd5b15612eb357565b606460405162461bcd60e51b815260206004820152601760248201527f416d6f756e74206d75737420626520706f7369746976650000000000000000006044820152fd5b15612efe57565b606460405162461bcd60e51b815260206004820152602060248201527f45787065637465642070726f666974206d75737420626520706f7369746976656044820152fd5b903590601e19813603018212156102f4570180359067ffffffffffffffff82116102f4576020019160e08202360383136102f457565b359063ffffffff821682036102f457565b6001600160a01b03600054163303612f9d57565b606460405162461bcd60e51b815260206004820152602060248201527f4f776e61626c653a2063616c6c6572206973206e6f7420746865206f776e65726044820152fd5b519069ffffffffffffffffffff821682036102f457565b60005b8151811015613196576001600160a01b03806130178385612cba565b5116600052600d60208181526040928084600020541661303e575b50505050600101612ffb565b806130498688612cba565b51166000528282528360002054169280518080957ffeaf968c00000000000000000000000000000000000000000000000000000000825260a091829160049889915afa91821561318b576000918293613138575b5050600012156130f8576130b4610e109142612bbf565b106130325760649450519262461bcd60e51b845283015260248201527f507269636520746f6f206f6c64000000000000000000000000000000000000006044820152fd5b5060649450519262461bcd60e51b845283015260248201527f496e76616c6964207072696365000000000000000000000000000000000000006044820152fd5b90809350813d8311613184575b61314f8183612a30565b81010312613181575061316181612fe1565b50600083820151613179608060608501519401612fe1565b50903861309d565b80fd5b503d613145565b83513d6000823e3d90fd5b5050600190565b916080936131ca916001600160a01b0393989796988552602085015260a0604085015260a0840190612dcd565b951660608201520152565b600480546040805163095ea7b360e01b8082526001600160a01b0393841682860152602482018790526000989697929693959093602092909187169083816044818e865af180156135cc576135f3575b508883898c898961325c8d6005541694519687958694859485528401602090939291936001600160a01b0360408201951681520152565b0391865af180156135cc576135d6575b508883898c89896132a38d6007541694519687958694859485528401602090939291936001600160a01b0360408201951681520152565b0391865af180156135cc578a9285928b926135af575b50888d896132ed8d6008541695519788968795869485528401602090939291936001600160a01b0360408201951681520152565b03925af1801561346a57613592575b50156134a15761330c8288613fae565b9285613316613cd3565b169761012c420198894211613474578a9182918b8b519485809481938d8c6338ed173960e01b9e8f8652309286019461334e9561319d565b03925af190811561346a578a91613487575b50805160001981019190821161347457926133808193928a979695612cba565b51958692888d8b61339089612c9a565b5116926133c88d61339f613cb1565b1695519788968795869485528401602090939291936001600160a01b0360408201951681520152565b03925af1801561346a578a9796959492938894613419936133ef9361344c575b5050613d13565b986133fa8a86613ee7565b96613403613cb1565b169589519a8b988997889687523093870161319d565b03925af1908115613443575061342d575050565b613440913d8091833e6117d78183612a30565b50565b513d84823e3d90fd5b8161346292903d1061070b576106fc8183612a30565b5038806133e8565b88513d8c823e3d90fd5b60248b601189634e487b7160e01b835252fd5b61349b91503d808c833e6117d78183612a30565b38613360565b6134ab8288613ee7565b92856134b5613cb1565b169761012c420198894211613474578a9182918b8b519485809481938d8c6338ed173960e01b9e8f865230928601946134ed9561319d565b03925af190811561346a578a91613578575b508051600019810191908211613474579261351f8193928a979695612cba565b51958692888d8b61352f89612c9a565b51169261353e8d61339f613cd3565b03925af1801561346a578a9796959492938894613419936135649361344c575050613d13565b9861356f8a86613fae565b96613403613cd3565b61358c91503d808c833e6117d78183612a30565b386134ff565b6135a890833d851161070b576106fc8183612a30565b50386132fc565b6135c590843d861161070b576106fc8183612a30565b50386132b9565b89513d8d823e3d90fd5b6135ec90843d861161070b576106fc8183612a30565b503861326c565b61360990843d861161070b576106fc8183612a30565b5038613225565b6007546040805163095ea7b360e01b8082526001600160a01b03938416600480840191909152602483018790526000979693959093919260209186169082816044818d865af1801561346a5761369992849286926139d2575b5088600854168c8b518096819582948c84528d8401602090939291936001600160a01b0360408201951681520152565b03925af180156139c8576139ab575b508551906136b5826129f8565b60028252863682840137856136c989612c8d565b51166136d483612c8d565b52856136df89612c9a565b51166136ea83612c9a565b526136f58284613ee7565b9186600754169061012c42019384421161397e5784928c92838a936137318e51978896879586946338ed173960e01b9e8f87523093870161319d565b03925af190811561346a578a91613991575b5080516000199182820191821161397e578b848b8b6137648f968d96612cba565b519485948c6137e8846137b987519b61377c8d6129f8565b60028d5288368b8f01378c61379c8461379484612c9a565b511691612c8d565b528c6137b3846137ab84612caa565b511691612c9a565b52612c9a565b5116946008541695519788968795869485528401602090939291936001600160a01b0360408201951681520152565b03925af18015613974578d92838961382a8f948f968f908d92613957575b506138118a87613fae565b97600854169651998a988997889687523093870161319d565b03925af19081156135cc578b9161393d575b508051918201918211613474576138558b928492612cba565b5195888a519b6138648d6129f8565b60028d528b36858f01378c8261387983612caa565b51169061388590612c8d565b528c8261389183612c8d565b51169061389d90612c9a565b526138a790612caa565b51168960075416918b5194858094819382528b8d8301916138dd92602090939291936001600160a01b0360408201951681520152565b03925af1801561346a57928a979695949261341992899561391f575b50506139058a86613ee7565b96600754169589519a8b988997889687523093870161319d565b8161393592903d1061070b576106fc8183612a30565b5038806138f9565b61395191503d808d833e6117d78183612a30565b3861383c565b61396d908d803d1061070b576106fc8183612a30565b5038613806565b8b513d8f823e3d90fd5b60248c60118a634e487b7160e01b835252fd5b6139a591503d808c833e6117d78183612a30565b38613743565b6139c190823d841161070b576106fc8183612a30565b50386136a8565b87513d8b823e3d90fd5b6139e890843d861161070b576106fc8183612a30565b5038613669565b906001600160a01b039081601054169081151580613b4b575b80613b42575b613a19575b50505050565b613a296127109160115490612c17565b04928315613a1357821691604051906370a0823160e01b82523060048301526020918281602481885afa8015610712578691600091613b11575b501015613a71575b50613a13565b60405163a9059cbb60e01b81526001600160a01b039390931660048401526024830185905281836044816000885af1928315610712577fae31919ed2f5e0afd03e95e56d2d512a4cfdfdfe29ae313f92dfccd88b47e68f93613af4575b50613adb85601254612b67565b6012556010541693604051908152a33880808080613a6b565b613b0a90833d851161070b576106fc8183612a30565b5038613ace565b809250848092503d8311613b3b575b613b2a8183612a30565b810103126102f45785905138613a63565b503d613b20565b50801515613a0e565b506011541515613a08565b60206001600160a01b0360248160025460081c169360405194859384927f613255ab0000000000000000000000000000000000000000000000000000000084521660048301525afa90811561071257600091613bbe575b501015613bb957600190565b600090565b90506020813d602011613be8575b81613bd960209383612a30565b810103126102f4575138613bad565b3d9150613bcc565b600460206001600160a01b0360035416604051928380927f074b2e430000000000000000000000000000000000000000000000000000000082525afa90811561071257600091613c60575b50612710916fffffffffffffffffffffffffffffffff613c5c921690612c17565b0490565b6020813d602011613ca9575b81613c7960209383612a30565b81010312613ca55751906fffffffffffffffffffffffffffffffff821682036131815750612710613c3b565b5080fd5b3d9150613c6c565b6007546001600160a01b03908116908115613cca575090565b90506005541690565b6008546001600160a01b03908116908115613cec575090565b90506004541690565b15613cb1576008546001600160a01b03908116908115613cec575090565b908151613d1f81612a52565b90613d2d6040519283612a30565b808252613d3c601f1991612a52565b0136602083013780916000805b855180821015613da4576000198101908111613d9057906001600160a01b03613d7d613d7783600195612bbf565b89612cba565b5116613d898287612cba565b5201613d49565b602483634e487b7160e01b81526011600452fd5b50505091925050565b60ff60025416613db957565b606460405162461bcd60e51b815260206004820152601060248201527f5061757361626c653a20706175736564000000000000000000000000000000006044820152fd5b600260015414613e0e576002600155565b606460405162461bcd60e51b815260206004820152601f60248201527f5265656e7472616e637947756172643a207265656e7472616e742063616c6c006044820152fd5b6000929493613e6b606093608084526080840190612dcd565b951515602083015260408201520152565b606090613e96600193959495608083526080830190612dcd565b946000602083015260408201520152565b919082519283825260005b848110613ed3575050826000602080949584010152601f8019910116010190565b602081830181015184830182015201613eb2565b613f2a916001600160a01b03613efb613cb1565b169160405192839163d06ca61f60e01b8352600483015260406024830152818060009687956044830190612dcd565b03915afa908115613fa3578291613f89575b508051600019810191908211613d905790613f5691612cba565b5190600b549161271092830391838311613f75575090613c5c91612c17565b80634e487b7160e01b602492526011600452fd5b613f9d91503d8084833e6117d78183612a30565b38613f3c565b6040513d84823e3d90fd5b613f2a916001600160a01b03613efb613cd356fea26469706673582212204644f3e6a79b42ed39da4bc31b5bcd01573085a66b73da3dc36bfe1f443c663564736f6c63430008180033",
  "linkReferences": {},
  "deployedLinkReferences": {}
}