{
  "_format": "hh-sol-artifact-1",
  "contractName": "FlashArbBotBalancer",
  "sourceName": "contracts/FlashArbBotBalancer.sol",
  "abi": [
    {
      "inputs": [
        {
          "internalType": "address",
          "name": "_vault",
          "type": "address"
        },
        {
          "internalType": "address",
          "name": "_sushiRouter",
          "type": "address"
        },
        {
          "internalType": "address",
          "name": "_uniRouter",
          "type": "address"
        },
        {
          "internalType": "address",
          "name": "_uniV3Quoter",
          "type": "address"
        }
      ],
      "stateMutability": "nonpayable",
      "type": "constructor"
    },
    {
      "anonymous": false,
      "inputs": [
        {
          "indexed": true,
          "internalType": "address",
          "name": "asset",
          "type": "address"
        },
        {
          "indexed": false,
          "internalType": "uint256",
          "name": "amount",
          "type": "uint256"
        },
        {
          "indexed": false,
          "internalType": "uint256",
          "name": "profit",
          "type": "uint256"
        },
        {
          "indexed": false,
          "internalType": "bool",
          "name": "sushiFirst",
          "type": "bool"
        }
      ],
      "name": "ArbitrageExecuted",
      "type": "event"
    },
    {
      "anonymous": false,
      "inputs": [
        {
          "indexed": true,
          "internalType": "uint256",
          "name": "chainId",
          "type": "uint256"
        },
        {
          "indexed": true,
          "internalType": "address",
          "name": "asset",
          "type": "address"
        },
        {
          "indexed": false,
          "internalType": "uint256",
          "name": "spread",
          "type": "uint256"
        },
        {
          "indexed": false,
          "internalType": "uint256",
          "name": "estimatedProfit",
          "type": "uint256"
        }
      ],
      "name": "CrossChainOpportunityDetected",
      "type": "event"
    },
    {
      "anonymous": false,
      "inputs": [
        {
          "indexed": false,
          "internalType": "enum FlashArbBotBalancer.FlashLoanProvider",
          "name": "provider",
          "type": "uint8"
        },
        {
          "indexed": false,
          "internalType": "address",
          "name": "asset",
          "type": "address"
        },
        {
          "indexed": false,
          "internalType": "uint256",
          "name": "amount",
          "type": "uint256"
        }
      ],
      "name": "FlashLoanProviderSelected",
      "type": "event"
    },
    {
      "anonymous": false,
      "inputs": [
        {
          "indexed": true,
          "internalType": "address",
          "name": "previousOwner",
          "type": "address"
        },
        {
          "indexed": true,
          "internalType": "address",
          "name": "newOwner",
          "type": "address"
        }
      ],
      "name": "OwnershipTransferred",
      "type": "event"
    },
    {
      "anonymous": false,
      "inputs": [
        {
          "indexed": false,
          "internalType": "address",
          "name": "account",
          "type": "address"
        }
      ],
      "name": "Paused",
      "type": "event"
    },
    {
      "anonymous": false,
      "inputs": [
        {
          "indexed": true,
          "internalType": "address",
          "name": "token",
          "type": "address"
        },
        {
          "indexed": false,
          "internalType": "uint256",
          "name": "amount",
          "type": "uint256"
        }
      ],
      "name": "ProfitWithdrawn",
      "type": "event"
    },
    {
      "anonymous": false,
      "inputs": [
        {
          "indexed": true,
          "internalType": "address",
          "name": "tokenA",
          "type": "address"
        },
        {
          "indexed": true,
          "internalType": "address",
          "name": "tokenB",
          "type": "address"
        },
        {
          "indexed": true,
          "internalType": "address",
          "name": "tokenC",
          "type": "address"
        },
        {
          "indexed": false,
          "internalType": "uint256",
          "name": "amount",
          "type": "uint256"
        },
        {
          "indexed": false,
          "internalType": "uint256",
          "name": "profit",
          "type": "uint256"
        }
      ],
      "name": "TriangularArbitrageExecuted",
      "type": "event"
    },
    {
      "anonymous": false,
      "inputs": [
        {
          "indexed": false,
          "internalType": "address",
          "name": "account",
          "type": "address"
        }
      ],
      "name": "Unpaused",
      "type": "event"
    },
    {
      "inputs": [],
      "name": "AAVE_POOL_ARBITRUM",
      "outputs": [
        {
          "internalType": "address",
          "name": "",
          "type": "address"
        }
      ],
      "stateMutability": "view",
      "type": "function"
    },
    {
      "inputs": [],
      "name": "AAVE_POOL_OPTIMISM",
      "outputs": [
        {
          "internalType": "address",
          "name": "",
          "type": "address"
        }
      ],
      "stateMutability": "view",
      "type": "function"
    },
    {
      "inputs": [],
      "name": "MAX_SLIPPAGE",
      "outputs": [
        {
          "internalType": "uint256",
          "name": "",
          "type": "uint256"
        }
      ],
      "stateMutability": "view",
      "type": "function"
    },
    {
      "inputs": [],
      "name": "MIN_PROFIT_BPS",
      "outputs": [
        {
          "internalType": "uint256",
          "name": "",
          "type": "uint256"
        }
      ],
      "stateMutability": "view",
      "type": "function"
    },
    {
      "inputs": [],
      "name": "SUSHI_ROUTER_NEW",
      "outputs": [
        {
          "internalType": "address",
          "name": "",
          "type": "address"
        }
      ],
      "stateMutability": "view",
      "type": "function"
    },
    {
      "inputs": [],
      "name": "SUSHI_ROUTER_OPT",
      "outputs": [
        {
          "internalType": "address",
          "name": "",
          "type": "address"
        }
      ],
      "stateMutability": "view",
      "type": "function"
    },
    {
      "inputs": [],
      "name": "UNI_V2_ROUTER_NEW",
      "outputs": [
        {
          "internalType": "address",
          "name": "",
          "type": "address"
        }
      ],
      "stateMutability": "view",
      "type": "function"
    },
    {
      "inputs": [],
      "name": "UNI_V2_ROUTER_OPT",
      "outputs": [
        {
          "internalType": "address",
          "name": "",
          "type": "address"
        }
      ],
      "stateMutability": "view",
      "type": "function"
    },
    {
      "inputs": [],
      "name": "USDC",
      "outputs": [
        {
          "internalType": "address",
          "name": "",
          "type": "address"
        }
      ],
      "stateMutability": "view",
      "type": "function"
    },
    {
      "inputs": [],
      "name": "USDT",
      "outputs": [
        {
          "internalType": "address",
          "name": "",
          "type": "address"
        }
      ],
      "stateMutability": "view",
      "type": "function"
    },
    {
      "inputs": [],
      "name": "WBTC",
      "outputs": [
        {
          "internalType": "address",
          "name": "",
          "type": "address"
        }
      ],
      "stateMutability": "view",
      "type": "function"
    },
    {
      "inputs": [],
      "name": "WETH",
      "outputs": [
        {
          "internalType": "address",
          "name": "",
          "type": "address"
        }
      ],
      "stateMutability": "view",
      "type": "function"
    },
    {
      "inputs": [],
      "name": "aavePool",
      "outputs": [
        {
          "internalType": "contract IPool",
          "name": "",
          "type": "address"
        }
      ],
      "stateMutability": "view",
      "type": "function"
    },
    {
      "inputs": [
        {
          "internalType": "address",
          "name": "",
          "type": "address"
        }
      ],
      "name": "authorizedCallers",
      "outputs": [
        {
          "internalType": "bool",
          "name": "",
          "type": "bool"
        }
      ],
      "stateMutability": "view",
      "type": "function"
    },
    {
      "inputs": [],
      "name": "currentChainId",
      "outputs": [
        {
          "internalType": "uint256",
          "name": "",
          "type": "uint256"
        }
      ],
      "stateMutability": "view",
      "type": "function"
    },
    {
      "inputs": [
        {
          "internalType": "address",
          "name": "token",
          "type": "address"
        }
      ],
      "name": "emergencyWithdraw",
      "outputs": [],
      "stateMutability": "nonpayable",
      "type": "function"
    },
    {
      "inputs": [
        {
          "internalType": "address",
          "name": "asset",
          "type": "address"
        },
        {
          "internalType": "uint256",
          "name": "amount",
          "type": "uint256"
        },
        {
          "internalType": "address[]",
          "name": "path",
          "type": "address[]"
        },
        {
          "internalType": "bool",
          "name": "sushiFirst",
          "type": "bool"
        },
        {
          "internalType": "uint256",
          "name": "expectedProfit",
          "type": "uint256"
        }
      ],
      "name": "executeArb",
      "outputs": [],
      "stateMutability": "nonpayable",
      "type": "function"
    },
    {
      "inputs": [
        {
          "internalType": "address",
          "name": "asset",
          "type": "address"
        },
        {
          "internalType": "uint256",
          "name": "amount",
          "type": "uint256"
        },
        {
          "internalType": "uint256",
          "name": "premium",
          "type": "uint256"
        },
        {
          "internalType": "address",
          "name": "initiator",
          "type": "address"
        },
        {
          "internalType": "bytes",
          "name": "params",
          "type": "bytes"
        }
      ],
      "name": "executeOperation",
      "outputs": [
        {
          "internalType": "bool",
          "name": "",
          "type": "bool"
        }
      ],
      "stateMutability": "nonpayable",
      "type": "function"
    },
    {
      "inputs": [
        {
          "internalType": "address",
          "name": "asset",
          "type": "address"
        },
        {
          "internalType": "uint256",
          "name": "amount",
          "type": "uint256"
        },
        {
          "internalType": "address[]",
          "name": "path",
          "type": "address[]"
        },
        {
          "internalType": "uint256",
          "name": "expectedProfit",
          "type": "uint256"
        }
      ],
      "name": "executeTriangularArb",
      "outputs": [],
      "stateMutability": "nonpayable",
      "type": "function"
    },
    {
      "inputs": [
        {
          "internalType": "address",
          "name": "asset",
          "type": "address"
        },
        {
          "internalType": "uint256",
          "name": "amount",
          "type": "uint256"
        }
      ],
      "name": "getOptimalProvider",
      "outputs": [
        {
          "internalType": "enum FlashArbBotBalancer.FlashLoanProvider",
          "name": "provider",
          "type": "uint8"
        },
        {
          "internalType": "uint256",
          "name": "fee",
          "type": "uint256"
        }
      ],
      "stateMutability": "view",
      "type": "function"
    },
    {
      "inputs": [],
      "name": "isArbitrum",
      "outputs": [
        {
          "internalType": "bool",
          "name": "",
          "type": "bool"
        }
      ],
      "stateMutability": "view",
      "type": "function"
    },
    {
      "inputs": [],
      "name": "isOptimism",
      "outputs": [
        {
          "internalType": "bool",
          "name": "",
          "type": "bool"
        }
      ],
      "stateMutability": "view",
      "type": "function"
    },
    {
      "inputs": [],
      "name": "minProfitBps",
      "outputs": [
        {
          "internalType": "uint256",
          "name": "",
          "type": "uint256"
        }
      ],
      "stateMutability": "view",
      "type": "function"
    },
    {
      "inputs": [],
      "name": "owner",
      "outputs": [
        {
          "internalType": "address",
          "name": "",
          "type": "address"
        }
      ],
      "stateMutability": "view",
      "type": "function"
    },
    {
      "inputs": [],
      "name": "pause",
      "outputs": [],
      "stateMutability": "nonpayable",
      "type": "function"
    },
    {
      "inputs": [],
      "name": "paused",
      "outputs": [
        {
          "internalType": "bool",
          "name": "",
          "type": "bool"
        }
      ],
      "stateMutability": "view",
      "type": "function"
    },
    {
      "inputs": [
        {
          "internalType": "address",
          "name": "",
          "type": "address"
        }
      ],
      "name": "priceFeeds",
      "outputs": [
        {
          "internalType": "address",
          "name": "",
          "type": "address"
        }
      ],
      "stateMutability": "view",
      "type": "function"
    },
    {
      "inputs": [
        {
          "internalType": "address[]",
          "name": "tokens",
          "type": "address[]"
        },
        {
          "internalType": "uint256[]",
          "name": "amounts",
          "type": "uint256[]"
        },
        {
          "internalType": "uint256[]",
          "name": "feeAmounts",
          "type": "uint256[]"
        },
        {
          "internalType": "bytes",
          "name": "userData",
          "type": "bytes"
        }
      ],
      "name": "receiveFlashLoan",
      "outputs": [],
      "stateMutability": "nonpayable",
      "type": "function"
    },
    {
      "inputs": [],
      "name": "renounceOwnership",
      "outputs": [],
      "stateMutability": "nonpayable",
      "type": "function"
    },
    {
      "inputs": [
        {
          "internalType": "address",
          "name": "caller",
          "type": "address"
        },
        {
          "internalType": "bool",
          "name": "authorized",
          "type": "bool"
        }
      ],
      "name": "setAuthorizedCaller",
      "outputs": [],
      "stateMutability": "nonpayable",
      "type": "function"
    },
    {
      "inputs": [
        {
          "internalType": "uint256",
          "name": "_minProfit",
          "type": "uint256"
        }
      ],
      "name": "setMinProfitBps",
      "outputs": [],
      "stateMutability": "nonpayable",
      "type": "function"
    },
    {
      "inputs": [
        {
          "internalType": "address",
          "name": "token",
          "type": "address"
        },
        {
          "internalType": "address",
          "name": "feed",
          "type": "address"
        }
      ],
      "name": "setPriceFeed",
      "outputs": [],
      "stateMutability": "nonpayable",
      "type": "function"
    },
    {
      "inputs": [
        {
          "internalType": "uint256",
          "name": "_slippage",
          "type": "uint256"
        }
      ],
      "name": "setSlippageTolerance",
      "outputs": [],
      "stateMutability": "nonpayable",
      "type": "function"
    },
    {
      "inputs": [
        {
          "internalType": "address",
          "name": "asset",
          "type": "address"
        },
        {
          "internalType": "uint256",
          "name": "amount",
          "type": "uint256"
        },
        {
          "internalType": "address[]",
          "name": "path",
          "type": "address[]"
        },
        {
          "internalType": "bool",
          "name": "sushiFirst",
          "type": "bool"
        }
      ],
      "name": "simulateArbitrage",
      "outputs": [
        {
          "internalType": "uint256",
          "name": "profit",
          "type": "uint256"
        }
      ],
      "stateMutability": "view",
      "type": "function"
    },
    {
      "inputs": [
        {
          "internalType": "address",
          "name": "asset",
          "type": "address"
        },
        {
          "internalType": "uint256",
          "name": "amount",
          "type": "uint256"
        },
        {
          "internalType": "address[]",
          "name": "path",
          "type": "address[]"
        }
      ],
      "name": "simulateTriangularArbitrage",
      "outputs": [
        {
          "internalType": "uint256",
          "name": "profit",
          "type": "uint256"
        }
      ],
      "stateMutability": "view",
      "type": "function"
    },
    {
      "inputs": [],
      "name": "slippageTolerance",
      "outputs": [
        {
          "internalType": "uint256",
          "name": "",
          "type": "uint256"
        }
      ],
      "stateMutability": "view",
      "type": "function"
    },
    {
      "inputs": [],
      "name": "sushiRouter",
      "outputs": [
        {
          "internalType": "contract IUniswapV2Router02",
          "name": "",
          "type": "address"
        }
      ],
      "stateMutability": "view",
      "type": "function"
    },
    {
      "inputs": [],
      "name": "sushiRouterNew",
      "outputs": [
        {
          "internalType": "contract IUniswapV2Router02",
          "name": "",
          "type": "address"
        }
      ],
      "stateMutability": "view",
      "type": "function"
    },
    {
      "inputs": [
        {
          "internalType": "address",
          "name": "newOwner",
          "type": "address"
        }
      ],
      "name": "transferOwnership",
      "outputs": [],
      "stateMutability": "nonpayable",
      "type": "function"
    },
    {
      "inputs": [],
      "name": "uniRouter",
      "outputs": [
        {
          "internalType": "contract IUniswapV2Router02",
          "name": "",
          "type": "address"
        }
      ],
      "stateMutability": "view",
      "type": "function"
    },
    {
      "inputs": [],
      "name": "uniV2RouterNew",
      "outputs": [
        {
          "internalType": "contract IUniswapV2Router02",
          "name": "",
          "type": "address"
        }
      ],
      "stateMutability": "view",
      "type": "function"
    },
    {
      "inputs": [],
      "name": "uniV3Quoter",
      "outputs": [
        {
          "internalType": "contract IUniswapV3Quoter",
          "name": "",
          "type": "address"
        }
      ],
      "stateMutability": "view",
      "type": "function"
    },
    {
      "inputs": [],
      "name": "unpause",
      "outputs": [],
      "stateMutability": "nonpayable",
      "type": "function"
    },
    {
      "inputs": [],
      "name": "vault",
      "outputs": [
        {
          "internalType": "contract IBalancerVault",
          "name": "",
          "type": "address"
        }
      ],
      "stateMutability": "view",
      "type": "function"
    },
    {
      "inputs": [
        {
          "internalType": "address",
          "name": "token",
          "type": "address"
        }
      ],
      "name": "withdraw",
      "outputs": [],
      "stateMutability": "nonpayable",
      "type": "function"
    }
  ],
  "bytecode": "0x6080346200021f57601f6200394838819003918201601f19168301916001600160401b0383118484101762000224578084926080946040528339810103126200021f576200004d816200023a565b6200005b602083016200023a565b6200007760606200006f604086016200023a565b94016200023a565b600080546001600160a01b03198082163390811784556040519791956001600160a01b0395948694859391908416907f8be0079c531659141344cd1fd0a4f28419497f9722a3daafe3b4186f6b6457e09080a36001805560025460c8600b55601e600c55600898610100600160a81b03908a1b169060018060a81b0319161760025516856004541617600455168360055416176005551681600654161760065546600955600a5460ff80600a461416809261ff0061a4b14614871b169061ffff1916171780600a55841c16600014620001b1575073794a61358d6845594f94dc1db02a252b5b4814ad91734752ba5dbc23f44d87826276bf6fd6b1c372ad2482600754161760075573f2614a233c7c3e7f08b1f887ba133a13f1eb2c558282541617905560035416176003555b6136f89081620002508239f35b620001bf575b5050620001a4565b73794a61358d6845594f94dc1db02a252b5b4814ad91734a7b5da61326a6379179b40d00f57e5bbdc962c2826007541617600755732abf469074dc0b54d793850807e6eb5faf2625b18282541617905560035416176003553880620001b7565b600080fd5b634e487b7160e01b600052604160045260246000fd5b51906001600160a01b03821682036200021f5756fe608080604052600436101561001357600080fd5b60003560e01c9081624670f11461217b57508063117da1ee1461210d57806315482ab2146120de57806318d0b3ce146120af5780631b11d0ff14611d17578063277dd7e01461196657806329f2c8f014611940578063383aeeae146119225780633b9debf6146118fb5780633c988982146118cc5780633cd3d2ec14610b7d5780633f4ba83a14611830578063454bbd29146117d85780634dede3de146117a9578063507a22911461178d57806351cff8d91461162e578063536fff6c146115ef5780635c975abb146115cc5780636cbadbfa146115ae5780636d13582c146115875780636ff1c9bc14611494578063715018a61461142e57806376e11286146113c6578063795674ff1461139f5780638456cb591461134557806389a30271146113165780638da5cb5b146112ef5780639dcb511a146112b4578063a03e4bc31461128d578063a0e47bf614611266578063a6fed78e14611211578063ad5c4648146111e2578063c01f252414610f52578063c54e44eb14610f23578063c69aec5614610bea578063d03153aa14610bcc578063ea04665914610ba5578063ec961a0514610b82578063ed6f1f4c14610b7d578063ee9ed9d714610786578063f04f2707146103a9578063f2fde38b146102c4578063f9759518146102a7578063fbfa77cf1461027d5763fcff2c281461020d57600080fd5b34610278576020366003190112610278576004356102296127f0565b801561023457600c55005b606460405162461bcd60e51b815260206004820152601b60248201527f4d696e2070726f666974206d75737420626520706f73697469766500000000006044820152fd5b600080fd5b346102785760003660031901126102785760206001600160a01b0360025460081c16604051908152f35b346102785760003660031901126102785760206040516101f48152f35b34610278576020366003190112610278576102dd6121a8565b6102e56127f0565b6001600160a01b0380911690811561033f576000548273ffffffffffffffffffffffffffffffffffffffff19821617600055167f8be0079c531659141344cd1fd0a4f28419497f9722a3daafe3b4186f6b6457e0600080a3005b608460405162461bcd60e51b815260206004820152602660248201527f4f776e61626c653a206e6577206f776e657220697320746865207a65726f206160448201527f64647265737300000000000000000000000000000000000000000000000000006064820152fd5b346102785760803660031901126102785767ffffffffffffffff600435818111610278576103db903690600401612200565b9190602435828111610278576103f5903690600401612200565b90916044358481116102785761040f903690600401612200565b9094606435908111610278576104299036906004016121d2565b906001600160a01b0360025460081c1633036107425761044b9181019061236e565b93929791949098156106bb576104609061257c565b94156106bb576104776104728861285f565b6123ca565b6040516370a0823160e01b81523060048201526020816024816001600160a01b038a165afa801561069957610717575b508215610705576104ba87873587612e77565b604051916370a0823160e01b83523060048401526020836024816001600160a01b038a165afa928315610699576000936106d1575b50156106bb5761050461051791358735612415565b826105128280951015612422565b61246d565b9661053461271061052b600c5489356124c5565b0489101561247a565b605f810290808204605f14901517156106a5576105949161055c6064602093048a10156124d8565b60025460405163095ea7b360e01b815260089190911c6001600160a01b03166004820152602481019190915291829081906044820190565b038160006001600160a01b0389165af180156106995761066a575b501561061c5750507f511dc6c70263758503ff9aee3e77f3e7bef3cabee21a4eb0b017e7cf0438f2f260406001600160a01b036105eb8561253b565b5116926001600160a01b0361060b8161060388612548565b511696612558565b5116958251913582526020820152a4005b604080519335845260208401959095521515938201939093526001600160a01b03909216917f05625c164577e109e0c8964ab47768b235a36d08f5146dfa9858a382fa5c5efd9150606090a2005b61068b9060203d602011610692575b61068381836122de565b810190612523565b50866105af565b503d610679565b6040513d6000823e3d90fd5b634e487b7160e01b600052601160045260246000fd5b634e487b7160e01b600052603260045260246000fd5b9092506020813d6020116106fd575b816106ed602093836122de565b81010312610278575191896104ef565b3d91506106e0565b6107128488883588612a3c565b6104ba565b602090813d831161073b575b61072d81836122de565b8101031261027857886104a7565b503d610723565b606460405162461bcd60e51b815260206004820152601360248201527f4f6e6c792042616c616e636572207661756c74000000000000000000000000006044820152fd5b3461027857600319608036820112610278576107a06121a8565b90602491823560443567ffffffffffffffff8111610278576107c6903690600401612200565b9390926064359233600052602094600e865260ff604060002054168015610b64575b6107f19061270f565b6107f96134ad565b6108016134fd565b60048703610afb578615610ae6576108188161257c565b968060031015610ad1576108456001600160a01b0398898061083c6060870161257c565b16911614612590565b61085083151561275a565b61085b8615156127a5565b6108658385613256565b6002811015610abc576109dd579061087e913691612318565b946040519661088c886122c2565b7ff5ea93fa71a16e89b26b22976590659f91d44ae3f503be2afcd292796d305218606060019560018b528436818d0137836108c68c61253b565b9116809152604051956108d8876122c2565b600187526109128688019b878d369037826108f28a61253b565b526109046040519c8d928a840161357c565b03601f1981018c528b6122de565b6040519160008352868301526040820152a160025460081c1696873b1561027857918161096460809a9897969593946040519b8c9a632e1c224f60e11b8c523060048d01528b015260848a019061267b565b91858984030160448a0152519182815201959260005b8281106109c7575050505050836109a18482946000989694848a96030160648501526135a7565b03925af18015610699576109b8575b505b60018055005b6109c19061227c565b806109b0565b845188528a98509681019693810193830161097a565b606092969598979450610a177ff5ea93fa71a16e89b26b22976590659f91d44ae3f503be2afcd292796d3052189492610a36923691612318565b610a286040519a8b9289840161357c565b03601f1981018a52896122de565b836040519160018352168095820152856040820152a16003541690813b156102785760008094610a92604051978896879586946310ac2ddf60e21b8652306004870152850152604484015260a0606484015260a48301906135a7565b82608483015203925af1801561069957610aad575b506109b2565b610ab69061227c565b80610aa7565b89634e487b7160e01b60005260216004526000fd5b88634e487b7160e01b60005260326004526000fd5b87634e487b7160e01b60005260326004526000fd5b608486602f8a6040519262461bcd60e51b845260048401528201527f547269616e67756c61722070617468206d7573742068617665203420746f6b6560448201527f6e732028412d3e422d3e432d3e412900000000000000000000000000000000006064820152fd5b506107f16001600160a01b0360005416331490506107e8565b612231565b3461027857600036600319011261027857602060ff600a54166040519015158152f35b346102785760003660031901126102785760206001600160a01b0360085416604051908152f35b34610278576000366003190112610278576020600b54604051908152f35b346102785760031960a03682011261027857610c046121a8565b6024359060443567ffffffffffffffff811161027857610c28903690600401612200565b919093610c33612260565b936084359433600052602094600e865260ff604060002054168015610f0a575b610c5c9061270f565b610c646134ad565b610c6c6134fd565b60028110610ec657610c7f83151561275a565b610c8a8715156127a5565b610c948386613256565b6002811015610eb057610df257859697610caf913691612318565b937ff5ea93fa71a16e89b26b22976590659f91d44ae3f503be2afcd292796d3052186060604051998a95610ce2876122c2565b610d4c8a610d3e610cfe60019a6001815283368183013761253b565b946001600160a01b0380991680965260405199610d1a8b6122c2565b60018b52838b019e8f36903785610d308c61253b565b526040519d8e948501613552565b03601f1981018b528a6122de565b60405191600083528b8301526040820152a160025460081c1695863b15610278579091610d9f979594939282604051998a98632e1c224f60e11b8a523060048b0152608060248b015260848a019061267b565b91858984030160448a0152519182815201959260005b828110610ddc575050505050836109a18482946000989694848a96030160648501526135a7565b845188528a985096810196938101938301610db5565b610e279350610e199195969297610e0a913691612318565b91604051958693888501613552565b03601f1981018452836122de565b7ff5ea93fa71a16e89b26b22976590659f91d44ae3f503be2afcd292796d3052186060604051600181526001600160a01b038094168096820152866040820152a160035416803b1561027857610a929360008094604051968795869485936310ac2ddf60e21b85523060048601526024850152604484015260a0606484015260a48301906135a7565b634e487b7160e01b600052602160045260246000fd5b6064866040519062461bcd60e51b82526004820152600c60248201527f496e76616c6964207061746800000000000000000000000000000000000000006044820152fd5b50610c5c6001600160a01b036000541633149050610c53565b3461027857600036600319011261027857602060405173fd086bc7cd5c481dcc9c85ebe478a1c0b69fcbb98152f35b3461027857608036600319011261027857610f6b6121a8565b506024803560443567ffffffffffffffff811161027857610f90903690600401612200565b9082610f9a612260565b610fa3816133f5565b93610fae82156133f5565b9115611127576001600160a01b0360006040518097818481610fe0888c63d06ca61f60e01b9c8d8552600485016126b8565b0392165afa9586156106995760009661110a575b5085516000198101969087116110f55761102360009661101a61104a9961102894612568565b51943691612318565b613413565b93604051968795869485938452600484015260408b840152604483019061267b565b0392165afa908115610699576000916110d2575b505b80516000198101919082116110bd579061107991612568565b51818111156110b25761108f826110959261246d565b916132f0565b90818111156110b2576020916110aa9161246d565b604051908152f35b5050602060006110aa565b83634e487b7160e01b60005260116004526000fd5b6110ef91503d806000833e6110e781836122de565b810190612601565b8361105e565b88634e487b7160e01b60005260116004526000fd5b6111209196503d806000833e6110e781836122de565b9488610ff4565b6001600160a01b0394919460006040518097818481611156888c63d06ca61f60e01b9c8d8552600485016126b8565b0392165afa958615610699576000966111c5575b5085516000198101969087116110f55761102360009661101a6111909961102894612568565b0392165afa908115610699576000916111aa575b50611060565b6111bf91503d806000833e6110e781836122de565b836111a4565b6111db9196503d806000833e6110e781836122de565b948861116a565b346102785760003660031901126102785760206040517382af49447d8a07e3bd95bd0d56f35241523fbab18152f35b346102785760403660031901126102785761122a6121a8565b6112376024358092613256565b6002811015610eb05760409181611258575060005b82519182526020820152f35b611261906132f0565b61124c565b346102785760003660031901126102785760206001600160a01b0360055416604051908152f35b346102785760003660031901126102785760206001600160a01b0360035416604051908152f35b346102785760203660031901126102785760206001600160a01b03806112d86121a8565b16600052600d825260406000205416604051908152f35b346102785760003660031901126102785760206001600160a01b0360005416604051908152f35b3461027857600036600319011261027857602060405173ff970a61a04b1ca14834a43f5de4533ebddb5cc88152f35b346102785760003660031901126102785761135e6127f0565b6113666134ad565b600160ff1960025416176002557f62e78cea01bee320cd4e420270b5ea74000d11b0c9f74754ebdbfc544b05a2586020604051338152a1005b346102785760003660031901126102785760206001600160a01b0360065416604051908152f35b34610278576040366003190112610278576113df6121a8565b602435906001600160a01b0390818316809303610278576113fe6127f0565b16600052600d60205260406000209073ffffffffffffffffffffffffffffffffffffffff19825416179055600080f35b34610278576000366003190112610278576114476127f0565b60006001600160a01b03815473ffffffffffffffffffffffffffffffffffffffff1981168355167f8be0079c531659141344cd1fd0a4f28419497f9722a3daafe3b4186f6b6457e08280a3005b3461027857602080600319360112610278576114ae6121a8565b6114b66127f0565b6001600160a01b03809116906040516370a0823160e01b81523060048201528381602481865afa9081156106995760009161155a575b50806114f457005b61153292849260005416600060405180968195829463a9059cbb60e01b845260048401602090939291936001600160a01b0360408201951681520152565b03925af180156106995761154257005b8161155892903d106106925761068381836122de565b005b90508381813d8311611580575b61157181836122de565b810103126102785751846114ec565b503d611567565b346102785760003660031901126102785760206001600160a01b0360045416604051908152f35b34610278576000366003190112610278576020600954604051908152f35b3461027857600036600319011261027857602060ff600254166040519015158152f35b34610278576020366003190112610278576001600160a01b036116106121a8565b16600052600e602052602060ff604060002054166040519015158152f35b3461027857602080600319360112610278576116486121a8565b906116516127f0565b6040516370a0823160e01b81523060048201526001600160a01b03928316928282602481875afa9182156106995760009261175e575b50811561171a5760005460405163a9059cbb60e01b815291166001600160a01b031660048201526024810182905291908183806044810103816000885af1928315610699577f016e128b6bdadd9e9068abd0b18db2fc8b27ed3dbced50e4aa6cc0a6934251ab936116fd575b50604051908152a2005b61171390833d85116106925761068381836122de565b50846116f3565b6064836040519062461bcd60e51b82526004820152601660248201527f4e6f2062616c616e636520746f207769746864726177000000000000000000006044820152fd5b9091508281813d8311611786575b61177681836122de565b8101031261027857519084611687565b503d61176c565b3461027857600036600319011261027857602060405160328152f35b34610278576000366003190112610278576020604051732f2a2543b76a4166549f7aab2e75bef0aefc5b0f8152f35b34610278576040366003190112610278576117f16121a8565b60243590811515809203610278576001600160a01b03906118106127f0565b16600052600e60205260406000209060ff80198354169116179055600080f35b34610278576000366003190112610278576118496127f0565b60025460ff8116156118885760ff19166002557f5db9ee0a495bf2e6ff9c91a7834c1ba4fdd244a5e8aa4e537bd38aeae4b073aa6020604051338152a1005b606460405162461bcd60e51b815260206004820152601460248201527f5061757361626c653a206e6f74207061757365640000000000000000000000006044820152fd5b34610278576000366003190112610278576020604051734a7b5da61326a6379179b40d00f57e5bbdc962c28152f35b346102785760003660031901126102785760206001600160a01b0360075416604051908152f35b34610278576000366003190112610278576020600c54604051908152f35b3461027857600036600319011261027857602060ff600a5460081c166040519015158152f35b346102785760603660031901126102785761197f6121a8565b506024803560443567ffffffffffffffff8111610278576119a4903690600401612200565b9060048203611cad578115611c98576119bc8161257c565b908260031015611c83576119e06001600160a01b0392838061083c6060860161257c565b604051926119ed846122a6565b600284526040366020860137611a028261257c565b83611a0c8661253b565b911690528060011015611c6e576020820191611a278361257c565b84611a3187612548565b9116905283600754169086600060408a611a6982519a8b93849363d06ca61f60e01b978886526004860152840152604483019061267b565b0381865afa96871561069957600097611c51575b5086516000199790888101908111611c3c57611a9891612568565b5193611abb60405196611aaa886122a6565b6002885260403660208a013761257c565b87611ac58861253b565b9116905260021015610ad1576000604080840195611ae28761257c565b89611aec8a612548565b911690528b896008541691611b1884519a8b95869485948a86526004860152840152604483019061267b565b03915afa94851561069957600095611c1f575b50845195878701968711611c0a57611b81611b4b611bb098600098612568565b5193611b6e60405197611b5d896122a6565b6002895260403660208b013761257c565b83611b788961253b565b9116905261257c565b90611b8b86612548565b91169052604051958694859384938452600484015260408b840152604483019061267b565b03915afa90811561069957600091611bef575b5080519182019182116110bd5790611bda91612568565b51818111156110b2576020916110aa9161246d565b611c0491503d806000833e6110e781836122de565b84611bc3565b89634e487b7160e01b60005260116004526000fd5b611c359195503d806000833e6110e781836122de565b9389611b2b565b8a634e487b7160e01b60005260116004526000fd5b611c679197503d806000833e6110e781836122de565b9589611a7d565b85634e487b7160e01b60005260326004526000fd5b84634e487b7160e01b60005260326004526000fd5b83634e487b7160e01b60005260326004526000fd5b60848460226040519162461bcd60e51b8352602060048401528201527f547269616e67756c61722070617468206d7573742068617665203420746f6b6560448201527f6e730000000000000000000000000000000000000000000000000000000000006064820152fd5b346102785760a036600319011261027857611d306121a8565b6024906064356001600160a01b0381168091036102785760843567ffffffffffffffff811161027857611d679036906004016121d2565b90916001600160a01b0360035416330361206b5730036120275790611d8e9181019061236e565b611d9f61047285969493979561285f565b6040516370a0823160e01b815230600482015260208186816001600160a01b0388165afa801561069957611ffc575b508015611fea57611de185853585612e77565b6040516370a0823160e01b815230600482015260208186816001600160a01b0388165afa90811561069957600091611fb8575b50611e256105046044358735612415565b96611e4d611e45604435612710611e3f600c548b356124c5565b04612415565b89101561247a565b605a810290808204605a1490151715611fa357611ea991611e756064602093048a10156124d8565b60035460405163095ea7b360e01b81526001600160a01b039091166004820152602481019190915291829081906044820190565b038160006001600160a01b0389165af1801561069957611f84575b5015611f335750507f511dc6c70263758503ff9aee3e77f3e7bef3cabee21a4eb0b017e7cf0438f2f260406001600160a01b03611f008561253b565b5116926001600160a01b03611f188161060388612548565b5116958251913582526020820152a45b602060405160018152f35b604080519335845260208401959095521515938201939093526001600160a01b03909216917f05625c164577e109e0c8964ab47768b235a36d08f5146dfa9858a382fa5c5efd9150606090a2611f28565b611f9c9060203d6020116106925761068381836122de565b5086611ec4565b85634e487b7160e01b60005260116004526000fd5b90506020813d602011611fe2575b81611fd3602093836122de565b81010312610278575187611e14565b3d9150611fc6565b611ff78286863586612a3c565b611de1565b602090813d8311612020575b61201281836122de565b810103126102785786611dce565b503d612008565b60648460116040519162461bcd60e51b8352602060048401528201527f496e76616c696420696e69746961746f720000000000000000000000000000006044820152fd5b606485600e6040519162461bcd60e51b8352602060048401528201527f4f6e6c79204161766520706f6f6c0000000000000000000000000000000000006044820152fd5b34610278576000366003190112610278576020604051734752ba5dbc23f44d87826276bf6fd6b1c372ad248152f35b34610278576000366003190112610278576020604051732abf469074dc0b54d793850807e6eb5faf2625b18152f35b34610278576020366003190112610278576004356121296127f0565b6101f4811161213757600b55005b606460405162461bcd60e51b815260206004820152601160248201527f536c69707061676520746f6f20686967680000000000000000000000000000006044820152fd5b34610278576000366003190112610278578073f2614a233c7c3e7f08b1f887ba133a13f1eb2c5560209252f35b600435906001600160a01b038216820361027857565b35906001600160a01b038216820361027857565b9181601f840112156102785782359167ffffffffffffffff8311610278576020838186019501011161027857565b9181601f840112156102785782359167ffffffffffffffff8311610278576020808501948460051b01011161027857565b3461027857600036600319011261027857602060405173794a61358d6845594f94dc1db02a252b5b4814ad8152f35b60643590811515820361027857565b3590811515820361027857565b67ffffffffffffffff811161229057604052565b634e487b7160e01b600052604160045260246000fd5b6060810190811067ffffffffffffffff82111761229057604052565b6040810190811067ffffffffffffffff82111761229057604052565b90601f8019910116810190811067ffffffffffffffff82111761229057604052565b67ffffffffffffffff81116122905760051b60200190565b929161232382612300565b9161233160405193846122de565b829481845260208094019160051b810192831161027857905b8282106123575750505050565b838091612363846121be565b81520191019061234a565b919060808382031261027857823567ffffffffffffffff81116102785783019080601f83011215610278578160206123a893359101612318565b916123b56020820161226f565b916123c760606040840135930161226f565b90565b156123d157565b606460405162461bcd60e51b815260206004820152601260248201527f496e76616c6964207072696365206665656400000000000000000000000000006044820152fd5b919082018092116106a557565b1561242957565b606460405162461bcd60e51b815260206004820152600c60248201527f556e70726f66697461626c6500000000000000000000000000000000000000006044820152fd5b919082039182116106a557565b1561248157565b606460405162461bcd60e51b815260206004820152600e60248201527f50726f66697420746f6f206c6f770000000000000000000000000000000000006044820152fd5b818102929181159184041417156106a557565b156124df57565b606460405162461bcd60e51b815260206004820152601960248201527f50726f66697420646576696174696f6e20746f6f2068696768000000000000006044820152fd5b90816020910312610278575180151581036102785790565b8051156106bb5760200190565b8051600110156106bb5760400190565b8051600210156106bb5760600190565b80518210156106bb5760209160051b010190565b356001600160a01b03811681036102785790565b1561259757565b608460405162461bcd60e51b815260206004820152602760248201527f50617468206d75737420737461727420616e6420656e6420776974682073616d60448201527f6520746f6b656e000000000000000000000000000000000000000000000000006064820152fd5b60209081818403126102785780519067ffffffffffffffff821161027857019180601f8401121561027857825161263781612300565b9361264560405195866122de565b818552838086019260051b820101928311610278578301905b82821061266c575050505090565b8151815290830190830161265e565b90815180825260208080930193019160005b82811061269b575050505090565b83516001600160a01b03168552938101939281019260010161268d565b606090939192936040810193815282602094604060208401525201929160005b8281106126e6575050505090565b9091929382806001926001600160a01b03612700896121be565b168152019501939291016126d8565b1561271657565b606460405162461bcd60e51b815260206004820152600e60248201527f4e6f7420617574686f72697a65640000000000000000000000000000000000006044820152fd5b1561276157565b606460405162461bcd60e51b815260206004820152601760248201527f416d6f756e74206d75737420626520706f7369746976650000000000000000006044820152fd5b156127ac57565b606460405162461bcd60e51b815260206004820152602060248201527f45787065637465642070726f666974206d75737420626520706f7369746976656044820152fd5b6001600160a01b0360005416330361280457565b606460405162461bcd60e51b815260206004820152602060248201527f4f776e61626c653a2063616c6c6572206973206e6f7420746865206f776e65726044820152fd5b519069ffffffffffffffffffff8216820361027857565b60005b81518110156129fd576001600160a01b038061287e8385612568565b5116600052600d6020818152604092808460002054166128a5575b50505050600101612862565b806128b08688612568565b51166000528282528360002054169280518080957ffeaf968c00000000000000000000000000000000000000000000000000000000825260a091829160049889915afa9182156129f257600091829361299f575b50506000121561295f5761291b610e10914261246d565b106128995760649450519262461bcd60e51b845283015260248201527f507269636520746f6f206f6c64000000000000000000000000000000000000006044820152fd5b5060649450519262461bcd60e51b845283015260248201527f496e76616c6964207072696365000000000000000000000000000000000000006044820152fd5b90809350813d83116129eb575b6129b681836122de565b810103126129e857506129c881612848565b506000838201516129e0608060608501519401612848565b509038612904565b80fd5b503d6129ac565b83513d6000823e3d90fd5b5050600190565b91608093612a31916001600160a01b0393989796988552602085015260a0604085015260a084019061267b565b951660608201520152565b600480546040805163095ea7b360e01b8082526001600160a01b0393841682860152602482018790526000989697929693959093602092909187169083816044818e865af18015612e3357612e5a575b508883898c8989612ac38d6005541694519687958694859485528401602090939291936001600160a01b0360408201951681520152565b0391865af18015612e3357612e3d575b508883898c8989612b0a8d6007541694519687958694859485528401602090939291936001600160a01b0360408201951681520152565b0391865af18015612e33578a9285928b92612e16575b50888d89612b548d6008541695519788968795869485528401602090939291936001600160a01b0360408201951681520152565b03925af18015612cd157612df9575b5015612d0857612b7382886136ae565b9285612b7d6133d3565b169761012c420198894211612cdb578a9182918b8b519485809481938d8c6338ed173960e01b9e8f86523092860194612bb595612a04565b03925af1908115612cd1578a91612cee575b508051600019810191908211612cdb5792612be78193928a979695612568565b51958692888d8b612bf789612548565b511692612c2f8d612c066133b1565b1695519788968795869485528401602090939291936001600160a01b0360408201951681520152565b03925af18015612cd1578a9796959492938894612c8093612c5693612cb3575b5050613413565b98612c618a866135e7565b96612c6a6133b1565b169589519a8b9889978896875230938701612a04565b03925af1908115612caa5750612c94575050565b612ca7913d8091833e6110e781836122de565b50565b513d84823e3d90fd5b81612cc992903d106106925761068381836122de565b503880612c4f565b88513d8c823e3d90fd5b60248b601189634e487b7160e01b835252fd5b612d0291503d808c833e6110e781836122de565b38612bc7565b612d1282886135e7565b9285612d1c6133b1565b169761012c420198894211612cdb578a9182918b8b519485809481938d8c6338ed173960e01b9e8f86523092860194612d5495612a04565b03925af1908115612cd1578a91612ddf575b508051600019810191908211612cdb5792612d868193928a979695612568565b51958692888d8b612d9689612548565b511692612da58d612c066133d3565b03925af18015612cd1578a9796959492938894612c8093612dcb93612cb3575050613413565b98612dd68a866136ae565b96612c6a6133d3565b612df391503d808c833e6110e781836122de565b38612d66565b612e0f90833d85116106925761068381836122de565b5038612b63565b612e2c90843d86116106925761068381836122de565b5038612b20565b89513d8d823e3d90fd5b612e5390843d86116106925761068381836122de565b5038612ad3565b612e7090843d86116106925761068381836122de565b5038612a8c565b6007546040805163095ea7b360e01b8082526001600160a01b03938416600480840191909152602483018790526000979693959093919260209186169082816044818d865af18015612cd157612f009284928692613239575b5088600854168c8b518096819582948c84528d8401602090939291936001600160a01b0360408201951681520152565b03925af1801561322f57613212575b50855190612f1c826122a6565b6002825286368284013785612f308961253b565b5116612f3b8361253b565b5285612f4689612548565b5116612f5183612548565b52612f5c82846135e7565b9186600754169061012c4201938442116131e55784928c92838a93612f988e51978896879586946338ed173960e01b9e8f875230938701612a04565b03925af1908115612cd1578a916131f8575b508051600019918282019182116131e5578b848b8b612fcb8f968d96612568565b519485948c61304f8461302087519b612fe38d6122a6565b60028d5288368b8f01378c61300384612ffb84612548565b51169161253b565b528c61301a8461301284612558565b511691612548565b52612548565b5116946008541695519788968795869485528401602090939291936001600160a01b0360408201951681520152565b03925af180156131db578d9283896130918f948f968f908d926131be575b506130788a876136ae565b97600854169651998a9889978896875230938701612a04565b03925af1908115612e33578b916131a4575b508051918201918211612cdb576130bc8b928492612568565b5195888a519b6130cb8d6122a6565b60028d528b36858f01378c826130e083612558565b5116906130ec9061253b565b528c826130f88361253b565b51169061310490612548565b5261310e90612558565b51168960075416918b5194858094819382528b8d83019161314492602090939291936001600160a01b0360408201951681520152565b03925af18015612cd157928a9796959492612c80928995613186575b505061316c8a866135e7565b96600754169589519a8b9889978896875230938701612a04565b8161319c92903d106106925761068381836122de565b503880613160565b6131b891503d808d833e6110e781836122de565b386130a3565b6131d4908d803d106106925761068381836122de565b503861306d565b8b513d8f823e3d90fd5b60248c60118a634e487b7160e01b835252fd5b61320c91503d808c833e6110e781836122de565b38612faa565b61322890823d84116106925761068381836122de565b5038612f0f565b87513d8b823e3d90fd5b61324f90843d86116106925761068381836122de565b5038612ed0565b60206001600160a01b0360248160025460081c169360405194859384927f613255ab0000000000000000000000000000000000000000000000000000000084521660048301525afa908115610699576000916132be575b5010156132b957600190565b600090565b90506020813d6020116132e8575b816132d9602093836122de565b810103126102785751386132ad565b3d91506132cc565b600460206001600160a01b0360035416604051928380927f074b2e430000000000000000000000000000000000000000000000000000000082525afa90811561069957600091613360575b50612710916fffffffffffffffffffffffffffffffff61335c9216906124c5565b0490565b6020813d6020116133a9575b81613379602093836122de565b810103126133a55751906fffffffffffffffffffffffffffffffff821682036129e8575061271061333b565b5080fd5b3d915061336c565b6007546001600160a01b039081169081156133ca575090565b90506005541690565b6008546001600160a01b039081169081156133ec575090565b90506004541690565b156133b1576008546001600160a01b039081169081156133ec575090565b90815161341f81612300565b9061342d60405192836122de565b80825261343c601f1991612300565b0136602083013780916000805b8551808210156134a457600019810190811161349057906001600160a01b0361347d6134778360019561246d565b89612568565b51166134898287612568565b5201613449565b602483634e487b7160e01b81526011600452fd5b50505091925050565b60ff600254166134b957565b606460405162461bcd60e51b815260206004820152601060248201527f5061757361626c653a20706175736564000000000000000000000000000000006044820152fd5b60026001541461350e576002600155565b606460405162461bcd60e51b815260206004820152601f60248201527f5265656e7472616e637947756172643a207265656e7472616e742063616c6c006044820152fd5b600092949361356b60609360808452608084019061267b565b951515602083015260408201520152565b60609061359660019395949560808352608083019061267b565b946000602083015260408201520152565b919082519283825260005b8481106135d3575050826000602080949584010152601f8019910116010190565b6020818301810151848301820152016135b2565b61362a916001600160a01b036135fb6133b1565b169160405192839163d06ca61f60e01b835260048301526040602483015281806000968795604483019061267b565b03915afa9081156136a3578291613689575b508051600019810191908211613490579061365691612568565b5190600b54916127109283039183831161367557509061335c916124c5565b80634e487b7160e01b602492526011600452fd5b61369d91503d8084833e6110e781836122de565b3861363c565b6040513d84823e3d90fd5b61362a916001600160a01b036135fb6133d356fea2646970667358221220eebf465b3c398ac4789c24a453654827477320f705ac414e576df3d1ec0e7b6b64736f6c63430008180033",
  "linkReferences": {},
  "deployedLinkReferences": {}
}