{"contracts/FlashArbBotBalancer.sol":{"FlashArbBotBalancer":{"abi":[{"inputs":[{"internalType":"address","name":"_vault","type":"address"},{"internalType":"address","name":"_sushiRouter","type":"address"},{"internalType":"address","name":"_uniRouter","type":"address"},{"internalType":"address","name":"_uniV3Quoter","type":"address"}],"stateMutability":"nonpayable","type":"constructor"},{"anonymous":false,"inputs":[{"indexed":true,"internalType":"address","name":"asset","type":"address"},{"indexed":false,"internalType":"uint256","name":"amount","type":"uint256"},{"indexed":false,"internalType":"uint256","name":"profit","type":"uint256"},{"indexed":false,"internalType":"bool","name":"sushiFirst","type":"bool"}],"name":"ArbitrageExecuted","type":"event"},{"anonymous":false,"inputs":[{"indexed":false,"internalType":"uint256","name":"tradesCount","type":"uint256"},{"indexed":false,"internalType":"uint256","name":"totalProfit","type":"uint256"}],"name":"BatchArbitrageExecuted","type":"event"},{"anonymous":false,"inputs":[{"indexed":true,"internalType":"uint256","name":"chainId","type":"uint256"},{"indexed":true,"internalType":"address","name":"asset","type":"address"},{"indexed":false,"internalType":"uint256","name":"spread","type":"uint256"},{"indexed":false,"internalType":"uint256","name":"estimatedProfit","type":"uint256"}],"name":"CrossChainOpportunityDetected","type":"event"},{"anonymous":false,"inputs":[{"indexed":false,"internalType":"enum FlashArbBotBalancer.FlashLoanProvider","name":"provider","type":"uint8"},{"indexed":false,"internalType":"address","name":"asset","type":"address"},{"indexed":false,"internalType":"uint256","name":"amount","type":"uint256"}],"name":"FlashLoanProviderSelected","type":"event"},{"anonymous":false,"inputs":[{"indexed":true,"internalType":"address","name":"newGasFundingWallet","type":"address"},{"indexed":false,"internalType":"uint256","name":"newPercentage","type":"uint256"}],"name":"GasFundingConfigUpdated","type":"event"},{"anonymous":false,"inputs":[{"indexed":true,"internalType":"address","name":"token","type":"address"},{"indexed":false,"internalType":"uint256","name":"amount","type":"uint256"},{"indexed":true,"internalType":"address","name":"gasFundingWallet","type":"address"}],"name":"GasFundingTransfer","type":"event"},{"anonymous":false,"inputs":[{"indexed":true,"internalType":"address","name":"previousOwner","type":"address"},{"indexed":true,"internalType":"address","name":"newOwner","type":"address"}],"name":"OwnershipTransferred","type":"event"},{"anonymous":false,"inputs":[{"indexed":false,"internalType":"address","name":"account","type":"address"}],"name":"Paused","type":"event"},{"anonymous":false,"inputs":[{"indexed":true,"internalType":"address","name":"token","type":"address"},{"indexed":false,"internalType":"uint256","name":"amount","type":"uint256"}],"name":"ProfitWithdrawn","type":"event"},{"anonymous":false,"inputs":[{"indexed":true,"internalType":"address","name":"tokenA","type":"address"},{"indexed":true,"internalType":"address","name":"tokenB","type":"address"},{"indexed":true,"internalType":"address","name":"tokenC","type":"address"},{"indexed":false,"internalType":"uint256","name":"amount","type":"uint256"},{"indexed":false,"internalType":"uint256","name":"profit","type":"uint256"}],"name":"TriangularArbitrageExecuted","type":"event"},{"anonymous":false,"inputs":[{"indexed":false,"internalType":"address","name":"account","type":"address"}],"name":"Unpaused","type":"event"},{"inputs":[],"name":"AAVE_POOL_ARBITRUM","outputs":[{"internalType":"address","name":"","type":"address"}],"stateMutability":"view","type":"function"},{"inputs":[],"name":"AAVE_POOL_OPTIMISM","outputs":[{"internalType":"address","name":"","type":"address"}],"stateMutability":"view","type":"function"},{"inputs":[],"name":"MAX_GAS_FUNDING_PERCENTAGE","outputs":[{"internalType":"uint256","name":"","type":"uint256"}],"stateMutability":"view","type":"function"},{"inputs":[],"name":"MAX_SLIPPAGE","outputs":[{"internalType":"uint256","name":"","type":"uint256"}],"stateMutability":"view","type":"function"},{"inputs":[],"name":"MIN_PROFIT_BPS","outputs":[{"internalType":"uint256","name":"","type":"uint256"}],"stateMutability":"view","type":"function"},{"inputs":[],"name":"SUSHI_ROUTER_NEW","outputs":[{"internalType":"address","name":"","type":"address"}],"stateMutability":"view","type":"function"},{"inputs":[],"name":"SUSHI_ROUTER_OPT","outputs":[{"internalType":"address","name":"","type":"address"}],"stateMutability":"view","type":"function"},{"inputs":[],"name":"UNI_V2_ROUTER_NEW","outputs":[{"internalType":"address","name":"","type":"address"}],"stateMutability":"view","type":"function"},{"inputs":[],"name":"UNI_V2_ROUTER_OPT","outputs":[{"internalType":"address","name":"","type":"address"}],"stateMutability":"view","type":"function"},{"inputs":[],"name":"USDC","outputs":[{"internalType":"address","name":"","type":"address"}],"stateMutability":"view","type":"function"},{"inputs":[],"name":"USDT","outputs":[{"internalType":"address","name":"","type":"address"}],"stateMutability":"view","type":"function"},{"inputs":[],"name":"WBTC","outputs":[{"internalType":"address","name":"","type":"address"}],"stateMutability":"view","type":"function"},{"inputs":[],"name":"WETH","outputs":[{"internalType":"address","name":"","type":"address"}],"stateMutability":"view","type":"function"},{"inputs":[],"name":"aavePool","outputs":[{"internalType":"contract IPool","name":"","type":"address"}],"stateMutability":"view","type":"function"},{"inputs":[{"internalType":"address","name":"","type":"address"}],"name":"authorizedCallers","outputs":[{"internalType":"bool","name":"","type":"bool"}],"stateMutability":"view","type":"function"},{"inputs":[],"name":"currentChainId","outputs":[{"internalType":"uint256","name":"","type":"uint256"}],"stateMutability":"view","type":"function"},{"inputs":[],"name":"disableGasFunding","outputs":[],"stateMutability":"nonpayable","type":"function"},{"inputs":[{"internalType":"address","name":"token","type":"address"}],"name":"emergencyWithdraw","outputs":[],"stateMutability":"nonpayable","type":"function"},{"inputs":[{"internalType":"address","name":"asset","type":"address"},{"internalType":"uint256","name":"amount","type":"uint256"},{"internalType":"address[]","name":"path","type":"address[]"},{"internalType":"bool","name":"sushiFirst","type":"bool"},{"internalType":"uint256","name":"expectedProfit","type":"uint256"}],"name":"executeArb","outputs":[],"stateMutability":"nonpayable","type":"function"},{"inputs":[{"components":[{"components":[{"internalType":"address","name":"asset","type":"address"},{"internalType":"uint96","name":"amount","type":"uint96"},{"internalType":"address","name":"tokenA","type":"address"},{"internalType":"address","name":"tokenB","type":"address"},{"internalType":"bool","name":"sushiFirst","type":"bool"},{"internalType":"uint32","name":"slippageBps","type":"uint32"},{"internalType":"uint32","name":"minProfitBps","type":"uint32"}],"internalType":"struct FlashArbBotBalancer.ArbitrageParams[]","name":"trades","type":"tuple[]"},{"internalType":"uint256","name":"deadline","type":"uint256"}],"internalType":"struct FlashArbBotBalancer.BatchArbitrageParams","name":"params","type":"tuple"}],"name":"executeBatchArbitrage","outputs":[],"stateMutability":"nonpayable","type":"function"},{"inputs":[{"internalType":"address","name":"asset","type":"address"},{"internalType":"uint256","name":"amount","type":"uint256"},{"internalType":"uint256","name":"premium","type":"uint256"},{"internalType":"address","name":"initiator","type":"address"},{"internalType":"bytes","name":"params","type":"bytes"}],"name":"executeOperation","outputs":[{"internalType":"bool","name":"","type":"bool"}],"stateMutability":"nonpayable","type":"function"},{"inputs":[{"internalType":"address","name":"asset","type":"address"},{"internalType":"uint256","name":"amount","type":"uint256"},{"internalType":"address[]","name":"path","type":"address[]"},{"internalType":"uint256","name":"expectedProfit","type":"uint256"}],"name":"executeTriangularArb","outputs":[],"stateMutability":"nonpayable","type":"function"},{"inputs":[],"name":"gasFundingPercentage","outputs":[{"internalType":"uint256","name":"","type":"uint256"}],"stateMutability":"view","type":"function"},{"inputs":[],"name":"gasFundingWallet","outputs":[{"internalType":"address","name":"","type":"address"}],"stateMutability":"view","type":"function"},{"inputs":[],"name":"getGasFundingStats","outputs":[{"internalType":"address","name":"wallet","type":"address"},{"internalType":"uint256","name":"percentage","type":"uint256"},{"internalType":"uint256","name":"totalTransferred","type":"uint256"}],"stateMutability":"view","type":"function"},{"inputs":[{"internalType":"address","name":"asset","type":"address"},{"internalType":"uint256","name":"amount","type":"uint256"}],"name":"getOptimalProvider","outputs":[{"internalType":"enum FlashArbBotBalancer.FlashLoanProvider","name":"provider","type":"uint8"},{"internalType":"uint256","name":"fee","type":"uint256"}],"stateMutability":"view","type":"function"},{"inputs":[],"name":"isArbitrum","outputs":[{"internalType":"bool","name":"","type":"bool"}],"stateMutability":"view","type":"function"},{"inputs":[],"name":"isOptimism","outputs":[{"internalType":"bool","name":"","type":"bool"}],"stateMutability":"view","type":"function"},{"inputs":[],"name":"minProfitBps","outputs":[{"internalType":"uint256","name":"","type":"uint256"}],"stateMutability":"view","type":"function"},{"inputs":[],"name":"owner","outputs":[{"internalType":"address","name":"","type":"address"}],"stateMutability":"view","type":"function"},{"inputs":[],"name":"pause","outputs":[],"stateMutability":"nonpayable","type":"function"},{"inputs":[],"name":"paused","outputs":[{"internalType":"bool","name":"","type":"bool"}],"stateMutability":"view","type":"function"},{"inputs":[{"internalType":"address","name":"","type":"address"}],"name":"priceFeeds","outputs":[{"internalType":"address","name":"","type":"address"}],"stateMutability":"view","type":"function"},{"inputs":[{"internalType":"address[]","name":"tokens","type":"address[]"},{"internalType":"uint256[]","name":"amounts","type":"uint256[]"},{"internalType":"uint256[]","name":"feeAmounts","type":"uint256[]"},{"internalType":"bytes","name":"userData","type":"bytes"}],"name":"receiveFlashLoan","outputs":[],"stateMutability":"nonpayable","type":"function"},{"inputs":[],"name":"renounceOwnership","outputs":[],"stateMutability":"nonpayable","type":"function"},{"inputs":[{"internalType":"address","name":"caller","type":"address"},{"internalType":"bool","name":"authorized","type":"bool"}],"name":"setAuthorizedCaller","outputs":[],"stateMutability":"nonpayable","type":"function"},{"inputs":[{"internalType":"uint256","name":"_percentage","type":"uint256"}],"name":"setGasFundingPercentage","outputs":[],"stateMutability":"nonpayable","type":"function"},{"inputs":[{"internalType":"address","name":"_gasFundingWallet","type":"address"}],"name":"setGasFundingWallet","outputs":[],"stateMutability":"nonpayable","type":"function"},{"inputs":[{"internalType":"uint256","name":"_minProfit","type":"uint256"}],"name":"setMinProfitBps","outputs":[],"stateMutability":"nonpayable","type":"function"},{"inputs":[{"internalType":"address","name":"token","type":"address"},{"internalType":"address","name":"feed","type":"address"}],"name":"setPriceFeed","outputs":[],"stateMutability":"nonpayable","type":"function"},{"inputs":[{"internalType":"uint256","name":"_slippage","type":"uint256"}],"name":"setSlippageTolerance","outputs":[],"stateMutability":"nonpayable","type":"function"},{"inputs":[{"internalType":"address","name":"asset","type":"address"},{"internalType":"uint256","name":"amount","type":"uint256"},{"internalType":"address[]","name":"path","type":"address[]"},{"internalType":"bool","name":"sushiFirst","type":"bool"}],"name":"simulateArbitrage","outputs":[{"internalType":"uint256","name":"profit","type":"uint256"}],"stateMutability":"view","type":"function"},{"inputs":[{"internalType":"address","name":"asset","type":"address"},{"internalType":"uint256","name":"amount","type":"uint256"},{"internalType":"address[]","name":"path","type":"address[]"}],"name":"simulateTriangularArbitrage","outputs":[{"internalType":"uint256","name":"profit","type":"uint256"}],"stateMutability":"view","type":"function"},{"inputs":[],"name":"slippageTolerance","outputs":[{"internalType":"uint256","name":"","type":"uint256"}],"stateMutability":"view","type":"function"},{"inputs":[],"name":"sushiRouter","outputs":[{"internalType":"contract IUniswapV2Router02","name":"","type":"address"}],"stateMutability":"view","type":"function"},{"inputs":[],"name":"sushiRouterNew","outputs":[{"internalType":"contract IUniswapV2Router02","name":"","type":"address"}],"stateMutability":"view","type":"function"},{"inputs":[],"name":"totalGasFundingTransferred","outputs":[{"internalType":"uint256","name":"","type":"uint256"}],"stateMutability":"view","type":"function"},{"inputs":[{"internalType":"address","name":"newOwner","type":"address"}],"name":"transferOwnership","outputs":[],"stateMutability":"nonpayable","type":"function"},{"inputs":[],"name":"uniRouter","outputs":[{"internalType":"contract IUniswapV2Router02","name":"","type":"address"}],"stateMutability":"view","type":"function"},{"inputs":[],"name":"uniV2RouterNew","outputs":[{"internalType":"contract IUniswapV2Router02","name":"","type":"address"}],"stateMutability":"view","type":"function"},{"inputs":[],"name":"uniV3Quoter","outputs":[{"internalType":"contract IUniswapV3Quoter","name":"","type":"address"}],"stateMutability":"view","type":"function"},{"inputs":[],"name":"unpause","outputs":[],"stateMutability":"nonpayable","type":"function"},{"inputs":[],"name":"vault","outputs":[{"internalType":"contract IBalancerVault","name":"","type":"address"}],"stateMutability":"view","type":"function"},{"inputs":[{"internalType":"address","name":"token","type":"address"}],"name":"withdraw","outputs":[],"stateMutability":"nonpayable","type":"function"}],"evm":{"bytecode":{"linkReferences":{},"object":"6080346200022557601f6200416b38819003918201601f19168301916001600160401b038311848410176200022a5780849260809460405283398101031262000225576200004d8162000240565b6200005b6020830162000240565b6200007760606200006f6040860162000240565b940162000240565b600080546001600160a01b03198082163390811784556040519791956001600160a01b0395948694859391908416907f8be0079c531659141344cd1fd0a4f28419497f9722a3daafe3b4186f6b6457e09080a36001805560025460c8600b55601e600c556103e8601055600898610100600160a81b03908a1b169060018060a81b0319161760025516856004541617600455168360055416176005551681600654161760065546600955600a5460ff80600a461416809261ff0061a4b14614871b169061ffff1916171780600a55841c16600014620001b7575073794a61358d6845594f94dc1db02a252b5b4814ad91734752ba5dbc23f44d87826276bf6fd6b1c372ad2482600754161760075573f2614a233c7c3e7f08b1f887ba133a13f1eb2c558282541617905560035416176003555b613f159081620002568239f35b620001c5575b5050620001aa565b73794a61358d6845594f94dc1db02a252b5b4814ad91734a7b5da61326a6379179b40d00f57e5bbdc962c2826007541617600755732abf469074dc0b54d793850807e6eb5faf2625b18282541617905560035416176003553880620001bd565b600080fd5b634e487b7160e01b600052604160045260246000fd5b51906001600160a01b0382168203620002255756fe608080604052600436101561001357600080fd5b60e060003560e01c9182624670f1146127ea57508163117da1ee1461277c57816315482ab21461274d57816318d0b3ce1461271e5781631b11d0ff146123a7578163277dd7e01461200b57816329f2c8f014611fe5578163314cce8a14611fc7578163383aeeae14611fa95781633b9debf614611f825781633c98898214611f535781633cd3d2ec14610be05781633f4ba83a14611eb7578163454bbd2914611e5f5781634dede3de14611e30578163507a229114611e1457816351cff8d914611cb5578163536fff6c14611c765781635c975abb14611c535781636cbadbfa14611c355781636d13582c14611c0e5781636ff1c9bc14611b1b578163715018a614611ac25781637448f57514611a6657816376e1128614611a0b578163795674ff146119e45781638456cb591461198a57816389a302711461195b5781638da5cb5b146119345781639dcb511a146118f9578163a03e4bc3146118d2578163a0e47bf6146118ab578163a6fed78e14611856578163acfcc89514611839578163ad5c46481461180a578163c01f25241461157a578163c257cdc31461155c578163c2dd302b146114b6578163c54e44eb14611487578163c62655761461144f578163c69aec5614611116578163d03153aa146110f8578163d138b28e14610d0b57508063d66d5b0814610c56578063dad0b87c14610c2f578063ea04665914610c08578063ec961a0514610be5578063ed6f1f4c14610be0578063ee9ed9d7146107e9578063f04f270714610402578063f2fde38b1461032a578063f97595181461030d578063fbfa77cf146102e35763fcff2c281461027357600080fd5b346102de5760203660031901126102de5760043561028f612ea6565b801561029a57600c55005b606460405162461bcd60e51b815260206004820152601b60248201527f4d696e2070726f666974206d75737420626520706f73697469766500000000006044820152fd5b600080fd5b346102de5760003660031901126102de5760206001600160a01b0360025460081c16604051908152f35b346102de5760003660031901126102de5760206040516101f48152f35b346102de5760203660031901126102de57610343612817565b61034b612ea6565b6001600160a01b0380911690811561039857600054826001600160a01b0319821617600055167f8be0079c531659141344cd1fd0a4f28419497f9722a3daafe3b4186f6b6457e0600080a3005b608460405162461bcd60e51b815260206004820152602660248201527f4f776e61626c653a206e6577206f776e657220697320746865207a65726f206160448201527f64647265737300000000000000000000000000000000000000000000000000006064820152fd5b346102de5760803660031901126102de5767ffffffffffffffff6004358181116102de5761043490369060040161286f565b91906024358281116102de5761044e90369060040161286f565b90916044358481116102de5761046890369060040161286f565b90946064359081116102de57610482903690600401612841565b906001600160a01b0360025460081c1633036107a5576104a4918101906129dd565b939297919490981561071e576104b990612beb565b941561071e576104d06104cb88612f15565b612a39565b6040516370a0823160e01b81523060048201526020816024816001600160a01b038a165afa80156106fc5761077a575b508215610768576105138787358761352d565b604051916370a0823160e01b83523060048401526020836024816001600160a01b038a165afa9283156106fc57600093610734575b501561071e5761055d61057091358735612a84565b8261056b8280951015612a91565b612adc565b9661058d612710610584600c548935612b34565b04891015612ae9565b605f810290808204605f1490151715610708576105ed916105b56064602093048a1015612b47565b60025460405163095ea7b360e01b815260089190911c6001600160a01b03166004820152602481019190915291829081906044820190565b038160006001600160a01b0389165af180156106fc576106cd575b50610613868461390c565b1561067f5750507f511dc6c70263758503ff9aee3e77f3e7bef3cabee21a4eb0b017e7cf0438f2f260406001600160a01b0361064e85612baa565b5116926001600160a01b0361066e8161066688612bb7565b511696612bc7565b5116958251913582526020820152a4005b604080519335845260208401959095521515938201939093526001600160a01b03909216917f05625c164577e109e0c8964ab47768b235a36d08f5146dfa9858a382fa5c5efd9150606090a2005b6106ee9060203d6020116106f5575b6106e6818361294d565b810190612b92565b5086610608565b503d6106dc565b6040513d6000823e3d90fd5b634e487b7160e01b600052601160045260246000fd5b634e487b7160e01b600052603260045260246000fd5b9092506020813d602011610760575b816107506020938361294d565b810103126102de57519189610548565b3d9150610743565b61077584888835886130f2565b610513565b602090813d831161079e575b610790818361294d565b810103126102de5788610500565b503d610786565b606460405162461bcd60e51b815260206004820152601360248201527f4f6e6c792042616c616e636572207661756c74000000000000000000000000006044820152fd5b346102de576003196080368201126102de57610803612817565b90602491823560443567ffffffffffffffff81116102de5761082990369060040161286f565b9390926064359233600052602094600e865260ff604060002054168015610bc7575b61085490612d7e565b61085c613cca565b610864613d1a565b60048703610b5e578615610b495761087b81612beb565b968060031015610b34576108a86001600160a01b0398898061089f60608701612beb565b16911614612bff565b6108b3831515612dc9565b6108be861515612e14565b6108c88385613a73565b6002811015610b1f57610a4057906108e1913691612987565b94604051966108ef88612931565b7ff5ea93fa71a16e89b26b22976590659f91d44ae3f503be2afcd292796d305218606060019560018b528436818d0137836109298c612baa565b91168091526040519561093b87612931565b600187526109758688019b878d369037826109558a612baa565b526109676040519c8d928a8401613d99565b03601f1981018c528b61294d565b6040519160008352868301526040820152a160025460081c1696873b156102de5791816109c760809a9897969593946040519b8c9a632e1c224f60e11b8c523060048d01528b015260848a0190612cea565b91858984030160448a0152519182815201959260005b828110610a2a57505050505083610a048482946000989694848a9603016064850152613dc4565b03925af180156106fc57610a1b575b505b60018055005b610a24906128eb565b80610a13565b845188528a9850968101969381019383016109dd565b606092969598979450610a7a7ff5ea93fa71a16e89b26b22976590659f91d44ae3f503be2afcd292796d3052189492610a99923691612987565b610a8b6040519a8b92898401613d99565b03601f1981018a528961294d565b836040519160018352168095820152856040820152a16003541690813b156102de5760008094610af5604051978896879586946310ac2ddf60e21b8652306004870152850152604484015260a0606484015260a4830190613dc4565b82608483015203925af180156106fc57610b10575b50610a15565b610b19906128eb565b80610b0a565b89634e487b7160e01b60005260216004526000fd5b88634e487b7160e01b60005260326004526000fd5b87634e487b7160e01b60005260326004526000fd5b608486602f8a6040519262461bcd60e51b845260048401528201527f547269616e67756c61722070617468206d7573742068617665203420746f6b6560448201527f6e732028412d3e422d3e432d3e412900000000000000000000000000000000006064820152fd5b506108546001600160a01b03600054163314905061084b565b6128a0565b346102de5760003660031901126102de57602060ff600a54166040519015158152f35b346102de5760003660031901126102de5760206001600160a01b0360085416604051908152f35b346102de5760003660031901126102de5760206001600160a01b03600f5416604051908152f35b346102de5760203660031901126102de576001600160a01b03610c77612817565b610c7f612ea6565b168015610cc757806001600160a01b0319600f541617600f557f5d4263eb49a8092ea4735dc1e5200292fe3ac3afb2d5d3f3339034efbe9ae4f06020601054604051908152a2005b606460405162461bcd60e51b815260206004820152601a60248201527f496e76616c6964206761732066756e64696e672077616c6c65740000000000006044820152fd5b346102de57600319602036820181136102de5767ffffffffffffffff906004358281116102de576040816004019482360301126102de57610d4a613d1a565b610d52613cca565b33600052600e825260ff6040600020541680156110df575b610d7390612d7e565b602480910135421161109c57610d898480612e5f565b90501561105957600a610d9c8580612e5f565b90501161101657600092835b610db28680612e5f565b9050851015610f8957610dc58680612e5f565b861015610f74578786020187813603126102de5760405188810181811085821117610f5f57604052610df68261282d565b91828252868101356bffffffffffffffffffffffff811681036102de5787830152610e236040820161282d565b60408301526060610e3581830161282d565b908301526080610e468183016128de565b9083015260a0610e57818301612e95565b90830152610e6860c0809201612e95565b908201526001600160a01b036040519087828881846370a0823160e01b98898352306004840152165afa9283156106fc578892600094610f2e575b50511692866040518095819382523060048301525afa9182156106fc57600092610efc575b5091610eea91600193808211600014610ef257610ee491612adc565b90612a84565b940193610da8565b5050600090612a84565b9150918582813d8311610f27575b610f14818361294d565b810103126102de57905190916001610ec8565b503d610f0a565b8381949295503d8311610f58575b610f46818361294d565b810103126102de57879151928c610ea3565b503d610f3c565b85634e487b7160e01b60005260416004526000fd5b83634e487b7160e01b60005260326004526000fd5b8386848315610fd3577fcccf891412a70ad9fb0665c9d1959b16f1232c4dfd1a529b5528b3e1e7e5935760408486610fc18680612e5f565b9290508351928352820152a160018055005b8260146064926040519262461bcd60e51b845260048401528201527f4261746368206e6f742070726f66697461626c650000000000000000000000006044820152fd5b90600f6064926040519262461bcd60e51b845260048401528201527f546f6f206d616e792074726164657300000000000000000000000000000000006044820152fd5b9060126064926040519262461bcd60e51b845260048401528201527f4e6f207472616465732070726f766964656400000000000000000000000000006044820152fd5b9060136064926040519262461bcd60e51b845260048401528201527f5472616e73616374696f6e2065787069726564000000000000000000000000006044820152fd5b50610d736001600160a01b036000541633149050610d6a565b346102de5760003660031901126102de576020600b54604051908152f35b346102de5760031960a0368201126102de57611130612817565b6024359060443567ffffffffffffffff81116102de5761115490369060040161286f565b91909361115f6128cf565b936084359433600052602094600e865260ff604060002054168015611436575b61118890612d7e565b611190613cca565b611198613d1a565b600281106113f2576111ab831515612dc9565b6111b6871515612e14565b6111c08386613a73565b60028110156113dc5761131e578596976111db913691612987565b937ff5ea93fa71a16e89b26b22976590659f91d44ae3f503be2afcd292796d3052186060604051998a9561120e87612931565b6112788a61126a61122a60019a60018152833681830137612baa565b946001600160a01b03809916809652604051996112468b612931565b60018b52838b019e8f3690378561125c8c612baa565b526040519d8e948501613d6f565b03601f1981018b528a61294d565b60405191600083528b8301526040820152a160025460081c1695863b156102de5790916112cb979594939282604051998a98632e1c224f60e11b8a523060048b0152608060248b015260848a0190612cea565b91858984030160448a0152519182815201959260005b82811061130857505050505083610a048482946000989694848a9603016064850152613dc4565b845188528a9850968101969381019383016112e1565b61135393506113459195969297611336913691612987565b91604051958693888501613d6f565b03601f19810184528361294d565b7ff5ea93fa71a16e89b26b22976590659f91d44ae3f503be2afcd292796d3052186060604051600181526001600160a01b038094168096820152866040820152a160035416803b156102de57610af59360008094604051968795869485936310ac2ddf60e21b85523060048601526024850152604484015260a0606484015260a4830190613dc4565b634e487b7160e01b600052602160045260246000fd5b6064866040519062461bcd60e51b82526004820152600c60248201527f496e76616c6964207061746800000000000000000000000000000000000000006044820152fd5b506111886001600160a01b03600054163314905061117f565b346102de5760003660031901126102de5760606001600160a01b03600f54166010546011549060405192835260208301526040820152f35b346102de5760003660031901126102de57602060405173fd086bc7cd5c481dcc9c85ebe478a1c0b69fcbb98152f35b346102de5760203660031901126102de576004356114d2612ea6565b611388811161151857806010557f5d4263eb49a8092ea4735dc1e5200292fe3ac3afb2d5d3f3339034efbe9ae4f060206001600160a01b03600f541692604051908152a2005b606460405162461bcd60e51b815260206004820152601360248201527f50657263656e7461676520746f6f2068696768000000000000000000000000006044820152fd5b346102de5760003660031901126102de576020601054604051908152f35b346102de5760803660031901126102de57611593612817565b506024803560443567ffffffffffffffff81116102de576115b890369060040161286f565b90826115c26128cf565b6115cb81613c12565b936115d68215613c12565b911561174f576001600160a01b0360006040518097818481611608888c63d06ca61f60e01b9c8d855260048501612d27565b0392165afa9586156106fc57600096611732575b50855160001981019690871161171d5761164b6000966116426116729961165094612bd7565b51943691612987565b613c30565b93604051968795869485938452600484015260408b8401526044830190612cea565b0392165afa9081156106fc576000916116fa575b505b80516000198101919082116116e557906116a191612bd7565b51818111156116da576116b7826116bd92612adc565b91613b0d565b90818111156116da576020916116d291612adc565b604051908152f35b5050602060006116d2565b83634e487b7160e01b60005260116004526000fd5b61171791503d806000833e61170f818361294d565b810190612c70565b83611686565b88634e487b7160e01b60005260116004526000fd5b6117489196503d806000833e61170f818361294d565b948861161c565b6001600160a01b039491946000604051809781848161177e888c63d06ca61f60e01b9c8d855260048501612d27565b0392165afa9586156106fc576000966117ed575b50855160001981019690871161171d5761164b6000966116426117b89961165094612bd7565b0392165afa9081156106fc576000916117d2575b50611688565b6117e791503d806000833e61170f818361294d565b836117cc565b6118039196503d806000833e61170f818361294d565b9488611792565b346102de5760003660031901126102de5760206040517382af49447d8a07e3bd95bd0d56f35241523fbab18152f35b346102de5760003660031901126102de5760206040516113888152f35b346102de5760403660031901126102de5761186f612817565b61187c6024358092613a73565b60028110156113dc576040918161189d575060005b82519182526020820152f35b6118a690613b0d565b611891565b346102de5760003660031901126102de5760206001600160a01b0360055416604051908152f35b346102de5760003660031901126102de5760206001600160a01b0360035416604051908152f35b346102de5760203660031901126102de5760206001600160a01b038061191d612817565b16600052600d825260406000205416604051908152f35b346102de5760003660031901126102de5760206001600160a01b0360005416604051908152f35b346102de5760003660031901126102de57602060405173ff970a61a04b1ca14834a43f5de4533ebddb5cc88152f35b346102de5760003660031901126102de576119a3612ea6565b6119ab613cca565b600160ff1960025416176002557f62e78cea01bee320cd4e420270b5ea74000d11b0c9f74754ebdbfc544b05a2586020604051338152a1005b346102de5760003660031901126102de5760206001600160a01b0360065416604051908152f35b346102de5760403660031901126102de57611a24612817565b602435906001600160a01b03908183168093036102de57611a43612ea6565b16600052600d6020526040600020906001600160a01b0319825416179055600080f35b346102de5760003660031901126102de57611a7f612ea6565b6001600160a01b0319600f5416600f55600060105560007f5d4263eb49a8092ea4735dc1e5200292fe3ac3afb2d5d3f3339034efbe9ae4f06020604051838152a2005b346102de5760003660031901126102de57611adb612ea6565b60006001600160a01b0381546001600160a01b031981168355167f8be0079c531659141344cd1fd0a4f28419497f9722a3daafe3b4186f6b6457e08280a3005b346102de576020806003193601126102de57611b35612817565b611b3d612ea6565b6001600160a01b03809116906040516370a0823160e01b81523060048201528381602481865afa9081156106fc57600091611be1575b5080611b7b57005b611bb992849260005416600060405180968195829463a9059cbb60e01b845260048401602090939291936001600160a01b0360408201951681520152565b03925af180156106fc57611bc957005b81611bdf92903d106106f5576106e6818361294d565b005b90508381813d8311611c07575b611bf8818361294d565b810103126102de575184611b73565b503d611bee565b346102de5760003660031901126102de5760206001600160a01b0360045416604051908152f35b346102de5760003660031901126102de576020600954604051908152f35b346102de5760003660031901126102de57602060ff600254166040519015158152f35b346102de5760203660031901126102de576001600160a01b03611c97612817565b16600052600e602052602060ff604060002054166040519015158152f35b346102de576020806003193601126102de57611ccf612817565b90611cd8612ea6565b6040516370a0823160e01b81523060048201526001600160a01b03928316928282602481875afa9182156106fc57600092611de5575b508115611da15760005460405163a9059cbb60e01b815291166001600160a01b031660048201526024810182905291908183806044810103816000885af19283156106fc577f016e128b6bdadd9e9068abd0b18db2fc8b27ed3dbced50e4aa6cc0a6934251ab93611d84575b50604051908152a2005b611d9a90833d85116106f5576106e6818361294d565b5084611d7a565b6064836040519062461bcd60e51b82526004820152601660248201527f4e6f2062616c616e636520746f207769746864726177000000000000000000006044820152fd5b9091508281813d8311611e0d575b611dfd818361294d565b810103126102de57519084611d0e565b503d611df3565b346102de5760003660031901126102de57602060405160328152f35b346102de5760003660031901126102de576020604051732f2a2543b76a4166549f7aab2e75bef0aefc5b0f8152f35b346102de5760403660031901126102de57611e78612817565b602435908115158092036102de576001600160a01b0390611e97612ea6565b16600052600e60205260406000209060ff80198354169116179055600080f35b346102de5760003660031901126102de57611ed0612ea6565b60025460ff811615611f0f5760ff19166002557f5db9ee0a495bf2e6ff9c91a7834c1ba4fdd244a5e8aa4e537bd38aeae4b073aa6020604051338152a1005b606460405162461bcd60e51b815260206004820152601460248201527f5061757361626c653a206e6f74207061757365640000000000000000000000006044820152fd5b346102de5760003660031901126102de576020604051734a7b5da61326a6379179b40d00f57e5bbdc962c28152f35b346102de5760003660031901126102de5760206001600160a01b0360075416604051908152f35b346102de5760003660031901126102de576020600c54604051908152f35b346102de5760003660031901126102de576020601154604051908152f35b346102de5760003660031901126102de57602060ff600a5460081c166040519015158152f35b346102de5760603660031901126102de57612024612817565b506024803560443567ffffffffffffffff81116102de5761204990369060040161286f565b906004820361233d578115610f745761206181612beb565b908260031015612328576120856001600160a01b0392838061089f60608601612beb565b6040519261209284612915565b6002845260403660208601376120a782612beb565b836120b186612baa565b9116905280600110156123135760208201916120cc83612beb565b846120d687612bb7565b9116905283600754169086600060408a61210e82519a8b93849363d06ca61f60e01b9788865260048601528401526044830190612cea565b0381865afa9687156106fc576000976122f6575b50865160001997908881019081116122e15761213d91612bd7565b51936121606040519661214f88612915565b6002885260403660208a0137612beb565b8761216a88612baa565b9116905260021015610b3457600060408084019561218787612beb565b896121918a612bb7565b911690528b8960085416916121bd84519a8b95869485948a865260048601528401526044830190612cea565b03915afa9485156106fc576000956122c4575b508451958787019687116122af576122266121f061225598600098612bd7565b51936122136040519761220289612915565b6002895260403660208b0137612beb565b8361221d89612baa565b91169052612beb565b9061223086612bb7565b91169052604051958694859384938452600484015260408b8401526044830190612cea565b03915afa9081156106fc57600091612294575b5080519182019182116116e5579061227f91612bd7565b51818111156116da576020916116d291612adc565b6122a991503d806000833e61170f818361294d565b84612268565b89634e487b7160e01b60005260116004526000fd5b6122da9195503d806000833e61170f818361294d565b93896121d0565b8a634e487b7160e01b60005260116004526000fd5b61230c9197503d806000833e61170f818361294d565b9589612122565b85634e487b7160e01b60005260326004526000fd5b84634e487b7160e01b60005260326004526000fd5b60848460226040519162461bcd60e51b8352602060048401528201527f547269616e67756c61722070617468206d7573742068617665203420746f6b6560448201527f6e730000000000000000000000000000000000000000000000000000000000006064820152fd5b346102de5760a03660031901126102de576123c0612817565b602490604435906001600160a01b038335606435828116908190036102de5760843567ffffffffffffffff81116102de576123ff903690600401612841565b9091846003541633036126da573003612696579061241f918101906129dd565b9097929561242f6104cb88612f15565b85811693604051996370a0823160e01b91828c523060048d015260209b8c8183818b5afa9081156106fc578d9161266d575b5050841561265c576124748a898661352d565b6040519283523060048401528b8382818a5afa9283156106fc578b90600094612628575b506124d06124ba6124ac6124d8938c612a84565b8661056b8280991015612a91565b9c6127106124ca600c548d612b34565b04612a84565b8c1015612ae9565b605a820291808304605a14901517156126145750612537929161250160648d93048c1015612b47565b8860035416604051948592839263095ea7b360e01b845260048401602090939291936001600160a01b0360408201951681520152565b03816000895af19081156106fc57612556928a926125f7575b5061390c565b156125b257505060407f511dc6c70263758503ff9aee3e77f3e7bef3cabee21a4eb0b017e7cf0438f2f2918361258b86612baa565b51169361259b8161066688612bb7565b511695825191825287820152a45b60405160018152f35b6040805193845260208401969096521515948201949094527f05625c164577e109e0c8964ab47768b235a36d08f5146dfa9858a382fa5c5efd925060609150a26125a9565b61260d908c8d3d106106f5576106e6818361294d565b508b612550565b634e487b7160e01b60005260116004526000fd5b8094508d8092503d8311612655575b612641818361294d565b810103126102de579151918a6124d0612498565b503d612637565b612668868b8a876130f2565b612474565b813d831161268f575b612680818361294d565b810103126102de578b8d612461565b503d612676565b60648760116040519162461bcd60e51b8352602060048401528201527f496e76616c696420696e69746961746f720000000000000000000000000000006044820152fd5b606488600e6040519162461bcd60e51b8352602060048401528201527f4f6e6c79204161766520706f6f6c0000000000000000000000000000000000006044820152fd5b346102de5760003660031901126102de576020604051734752ba5dbc23f44d87826276bf6fd6b1c372ad248152f35b346102de5760003660031901126102de576020604051732abf469074dc0b54d793850807e6eb5faf2625b18152f35b346102de5760203660031901126102de57600435612798612ea6565b6101f481116127a657600b55005b606460405162461bcd60e51b815260206004820152601160248201527f536c69707061676520746f6f20686967680000000000000000000000000000006044820152fd5b346102de5760003660031901126102de578073f2614a233c7c3e7f08b1f887ba133a13f1eb2c5560209252f35b600435906001600160a01b03821682036102de57565b35906001600160a01b03821682036102de57565b9181601f840112156102de5782359167ffffffffffffffff83116102de57602083818601950101116102de57565b9181601f840112156102de5782359167ffffffffffffffff83116102de576020808501948460051b0101116102de57565b346102de5760003660031901126102de57602060405173794a61358d6845594f94dc1db02a252b5b4814ad8152f35b6064359081151582036102de57565b359081151582036102de57565b67ffffffffffffffff81116128ff57604052565b634e487b7160e01b600052604160045260246000fd5b6060810190811067ffffffffffffffff8211176128ff57604052565b6040810190811067ffffffffffffffff8211176128ff57604052565b90601f8019910116810190811067ffffffffffffffff8211176128ff57604052565b67ffffffffffffffff81116128ff5760051b60200190565b92916129928261296f565b916129a0604051938461294d565b829481845260208094019160051b81019283116102de57905b8282106129c65750505050565b8380916129d28461282d565b8152019101906129b9565b91906080838203126102de57823567ffffffffffffffff81116102de5783019080601f830112156102de57816020612a1793359101612987565b91612a24602082016128de565b91612a366060604084013593016128de565b90565b15612a4057565b606460405162461bcd60e51b815260206004820152601260248201527f496e76616c6964207072696365206665656400000000000000000000000000006044820152fd5b9190820180921161070857565b15612a9857565b606460405162461bcd60e51b815260206004820152600c60248201527f556e70726f66697461626c6500000000000000000000000000000000000000006044820152fd5b9190820391821161070857565b15612af057565b606460405162461bcd60e51b815260206004820152600e60248201527f50726f66697420746f6f206c6f770000000000000000000000000000000000006044820152fd5b8181029291811591840414171561070857565b15612b4e57565b606460405162461bcd60e51b815260206004820152601960248201527f50726f66697420646576696174696f6e20746f6f2068696768000000000000006044820152fd5b908160209103126102de575180151581036102de5790565b80511561071e5760200190565b80516001101561071e5760400190565b80516002101561071e5760600190565b805182101561071e5760209160051b010190565b356001600160a01b03811681036102de5790565b15612c0657565b608460405162461bcd60e51b815260206004820152602760248201527f50617468206d75737420737461727420616e6420656e6420776974682073616d60448201527f6520746f6b656e000000000000000000000000000000000000000000000000006064820152fd5b60209081818403126102de5780519067ffffffffffffffff82116102de57019180601f840112156102de578251612ca68161296f565b93612cb4604051958661294d565b818552838086019260051b8201019283116102de578301905b828210612cdb575050505090565b81518152908301908301612ccd565b90815180825260208080930193019160005b828110612d0a575050505090565b83516001600160a01b031685529381019392810192600101612cfc565b606090939192936040810193815282602094604060208401525201929160005b828110612d55575050505090565b9091929382806001926001600160a01b03612d6f8961282d565b16815201950193929101612d47565b15612d8557565b606460405162461bcd60e51b815260206004820152600e60248201527f4e6f7420617574686f72697a65640000000000000000000000000000000000006044820152fd5b15612dd057565b606460405162461bcd60e51b815260206004820152601760248201527f416d6f756e74206d75737420626520706f7369746976650000000000000000006044820152fd5b15612e1b57565b606460405162461bcd60e51b815260206004820152602060248201527f45787065637465642070726f666974206d75737420626520706f7369746976656044820152fd5b903590601e19813603018212156102de570180359067ffffffffffffffff82116102de576020019160e08202360383136102de57565b359063ffffffff821682036102de57565b6001600160a01b03600054163303612eba57565b606460405162461bcd60e51b815260206004820152602060248201527f4f776e61626c653a2063616c6c6572206973206e6f7420746865206f776e65726044820152fd5b519069ffffffffffffffffffff821682036102de57565b60005b81518110156130b3576001600160a01b0380612f348385612bd7565b5116600052600d602081815260409280846000205416612f5b575b50505050600101612f18565b80612f668688612bd7565b51166000528282528360002054169280518080957ffeaf968c00000000000000000000000000000000000000000000000000000000825260a091829160049889915afa9182156130a8576000918293613055575b50506000121561301557612fd1610e109142612adc565b10612f4f5760649450519262461bcd60e51b845283015260248201527f507269636520746f6f206f6c64000000000000000000000000000000000000006044820152fd5b5060649450519262461bcd60e51b845283015260248201527f496e76616c6964207072696365000000000000000000000000000000000000006044820152fd5b90809350813d83116130a1575b61306c818361294d565b8101031261309e575061307e81612efe565b50600083820151613096608060608501519401612efe565b509038612fba565b80fd5b503d613062565b83513d6000823e3d90fd5b5050600190565b916080936130e7916001600160a01b0393989796988552602085015260a0604085015260a0840190612cea565b951660608201520152565b600480546040805163095ea7b360e01b8082526001600160a01b0393841682860152602482018790526000989697929693959093602092909187169083816044818e865af180156134e957613510575b508883898c89896131798d6005541694519687958694859485528401602090939291936001600160a01b0360408201951681520152565b0391865af180156134e9576134f3575b508883898c89896131c08d6007541694519687958694859485528401602090939291936001600160a01b0360408201951681520152565b0391865af180156134e9578a9285928b926134cc575b50888d8961320a8d6008541695519788968795869485528401602090939291936001600160a01b0360408201951681520152565b03925af18015613387576134af575b50156133be576132298288613ecb565b9285613233613bf0565b169761012c420198894211613391578a9182918b8b519485809481938d8c6338ed173960e01b9e8f8652309286019461326b956130ba565b03925af1908115613387578a916133a4575b508051600019810191908211613391579261329d8193928a979695612bd7565b51958692888d8b6132ad89612bb7565b5116926132e58d6132bc613bce565b1695519788968795869485528401602090939291936001600160a01b0360408201951681520152565b03925af18015613387578a97969594929388946133369361330c93613369575b5050613c30565b986133178a86613e04565b96613320613bce565b169589519a8b98899788968752309387016130ba565b03925af1908115613360575061334a575050565b61335d913d8091833e61170f818361294d565b50565b513d84823e3d90fd5b8161337f92903d106106f5576106e6818361294d565b503880613305565b88513d8c823e3d90fd5b60248b601189634e487b7160e01b835252fd5b6133b891503d808c833e61170f818361294d565b3861327d565b6133c88288613e04565b92856133d2613bce565b169761012c420198894211613391578a9182918b8b519485809481938d8c6338ed173960e01b9e8f8652309286019461340a956130ba565b03925af1908115613387578a91613495575b508051600019810191908211613391579261343c8193928a979695612bd7565b51958692888d8b61344c89612bb7565b51169261345b8d6132bc613bf0565b03925af18015613387578a97969594929388946133369361348193613369575050613c30565b9861348c8a86613ecb565b96613320613bf0565b6134a991503d808c833e61170f818361294d565b3861341c565b6134c590833d85116106f5576106e6818361294d565b5038613219565b6134e290843d86116106f5576106e6818361294d565b50386131d6565b89513d8d823e3d90fd5b61350990843d86116106f5576106e6818361294d565b5038613189565b61352690843d86116106f5576106e6818361294d565b5038613142565b6007546040805163095ea7b360e01b8082526001600160a01b03938416600480840191909152602483018790526000979693959093919260209186169082816044818d865af18015613387576135b692849286926138ef575b5088600854168c8b518096819582948c84528d8401602090939291936001600160a01b0360408201951681520152565b03925af180156138e5576138c8575b508551906135d282612915565b60028252863682840137856135e689612baa565b51166135f183612baa565b52856135fc89612bb7565b511661360783612bb7565b526136128284613e04565b9186600754169061012c42019384421161389b5784928c92838a9361364e8e51978896879586946338ed173960e01b9e8f8752309387016130ba565b03925af1908115613387578a916138ae575b5080516000199182820191821161389b578b848b8b6136818f968d96612bd7565b519485948c613705846136d687519b6136998d612915565b60028d5288368b8f01378c6136b9846136b184612bb7565b511691612baa565b528c6136d0846136c884612bc7565b511691612bb7565b52612bb7565b5116946008541695519788968795869485528401602090939291936001600160a01b0360408201951681520152565b03925af18015613891578d9283896137478f948f968f908d92613874575b5061372e8a87613ecb565b97600854169651998a98899788968752309387016130ba565b03925af19081156134e9578b9161385a575b508051918201918211613391576137728b928492612bd7565b5195888a519b6137818d612915565b60028d528b36858f01378c8261379683612bc7565b5116906137a290612baa565b528c826137ae83612baa565b5116906137ba90612bb7565b526137c490612bc7565b51168960075416918b5194858094819382528b8d8301916137fa92602090939291936001600160a01b0360408201951681520152565b03925af1801561338757928a979695949261333692899561383c575b50506138228a86613e04565b96600754169589519a8b98899788968752309387016130ba565b8161385292903d106106f5576106e6818361294d565b503880613816565b61386e91503d808d833e61170f818361294d565b38613759565b61388a908d803d106106f5576106e6818361294d565b5038613723565b8b513d8f823e3d90fd5b60248c60118a634e487b7160e01b835252fd5b6138c291503d808c833e61170f818361294d565b38613660565b6138de90823d84116106f5576106e6818361294d565b50386135c5565b87513d8b823e3d90fd5b61390590843d86116106f5576106e6818361294d565b5038613586565b906001600160a01b039081600f54169081151580613a68575b80613a5f575b613936575b50505050565b6139466127109160105490612b34565b0492831561393057821691604051906370a0823160e01b82523060048301526020918281602481885afa80156106fc578691600091613a2e575b50101561398e575b50613930565b60405163a9059cbb60e01b81526001600160a01b039390931660048401526024830185905281836044816000885af19283156106fc577fae31919ed2f5e0afd03e95e56d2d512a4cfdfdfe29ae313f92dfccd88b47e68f93613a11575b506139f885601154612a84565b601155600f541693604051908152a33880808080613988565b613a2790833d85116106f5576106e6818361294d565b50386139eb565b809250848092503d8311613a58575b613a47818361294d565b810103126102de5785905138613980565b503d613a3d565b5080151561392b565b506010541515613925565b60206001600160a01b0360248160025460081c169360405194859384927f613255ab0000000000000000000000000000000000000000000000000000000084521660048301525afa9081156106fc57600091613adb575b501015613ad657600190565b600090565b90506020813d602011613b05575b81613af66020938361294d565b810103126102de575138613aca565b3d9150613ae9565b600460206001600160a01b0360035416604051928380927f074b2e430000000000000000000000000000000000000000000000000000000082525afa9081156106fc57600091613b7d575b50612710916fffffffffffffffffffffffffffffffff613b79921690612b34565b0490565b6020813d602011613bc6575b81613b966020938361294d565b81010312613bc25751906fffffffffffffffffffffffffffffffff8216820361309e5750612710613b58565b5080fd5b3d9150613b89565b6007546001600160a01b03908116908115613be7575090565b90506005541690565b6008546001600160a01b03908116908115613c09575090565b90506004541690565b15613bce576008546001600160a01b03908116908115613c09575090565b908151613c3c8161296f565b90613c4a604051928361294d565b808252613c59601f199161296f565b0136602083013780916000805b855180821015613cc1576000198101908111613cad57906001600160a01b03613c9a613c9483600195612adc565b89612bd7565b5116613ca68287612bd7565b5201613c66565b602483634e487b7160e01b81526011600452fd5b50505091925050565b60ff60025416613cd657565b606460405162461bcd60e51b815260206004820152601060248201527f5061757361626c653a20706175736564000000000000000000000000000000006044820152fd5b600260015414613d2b576002600155565b606460405162461bcd60e51b815260206004820152601f60248201527f5265656e7472616e637947756172643a207265656e7472616e742063616c6c006044820152fd5b6000929493613d88606093608084526080840190612cea565b951515602083015260408201520152565b606090613db3600193959495608083526080830190612cea565b946000602083015260408201520152565b919082519283825260005b848110613df0575050826000602080949584010152601f8019910116010190565b602081830181015184830182015201613dcf565b613e47916001600160a01b03613e18613bce565b169160405192839163d06ca61f60e01b8352600483015260406024830152818060009687956044830190612cea565b03915afa908115613ec0578291613ea6575b508051600019810191908211613cad5790613e7391612bd7565b5190600b549161271092830391838311613e92575090613b7991612b34565b80634e487b7160e01b602492526011600452fd5b613eba91503d8084833e61170f818361294d565b38613e59565b6040513d84823e3d90fd5b613e47916001600160a01b03613e18613bf056fea264697066735822122013067209d2278e3373071c948e15de041f450da244de642c76a5271d0b97e92664736f6c63430008180033","opcodes":"PUSH1 0x80 CALLVALUE PUSH3 0x225 JUMPI PUSH1 0x1F PUSH3 0x416B CODESIZE DUP2 SWAP1 SUB SWAP2 DUP3 ADD PUSH1 0x1F NOT AND DUP4 ADD SWAP2 PUSH1 0x1 PUSH1 0x1 PUSH1 0x40 SHL SUB DUP4 GT DUP5 DUP5 LT OR PUSH3 0x22A JUMPI DUP1 DUP5 SWAP3 PUSH1 0x80 SWAP5 PUSH1 0x40 MSTORE DUP4 CODECOPY DUP2 ADD SUB SLT PUSH3 0x225 JUMPI PUSH3 0x4D DUP2 PUSH3 0x240 JUMP JUMPDEST PUSH3 0x5B PUSH1 0x20 DUP4 ADD PUSH3 0x240 JUMP JUMPDEST PUSH3 0x77 PUSH1 0x60 PUSH3 0x6F PUSH1 0x40 DUP7 ADD PUSH3 0x240 JUMP JUMPDEST SWAP5 ADD PUSH3 0x240 JUMP JUMPDEST PUSH1 0x0 DUP1 SLOAD PUSH1 0x1 PUSH1 0x1 PUSH1 0xA0 SHL SUB NOT DUP1 DUP3 AND CALLER SWAP1 DUP2 OR DUP5 SSTORE PUSH1 0x40 MLOAD SWAP8 SWAP2 SWAP6 PUSH1 0x1 PUSH1 0x1 PUSH1 0xA0 SHL SUB SWAP6 SWAP5 DUP7 SWAP5 DUP6 SWAP4 SWAP2 SWAP1 DUP5 AND SWAP1 PUSH32 0x8BE0079C531659141344CD1FD0A4F28419497F9722A3DAAFE3B4186F6B6457E0 SWAP1 DUP1 LOG3 PUSH1 0x1 DUP1 SSTORE PUSH1 0x2 SLOAD PUSH1 0xC8 PUSH1 0xB SSTORE PUSH1 0x1E PUSH1 0xC SSTORE PUSH2 0x3E8 PUSH1 0x10 SSTORE PUSH1 0x8 SWAP9 PUSH2 0x100 PUSH1 0x1 PUSH1 0xA8 SHL SUB SWAP1 DUP11 SHL AND SWAP1 PUSH1 0x1 DUP1 PUSH1 0xA8 SHL SUB NOT AND OR PUSH1 0x2 SSTORE AND DUP6 PUSH1 0x4 SLOAD AND OR PUSH1 0x4 SSTORE AND DUP4 PUSH1 0x5 SLOAD AND OR PUSH1 0x5 SSTORE AND DUP2 PUSH1 0x6 SLOAD AND OR PUSH1 0x6 SSTORE CHAINID PUSH1 0x9 SSTORE PUSH1 0xA SLOAD PUSH1 0xFF DUP1 PUSH1 0xA CHAINID EQ AND DUP1 SWAP3 PUSH2 0xFF00 PUSH2 0xA4B1 CHAINID EQ DUP8 SHL AND SWAP1 PUSH2 0xFFFF NOT AND OR OR DUP1 PUSH1 0xA SSTORE DUP5 SHR AND PUSH1 0x0 EQ PUSH3 0x1B7 JUMPI POP PUSH20 0x794A61358D6845594F94DC1DB02A252B5B4814AD SWAP2 PUSH20 0x4752BA5DBC23F44D87826276BF6FD6B1C372AD24 DUP3 PUSH1 0x7 SLOAD AND OR PUSH1 0x7 SSTORE PUSH20 0xF2614A233C7C3E7F08B1F887BA133A13F1EB2C55 DUP3 DUP3 SLOAD AND OR SWAP1 SSTORE PUSH1 0x3 SLOAD AND OR PUSH1 0x3 SSTORE JUMPDEST PUSH2 0x3F15 SWAP1 DUP2 PUSH3 0x256 DUP3 CODECOPY RETURN JUMPDEST PUSH3 0x1C5 JUMPI JUMPDEST POP POP PUSH3 0x1AA JUMP JUMPDEST PUSH20 0x794A61358D6845594F94DC1DB02A252B5B4814AD SWAP2 PUSH20 0x4A7B5DA61326A6379179B40D00F57E5BBDC962C2 DUP3 PUSH1 0x7 SLOAD AND OR PUSH1 0x7 SSTORE PUSH20 0x2ABF469074DC0B54D793850807E6EB5FAF2625B1 DUP3 DUP3 SLOAD AND OR SWAP1 SSTORE PUSH1 0x3 SLOAD AND OR PUSH1 0x3 SSTORE CODESIZE DUP1 PUSH3 0x1BD JUMP JUMPDEST PUSH1 0x0 DUP1 REVERT JUMPDEST PUSH4 0x4E487B71 PUSH1 0xE0 SHL PUSH1 0x0 MSTORE PUSH1 0x41 PUSH1 0x4 MSTORE PUSH1 0x24 PUSH1 0x0 REVERT JUMPDEST MLOAD SWAP1 PUSH1 0x1 PUSH1 0x1 PUSH1 0xA0 SHL SUB DUP3 AND DUP3 SUB PUSH3 0x225 JUMPI JUMP INVALID PUSH1 0x80 DUP1 PUSH1 0x40 MSTORE PUSH1 0x4 CALLDATASIZE LT ISZERO PUSH2 0x13 JUMPI PUSH1 0x0 DUP1 REVERT JUMPDEST PUSH1 0xE0 PUSH1 0x0 CALLDATALOAD PUSH1 0xE0 SHR SWAP2 DUP3 PUSH3 0x4670F1 EQ PUSH2 0x27EA JUMPI POP DUP2 PUSH4 0x117DA1EE EQ PUSH2 0x277C JUMPI DUP2 PUSH4 0x15482AB2 EQ PUSH2 0x274D JUMPI DUP2 PUSH4 0x18D0B3CE EQ PUSH2 0x271E JUMPI DUP2 PUSH4 0x1B11D0FF EQ PUSH2 0x23A7 JUMPI DUP2 PUSH4 0x277DD7E0 EQ PUSH2 0x200B JUMPI DUP2 PUSH4 0x29F2C8F0 EQ PUSH2 0x1FE5 JUMPI DUP2 PUSH4 0x314CCE8A EQ PUSH2 0x1FC7 JUMPI DUP2 PUSH4 0x383AEEAE EQ PUSH2 0x1FA9 JUMPI DUP2 PUSH4 0x3B9DEBF6 EQ PUSH2 0x1F82 JUMPI DUP2 PUSH4 0x3C988982 EQ PUSH2 0x1F53 JUMPI DUP2 PUSH4 0x3CD3D2EC EQ PUSH2 0xBE0 JUMPI DUP2 PUSH4 0x3F4BA83A EQ PUSH2 0x1EB7 JUMPI DUP2 PUSH4 0x454BBD29 EQ PUSH2 0x1E5F JUMPI DUP2 PUSH4 0x4DEDE3DE EQ PUSH2 0x1E30 JUMPI DUP2 PUSH4 0x507A2291 EQ PUSH2 0x1E14 JUMPI DUP2 PUSH4 0x51CFF8D9 EQ PUSH2 0x1CB5 JUMPI DUP2 PUSH4 0x536FFF6C EQ PUSH2 0x1C76 JUMPI DUP2 PUSH4 0x5C975ABB EQ PUSH2 0x1C53 JUMPI DUP2 PUSH4 0x6CBADBFA EQ PUSH2 0x1C35 JUMPI DUP2 PUSH4 0x6D13582C EQ PUSH2 0x1C0E JUMPI DUP2 PUSH4 0x6FF1C9BC EQ PUSH2 0x1B1B JUMPI DUP2 PUSH4 0x715018A6 EQ PUSH2 0x1AC2 JUMPI DUP2 PUSH4 0x7448F575 EQ PUSH2 0x1A66 JUMPI DUP2 PUSH4 0x76E11286 EQ PUSH2 0x1A0B JUMPI DUP2 PUSH4 0x795674FF EQ PUSH2 0x19E4 JUMPI DUP2 PUSH4 0x8456CB59 EQ PUSH2 0x198A JUMPI DUP2 PUSH4 0x89A30271 EQ PUSH2 0x195B JUMPI DUP2 PUSH4 0x8DA5CB5B EQ PUSH2 0x1934 JUMPI DUP2 PUSH4 0x9DCB511A EQ PUSH2 0x18F9 JUMPI DUP2 PUSH4 0xA03E4BC3 EQ PUSH2 0x18D2 JUMPI DUP2 PUSH4 0xA0E47BF6 EQ PUSH2 0x18AB JUMPI DUP2 PUSH4 0xA6FED78E EQ PUSH2 0x1856 JUMPI DUP2 PUSH4 0xACFCC895 EQ PUSH2 0x1839 JUMPI DUP2 PUSH4 0xAD5C4648 EQ PUSH2 0x180A JUMPI DUP2 PUSH4 0xC01F2524 EQ PUSH2 0x157A JUMPI DUP2 PUSH4 0xC257CDC3 EQ PUSH2 0x155C JUMPI DUP2 PUSH4 0xC2DD302B EQ PUSH2 0x14B6 JUMPI DUP2 PUSH4 0xC54E44EB EQ PUSH2 0x1487 JUMPI DUP2 PUSH4 0xC6265576 EQ PUSH2 0x144F JUMPI DUP2 PUSH4 0xC69AEC56 EQ PUSH2 0x1116 JUMPI DUP2 PUSH4 0xD03153AA EQ PUSH2 0x10F8 JUMPI DUP2 PUSH4 0xD138B28E EQ PUSH2 0xD0B JUMPI POP DUP1 PUSH4 0xD66D5B08 EQ PUSH2 0xC56 JUMPI DUP1 PUSH4 0xDAD0B87C EQ PUSH2 0xC2F JUMPI DUP1 PUSH4 0xEA046659 EQ PUSH2 0xC08 JUMPI DUP1 PUSH4 0xEC961A05 EQ PUSH2 0xBE5 JUMPI DUP1 PUSH4 0xED6F1F4C EQ PUSH2 0xBE0 JUMPI DUP1 PUSH4 0xEE9ED9D7 EQ PUSH2 0x7E9 JUMPI DUP1 PUSH4 0xF04F2707 EQ PUSH2 0x402 JUMPI DUP1 PUSH4 0xF2FDE38B EQ PUSH2 0x32A JUMPI DUP1 PUSH4 0xF9759518 EQ PUSH2 0x30D JUMPI DUP1 PUSH4 0xFBFA77CF EQ PUSH2 0x2E3 JUMPI PUSH4 0xFCFF2C28 EQ PUSH2 0x273 JUMPI PUSH1 0x0 DUP1 REVERT JUMPDEST CALLVALUE PUSH2 0x2DE JUMPI PUSH1 0x20 CALLDATASIZE PUSH1 0x3 NOT ADD SLT PUSH2 0x2DE JUMPI PUSH1 0x4 CALLDATALOAD PUSH2 0x28F PUSH2 0x2EA6 JUMP JUMPDEST DUP1 ISZERO PUSH2 0x29A JUMPI PUSH1 0xC SSTORE STOP JUMPDEST PUSH1 0x64 PUSH1 0x40 MLOAD PUSH3 0x461BCD PUSH1 0xE5 SHL DUP2 MSTORE PUSH1 0x20 PUSH1 0x4 DUP3 ADD MSTORE PUSH1 0x1B PUSH1 0x24 DUP3 ADD MSTORE PUSH32 0x4D696E2070726F666974206D75737420626520706F7369746976650000000000 PUSH1 0x44 DUP3 ADD MSTORE REVERT JUMPDEST PUSH1 0x0 DUP1 REVERT JUMPDEST CALLVALUE PUSH2 0x2DE JUMPI PUSH1 0x0 CALLDATASIZE PUSH1 0x3 NOT ADD SLT PUSH2 0x2DE JUMPI PUSH1 0x20 PUSH1 0x1 PUSH1 0x1 PUSH1 0xA0 SHL SUB PUSH1 0x2 SLOAD PUSH1 0x8 SHR AND PUSH1 0x40 MLOAD SWAP1 DUP2 MSTORE RETURN JUMPDEST CALLVALUE PUSH2 0x2DE JUMPI PUSH1 0x0 CALLDATASIZE PUSH1 0x3 NOT ADD SLT PUSH2 0x2DE JUMPI PUSH1 0x20 PUSH1 0x40 MLOAD PUSH2 0x1F4 DUP2 MSTORE RETURN JUMPDEST CALLVALUE PUSH2 0x2DE JUMPI PUSH1 0x20 CALLDATASIZE PUSH1 0x3 NOT ADD SLT PUSH2 0x2DE JUMPI PUSH2 0x343 PUSH2 0x2817 JUMP JUMPDEST PUSH2 0x34B PUSH2 0x2EA6 JUMP JUMPDEST PUSH1 0x1 PUSH1 0x1 PUSH1 0xA0 SHL SUB DUP1 SWAP2 AND SWAP1 DUP2 ISZERO PUSH2 0x398 JUMPI PUSH1 0x0 SLOAD DUP3 PUSH1 0x1 PUSH1 0x1 PUSH1 0xA0 SHL SUB NOT DUP3 AND OR PUSH1 0x0 SSTORE AND PUSH32 0x8BE0079C531659141344CD1FD0A4F28419497F9722A3DAAFE3B4186F6B6457E0 PUSH1 0x0 DUP1 LOG3 STOP JUMPDEST PUSH1 0x84 PUSH1 0x40 MLOAD PUSH3 0x461BCD PUSH1 0xE5 SHL DUP2 MSTORE PUSH1 0x20 PUSH1 0x4 DUP3 ADD MSTORE PUSH1 0x26 PUSH1 0x24 DUP3 ADD MSTORE PUSH32 0x4F776E61626C653A206E6577206F776E657220697320746865207A65726F2061 PUSH1 0x44 DUP3 ADD MSTORE PUSH32 0x6464726573730000000000000000000000000000000000000000000000000000 PUSH1 0x64 DUP3 ADD MSTORE REVERT JUMPDEST CALLVALUE PUSH2 0x2DE JUMPI PUSH1 0x80 CALLDATASIZE PUSH1 0x3 NOT ADD SLT PUSH2 0x2DE JUMPI PUSH8 0xFFFFFFFFFFFFFFFF PUSH1 0x4 CALLDATALOAD DUP2 DUP2 GT PUSH2 0x2DE JUMPI PUSH2 0x434 SWAP1 CALLDATASIZE SWAP1 PUSH1 0x4 ADD PUSH2 0x286F JUMP JUMPDEST SWAP2 SWAP1 PUSH1 0x24 CALLDATALOAD DUP3 DUP2 GT PUSH2 0x2DE JUMPI PUSH2 0x44E SWAP1 CALLDATASIZE SWAP1 PUSH1 0x4 ADD PUSH2 0x286F JUMP JUMPDEST SWAP1 SWAP2 PUSH1 0x44 CALLDATALOAD DUP5 DUP2 GT PUSH2 0x2DE JUMPI PUSH2 0x468 SWAP1 CALLDATASIZE SWAP1 PUSH1 0x4 ADD PUSH2 0x286F JUMP JUMPDEST SWAP1 SWAP5 PUSH1 0x64 CALLDATALOAD SWAP1 DUP2 GT PUSH2 0x2DE JUMPI PUSH2 0x482 SWAP1 CALLDATASIZE SWAP1 PUSH1 0x4 ADD PUSH2 0x2841 JUMP JUMPDEST SWAP1 PUSH1 0x1 PUSH1 0x1 PUSH1 0xA0 SHL SUB PUSH1 0x2 SLOAD PUSH1 0x8 SHR AND CALLER SUB PUSH2 0x7A5 JUMPI PUSH2 0x4A4 SWAP2 DUP2 ADD SWAP1 PUSH2 0x29DD JUMP JUMPDEST SWAP4 SWAP3 SWAP8 SWAP2 SWAP5 SWAP1 SWAP9 ISZERO PUSH2 0x71E JUMPI PUSH2 0x4B9 SWAP1 PUSH2 0x2BEB JUMP JUMPDEST SWAP5 ISZERO PUSH2 0x71E JUMPI PUSH2 0x4D0 PUSH2 0x4CB DUP9 PUSH2 0x2F15 JUMP JUMPDEST PUSH2 0x2A39 JUMP JUMPDEST PUSH1 0x40 MLOAD PUSH4 0x70A08231 PUSH1 0xE0 SHL DUP2 MSTORE ADDRESS PUSH1 0x4 DUP3 ADD MSTORE PUSH1 0x20 DUP2 PUSH1 0x24 DUP2 PUSH1 0x1 PUSH1 0x1 PUSH1 0xA0 SHL SUB DUP11 AND GAS STATICCALL DUP1 ISZERO PUSH2 0x6FC JUMPI PUSH2 0x77A JUMPI JUMPDEST POP DUP3 ISZERO PUSH2 0x768 JUMPI PUSH2 0x513 DUP8 DUP8 CALLDATALOAD DUP8 PUSH2 0x352D JUMP JUMPDEST PUSH1 0x40 MLOAD SWAP2 PUSH4 0x70A08231 PUSH1 0xE0 SHL DUP4 MSTORE ADDRESS PUSH1 0x4 DUP5 ADD MSTORE PUSH1 0x20 DUP4 PUSH1 0x24 DUP2 PUSH1 0x1 PUSH1 0x1 PUSH1 0xA0 SHL SUB DUP11 AND GAS STATICCALL SWAP3 DUP4 ISZERO PUSH2 0x6FC JUMPI PUSH1 0x0 SWAP4 PUSH2 0x734 JUMPI JUMPDEST POP ISZERO PUSH2 0x71E JUMPI PUSH2 0x55D PUSH2 0x570 SWAP2 CALLDATALOAD DUP8 CALLDATALOAD PUSH2 0x2A84 JUMP JUMPDEST DUP3 PUSH2 0x56B DUP3 DUP1 SWAP6 LT ISZERO PUSH2 0x2A91 JUMP JUMPDEST PUSH2 0x2ADC JUMP JUMPDEST SWAP7 PUSH2 0x58D PUSH2 0x2710 PUSH2 0x584 PUSH1 0xC SLOAD DUP10 CALLDATALOAD PUSH2 0x2B34 JUMP JUMPDEST DIV DUP10 LT ISZERO PUSH2 0x2AE9 JUMP JUMPDEST PUSH1 0x5F DUP2 MUL SWAP1 DUP1 DUP3 DIV PUSH1 0x5F EQ SWAP1 ISZERO OR ISZERO PUSH2 0x708 JUMPI PUSH2 0x5ED SWAP2 PUSH2 0x5B5 PUSH1 0x64 PUSH1 0x20 SWAP4 DIV DUP11 LT ISZERO PUSH2 0x2B47 JUMP JUMPDEST PUSH1 0x2 SLOAD PUSH1 0x40 MLOAD PUSH4 0x95EA7B3 PUSH1 0xE0 SHL DUP2 MSTORE PUSH1 0x8 SWAP2 SWAP1 SWAP2 SHR PUSH1 0x1 PUSH1 0x1 PUSH1 0xA0 SHL SUB AND PUSH1 0x4 DUP3 ADD MSTORE PUSH1 0x24 DUP2 ADD SWAP2 SWAP1 SWAP2 MSTORE SWAP2 DUP3 SWAP1 DUP2 SWAP1 PUSH1 0x44 DUP3 ADD SWAP1 JUMP JUMPDEST SUB DUP2 PUSH1 0x0 PUSH1 0x1 PUSH1 0x1 PUSH1 0xA0 SHL SUB DUP10 AND GAS CALL DUP1 ISZERO PUSH2 0x6FC JUMPI PUSH2 0x6CD JUMPI JUMPDEST POP PUSH2 0x613 DUP7 DUP5 PUSH2 0x390C JUMP JUMPDEST ISZERO PUSH2 0x67F JUMPI POP POP PUSH32 0x511DC6C70263758503FF9AEE3E77F3E7BEF3CABEE21A4EB0B017E7CF0438F2F2 PUSH1 0x40 PUSH1 0x1 PUSH1 0x1 PUSH1 0xA0 SHL SUB PUSH2 0x64E DUP6 PUSH2 0x2BAA JUMP JUMPDEST MLOAD AND SWAP3 PUSH1 0x1 PUSH1 0x1 PUSH1 0xA0 SHL SUB PUSH2 0x66E DUP2 PUSH2 0x666 DUP9 PUSH2 0x2BB7 JUMP JUMPDEST MLOAD AND SWAP7 PUSH2 0x2BC7 JUMP JUMPDEST MLOAD AND SWAP6 DUP3 MLOAD SWAP2 CALLDATALOAD DUP3 MSTORE PUSH1 0x20 DUP3 ADD MSTORE LOG4 STOP JUMPDEST PUSH1 0x40 DUP1 MLOAD SWAP4 CALLDATALOAD DUP5 MSTORE PUSH1 0x20 DUP5 ADD SWAP6 SWAP1 SWAP6 MSTORE ISZERO ISZERO SWAP4 DUP3 ADD SWAP4 SWAP1 SWAP4 MSTORE PUSH1 0x1 PUSH1 0x1 PUSH1 0xA0 SHL SUB SWAP1 SWAP3 AND SWAP2 PUSH32 0x5625C164577E109E0C8964AB47768B235A36D08F5146DFA9858A382FA5C5EFD SWAP2 POP PUSH1 0x60 SWAP1 LOG2 STOP JUMPDEST PUSH2 0x6EE SWAP1 PUSH1 0x20 RETURNDATASIZE PUSH1 0x20 GT PUSH2 0x6F5 JUMPI JUMPDEST PUSH2 0x6E6 DUP2 DUP4 PUSH2 0x294D JUMP JUMPDEST DUP2 ADD SWAP1 PUSH2 0x2B92 JUMP JUMPDEST POP DUP7 PUSH2 0x608 JUMP JUMPDEST POP RETURNDATASIZE PUSH2 0x6DC JUMP JUMPDEST PUSH1 0x40 MLOAD RETURNDATASIZE PUSH1 0x0 DUP3 RETURNDATACOPY RETURNDATASIZE SWAP1 REVERT JUMPDEST PUSH4 0x4E487B71 PUSH1 0xE0 SHL PUSH1 0x0 MSTORE PUSH1 0x11 PUSH1 0x4 MSTORE PUSH1 0x24 PUSH1 0x0 REVERT JUMPDEST PUSH4 0x4E487B71 PUSH1 0xE0 SHL PUSH1 0x0 MSTORE PUSH1 0x32 PUSH1 0x4 MSTORE PUSH1 0x24 PUSH1 0x0 REVERT JUMPDEST SWAP1 SWAP3 POP PUSH1 0x20 DUP2 RETURNDATASIZE PUSH1 0x20 GT PUSH2 0x760 JUMPI JUMPDEST DUP2 PUSH2 0x750 PUSH1 0x20 SWAP4 DUP4 PUSH2 0x294D JUMP JUMPDEST DUP2 ADD SUB SLT PUSH2 0x2DE JUMPI MLOAD SWAP2 DUP10 PUSH2 0x548 JUMP JUMPDEST RETURNDATASIZE SWAP2 POP PUSH2 0x743 JUMP JUMPDEST PUSH2 0x775 DUP5 DUP9 DUP9 CALLDATALOAD DUP9 PUSH2 0x30F2 JUMP JUMPDEST PUSH2 0x513 JUMP JUMPDEST PUSH1 0x20 SWAP1 DUP2 RETURNDATASIZE DUP4 GT PUSH2 0x79E JUMPI JUMPDEST PUSH2 0x790 DUP2 DUP4 PUSH2 0x294D JUMP JUMPDEST DUP2 ADD SUB SLT PUSH2 0x2DE JUMPI DUP9 PUSH2 0x500 JUMP JUMPDEST POP RETURNDATASIZE PUSH2 0x786 JUMP JUMPDEST PUSH1 0x64 PUSH1 0x40 MLOAD PUSH3 0x461BCD PUSH1 0xE5 SHL DUP2 MSTORE PUSH1 0x20 PUSH1 0x4 DUP3 ADD MSTORE PUSH1 0x13 PUSH1 0x24 DUP3 ADD MSTORE PUSH32 0x4F6E6C792042616C616E636572207661756C7400000000000000000000000000 PUSH1 0x44 DUP3 ADD MSTORE REVERT JUMPDEST CALLVALUE PUSH2 0x2DE JUMPI PUSH1 0x3 NOT PUSH1 0x80 CALLDATASIZE DUP3 ADD SLT PUSH2 0x2DE JUMPI PUSH2 0x803 PUSH2 0x2817 JUMP JUMPDEST SWAP1 PUSH1 0x24 SWAP2 DUP3 CALLDATALOAD PUSH1 0x44 CALLDATALOAD PUSH8 0xFFFFFFFFFFFFFFFF DUP2 GT PUSH2 0x2DE JUMPI PUSH2 0x829 SWAP1 CALLDATASIZE SWAP1 PUSH1 0x4 ADD PUSH2 0x286F JUMP JUMPDEST SWAP4 SWAP1 SWAP3 PUSH1 0x64 CALLDATALOAD SWAP3 CALLER PUSH1 0x0 MSTORE PUSH1 0x20 SWAP5 PUSH1 0xE DUP7 MSTORE PUSH1 0xFF PUSH1 0x40 PUSH1 0x0 KECCAK256 SLOAD AND DUP1 ISZERO PUSH2 0xBC7 JUMPI JUMPDEST PUSH2 0x854 SWAP1 PUSH2 0x2D7E JUMP JUMPDEST PUSH2 0x85C PUSH2 0x3CCA JUMP JUMPDEST PUSH2 0x864 PUSH2 0x3D1A JUMP JUMPDEST PUSH1 0x4 DUP8 SUB PUSH2 0xB5E JUMPI DUP7 ISZERO PUSH2 0xB49 JUMPI PUSH2 0x87B DUP2 PUSH2 0x2BEB JUMP JUMPDEST SWAP7 DUP1 PUSH1 0x3 LT ISZERO PUSH2 0xB34 JUMPI PUSH2 0x8A8 PUSH1 0x1 PUSH1 0x1 PUSH1 0xA0 SHL SUB SWAP9 DUP10 DUP1 PUSH2 0x89F PUSH1 0x60 DUP8 ADD PUSH2 0x2BEB JUMP JUMPDEST AND SWAP2 AND EQ PUSH2 0x2BFF JUMP JUMPDEST PUSH2 0x8B3 DUP4 ISZERO ISZERO PUSH2 0x2DC9 JUMP JUMPDEST PUSH2 0x8BE DUP7 ISZERO ISZERO PUSH2 0x2E14 JUMP JUMPDEST PUSH2 0x8C8 DUP4 DUP6 PUSH2 0x3A73 JUMP JUMPDEST PUSH1 0x2 DUP2 LT ISZERO PUSH2 0xB1F JUMPI PUSH2 0xA40 JUMPI SWAP1 PUSH2 0x8E1 SWAP2 CALLDATASIZE SWAP2 PUSH2 0x2987 JUMP JUMPDEST SWAP5 PUSH1 0x40 MLOAD SWAP7 PUSH2 0x8EF DUP9 PUSH2 0x2931 JUMP JUMPDEST PUSH32 0xF5EA93FA71A16E89B26B22976590659F91D44AE3F503BE2AFCD292796D305218 PUSH1 0x60 PUSH1 0x1 SWAP6 PUSH1 0x1 DUP12 MSTORE DUP5 CALLDATASIZE DUP2 DUP14 ADD CALLDATACOPY DUP4 PUSH2 0x929 DUP13 PUSH2 0x2BAA JUMP JUMPDEST SWAP2 AND DUP1 SWAP2 MSTORE PUSH1 0x40 MLOAD SWAP6 PUSH2 0x93B DUP8 PUSH2 0x2931 JUMP JUMPDEST PUSH1 0x1 DUP8 MSTORE PUSH2 0x975 DUP7 DUP9 ADD SWAP12 DUP8 DUP14 CALLDATASIZE SWAP1 CALLDATACOPY DUP3 PUSH2 0x955 DUP11 PUSH2 0x2BAA JUMP JUMPDEST MSTORE PUSH2 0x967 PUSH1 0x40 MLOAD SWAP13 DUP14 SWAP3 DUP11 DUP5 ADD PUSH2 0x3D99 JUMP JUMPDEST SUB PUSH1 0x1F NOT DUP2 ADD DUP13 MSTORE DUP12 PUSH2 0x294D JUMP JUMPDEST PUSH1 0x40 MLOAD SWAP2 PUSH1 0x0 DUP4 MSTORE DUP7 DUP4 ADD MSTORE PUSH1 0x40 DUP3 ADD MSTORE LOG1 PUSH1 0x2 SLOAD PUSH1 0x8 SHR AND SWAP7 DUP8 EXTCODESIZE ISZERO PUSH2 0x2DE JUMPI SWAP2 DUP2 PUSH2 0x9C7 PUSH1 0x80 SWAP11 SWAP9 SWAP8 SWAP7 SWAP6 SWAP4 SWAP5 PUSH1 0x40 MLOAD SWAP12 DUP13 SWAP11 PUSH4 0x2E1C224F PUSH1 0xE1 SHL DUP13 MSTORE ADDRESS PUSH1 0x4 DUP14 ADD MSTORE DUP12 ADD MSTORE PUSH1 0x84 DUP11 ADD SWAP1 PUSH2 0x2CEA JUMP JUMPDEST SWAP2 DUP6 DUP10 DUP5 SUB ADD PUSH1 0x44 DUP11 ADD MSTORE MLOAD SWAP2 DUP3 DUP2 MSTORE ADD SWAP6 SWAP3 PUSH1 0x0 JUMPDEST DUP3 DUP2 LT PUSH2 0xA2A JUMPI POP POP POP POP POP DUP4 PUSH2 0xA04 DUP5 DUP3 SWAP5 PUSH1 0x0 SWAP9 SWAP7 SWAP5 DUP5 DUP11 SWAP7 SUB ADD PUSH1 0x64 DUP6 ADD MSTORE PUSH2 0x3DC4 JUMP JUMPDEST SUB SWAP3 GAS CALL DUP1 ISZERO PUSH2 0x6FC JUMPI PUSH2 0xA1B JUMPI JUMPDEST POP JUMPDEST PUSH1 0x1 DUP1 SSTORE STOP JUMPDEST PUSH2 0xA24 SWAP1 PUSH2 0x28EB JUMP JUMPDEST DUP1 PUSH2 0xA13 JUMP JUMPDEST DUP5 MLOAD DUP9 MSTORE DUP11 SWAP9 POP SWAP7 DUP2 ADD SWAP7 SWAP4 DUP2 ADD SWAP4 DUP4 ADD PUSH2 0x9DD JUMP JUMPDEST PUSH1 0x60 SWAP3 SWAP7 SWAP6 SWAP9 SWAP8 SWAP5 POP PUSH2 0xA7A PUSH32 0xF5EA93FA71A16E89B26B22976590659F91D44AE3F503BE2AFCD292796D305218 SWAP5 SWAP3 PUSH2 0xA99 SWAP3 CALLDATASIZE SWAP2 PUSH2 0x2987 JUMP JUMPDEST PUSH2 0xA8B PUSH1 0x40 MLOAD SWAP11 DUP12 SWAP3 DUP10 DUP5 ADD PUSH2 0x3D99 JUMP JUMPDEST SUB PUSH1 0x1F NOT DUP2 ADD DUP11 MSTORE DUP10 PUSH2 0x294D JUMP JUMPDEST DUP4 PUSH1 0x40 MLOAD SWAP2 PUSH1 0x1 DUP4 MSTORE AND DUP1 SWAP6 DUP3 ADD MSTORE DUP6 PUSH1 0x40 DUP3 ADD MSTORE LOG1 PUSH1 0x3 SLOAD AND SWAP1 DUP2 EXTCODESIZE ISZERO PUSH2 0x2DE JUMPI PUSH1 0x0 DUP1 SWAP5 PUSH2 0xAF5 PUSH1 0x40 MLOAD SWAP8 DUP9 SWAP7 DUP8 SWAP6 DUP7 SWAP5 PUSH4 0x10AC2DDF PUSH1 0xE2 SHL DUP7 MSTORE ADDRESS PUSH1 0x4 DUP8 ADD MSTORE DUP6 ADD MSTORE PUSH1 0x44 DUP5 ADD MSTORE PUSH1 0xA0 PUSH1 0x64 DUP5 ADD MSTORE PUSH1 0xA4 DUP4 ADD SWAP1 PUSH2 0x3DC4 JUMP JUMPDEST DUP3 PUSH1 0x84 DUP4 ADD MSTORE SUB SWAP3 GAS CALL DUP1 ISZERO PUSH2 0x6FC JUMPI PUSH2 0xB10 JUMPI JUMPDEST POP PUSH2 0xA15 JUMP JUMPDEST PUSH2 0xB19 SWAP1 PUSH2 0x28EB JUMP JUMPDEST DUP1 PUSH2 0xB0A JUMP JUMPDEST DUP10 PUSH4 0x4E487B71 PUSH1 0xE0 SHL PUSH1 0x0 MSTORE PUSH1 0x21 PUSH1 0x4 MSTORE PUSH1 0x0 REVERT JUMPDEST DUP9 PUSH4 0x4E487B71 PUSH1 0xE0 SHL PUSH1 0x0 MSTORE PUSH1 0x32 PUSH1 0x4 MSTORE PUSH1 0x0 REVERT JUMPDEST DUP8 PUSH4 0x4E487B71 PUSH1 0xE0 SHL PUSH1 0x0 MSTORE PUSH1 0x32 PUSH1 0x4 MSTORE PUSH1 0x0 REVERT JUMPDEST PUSH1 0x84 DUP7 PUSH1 0x2F DUP11 PUSH1 0x40 MLOAD SWAP3 PUSH3 0x461BCD PUSH1 0xE5 SHL DUP5 MSTORE PUSH1 0x4 DUP5 ADD MSTORE DUP3 ADD MSTORE PUSH32 0x547269616E67756C61722070617468206D7573742068617665203420746F6B65 PUSH1 0x44 DUP3 ADD MSTORE PUSH32 0x6E732028412D3E422D3E432D3E41290000000000000000000000000000000000 PUSH1 0x64 DUP3 ADD MSTORE REVERT JUMPDEST POP PUSH2 0x854 PUSH1 0x1 PUSH1 0x1 PUSH1 0xA0 SHL SUB PUSH1 0x0 SLOAD AND CALLER EQ SWAP1 POP PUSH2 0x84B JUMP JUMPDEST PUSH2 0x28A0 JUMP JUMPDEST CALLVALUE PUSH2 0x2DE JUMPI PUSH1 0x0 CALLDATASIZE PUSH1 0x3 NOT ADD SLT PUSH2 0x2DE JUMPI PUSH1 0x20 PUSH1 0xFF PUSH1 0xA SLOAD AND PUSH1 0x40 MLOAD SWAP1 ISZERO ISZERO DUP2 MSTORE RETURN JUMPDEST CALLVALUE PUSH2 0x2DE JUMPI PUSH1 0x0 CALLDATASIZE PUSH1 0x3 NOT ADD SLT PUSH2 0x2DE JUMPI PUSH1 0x20 PUSH1 0x1 PUSH1 0x1 PUSH1 0xA0 SHL SUB PUSH1 0x8 SLOAD AND PUSH1 0x40 MLOAD SWAP1 DUP2 MSTORE RETURN JUMPDEST CALLVALUE PUSH2 0x2DE JUMPI PUSH1 0x0 CALLDATASIZE PUSH1 0x3 NOT ADD SLT PUSH2 0x2DE JUMPI PUSH1 0x20 PUSH1 0x1 PUSH1 0x1 PUSH1 0xA0 SHL SUB PUSH1 0xF SLOAD AND PUSH1 0x40 MLOAD SWAP1 DUP2 MSTORE RETURN JUMPDEST CALLVALUE PUSH2 0x2DE JUMPI PUSH1 0x20 CALLDATASIZE PUSH1 0x3 NOT ADD SLT PUSH2 0x2DE JUMPI PUSH1 0x1 PUSH1 0x1 PUSH1 0xA0 SHL SUB PUSH2 0xC77 PUSH2 0x2817 JUMP JUMPDEST PUSH2 0xC7F PUSH2 0x2EA6 JUMP JUMPDEST AND DUP1 ISZERO PUSH2 0xCC7 JUMPI DUP1 PUSH1 0x1 PUSH1 0x1 PUSH1 0xA0 SHL SUB NOT PUSH1 0xF SLOAD AND OR PUSH1 0xF SSTORE PUSH32 0x5D4263EB49A8092EA4735DC1E5200292FE3AC3AFB2D5D3F3339034EFBE9AE4F0 PUSH1 0x20 PUSH1 0x10 SLOAD PUSH1 0x40 MLOAD SWAP1 DUP2 MSTORE LOG2 STOP JUMPDEST PUSH1 0x64 PUSH1 0x40 MLOAD PUSH3 0x461BCD PUSH1 0xE5 SHL DUP2 MSTORE PUSH1 0x20 PUSH1 0x4 DUP3 ADD MSTORE PUSH1 0x1A PUSH1 0x24 DUP3 ADD MSTORE PUSH32 0x496E76616C6964206761732066756E64696E672077616C6C6574000000000000 PUSH1 0x44 DUP3 ADD MSTORE REVERT JUMPDEST CALLVALUE PUSH2 0x2DE JUMPI PUSH1 0x3 NOT PUSH1 0x20 CALLDATASIZE DUP3 ADD DUP2 SGT PUSH2 0x2DE JUMPI PUSH8 0xFFFFFFFFFFFFFFFF SWAP1 PUSH1 0x4 CALLDATALOAD DUP3 DUP2 GT PUSH2 0x2DE JUMPI PUSH1 0x40 DUP2 PUSH1 0x4 ADD SWAP5 DUP3 CALLDATASIZE SUB ADD SLT PUSH2 0x2DE JUMPI PUSH2 0xD4A PUSH2 0x3D1A JUMP JUMPDEST PUSH2 0xD52 PUSH2 0x3CCA JUMP JUMPDEST CALLER PUSH1 0x0 MSTORE PUSH1 0xE DUP3 MSTORE PUSH1 0xFF PUSH1 0x40 PUSH1 0x0 KECCAK256 SLOAD AND DUP1 ISZERO PUSH2 0x10DF JUMPI JUMPDEST PUSH2 0xD73 SWAP1 PUSH2 0x2D7E JUMP JUMPDEST PUSH1 0x24 DUP1 SWAP2 ADD CALLDATALOAD TIMESTAMP GT PUSH2 0x109C JUMPI PUSH2 0xD89 DUP5 DUP1 PUSH2 0x2E5F JUMP JUMPDEST SWAP1 POP ISZERO PUSH2 0x1059 JUMPI PUSH1 0xA PUSH2 0xD9C DUP6 DUP1 PUSH2 0x2E5F JUMP JUMPDEST SWAP1 POP GT PUSH2 0x1016 JUMPI PUSH1 0x0 SWAP3 DUP4 JUMPDEST PUSH2 0xDB2 DUP7 DUP1 PUSH2 0x2E5F JUMP JUMPDEST SWAP1 POP DUP6 LT ISZERO PUSH2 0xF89 JUMPI PUSH2 0xDC5 DUP7 DUP1 PUSH2 0x2E5F JUMP JUMPDEST DUP7 LT ISZERO PUSH2 0xF74 JUMPI DUP8 DUP7 MUL ADD DUP8 DUP2 CALLDATASIZE SUB SLT PUSH2 0x2DE JUMPI PUSH1 0x40 MLOAD DUP9 DUP2 ADD DUP2 DUP2 LT DUP6 DUP3 GT OR PUSH2 0xF5F JUMPI PUSH1 0x40 MSTORE PUSH2 0xDF6 DUP3 PUSH2 0x282D JUMP JUMPDEST SWAP2 DUP3 DUP3 MSTORE DUP7 DUP2 ADD CALLDATALOAD PUSH12 0xFFFFFFFFFFFFFFFFFFFFFFFF DUP2 AND DUP2 SUB PUSH2 0x2DE JUMPI DUP8 DUP4 ADD MSTORE PUSH2 0xE23 PUSH1 0x40 DUP3 ADD PUSH2 0x282D JUMP JUMPDEST PUSH1 0x40 DUP4 ADD MSTORE PUSH1 0x60 PUSH2 0xE35 DUP2 DUP4 ADD PUSH2 0x282D JUMP JUMPDEST SWAP1 DUP4 ADD MSTORE PUSH1 0x80 PUSH2 0xE46 DUP2 DUP4 ADD PUSH2 0x28DE JUMP JUMPDEST SWAP1 DUP4 ADD MSTORE PUSH1 0xA0 PUSH2 0xE57 DUP2 DUP4 ADD PUSH2 0x2E95 JUMP JUMPDEST SWAP1 DUP4 ADD MSTORE PUSH2 0xE68 PUSH1 0xC0 DUP1 SWAP3 ADD PUSH2 0x2E95 JUMP JUMPDEST SWAP1 DUP3 ADD MSTORE PUSH1 0x1 PUSH1 0x1 PUSH1 0xA0 SHL SUB PUSH1 0x40 MLOAD SWAP1 DUP8 DUP3 DUP9 DUP2 DUP5 PUSH4 0x70A08231 PUSH1 0xE0 SHL SWAP9 DUP10 DUP4 MSTORE ADDRESS PUSH1 0x4 DUP5 ADD MSTORE AND GAS STATICCALL SWAP3 DUP4 ISZERO PUSH2 0x6FC JUMPI DUP9 SWAP3 PUSH1 0x0 SWAP5 PUSH2 0xF2E JUMPI JUMPDEST POP MLOAD AND SWAP3 DUP7 PUSH1 0x40 MLOAD DUP1 SWAP6 DUP2 SWAP4 DUP3 MSTORE ADDRESS PUSH1 0x4 DUP4 ADD MSTORE GAS STATICCALL SWAP2 DUP3 ISZERO PUSH2 0x6FC JUMPI PUSH1 0x0 SWAP3 PUSH2 0xEFC JUMPI JUMPDEST POP SWAP2 PUSH2 0xEEA SWAP2 PUSH1 0x1 SWAP4 DUP1 DUP3 GT PUSH1 0x0 EQ PUSH2 0xEF2 JUMPI PUSH2 0xEE4 SWAP2 PUSH2 0x2ADC JUMP JUMPDEST SWAP1 PUSH2 0x2A84 JUMP JUMPDEST SWAP5 ADD SWAP4 PUSH2 0xDA8 JUMP JUMPDEST POP POP PUSH1 0x0 SWAP1 PUSH2 0x2A84 JUMP JUMPDEST SWAP2 POP SWAP2 DUP6 DUP3 DUP2 RETURNDATASIZE DUP4 GT PUSH2 0xF27 JUMPI JUMPDEST PUSH2 0xF14 DUP2 DUP4 PUSH2 0x294D JUMP JUMPDEST DUP2 ADD SUB SLT PUSH2 0x2DE JUMPI SWAP1 MLOAD SWAP1 SWAP2 PUSH1 0x1 PUSH2 0xEC8 JUMP JUMPDEST POP RETURNDATASIZE PUSH2 0xF0A JUMP JUMPDEST DUP4 DUP2 SWAP5 SWAP3 SWAP6 POP RETURNDATASIZE DUP4 GT PUSH2 0xF58 JUMPI JUMPDEST PUSH2 0xF46 DUP2 DUP4 PUSH2 0x294D JUMP JUMPDEST DUP2 ADD SUB SLT PUSH2 0x2DE JUMPI DUP8 SWAP2 MLOAD SWAP3 DUP13 PUSH2 0xEA3 JUMP JUMPDEST POP RETURNDATASIZE PUSH2 0xF3C JUMP JUMPDEST DUP6 PUSH4 0x4E487B71 PUSH1 0xE0 SHL PUSH1 0x0 MSTORE PUSH1 0x41 PUSH1 0x4 MSTORE PUSH1 0x0 REVERT JUMPDEST DUP4 PUSH4 0x4E487B71 PUSH1 0xE0 SHL PUSH1 0x0 MSTORE PUSH1 0x32 PUSH1 0x4 MSTORE PUSH1 0x0 REVERT JUMPDEST DUP4 DUP7 DUP5 DUP4 ISZERO PUSH2 0xFD3 JUMPI PUSH32 0xCCCF891412A70AD9FB0665C9D1959B16F1232C4DFD1A529B5528B3E1E7E59357 PUSH1 0x40 DUP5 DUP7 PUSH2 0xFC1 DUP7 DUP1 PUSH2 0x2E5F JUMP JUMPDEST SWAP3 SWAP1 POP DUP4 MLOAD SWAP3 DUP4 MSTORE DUP3 ADD MSTORE LOG1 PUSH1 0x1 DUP1 SSTORE STOP JUMPDEST DUP3 PUSH1 0x14 PUSH1 0x64 SWAP3 PUSH1 0x40 MLOAD SWAP3 PUSH3 0x461BCD PUSH1 0xE5 SHL DUP5 MSTORE PUSH1 0x4 DUP5 ADD MSTORE DUP3 ADD MSTORE PUSH32 0x4261746368206E6F742070726F66697461626C65000000000000000000000000 PUSH1 0x44 DUP3 ADD MSTORE REVERT JUMPDEST SWAP1 PUSH1 0xF PUSH1 0x64 SWAP3 PUSH1 0x40 MLOAD SWAP3 PUSH3 0x461BCD PUSH1 0xE5 SHL DUP5 MSTORE PUSH1 0x4 DUP5 ADD MSTORE DUP3 ADD MSTORE PUSH32 0x546F6F206D616E79207472616465730000000000000000000000000000000000 PUSH1 0x44 DUP3 ADD MSTORE REVERT JUMPDEST SWAP1 PUSH1 0x12 PUSH1 0x64 SWAP3 PUSH1 0x40 MLOAD SWAP3 PUSH3 0x461BCD PUSH1 0xE5 SHL DUP5 MSTORE PUSH1 0x4 DUP5 ADD MSTORE DUP3 ADD MSTORE PUSH32 0x4E6F207472616465732070726F76696465640000000000000000000000000000 PUSH1 0x44 DUP3 ADD MSTORE REVERT JUMPDEST SWAP1 PUSH1 0x13 PUSH1 0x64 SWAP3 PUSH1 0x40 MLOAD SWAP3 PUSH3 0x461BCD PUSH1 0xE5 SHL DUP5 MSTORE PUSH1 0x4 DUP5 ADD MSTORE DUP3 ADD MSTORE PUSH32 0x5472616E73616374696F6E206578706972656400000000000000000000000000 PUSH1 0x44 DUP3 ADD MSTORE REVERT JUMPDEST POP PUSH2 0xD73 PUSH1 0x1 PUSH1 0x1 PUSH1 0xA0 SHL SUB PUSH1 0x0 SLOAD AND CALLER EQ SWAP1 POP PUSH2 0xD6A JUMP JUMPDEST CALLVALUE PUSH2 0x2DE JUMPI PUSH1 0x0 CALLDATASIZE PUSH1 0x3 NOT ADD SLT PUSH2 0x2DE JUMPI PUSH1 0x20 PUSH1 0xB SLOAD PUSH1 0x40 MLOAD SWAP1 DUP2 MSTORE RETURN JUMPDEST CALLVALUE PUSH2 0x2DE JUMPI PUSH1 0x3 NOT PUSH1 0xA0 CALLDATASIZE DUP3 ADD SLT PUSH2 0x2DE JUMPI PUSH2 0x1130 PUSH2 0x2817 JUMP JUMPDEST PUSH1 0x24 CALLDATALOAD SWAP1 PUSH1 0x44 CALLDATALOAD PUSH8 0xFFFFFFFFFFFFFFFF DUP2 GT PUSH2 0x2DE JUMPI PUSH2 0x1154 SWAP1 CALLDATASIZE SWAP1 PUSH1 0x4 ADD PUSH2 0x286F JUMP JUMPDEST SWAP2 SWAP1 SWAP4 PUSH2 0x115F PUSH2 0x28CF JUMP JUMPDEST SWAP4 PUSH1 0x84 CALLDATALOAD SWAP5 CALLER PUSH1 0x0 MSTORE PUSH1 0x20 SWAP5 PUSH1 0xE DUP7 MSTORE PUSH1 0xFF PUSH1 0x40 PUSH1 0x0 KECCAK256 SLOAD AND DUP1 ISZERO PUSH2 0x1436 JUMPI JUMPDEST PUSH2 0x1188 SWAP1 PUSH2 0x2D7E JUMP JUMPDEST PUSH2 0x1190 PUSH2 0x3CCA JUMP JUMPDEST PUSH2 0x1198 PUSH2 0x3D1A JUMP JUMPDEST PUSH1 0x2 DUP2 LT PUSH2 0x13F2 JUMPI PUSH2 0x11AB DUP4 ISZERO ISZERO PUSH2 0x2DC9 JUMP JUMPDEST PUSH2 0x11B6 DUP8 ISZERO ISZERO PUSH2 0x2E14 JUMP JUMPDEST PUSH2 0x11C0 DUP4 DUP7 PUSH2 0x3A73 JUMP JUMPDEST PUSH1 0x2 DUP2 LT ISZERO PUSH2 0x13DC JUMPI PUSH2 0x131E JUMPI DUP6 SWAP7 SWAP8 PUSH2 0x11DB SWAP2 CALLDATASIZE SWAP2 PUSH2 0x2987 JUMP JUMPDEST SWAP4 PUSH32 0xF5EA93FA71A16E89B26B22976590659F91D44AE3F503BE2AFCD292796D305218 PUSH1 0x60 PUSH1 0x40 MLOAD SWAP10 DUP11 SWAP6 PUSH2 0x120E DUP8 PUSH2 0x2931 JUMP JUMPDEST PUSH2 0x1278 DUP11 PUSH2 0x126A PUSH2 0x122A PUSH1 0x1 SWAP11 PUSH1 0x1 DUP2 MSTORE DUP4 CALLDATASIZE DUP2 DUP4 ADD CALLDATACOPY PUSH2 0x2BAA JUMP JUMPDEST SWAP5 PUSH1 0x1 PUSH1 0x1 PUSH1 0xA0 SHL SUB DUP1 SWAP10 AND DUP1 SWAP7 MSTORE PUSH1 0x40 MLOAD SWAP10 PUSH2 0x1246 DUP12 PUSH2 0x2931 JUMP JUMPDEST PUSH1 0x1 DUP12 MSTORE DUP4 DUP12 ADD SWAP15 DUP16 CALLDATASIZE SWAP1 CALLDATACOPY DUP6 PUSH2 0x125C DUP13 PUSH2 0x2BAA JUMP JUMPDEST MSTORE PUSH1 0x40 MLOAD SWAP14 DUP15 SWAP5 DUP6 ADD PUSH2 0x3D6F JUMP JUMPDEST SUB PUSH1 0x1F NOT DUP2 ADD DUP12 MSTORE DUP11 PUSH2 0x294D JUMP JUMPDEST PUSH1 0x40 MLOAD SWAP2 PUSH1 0x0 DUP4 MSTORE DUP12 DUP4 ADD MSTORE PUSH1 0x40 DUP3 ADD MSTORE LOG1 PUSH1 0x2 SLOAD PUSH1 0x8 SHR AND SWAP6 DUP7 EXTCODESIZE ISZERO PUSH2 0x2DE JUMPI SWAP1 SWAP2 PUSH2 0x12CB SWAP8 SWAP6 SWAP5 SWAP4 SWAP3 DUP3 PUSH1 0x40 MLOAD SWAP10 DUP11 SWAP9 PUSH4 0x2E1C224F PUSH1 0xE1 SHL DUP11 MSTORE ADDRESS PUSH1 0x4 DUP12 ADD MSTORE PUSH1 0x80 PUSH1 0x24 DUP12 ADD MSTORE PUSH1 0x84 DUP11 ADD SWAP1 PUSH2 0x2CEA JUMP JUMPDEST SWAP2 DUP6 DUP10 DUP5 SUB ADD PUSH1 0x44 DUP11 ADD MSTORE MLOAD SWAP2 DUP3 DUP2 MSTORE ADD SWAP6 SWAP3 PUSH1 0x0 JUMPDEST DUP3 DUP2 LT PUSH2 0x1308 JUMPI POP POP POP POP POP DUP4 PUSH2 0xA04 DUP5 DUP3 SWAP5 PUSH1 0x0 SWAP9 SWAP7 SWAP5 DUP5 DUP11 SWAP7 SUB ADD PUSH1 0x64 DUP6 ADD MSTORE PUSH2 0x3DC4 JUMP JUMPDEST DUP5 MLOAD DUP9 MSTORE DUP11 SWAP9 POP SWAP7 DUP2 ADD SWAP7 SWAP4 DUP2 ADD SWAP4 DUP4 ADD PUSH2 0x12E1 JUMP JUMPDEST PUSH2 0x1353 SWAP4 POP PUSH2 0x1345 SWAP2 SWAP6 SWAP7 SWAP3 SWAP8 PUSH2 0x1336 SWAP2 CALLDATASIZE SWAP2 PUSH2 0x2987 JUMP JUMPDEST SWAP2 PUSH1 0x40 MLOAD SWAP6 DUP7 SWAP4 DUP9 DUP6 ADD PUSH2 0x3D6F JUMP JUMPDEST SUB PUSH1 0x1F NOT DUP2 ADD DUP5 MSTORE DUP4 PUSH2 0x294D JUMP JUMPDEST PUSH32 0xF5EA93FA71A16E89B26B22976590659F91D44AE3F503BE2AFCD292796D305218 PUSH1 0x60 PUSH1 0x40 MLOAD PUSH1 0x1 DUP2 MSTORE PUSH1 0x1 PUSH1 0x1 PUSH1 0xA0 SHL SUB DUP1 SWAP5 AND DUP1 SWAP7 DUP3 ADD MSTORE DUP7 PUSH1 0x40 DUP3 ADD MSTORE LOG1 PUSH1 0x3 SLOAD AND DUP1 EXTCODESIZE ISZERO PUSH2 0x2DE JUMPI PUSH2 0xAF5 SWAP4 PUSH1 0x0 DUP1 SWAP5 PUSH1 0x40 MLOAD SWAP7 DUP8 SWAP6 DUP7 SWAP5 DUP6 SWAP4 PUSH4 0x10AC2DDF PUSH1 0xE2 SHL DUP6 MSTORE ADDRESS PUSH1 0x4 DUP7 ADD MSTORE PUSH1 0x24 DUP6 ADD MSTORE PUSH1 0x44 DUP5 ADD MSTORE PUSH1 0xA0 PUSH1 0x64 DUP5 ADD MSTORE PUSH1 0xA4 DUP4 ADD SWAP1 PUSH2 0x3DC4 JUMP JUMPDEST PUSH4 0x4E487B71 PUSH1 0xE0 SHL PUSH1 0x0 MSTORE PUSH1 0x21 PUSH1 0x4 MSTORE PUSH1 0x24 PUSH1 0x0 REVERT JUMPDEST PUSH1 0x64 DUP7 PUSH1 0x40 MLOAD SWAP1 PUSH3 0x461BCD PUSH1 0xE5 SHL DUP3 MSTORE PUSH1 0x4 DUP3 ADD MSTORE PUSH1 0xC PUSH1 0x24 DUP3 ADD MSTORE PUSH32 0x496E76616C696420706174680000000000000000000000000000000000000000 PUSH1 0x44 DUP3 ADD MSTORE REVERT JUMPDEST POP PUSH2 0x1188 PUSH1 0x1 PUSH1 0x1 PUSH1 0xA0 SHL SUB PUSH1 0x0 SLOAD AND CALLER EQ SWAP1 POP PUSH2 0x117F JUMP JUMPDEST CALLVALUE PUSH2 0x2DE JUMPI PUSH1 0x0 CALLDATASIZE PUSH1 0x3 NOT ADD SLT PUSH2 0x2DE JUMPI PUSH1 0x60 PUSH1 0x1 PUSH1 0x1 PUSH1 0xA0 SHL SUB PUSH1 0xF SLOAD AND PUSH1 0x10 SLOAD PUSH1 0x11 SLOAD SWAP1 PUSH1 0x40 MLOAD SWAP3 DUP4 MSTORE PUSH1 0x20 DUP4 ADD MSTORE PUSH1 0x40 DUP3 ADD MSTORE RETURN JUMPDEST CALLVALUE PUSH2 0x2DE JUMPI PUSH1 0x0 CALLDATASIZE PUSH1 0x3 NOT ADD SLT PUSH2 0x2DE JUMPI PUSH1 0x20 PUSH1 0x40 MLOAD PUSH20 0xFD086BC7CD5C481DCC9C85EBE478A1C0B69FCBB9 DUP2 MSTORE RETURN JUMPDEST CALLVALUE PUSH2 0x2DE JUMPI PUSH1 0x20 CALLDATASIZE PUSH1 0x3 NOT ADD SLT PUSH2 0x2DE JUMPI PUSH1 0x4 CALLDATALOAD PUSH2 0x14D2 PUSH2 0x2EA6 JUMP JUMPDEST PUSH2 0x1388 DUP2 GT PUSH2 0x1518 JUMPI DUP1 PUSH1 0x10 SSTORE PUSH32 0x5D4263EB49A8092EA4735DC1E5200292FE3AC3AFB2D5D3F3339034EFBE9AE4F0 PUSH1 0x20 PUSH1 0x1 PUSH1 0x1 PUSH1 0xA0 SHL SUB PUSH1 0xF SLOAD AND SWAP3 PUSH1 0x40 MLOAD SWAP1 DUP2 MSTORE LOG2 STOP JUMPDEST PUSH1 0x64 PUSH1 0x40 MLOAD PUSH3 0x461BCD PUSH1 0xE5 SHL DUP2 MSTORE PUSH1 0x20 PUSH1 0x4 DUP3 ADD MSTORE PUSH1 0x13 PUSH1 0x24 DUP3 ADD MSTORE PUSH32 0x50657263656E7461676520746F6F206869676800000000000000000000000000 PUSH1 0x44 DUP3 ADD MSTORE REVERT JUMPDEST CALLVALUE PUSH2 0x2DE JUMPI PUSH1 0x0 CALLDATASIZE PUSH1 0x3 NOT ADD SLT PUSH2 0x2DE JUMPI PUSH1 0x20 PUSH1 0x10 SLOAD PUSH1 0x40 MLOAD SWAP1 DUP2 MSTORE RETURN JUMPDEST CALLVALUE PUSH2 0x2DE JUMPI PUSH1 0x80 CALLDATASIZE PUSH1 0x3 NOT ADD SLT PUSH2 0x2DE JUMPI PUSH2 0x1593 PUSH2 0x2817 JUMP JUMPDEST POP PUSH1 0x24 DUP1 CALLDATALOAD PUSH1 0x44 CALLDATALOAD PUSH8 0xFFFFFFFFFFFFFFFF DUP2 GT PUSH2 0x2DE JUMPI PUSH2 0x15B8 SWAP1 CALLDATASIZE SWAP1 PUSH1 0x4 ADD PUSH2 0x286F JUMP JUMPDEST SWAP1 DUP3 PUSH2 0x15C2 PUSH2 0x28CF JUMP JUMPDEST PUSH2 0x15CB DUP2 PUSH2 0x3C12 JUMP JUMPDEST SWAP4 PUSH2 0x15D6 DUP3 ISZERO PUSH2 0x3C12 JUMP JUMPDEST SWAP2 ISZERO PUSH2 0x174F JUMPI PUSH1 0x1 PUSH1 0x1 PUSH1 0xA0 SHL SUB PUSH1 0x0 PUSH1 0x40 MLOAD DUP1 SWAP8 DUP2 DUP5 DUP2 PUSH2 0x1608 DUP9 DUP13 PUSH4 0xD06CA61F PUSH1 0xE0 SHL SWAP13 DUP14 DUP6 MSTORE PUSH1 0x4 DUP6 ADD PUSH2 0x2D27 JUMP JUMPDEST SUB SWAP3 AND GAS STATICCALL SWAP6 DUP7 ISZERO PUSH2 0x6FC JUMPI PUSH1 0x0 SWAP7 PUSH2 0x1732 JUMPI JUMPDEST POP DUP6 MLOAD PUSH1 0x0 NOT DUP2 ADD SWAP7 SWAP1 DUP8 GT PUSH2 0x171D JUMPI PUSH2 0x164B PUSH1 0x0 SWAP7 PUSH2 0x1642 PUSH2 0x1672 SWAP10 PUSH2 0x1650 SWAP5 PUSH2 0x2BD7 JUMP JUMPDEST MLOAD SWAP5 CALLDATASIZE SWAP2 PUSH2 0x2987 JUMP JUMPDEST PUSH2 0x3C30 JUMP JUMPDEST SWAP4 PUSH1 0x40 MLOAD SWAP7 DUP8 SWAP6 DUP7 SWAP5 DUP6 SWAP4 DUP5 MSTORE PUSH1 0x4 DUP5 ADD MSTORE PUSH1 0x40 DUP12 DUP5 ADD MSTORE PUSH1 0x44 DUP4 ADD SWAP1 PUSH2 0x2CEA JUMP JUMPDEST SUB SWAP3 AND GAS STATICCALL SWAP1 DUP2 ISZERO PUSH2 0x6FC JUMPI PUSH1 0x0 SWAP2 PUSH2 0x16FA JUMPI JUMPDEST POP JUMPDEST DUP1 MLOAD PUSH1 0x0 NOT DUP2 ADD SWAP2 SWAP1 DUP3 GT PUSH2 0x16E5 JUMPI SWAP1 PUSH2 0x16A1 SWAP2 PUSH2 0x2BD7 JUMP JUMPDEST MLOAD DUP2 DUP2 GT ISZERO PUSH2 0x16DA JUMPI PUSH2 0x16B7 DUP3 PUSH2 0x16BD SWAP3 PUSH2 0x2ADC JUMP JUMPDEST SWAP2 PUSH2 0x3B0D JUMP JUMPDEST SWAP1 DUP2 DUP2 GT ISZERO PUSH2 0x16DA JUMPI PUSH1 0x20 SWAP2 PUSH2 0x16D2 SWAP2 PUSH2 0x2ADC JUMP JUMPDEST PUSH1 0x40 MLOAD SWAP1 DUP2 MSTORE RETURN JUMPDEST POP POP PUSH1 0x20 PUSH1 0x0 PUSH2 0x16D2 JUMP JUMPDEST DUP4 PUSH4 0x4E487B71 PUSH1 0xE0 SHL PUSH1 0x0 MSTORE PUSH1 0x11 PUSH1 0x4 MSTORE PUSH1 0x0 REVERT JUMPDEST PUSH2 0x1717 SWAP2 POP RETURNDATASIZE DUP1 PUSH1 0x0 DUP4 RETURNDATACOPY PUSH2 0x170F DUP2 DUP4 PUSH2 0x294D JUMP JUMPDEST DUP2 ADD SWAP1 PUSH2 0x2C70 JUMP JUMPDEST DUP4 PUSH2 0x1686 JUMP JUMPDEST DUP9 PUSH4 0x4E487B71 PUSH1 0xE0 SHL PUSH1 0x0 MSTORE PUSH1 0x11 PUSH1 0x4 MSTORE PUSH1 0x0 REVERT JUMPDEST PUSH2 0x1748 SWAP2 SWAP7 POP RETURNDATASIZE DUP1 PUSH1 0x0 DUP4 RETURNDATACOPY PUSH2 0x170F DUP2 DUP4 PUSH2 0x294D JUMP JUMPDEST SWAP5 DUP9 PUSH2 0x161C JUMP JUMPDEST PUSH1 0x1 PUSH1 0x1 PUSH1 0xA0 SHL SUB SWAP5 SWAP2 SWAP5 PUSH1 0x0 PUSH1 0x40 MLOAD DUP1 SWAP8 DUP2 DUP5 DUP2 PUSH2 0x177E DUP9 DUP13 PUSH4 0xD06CA61F PUSH1 0xE0 SHL SWAP13 DUP14 DUP6 MSTORE PUSH1 0x4 DUP6 ADD PUSH2 0x2D27 JUMP JUMPDEST SUB SWAP3 AND GAS STATICCALL SWAP6 DUP7 ISZERO PUSH2 0x6FC JUMPI PUSH1 0x0 SWAP7 PUSH2 0x17ED JUMPI JUMPDEST POP DUP6 MLOAD PUSH1 0x0 NOT DUP2 ADD SWAP7 SWAP1 DUP8 GT PUSH2 0x171D JUMPI PUSH2 0x164B PUSH1 0x0 SWAP7 PUSH2 0x1642 PUSH2 0x17B8 SWAP10 PUSH2 0x1650 SWAP5 PUSH2 0x2BD7 JUMP JUMPDEST SUB SWAP3 AND GAS STATICCALL SWAP1 DUP2 ISZERO PUSH2 0x6FC JUMPI PUSH1 0x0 SWAP2 PUSH2 0x17D2 JUMPI JUMPDEST POP PUSH2 0x1688 JUMP JUMPDEST PUSH2 0x17E7 SWAP2 POP RETURNDATASIZE DUP1 PUSH1 0x0 DUP4 RETURNDATACOPY PUSH2 0x170F DUP2 DUP4 PUSH2 0x294D JUMP JUMPDEST DUP4 PUSH2 0x17CC JUMP JUMPDEST PUSH2 0x1803 SWAP2 SWAP7 POP RETURNDATASIZE DUP1 PUSH1 0x0 DUP4 RETURNDATACOPY PUSH2 0x170F DUP2 DUP4 PUSH2 0x294D JUMP JUMPDEST SWAP5 DUP9 PUSH2 0x1792 JUMP JUMPDEST CALLVALUE PUSH2 0x2DE JUMPI PUSH1 0x0 CALLDATASIZE PUSH1 0x3 NOT ADD SLT PUSH2 0x2DE JUMPI PUSH1 0x20 PUSH1 0x40 MLOAD PUSH20 0x82AF49447D8A07E3BD95BD0D56F35241523FBAB1 DUP2 MSTORE RETURN JUMPDEST CALLVALUE PUSH2 0x2DE JUMPI PUSH1 0x0 CALLDATASIZE PUSH1 0x3 NOT ADD SLT PUSH2 0x2DE JUMPI PUSH1 0x20 PUSH1 0x40 MLOAD PUSH2 0x1388 DUP2 MSTORE RETURN JUMPDEST CALLVALUE PUSH2 0x2DE JUMPI PUSH1 0x40 CALLDATASIZE PUSH1 0x3 NOT ADD SLT PUSH2 0x2DE JUMPI PUSH2 0x186F PUSH2 0x2817 JUMP JUMPDEST PUSH2 0x187C PUSH1 0x24 CALLDATALOAD DUP1 SWAP3 PUSH2 0x3A73 JUMP JUMPDEST PUSH1 0x2 DUP2 LT ISZERO PUSH2 0x13DC JUMPI PUSH1 0x40 SWAP2 DUP2 PUSH2 0x189D JUMPI POP PUSH1 0x0 JUMPDEST DUP3 MLOAD SWAP2 DUP3 MSTORE PUSH1 0x20 DUP3 ADD MSTORE RETURN JUMPDEST PUSH2 0x18A6 SWAP1 PUSH2 0x3B0D JUMP JUMPDEST PUSH2 0x1891 JUMP JUMPDEST CALLVALUE PUSH2 0x2DE JUMPI PUSH1 0x0 CALLDATASIZE PUSH1 0x3 NOT ADD SLT PUSH2 0x2DE JUMPI PUSH1 0x20 PUSH1 0x1 PUSH1 0x1 PUSH1 0xA0 SHL SUB PUSH1 0x5 SLOAD AND PUSH1 0x40 MLOAD SWAP1 DUP2 MSTORE RETURN JUMPDEST CALLVALUE PUSH2 0x2DE JUMPI PUSH1 0x0 CALLDATASIZE PUSH1 0x3 NOT ADD SLT PUSH2 0x2DE JUMPI PUSH1 0x20 PUSH1 0x1 PUSH1 0x1 PUSH1 0xA0 SHL SUB PUSH1 0x3 SLOAD AND PUSH1 0x40 MLOAD SWAP1 DUP2 MSTORE RETURN JUMPDEST CALLVALUE PUSH2 0x2DE JUMPI PUSH1 0x20 CALLDATASIZE PUSH1 0x3 NOT ADD SLT PUSH2 0x2DE JUMPI PUSH1 0x20 PUSH1 0x1 PUSH1 0x1 PUSH1 0xA0 SHL SUB DUP1 PUSH2 0x191D PUSH2 0x2817 JUMP JUMPDEST AND PUSH1 0x0 MSTORE PUSH1 0xD DUP3 MSTORE PUSH1 0x40 PUSH1 0x0 KECCAK256 SLOAD AND PUSH1 0x40 MLOAD SWAP1 DUP2 MSTORE RETURN JUMPDEST CALLVALUE PUSH2 0x2DE JUMPI PUSH1 0x0 CALLDATASIZE PUSH1 0x3 NOT ADD SLT PUSH2 0x2DE JUMPI PUSH1 0x20 PUSH1 0x1 PUSH1 0x1 PUSH1 0xA0 SHL SUB PUSH1 0x0 SLOAD AND PUSH1 0x40 MLOAD SWAP1 DUP2 MSTORE RETURN JUMPDEST CALLVALUE PUSH2 0x2DE JUMPI PUSH1 0x0 CALLDATASIZE PUSH1 0x3 NOT ADD SLT PUSH2 0x2DE JUMPI PUSH1 0x20 PUSH1 0x40 MLOAD PUSH20 0xFF970A61A04B1CA14834A43F5DE4533EBDDB5CC8 DUP2 MSTORE RETURN JUMPDEST CALLVALUE PUSH2 0x2DE JUMPI PUSH1 0x0 CALLDATASIZE PUSH1 0x3 NOT ADD SLT PUSH2 0x2DE JUMPI PUSH2 0x19A3 PUSH2 0x2EA6 JUMP JUMPDEST PUSH2 0x19AB PUSH2 0x3CCA JUMP JUMPDEST PUSH1 0x1 PUSH1 0xFF NOT PUSH1 0x2 SLOAD AND OR PUSH1 0x2 SSTORE PUSH32 0x62E78CEA01BEE320CD4E420270B5EA74000D11B0C9F74754EBDBFC544B05A258 PUSH1 0x20 PUSH1 0x40 MLOAD CALLER DUP2 MSTORE LOG1 STOP JUMPDEST CALLVALUE PUSH2 0x2DE JUMPI PUSH1 0x0 CALLDATASIZE PUSH1 0x3 NOT ADD SLT PUSH2 0x2DE JUMPI PUSH1 0x20 PUSH1 0x1 PUSH1 0x1 PUSH1 0xA0 SHL SUB PUSH1 0x6 SLOAD AND PUSH1 0x40 MLOAD SWAP1 DUP2 MSTORE RETURN JUMPDEST CALLVALUE PUSH2 0x2DE JUMPI PUSH1 0x40 CALLDATASIZE PUSH1 0x3 NOT ADD SLT PUSH2 0x2DE JUMPI PUSH2 0x1A24 PUSH2 0x2817 JUMP JUMPDEST PUSH1 0x24 CALLDATALOAD SWAP1 PUSH1 0x1 PUSH1 0x1 PUSH1 0xA0 SHL SUB SWAP1 DUP2 DUP4 AND DUP1 SWAP4 SUB PUSH2 0x2DE JUMPI PUSH2 0x1A43 PUSH2 0x2EA6 JUMP JUMPDEST AND PUSH1 0x0 MSTORE PUSH1 0xD PUSH1 0x20 MSTORE PUSH1 0x40 PUSH1 0x0 KECCAK256 SWAP1 PUSH1 0x1 PUSH1 0x1 PUSH1 0xA0 SHL SUB NOT DUP3 SLOAD AND OR SWAP1 SSTORE PUSH1 0x0 DUP1 RETURN JUMPDEST CALLVALUE PUSH2 0x2DE JUMPI PUSH1 0x0 CALLDATASIZE PUSH1 0x3 NOT ADD SLT PUSH2 0x2DE JUMPI PUSH2 0x1A7F PUSH2 0x2EA6 JUMP JUMPDEST PUSH1 0x1 PUSH1 0x1 PUSH1 0xA0 SHL SUB NOT PUSH1 0xF SLOAD AND PUSH1 0xF SSTORE PUSH1 0x0 PUSH1 0x10 SSTORE PUSH1 0x0 PUSH32 0x5D4263EB49A8092EA4735DC1E5200292FE3AC3AFB2D5D3F3339034EFBE9AE4F0 PUSH1 0x20 PUSH1 0x40 MLOAD DUP4 DUP2 MSTORE LOG2 STOP JUMPDEST CALLVALUE PUSH2 0x2DE JUMPI PUSH1 0x0 CALLDATASIZE PUSH1 0x3 NOT ADD SLT PUSH2 0x2DE JUMPI PUSH2 0x1ADB PUSH2 0x2EA6 JUMP JUMPDEST PUSH1 0x0 PUSH1 0x1 PUSH1 0x1 PUSH1 0xA0 SHL SUB DUP2 SLOAD PUSH1 0x1 PUSH1 0x1 PUSH1 0xA0 SHL SUB NOT DUP2 AND DUP4 SSTORE AND PUSH32 0x8BE0079C531659141344CD1FD0A4F28419497F9722A3DAAFE3B4186F6B6457E0 DUP3 DUP1 LOG3 STOP JUMPDEST CALLVALUE PUSH2 0x2DE JUMPI PUSH1 0x20 DUP1 PUSH1 0x3 NOT CALLDATASIZE ADD SLT PUSH2 0x2DE JUMPI PUSH2 0x1B35 PUSH2 0x2817 JUMP JUMPDEST PUSH2 0x1B3D PUSH2 0x2EA6 JUMP JUMPDEST PUSH1 0x1 PUSH1 0x1 PUSH1 0xA0 SHL SUB DUP1 SWAP2 AND SWAP1 PUSH1 0x40 MLOAD PUSH4 0x70A08231 PUSH1 0xE0 SHL DUP2 MSTORE ADDRESS PUSH1 0x4 DUP3 ADD MSTORE DUP4 DUP2 PUSH1 0x24 DUP2 DUP7 GAS STATICCALL SWAP1 DUP2 ISZERO PUSH2 0x6FC JUMPI PUSH1 0x0 SWAP2 PUSH2 0x1BE1 JUMPI JUMPDEST POP DUP1 PUSH2 0x1B7B JUMPI STOP JUMPDEST PUSH2 0x1BB9 SWAP3 DUP5 SWAP3 PUSH1 0x0 SLOAD AND PUSH1 0x0 PUSH1 0x40 MLOAD DUP1 SWAP7 DUP2 SWAP6 DUP3 SWAP5 PUSH4 0xA9059CBB PUSH1 0xE0 SHL DUP5 MSTORE PUSH1 0x4 DUP5 ADD PUSH1 0x20 SWAP1 SWAP4 SWAP3 SWAP2 SWAP4 PUSH1 0x1 PUSH1 0x1 PUSH1 0xA0 SHL SUB PUSH1 0x40 DUP3 ADD SWAP6 AND DUP2 MSTORE ADD MSTORE JUMP JUMPDEST SUB SWAP3 GAS CALL DUP1 ISZERO PUSH2 0x6FC JUMPI PUSH2 0x1BC9 JUMPI STOP JUMPDEST DUP2 PUSH2 0x1BDF SWAP3 SWAP1 RETURNDATASIZE LT PUSH2 0x6F5 JUMPI PUSH2 0x6E6 DUP2 DUP4 PUSH2 0x294D JUMP JUMPDEST STOP JUMPDEST SWAP1 POP DUP4 DUP2 DUP2 RETURNDATASIZE DUP4 GT PUSH2 0x1C07 JUMPI JUMPDEST PUSH2 0x1BF8 DUP2 DUP4 PUSH2 0x294D JUMP JUMPDEST DUP2 ADD SUB SLT PUSH2 0x2DE JUMPI MLOAD DUP5 PUSH2 0x1B73 JUMP JUMPDEST POP RETURNDATASIZE PUSH2 0x1BEE JUMP JUMPDEST CALLVALUE PUSH2 0x2DE JUMPI PUSH1 0x0 CALLDATASIZE PUSH1 0x3 NOT ADD SLT PUSH2 0x2DE JUMPI PUSH1 0x20 PUSH1 0x1 PUSH1 0x1 PUSH1 0xA0 SHL SUB PUSH1 0x4 SLOAD AND PUSH1 0x40 MLOAD SWAP1 DUP2 MSTORE RETURN JUMPDEST CALLVALUE PUSH2 0x2DE JUMPI PUSH1 0x0 CALLDATASIZE PUSH1 0x3 NOT ADD SLT PUSH2 0x2DE JUMPI PUSH1 0x20 PUSH1 0x9 SLOAD PUSH1 0x40 MLOAD SWAP1 DUP2 MSTORE RETURN JUMPDEST CALLVALUE PUSH2 0x2DE JUMPI PUSH1 0x0 CALLDATASIZE PUSH1 0x3 NOT ADD SLT PUSH2 0x2DE JUMPI PUSH1 0x20 PUSH1 0xFF PUSH1 0x2 SLOAD AND PUSH1 0x40 MLOAD SWAP1 ISZERO ISZERO DUP2 MSTORE RETURN JUMPDEST CALLVALUE PUSH2 0x2DE JUMPI PUSH1 0x20 CALLDATASIZE PUSH1 0x3 NOT ADD SLT PUSH2 0x2DE JUMPI PUSH1 0x1 PUSH1 0x1 PUSH1 0xA0 SHL SUB PUSH2 0x1C97 PUSH2 0x2817 JUMP JUMPDEST AND PUSH1 0x0 MSTORE PUSH1 0xE PUSH1 0x20 MSTORE PUSH1 0x20 PUSH1 0xFF PUSH1 0x40 PUSH1 0x0 KECCAK256 SLOAD AND PUSH1 0x40 MLOAD SWAP1 ISZERO ISZERO DUP2 MSTORE RETURN JUMPDEST CALLVALUE PUSH2 0x2DE JUMPI PUSH1 0x20 DUP1 PUSH1 0x3 NOT CALLDATASIZE ADD SLT PUSH2 0x2DE JUMPI PUSH2 0x1CCF PUSH2 0x2817 JUMP JUMPDEST SWAP1 PUSH2 0x1CD8 PUSH2 0x2EA6 JUMP JUMPDEST PUSH1 0x40 MLOAD PUSH4 0x70A08231 PUSH1 0xE0 SHL DUP2 MSTORE ADDRESS PUSH1 0x4 DUP3 ADD MSTORE PUSH1 0x1 PUSH1 0x1 PUSH1 0xA0 SHL SUB SWAP3 DUP4 AND SWAP3 DUP3 DUP3 PUSH1 0x24 DUP2 DUP8 GAS STATICCALL SWAP2 DUP3 ISZERO PUSH2 0x6FC JUMPI PUSH1 0x0 SWAP3 PUSH2 0x1DE5 JUMPI JUMPDEST POP DUP2 ISZERO PUSH2 0x1DA1 JUMPI PUSH1 0x0 SLOAD PUSH1 0x40 MLOAD PUSH4 0xA9059CBB PUSH1 0xE0 SHL DUP2 MSTORE SWAP2 AND PUSH1 0x1 PUSH1 0x1 PUSH1 0xA0 SHL SUB AND PUSH1 0x4 DUP3 ADD MSTORE PUSH1 0x24 DUP2 ADD DUP3 SWAP1 MSTORE SWAP2 SWAP1 DUP2 DUP4 DUP1 PUSH1 0x44 DUP2 ADD SUB DUP2 PUSH1 0x0 DUP9 GAS CALL SWAP3 DUP4 ISZERO PUSH2 0x6FC JUMPI PUSH32 0x16E128B6BDADD9E9068ABD0B18DB2FC8B27ED3DBCED50E4AA6CC0A6934251AB SWAP4 PUSH2 0x1D84 JUMPI JUMPDEST POP PUSH1 0x40 MLOAD SWAP1 DUP2 MSTORE LOG2 STOP JUMPDEST PUSH2 0x1D9A SWAP1 DUP4 RETURNDATASIZE DUP6 GT PUSH2 0x6F5 JUMPI PUSH2 0x6E6 DUP2 DUP4 PUSH2 0x294D JUMP JUMPDEST POP DUP5 PUSH2 0x1D7A JUMP JUMPDEST PUSH1 0x64 DUP4 PUSH1 0x40 MLOAD SWAP1 PUSH3 0x461BCD PUSH1 0xE5 SHL DUP3 MSTORE PUSH1 0x4 DUP3 ADD MSTORE PUSH1 0x16 PUSH1 0x24 DUP3 ADD MSTORE PUSH32 0x4E6F2062616C616E636520746F20776974686472617700000000000000000000 PUSH1 0x44 DUP3 ADD MSTORE REVERT JUMPDEST SWAP1 SWAP2 POP DUP3 DUP2 DUP2 RETURNDATASIZE DUP4 GT PUSH2 0x1E0D JUMPI JUMPDEST PUSH2 0x1DFD DUP2 DUP4 PUSH2 0x294D JUMP JUMPDEST DUP2 ADD SUB SLT PUSH2 0x2DE JUMPI MLOAD SWAP1 DUP5 PUSH2 0x1D0E JUMP JUMPDEST POP RETURNDATASIZE PUSH2 0x1DF3 JUMP JUMPDEST CALLVALUE PUSH2 0x2DE JUMPI PUSH1 0x0 CALLDATASIZE PUSH1 0x3 NOT ADD SLT PUSH2 0x2DE JUMPI PUSH1 0x20 PUSH1 0x40 MLOAD PUSH1 0x32 DUP2 MSTORE RETURN JUMPDEST CALLVALUE PUSH2 0x2DE JUMPI PUSH1 0x0 CALLDATASIZE PUSH1 0x3 NOT ADD SLT PUSH2 0x2DE JUMPI PUSH1 0x20 PUSH1 0x40 MLOAD PUSH20 0x2F2A2543B76A4166549F7AAB2E75BEF0AEFC5B0F DUP2 MSTORE RETURN JUMPDEST CALLVALUE PUSH2 0x2DE JUMPI PUSH1 0x40 CALLDATASIZE PUSH1 0x3 NOT ADD SLT PUSH2 0x2DE JUMPI PUSH2 0x1E78 PUSH2 0x2817 JUMP JUMPDEST PUSH1 0x24 CALLDATALOAD SWAP1 DUP2 ISZERO ISZERO DUP1 SWAP3 SUB PUSH2 0x2DE JUMPI PUSH1 0x1 PUSH1 0x1 PUSH1 0xA0 SHL SUB SWAP1 PUSH2 0x1E97 PUSH2 0x2EA6 JUMP JUMPDEST AND PUSH1 0x0 MSTORE PUSH1 0xE PUSH1 0x20 MSTORE PUSH1 0x40 PUSH1 0x0 KECCAK256 SWAP1 PUSH1 0xFF DUP1 NOT DUP4 SLOAD AND SWAP2 AND OR SWAP1 SSTORE PUSH1 0x0 DUP1 RETURN JUMPDEST CALLVALUE PUSH2 0x2DE JUMPI PUSH1 0x0 CALLDATASIZE PUSH1 0x3 NOT ADD SLT PUSH2 0x2DE JUMPI PUSH2 0x1ED0 PUSH2 0x2EA6 JUMP JUMPDEST PUSH1 0x2 SLOAD PUSH1 0xFF DUP2 AND ISZERO PUSH2 0x1F0F JUMPI PUSH1 0xFF NOT AND PUSH1 0x2 SSTORE PUSH32 0x5DB9EE0A495BF2E6FF9C91A7834C1BA4FDD244A5E8AA4E537BD38AEAE4B073AA PUSH1 0x20 PUSH1 0x40 MLOAD CALLER DUP2 MSTORE LOG1 STOP JUMPDEST PUSH1 0x64 PUSH1 0x40 MLOAD PUSH3 0x461BCD PUSH1 0xE5 SHL DUP2 MSTORE PUSH1 0x20 PUSH1 0x4 DUP3 ADD MSTORE PUSH1 0x14 PUSH1 0x24 DUP3 ADD MSTORE PUSH32 0x5061757361626C653A206E6F7420706175736564000000000000000000000000 PUSH1 0x44 DUP3 ADD MSTORE REVERT JUMPDEST CALLVALUE PUSH2 0x2DE JUMPI PUSH1 0x0 CALLDATASIZE PUSH1 0x3 NOT ADD SLT PUSH2 0x2DE JUMPI PUSH1 0x20 PUSH1 0x40 MLOAD PUSH20 0x4A7B5DA61326A6379179B40D00F57E5BBDC962C2 DUP2 MSTORE RETURN JUMPDEST CALLVALUE PUSH2 0x2DE JUMPI PUSH1 0x0 CALLDATASIZE PUSH1 0x3 NOT ADD SLT PUSH2 0x2DE JUMPI PUSH1 0x20 PUSH1 0x1 PUSH1 0x1 PUSH1 0xA0 SHL SUB PUSH1 0x7 SLOAD AND PUSH1 0x40 MLOAD SWAP1 DUP2 MSTORE RETURN JUMPDEST CALLVALUE PUSH2 0x2DE JUMPI PUSH1 0x0 CALLDATASIZE PUSH1 0x3 NOT ADD SLT PUSH2 0x2DE JUMPI PUSH1 0x20 PUSH1 0xC SLOAD PUSH1 0x40 MLOAD SWAP1 DUP2 MSTORE RETURN JUMPDEST CALLVALUE PUSH2 0x2DE JUMPI PUSH1 0x0 CALLDATASIZE PUSH1 0x3 NOT ADD SLT PUSH2 0x2DE JUMPI PUSH1 0x20 PUSH1 0x11 SLOAD PUSH1 0x40 MLOAD SWAP1 DUP2 MSTORE RETURN JUMPDEST CALLVALUE PUSH2 0x2DE JUMPI PUSH1 0x0 CALLDATASIZE PUSH1 0x3 NOT ADD SLT PUSH2 0x2DE JUMPI PUSH1 0x20 PUSH1 0xFF PUSH1 0xA SLOAD PUSH1 0x8 SHR AND PUSH1 0x40 MLOAD SWAP1 ISZERO ISZERO DUP2 MSTORE RETURN JUMPDEST CALLVALUE PUSH2 0x2DE JUMPI PUSH1 0x60 CALLDATASIZE PUSH1 0x3 NOT ADD SLT PUSH2 0x2DE JUMPI PUSH2 0x2024 PUSH2 0x2817 JUMP JUMPDEST POP PUSH1 0x24 DUP1 CALLDATALOAD PUSH1 0x44 CALLDATALOAD PUSH8 0xFFFFFFFFFFFFFFFF DUP2 GT PUSH2 0x2DE JUMPI PUSH2 0x2049 SWAP1 CALLDATASIZE SWAP1 PUSH1 0x4 ADD PUSH2 0x286F JUMP JUMPDEST SWAP1 PUSH1 0x4 DUP3 SUB PUSH2 0x233D JUMPI DUP2 ISZERO PUSH2 0xF74 JUMPI PUSH2 0x2061 DUP2 PUSH2 0x2BEB JUMP JUMPDEST SWAP1 DUP3 PUSH1 0x3 LT ISZERO PUSH2 0x2328 JUMPI PUSH2 0x2085 PUSH1 0x1 PUSH1 0x1 PUSH1 0xA0 SHL SUB SWAP3 DUP4 DUP1 PUSH2 0x89F PUSH1 0x60 DUP7 ADD PUSH2 0x2BEB JUMP JUMPDEST PUSH1 0x40 MLOAD SWAP3 PUSH2 0x2092 DUP5 PUSH2 0x2915 JUMP JUMPDEST PUSH1 0x2 DUP5 MSTORE PUSH1 0x40 CALLDATASIZE PUSH1 0x20 DUP7 ADD CALLDATACOPY PUSH2 0x20A7 DUP3 PUSH2 0x2BEB JUMP JUMPDEST DUP4 PUSH2 0x20B1 DUP7 PUSH2 0x2BAA JUMP JUMPDEST SWAP2 AND SWAP1 MSTORE DUP1 PUSH1 0x1 LT ISZERO PUSH2 0x2313 JUMPI PUSH1 0x20 DUP3 ADD SWAP2 PUSH2 0x20CC DUP4 PUSH2 0x2BEB JUMP JUMPDEST DUP5 PUSH2 0x20D6 DUP8 PUSH2 0x2BB7 JUMP JUMPDEST SWAP2 AND SWAP1 MSTORE DUP4 PUSH1 0x7 SLOAD AND SWAP1 DUP7 PUSH1 0x0 PUSH1 0x40 DUP11 PUSH2 0x210E DUP3 MLOAD SWAP11 DUP12 SWAP4 DUP5 SWAP4 PUSH4 0xD06CA61F PUSH1 0xE0 SHL SWAP8 DUP9 DUP7 MSTORE PUSH1 0x4 DUP7 ADD MSTORE DUP5 ADD MSTORE PUSH1 0x44 DUP4 ADD SWAP1 PUSH2 0x2CEA JUMP JUMPDEST SUB DUP2 DUP7 GAS STATICCALL SWAP7 DUP8 ISZERO PUSH2 0x6FC JUMPI PUSH1 0x0 SWAP8 PUSH2 0x22F6 JUMPI JUMPDEST POP DUP7 MLOAD PUSH1 0x0 NOT SWAP8 SWAP1 DUP9 DUP2 ADD SWAP1 DUP2 GT PUSH2 0x22E1 JUMPI PUSH2 0x213D SWAP2 PUSH2 0x2BD7 JUMP JUMPDEST MLOAD SWAP4 PUSH2 0x2160 PUSH1 0x40 MLOAD SWAP7 PUSH2 0x214F DUP9 PUSH2 0x2915 JUMP JUMPDEST PUSH1 0x2 DUP9 MSTORE PUSH1 0x40 CALLDATASIZE PUSH1 0x20 DUP11 ADD CALLDATACOPY PUSH2 0x2BEB JUMP JUMPDEST DUP8 PUSH2 0x216A DUP9 PUSH2 0x2BAA JUMP JUMPDEST SWAP2 AND SWAP1 MSTORE PUSH1 0x2 LT ISZERO PUSH2 0xB34 JUMPI PUSH1 0x0 PUSH1 0x40 DUP1 DUP5 ADD SWAP6 PUSH2 0x2187 DUP8 PUSH2 0x2BEB JUMP JUMPDEST DUP10 PUSH2 0x2191 DUP11 PUSH2 0x2BB7 JUMP JUMPDEST SWAP2 AND SWAP1 MSTORE DUP12 DUP10 PUSH1 0x8 SLOAD AND SWAP2 PUSH2 0x21BD DUP5 MLOAD SWAP11 DUP12 SWAP6 DUP7 SWAP5 DUP6 SWAP5 DUP11 DUP7 MSTORE PUSH1 0x4 DUP7 ADD MSTORE DUP5 ADD MSTORE PUSH1 0x44 DUP4 ADD SWAP1 PUSH2 0x2CEA JUMP JUMPDEST SUB SWAP2 GAS STATICCALL SWAP5 DUP6 ISZERO PUSH2 0x6FC JUMPI PUSH1 0x0 SWAP6 PUSH2 0x22C4 JUMPI JUMPDEST POP DUP5 MLOAD SWAP6 DUP8 DUP8 ADD SWAP7 DUP8 GT PUSH2 0x22AF JUMPI PUSH2 0x2226 PUSH2 0x21F0 PUSH2 0x2255 SWAP9 PUSH1 0x0 SWAP9 PUSH2 0x2BD7 JUMP JUMPDEST MLOAD SWAP4 PUSH2 0x2213 PUSH1 0x40 MLOAD SWAP8 PUSH2 0x2202 DUP10 PUSH2 0x2915 JUMP JUMPDEST PUSH1 0x2 DUP10 MSTORE PUSH1 0x40 CALLDATASIZE PUSH1 0x20 DUP12 ADD CALLDATACOPY PUSH2 0x2BEB JUMP JUMPDEST DUP4 PUSH2 0x221D DUP10 PUSH2 0x2BAA JUMP JUMPDEST SWAP2 AND SWAP1 MSTORE PUSH2 0x2BEB JUMP JUMPDEST SWAP1 PUSH2 0x2230 DUP7 PUSH2 0x2BB7 JUMP JUMPDEST SWAP2 AND SWAP1 MSTORE PUSH1 0x40 MLOAD SWAP6 DUP7 SWAP5 DUP6 SWAP4 DUP5 SWAP4 DUP5 MSTORE PUSH1 0x4 DUP5 ADD MSTORE PUSH1 0x40 DUP12 DUP5 ADD MSTORE PUSH1 0x44 DUP4 ADD SWAP1 PUSH2 0x2CEA JUMP JUMPDEST SUB SWAP2 GAS STATICCALL SWAP1 DUP2 ISZERO PUSH2 0x6FC JUMPI PUSH1 0x0 SWAP2 PUSH2 0x2294 JUMPI JUMPDEST POP DUP1 MLOAD SWAP2 DUP3 ADD SWAP2 DUP3 GT PUSH2 0x16E5 JUMPI SWAP1 PUSH2 0x227F SWAP2 PUSH2 0x2BD7 JUMP JUMPDEST MLOAD DUP2 DUP2 GT ISZERO PUSH2 0x16DA JUMPI PUSH1 0x20 SWAP2 PUSH2 0x16D2 SWAP2 PUSH2 0x2ADC JUMP JUMPDEST PUSH2 0x22A9 SWAP2 POP RETURNDATASIZE DUP1 PUSH1 0x0 DUP4 RETURNDATACOPY PUSH2 0x170F DUP2 DUP4 PUSH2 0x294D JUMP JUMPDEST DUP5 PUSH2 0x2268 JUMP JUMPDEST DUP10 PUSH4 0x4E487B71 PUSH1 0xE0 SHL PUSH1 0x0 MSTORE PUSH1 0x11 PUSH1 0x4 MSTORE PUSH1 0x0 REVERT JUMPDEST PUSH2 0x22DA SWAP2 SWAP6 POP RETURNDATASIZE DUP1 PUSH1 0x0 DUP4 RETURNDATACOPY PUSH2 0x170F DUP2 DUP4 PUSH2 0x294D JUMP JUMPDEST SWAP4 DUP10 PUSH2 0x21D0 JUMP JUMPDEST DUP11 PUSH4 0x4E487B71 PUSH1 0xE0 SHL PUSH1 0x0 MSTORE PUSH1 0x11 PUSH1 0x4 MSTORE PUSH1 0x0 REVERT JUMPDEST PUSH2 0x230C SWAP2 SWAP8 POP RETURNDATASIZE DUP1 PUSH1 0x0 DUP4 RETURNDATACOPY PUSH2 0x170F DUP2 DUP4 PUSH2 0x294D JUMP JUMPDEST SWAP6 DUP10 PUSH2 0x2122 JUMP JUMPDEST DUP6 PUSH4 0x4E487B71 PUSH1 0xE0 SHL PUSH1 0x0 MSTORE PUSH1 0x32 PUSH1 0x4 MSTORE PUSH1 0x0 REVERT JUMPDEST DUP5 PUSH4 0x4E487B71 PUSH1 0xE0 SHL PUSH1 0x0 MSTORE PUSH1 0x32 PUSH1 0x4 MSTORE PUSH1 0x0 REVERT JUMPDEST PUSH1 0x84 DUP5 PUSH1 0x22 PUSH1 0x40 MLOAD SWAP2 PUSH3 0x461BCD PUSH1 0xE5 SHL DUP4 MSTORE PUSH1 0x20 PUSH1 0x4 DUP5 ADD MSTORE DUP3 ADD MSTORE PUSH32 0x547269616E67756C61722070617468206D7573742068617665203420746F6B65 PUSH1 0x44 DUP3 ADD MSTORE PUSH32 0x6E73000000000000000000000000000000000000000000000000000000000000 PUSH1 0x64 DUP3 ADD MSTORE REVERT JUMPDEST CALLVALUE PUSH2 0x2DE JUMPI PUSH1 0xA0 CALLDATASIZE PUSH1 0x3 NOT ADD SLT PUSH2 0x2DE JUMPI PUSH2 0x23C0 PUSH2 0x2817 JUMP JUMPDEST PUSH1 0x24 SWAP1 PUSH1 0x44 CALLDATALOAD SWAP1 PUSH1 0x1 PUSH1 0x1 PUSH1 0xA0 SHL SUB DUP4 CALLDATALOAD PUSH1 0x64 CALLDATALOAD DUP3 DUP2 AND SWAP1 DUP2 SWAP1 SUB PUSH2 0x2DE JUMPI PUSH1 0x84 CALLDATALOAD PUSH8 0xFFFFFFFFFFFFFFFF DUP2 GT PUSH2 0x2DE JUMPI PUSH2 0x23FF SWAP1 CALLDATASIZE SWAP1 PUSH1 0x4 ADD PUSH2 0x2841 JUMP JUMPDEST SWAP1 SWAP2 DUP5 PUSH1 0x3 SLOAD AND CALLER SUB PUSH2 0x26DA JUMPI ADDRESS SUB PUSH2 0x2696 JUMPI SWAP1 PUSH2 0x241F SWAP2 DUP2 ADD SWAP1 PUSH2 0x29DD JUMP JUMPDEST SWAP1 SWAP8 SWAP3 SWAP6 PUSH2 0x242F PUSH2 0x4CB DUP9 PUSH2 0x2F15 JUMP JUMPDEST DUP6 DUP2 AND SWAP4 PUSH1 0x40 MLOAD SWAP10 PUSH4 0x70A08231 PUSH1 0xE0 SHL SWAP2 DUP3 DUP13 MSTORE ADDRESS PUSH1 0x4 DUP14 ADD MSTORE PUSH1 0x20 SWAP12 DUP13 DUP2 DUP4 DUP2 DUP12 GAS STATICCALL SWAP1 DUP2 ISZERO PUSH2 0x6FC JUMPI DUP14 SWAP2 PUSH2 0x266D JUMPI JUMPDEST POP POP DUP5 ISZERO PUSH2 0x265C JUMPI PUSH2 0x2474 DUP11 DUP10 DUP7 PUSH2 0x352D JUMP JUMPDEST PUSH1 0x40 MLOAD SWAP3 DUP4 MSTORE ADDRESS PUSH1 0x4 DUP5 ADD MSTORE DUP12 DUP4 DUP3 DUP2 DUP11 GAS STATICCALL SWAP3 DUP4 ISZERO PUSH2 0x6FC JUMPI DUP12 SWAP1 PUSH1 0x0 SWAP5 PUSH2 0x2628 JUMPI JUMPDEST POP PUSH2 0x24D0 PUSH2 0x24BA PUSH2 0x24AC PUSH2 0x24D8 SWAP4 DUP13 PUSH2 0x2A84 JUMP JUMPDEST DUP7 PUSH2 0x56B DUP3 DUP1 SWAP10 LT ISZERO PUSH2 0x2A91 JUMP JUMPDEST SWAP13 PUSH2 0x2710 PUSH2 0x24CA PUSH1 0xC SLOAD DUP14 PUSH2 0x2B34 JUMP JUMPDEST DIV PUSH2 0x2A84 JUMP JUMPDEST DUP13 LT ISZERO PUSH2 0x2AE9 JUMP JUMPDEST PUSH1 0x5A DUP3 MUL SWAP2 DUP1 DUP4 DIV PUSH1 0x5A EQ SWAP1 ISZERO OR ISZERO PUSH2 0x2614 JUMPI POP PUSH2 0x2537 SWAP3 SWAP2 PUSH2 0x2501 PUSH1 0x64 DUP14 SWAP4 DIV DUP13 LT ISZERO PUSH2 0x2B47 JUMP JUMPDEST DUP9 PUSH1 0x3 SLOAD AND PUSH1 0x40 MLOAD SWAP5 DUP6 SWAP3 DUP4 SWAP3 PUSH4 0x95EA7B3 PUSH1 0xE0 SHL DUP5 MSTORE PUSH1 0x4 DUP5 ADD PUSH1 0x20 SWAP1 SWAP4 SWAP3 SWAP2 SWAP4 PUSH1 0x1 PUSH1 0x1 PUSH1 0xA0 SHL SUB PUSH1 0x40 DUP3 ADD SWAP6 AND DUP2 MSTORE ADD MSTORE JUMP JUMPDEST SUB DUP2 PUSH1 0x0 DUP10 GAS CALL SWAP1 DUP2 ISZERO PUSH2 0x6FC JUMPI PUSH2 0x2556 SWAP3 DUP11 SWAP3 PUSH2 0x25F7 JUMPI JUMPDEST POP PUSH2 0x390C JUMP JUMPDEST ISZERO PUSH2 0x25B2 JUMPI POP POP PUSH1 0x40 PUSH32 0x511DC6C70263758503FF9AEE3E77F3E7BEF3CABEE21A4EB0B017E7CF0438F2F2 SWAP2 DUP4 PUSH2 0x258B DUP7 PUSH2 0x2BAA JUMP JUMPDEST MLOAD AND SWAP4 PUSH2 0x259B DUP2 PUSH2 0x666 DUP9 PUSH2 0x2BB7 JUMP JUMPDEST MLOAD AND SWAP6 DUP3 MLOAD SWAP2 DUP3 MSTORE DUP8 DUP3 ADD MSTORE LOG4 JUMPDEST PUSH1 0x40 MLOAD PUSH1 0x1 DUP2 MSTORE RETURN JUMPDEST PUSH1 0x40 DUP1 MLOAD SWAP4 DUP5 MSTORE PUSH1 0x20 DUP5 ADD SWAP7 SWAP1 SWAP7 MSTORE ISZERO ISZERO SWAP5 DUP3 ADD SWAP5 SWAP1 SWAP5 MSTORE PUSH32 0x5625C164577E109E0C8964AB47768B235A36D08F5146DFA9858A382FA5C5EFD SWAP3 POP PUSH1 0x60 SWAP2 POP LOG2 PUSH2 0x25A9 JUMP JUMPDEST PUSH2 0x260D SWAP1 DUP13 DUP14 RETURNDATASIZE LT PUSH2 0x6F5 JUMPI PUSH2 0x6E6 DUP2 DUP4 PUSH2 0x294D JUMP JUMPDEST POP DUP12 PUSH2 0x2550 JUMP JUMPDEST PUSH4 0x4E487B71 PUSH1 0xE0 SHL PUSH1 0x0 MSTORE PUSH1 0x11 PUSH1 0x4 MSTORE PUSH1 0x0 REVERT JUMPDEST DUP1 SWAP5 POP DUP14 DUP1 SWAP3 POP RETURNDATASIZE DUP4 GT PUSH2 0x2655 JUMPI JUMPDEST PUSH2 0x2641 DUP2 DUP4 PUSH2 0x294D JUMP JUMPDEST DUP2 ADD SUB SLT PUSH2 0x2DE JUMPI SWAP2 MLOAD SWAP2 DUP11 PUSH2 0x24D0 PUSH2 0x2498 JUMP JUMPDEST POP RETURNDATASIZE PUSH2 0x2637 JUMP JUMPDEST PUSH2 0x2668 DUP7 DUP12 DUP11 DUP8 PUSH2 0x30F2 JUMP JUMPDEST PUSH2 0x2474 JUMP JUMPDEST DUP2 RETURNDATASIZE DUP4 GT PUSH2 0x268F JUMPI JUMPDEST PUSH2 0x2680 DUP2 DUP4 PUSH2 0x294D JUMP JUMPDEST DUP2 ADD SUB SLT PUSH2 0x2DE JUMPI DUP12 DUP14 PUSH2 0x2461 JUMP JUMPDEST POP RETURNDATASIZE PUSH2 0x2676 JUMP JUMPDEST PUSH1 0x64 DUP8 PUSH1 0x11 PUSH1 0x40 MLOAD SWAP2 PUSH3 0x461BCD PUSH1 0xE5 SHL DUP4 MSTORE PUSH1 0x20 PUSH1 0x4 DUP5 ADD MSTORE DUP3 ADD MSTORE PUSH32 0x496E76616C696420696E69746961746F72000000000000000000000000000000 PUSH1 0x44 DUP3 ADD MSTORE REVERT JUMPDEST PUSH1 0x64 DUP9 PUSH1 0xE PUSH1 0x40 MLOAD SWAP2 PUSH3 0x461BCD PUSH1 0xE5 SHL DUP4 MSTORE PUSH1 0x20 PUSH1 0x4 DUP5 ADD MSTORE DUP3 ADD MSTORE PUSH32 0x4F6E6C79204161766520706F6F6C000000000000000000000000000000000000 PUSH1 0x44 DUP3 ADD MSTORE REVERT JUMPDEST CALLVALUE PUSH2 0x2DE JUMPI PUSH1 0x0 CALLDATASIZE PUSH1 0x3 NOT ADD SLT PUSH2 0x2DE JUMPI PUSH1 0x20 PUSH1 0x40 MLOAD PUSH20 0x4752BA5DBC23F44D87826276BF6FD6B1C372AD24 DUP2 MSTORE RETURN JUMPDEST CALLVALUE PUSH2 0x2DE JUMPI PUSH1 0x0 CALLDATASIZE PUSH1 0x3 NOT ADD SLT PUSH2 0x2DE JUMPI PUSH1 0x20 PUSH1 0x40 MLOAD PUSH20 0x2ABF469074DC0B54D793850807E6EB5FAF2625B1 DUP2 MSTORE RETURN JUMPDEST CALLVALUE PUSH2 0x2DE JUMPI PUSH1 0x20 CALLDATASIZE PUSH1 0x3 NOT ADD SLT PUSH2 0x2DE JUMPI PUSH1 0x4 CALLDATALOAD PUSH2 0x2798 PUSH2 0x2EA6 JUMP JUMPDEST PUSH2 0x1F4 DUP2 GT PUSH2 0x27A6 JUMPI PUSH1 0xB SSTORE STOP JUMPDEST PUSH1 0x64 PUSH1 0x40 MLOAD PUSH3 0x461BCD PUSH1 0xE5 SHL DUP2 MSTORE PUSH1 0x20 PUSH1 0x4 DUP3 ADD MSTORE PUSH1 0x11 PUSH1 0x24 DUP3 ADD MSTORE PUSH32 0x536C69707061676520746F6F2068696768000000000000000000000000000000 PUSH1 0x44 DUP3 ADD MSTORE REVERT JUMPDEST CALLVALUE PUSH2 0x2DE JUMPI PUSH1 0x0 CALLDATASIZE PUSH1 0x3 NOT ADD SLT PUSH2 0x2DE JUMPI DUP1 PUSH20 0xF2614A233C7C3E7F08B1F887BA133A13F1EB2C55 PUSH1 0x20 SWAP3 MSTORE RETURN JUMPDEST PUSH1 0x4 CALLDATALOAD SWAP1 PUSH1 0x1 PUSH1 0x1 PUSH1 0xA0 SHL SUB DUP3 AND DUP3 SUB PUSH2 0x2DE JUMPI JUMP JUMPDEST CALLDATALOAD SWAP1 PUSH1 0x1 PUSH1 0x1 PUSH1 0xA0 SHL SUB DUP3 AND DUP3 SUB PUSH2 0x2DE JUMPI JUMP JUMPDEST SWAP2 DUP2 PUSH1 0x1F DUP5 ADD SLT ISZERO PUSH2 0x2DE JUMPI DUP3 CALLDATALOAD SWAP2 PUSH8 0xFFFFFFFFFFFFFFFF DUP4 GT PUSH2 0x2DE JUMPI PUSH1 0x20 DUP4 DUP2 DUP7 ADD SWAP6 ADD ADD GT PUSH2 0x2DE JUMPI JUMP JUMPDEST SWAP2 DUP2 PUSH1 0x1F DUP5 ADD SLT ISZERO PUSH2 0x2DE JUMPI DUP3 CALLDATALOAD SWAP2 PUSH8 0xFFFFFFFFFFFFFFFF DUP4 GT PUSH2 0x2DE JUMPI PUSH1 0x20 DUP1 DUP6 ADD SWAP5 DUP5 PUSH1 0x5 SHL ADD ADD GT PUSH2 0x2DE JUMPI JUMP JUMPDEST CALLVALUE PUSH2 0x2DE JUMPI PUSH1 0x0 CALLDATASIZE PUSH1 0x3 NOT ADD SLT PUSH2 0x2DE JUMPI PUSH1 0x20 PUSH1 0x40 MLOAD PUSH20 0x794A61358D6845594F94DC1DB02A252B5B4814AD DUP2 MSTORE RETURN JUMPDEST PUSH1 0x64 CALLDATALOAD SWAP1 DUP2 ISZERO ISZERO DUP3 SUB PUSH2 0x2DE JUMPI JUMP JUMPDEST CALLDATALOAD SWAP1 DUP2 ISZERO ISZERO DUP3 SUB PUSH2 0x2DE JUMPI JUMP JUMPDEST PUSH8 0xFFFFFFFFFFFFFFFF DUP2 GT PUSH2 0x28FF JUMPI PUSH1 0x40 MSTORE JUMP JUMPDEST PUSH4 0x4E487B71 PUSH1 0xE0 SHL PUSH1 0x0 MSTORE PUSH1 0x41 PUSH1 0x4 MSTORE PUSH1 0x24 PUSH1 0x0 REVERT JUMPDEST PUSH1 0x60 DUP2 ADD SWAP1 DUP2 LT PUSH8 0xFFFFFFFFFFFFFFFF DUP3 GT OR PUSH2 0x28FF JUMPI PUSH1 0x40 MSTORE JUMP JUMPDEST PUSH1 0x40 DUP2 ADD SWAP1 DUP2 LT PUSH8 0xFFFFFFFFFFFFFFFF DUP3 GT OR PUSH2 0x28FF JUMPI PUSH1 0x40 MSTORE JUMP JUMPDEST SWAP1 PUSH1 0x1F DUP1 NOT SWAP2 ADD AND DUP2 ADD SWAP1 DUP2 LT PUSH8 0xFFFFFFFFFFFFFFFF DUP3 GT OR PUSH2 0x28FF JUMPI PUSH1 0x40 MSTORE JUMP JUMPDEST PUSH8 0xFFFFFFFFFFFFFFFF DUP2 GT PUSH2 0x28FF JUMPI PUSH1 0x5 SHL PUSH1 0x20 ADD SWAP1 JUMP JUMPDEST SWAP3 SWAP2 PUSH2 0x2992 DUP3 PUSH2 0x296F JUMP JUMPDEST SWAP2 PUSH2 0x29A0 PUSH1 0x40 MLOAD SWAP4 DUP5 PUSH2 0x294D JUMP JUMPDEST DUP3 SWAP5 DUP2 DUP5 MSTORE PUSH1 0x20 DUP1 SWAP5 ADD SWAP2 PUSH1 0x5 SHL DUP2 ADD SWAP3 DUP4 GT PUSH2 0x2DE JUMPI SWAP1 JUMPDEST DUP3 DUP3 LT PUSH2 0x29C6 JUMPI POP POP POP POP JUMP JUMPDEST DUP4 DUP1 SWAP2 PUSH2 0x29D2 DUP5 PUSH2 0x282D JUMP JUMPDEST DUP2 MSTORE ADD SWAP2 ADD SWAP1 PUSH2 0x29B9 JUMP JUMPDEST SWAP2 SWAP1 PUSH1 0x80 DUP4 DUP3 SUB SLT PUSH2 0x2DE JUMPI DUP3 CALLDATALOAD PUSH8 0xFFFFFFFFFFFFFFFF DUP2 GT PUSH2 0x2DE JUMPI DUP4 ADD SWAP1 DUP1 PUSH1 0x1F DUP4 ADD SLT ISZERO PUSH2 0x2DE JUMPI DUP2 PUSH1 0x20 PUSH2 0x2A17 SWAP4 CALLDATALOAD SWAP2 ADD PUSH2 0x2987 JUMP JUMPDEST SWAP2 PUSH2 0x2A24 PUSH1 0x20 DUP3 ADD PUSH2 0x28DE JUMP JUMPDEST SWAP2 PUSH2 0x2A36 PUSH1 0x60 PUSH1 0x40 DUP5 ADD CALLDATALOAD SWAP4 ADD PUSH2 0x28DE JUMP JUMPDEST SWAP1 JUMP JUMPDEST ISZERO PUSH2 0x2A40 JUMPI JUMP JUMPDEST PUSH1 0x64 PUSH1 0x40 MLOAD PUSH3 0x461BCD PUSH1 0xE5 SHL DUP2 MSTORE PUSH1 0x20 PUSH1 0x4 DUP3 ADD MSTORE PUSH1 0x12 PUSH1 0x24 DUP3 ADD MSTORE PUSH32 0x496E76616C696420707269636520666565640000000000000000000000000000 PUSH1 0x44 DUP3 ADD MSTORE REVERT JUMPDEST SWAP2 SWAP1 DUP3 ADD DUP1 SWAP3 GT PUSH2 0x708 JUMPI JUMP JUMPDEST ISZERO PUSH2 0x2A98 JUMPI JUMP JUMPDEST PUSH1 0x64 PUSH1 0x40 MLOAD PUSH3 0x461BCD PUSH1 0xE5 SHL DUP2 MSTORE PUSH1 0x20 PUSH1 0x4 DUP3 ADD MSTORE PUSH1 0xC PUSH1 0x24 DUP3 ADD MSTORE PUSH32 0x556E70726F66697461626C650000000000000000000000000000000000000000 PUSH1 0x44 DUP3 ADD MSTORE REVERT JUMPDEST SWAP2 SWAP1 DUP3 SUB SWAP2 DUP3 GT PUSH2 0x708 JUMPI JUMP JUMPDEST ISZERO PUSH2 0x2AF0 JUMPI JUMP JUMPDEST PUSH1 0x64 PUSH1 0x40 MLOAD PUSH3 0x461BCD PUSH1 0xE5 SHL DUP2 MSTORE PUSH1 0x20 PUSH1 0x4 DUP3 ADD MSTORE PUSH1 0xE PUSH1 0x24 DUP3 ADD MSTORE PUSH32 0x50726F66697420746F6F206C6F77000000000000000000000000000000000000 PUSH1 0x44 DUP3 ADD MSTORE REVERT JUMPDEST DUP2 DUP2 MUL SWAP3 SWAP2 DUP2 ISZERO SWAP2 DUP5 DIV EQ OR ISZERO PUSH2 0x708 JUMPI JUMP JUMPDEST ISZERO PUSH2 0x2B4E JUMPI JUMP JUMPDEST PUSH1 0x64 PUSH1 0x40 MLOAD PUSH3 0x461BCD PUSH1 0xE5 SHL DUP2 MSTORE PUSH1 0x20 PUSH1 0x4 DUP3 ADD MSTORE PUSH1 0x19 PUSH1 0x24 DUP3 ADD MSTORE PUSH32 0x50726F66697420646576696174696F6E20746F6F206869676800000000000000 PUSH1 0x44 DUP3 ADD MSTORE REVERT JUMPDEST SWAP1 DUP2 PUSH1 0x20 SWAP2 SUB SLT PUSH2 0x2DE JUMPI MLOAD DUP1 ISZERO ISZERO DUP2 SUB PUSH2 0x2DE JUMPI SWAP1 JUMP JUMPDEST DUP1 MLOAD ISZERO PUSH2 0x71E JUMPI PUSH1 0x20 ADD SWAP1 JUMP JUMPDEST DUP1 MLOAD PUSH1 0x1 LT ISZERO PUSH2 0x71E JUMPI PUSH1 0x40 ADD SWAP1 JUMP JUMPDEST DUP1 MLOAD PUSH1 0x2 LT ISZERO PUSH2 0x71E JUMPI PUSH1 0x60 ADD SWAP1 JUMP JUMPDEST DUP1 MLOAD DUP3 LT ISZERO PUSH2 0x71E JUMPI PUSH1 0x20 SWAP2 PUSH1 0x5 SHL ADD ADD SWAP1 JUMP JUMPDEST CALLDATALOAD PUSH1 0x1 PUSH1 0x1 PUSH1 0xA0 SHL SUB DUP2 AND DUP2 SUB PUSH2 0x2DE JUMPI SWAP1 JUMP JUMPDEST ISZERO PUSH2 0x2C06 JUMPI JUMP JUMPDEST PUSH1 0x84 PUSH1 0x40 MLOAD PUSH3 0x461BCD PUSH1 0xE5 SHL DUP2 MSTORE PUSH1 0x20 PUSH1 0x4 DUP3 ADD MSTORE PUSH1 0x27 PUSH1 0x24 DUP3 ADD MSTORE PUSH32 0x50617468206D75737420737461727420616E6420656E6420776974682073616D PUSH1 0x44 DUP3 ADD MSTORE PUSH32 0x6520746F6B656E00000000000000000000000000000000000000000000000000 PUSH1 0x64 DUP3 ADD MSTORE REVERT JUMPDEST PUSH1 0x20 SWAP1 DUP2 DUP2 DUP5 SUB SLT PUSH2 0x2DE JUMPI DUP1 MLOAD SWAP1 PUSH8 0xFFFFFFFFFFFFFFFF DUP3 GT PUSH2 0x2DE JUMPI ADD SWAP2 DUP1 PUSH1 0x1F DUP5 ADD SLT ISZERO PUSH2 0x2DE JUMPI DUP3 MLOAD PUSH2 0x2CA6 DUP2 PUSH2 0x296F JUMP JUMPDEST SWAP4 PUSH2 0x2CB4 PUSH1 0x40 MLOAD SWAP6 DUP7 PUSH2 0x294D JUMP JUMPDEST DUP2 DUP6 MSTORE DUP4 DUP1 DUP7 ADD SWAP3 PUSH1 0x5 SHL DUP3 ADD ADD SWAP3 DUP4 GT PUSH2 0x2DE JUMPI DUP4 ADD SWAP1 JUMPDEST DUP3 DUP3 LT PUSH2 0x2CDB JUMPI POP POP POP POP SWAP1 JUMP JUMPDEST DUP2 MLOAD DUP2 MSTORE SWAP1 DUP4 ADD SWAP1 DUP4 ADD PUSH2 0x2CCD JUMP JUMPDEST SWAP1 DUP2 MLOAD DUP1 DUP3 MSTORE PUSH1 0x20 DUP1 DUP1 SWAP4 ADD SWAP4 ADD SWAP2 PUSH1 0x0 JUMPDEST DUP3 DUP2 LT PUSH2 0x2D0A JUMPI POP POP POP POP SWAP1 JUMP JUMPDEST DUP4 MLOAD PUSH1 0x1 PUSH1 0x1 PUSH1 0xA0 SHL SUB AND DUP6 MSTORE SWAP4 DUP2 ADD SWAP4 SWAP3 DUP2 ADD SWAP3 PUSH1 0x1 ADD PUSH2 0x2CFC JUMP JUMPDEST PUSH1 0x60 SWAP1 SWAP4 SWAP2 SWAP3 SWAP4 PUSH1 0x40 DUP2 ADD SWAP4 DUP2 MSTORE DUP3 PUSH1 0x20 SWAP5 PUSH1 0x40 PUSH1 0x20 DUP5 ADD MSTORE MSTORE ADD SWAP3 SWAP2 PUSH1 0x0 JUMPDEST DUP3 DUP2 LT PUSH2 0x2D55 JUMPI POP POP POP POP SWAP1 JUMP JUMPDEST SWAP1 SWAP2 SWAP3 SWAP4 DUP3 DUP1 PUSH1 0x1 SWAP3 PUSH1 0x1 PUSH1 0x1 PUSH1 0xA0 SHL SUB PUSH2 0x2D6F DUP10 PUSH2 0x282D JUMP JUMPDEST AND DUP2 MSTORE ADD SWAP6 ADD SWAP4 SWAP3 SWAP2 ADD PUSH2 0x2D47 JUMP JUMPDEST ISZERO PUSH2 0x2D85 JUMPI JUMP JUMPDEST PUSH1 0x64 PUSH1 0x40 MLOAD PUSH3 0x461BCD PUSH1 0xE5 SHL DUP2 MSTORE PUSH1 0x20 PUSH1 0x4 DUP3 ADD MSTORE PUSH1 0xE PUSH1 0x24 DUP3 ADD MSTORE PUSH32 0x4E6F7420617574686F72697A6564000000000000000000000000000000000000 PUSH1 0x44 DUP3 ADD MSTORE REVERT JUMPDEST ISZERO PUSH2 0x2DD0 JUMPI JUMP JUMPDEST PUSH1 0x64 PUSH1 0x40 MLOAD PUSH3 0x461BCD PUSH1 0xE5 SHL DUP2 MSTORE PUSH1 0x20 PUSH1 0x4 DUP3 ADD MSTORE PUSH1 0x17 PUSH1 0x24 DUP3 ADD MSTORE PUSH32 0x416D6F756E74206D75737420626520706F736974697665000000000000000000 PUSH1 0x44 DUP3 ADD MSTORE REVERT JUMPDEST ISZERO PUSH2 0x2E1B JUMPI JUMP JUMPDEST PUSH1 0x64 PUSH1 0x40 MLOAD PUSH3 0x461BCD PUSH1 0xE5 SHL DUP2 MSTORE PUSH1 0x20 PUSH1 0x4 DUP3 ADD MSTORE PUSH1 0x20 PUSH1 0x24 DUP3 ADD MSTORE PUSH32 0x45787065637465642070726F666974206D75737420626520706F736974697665 PUSH1 0x44 DUP3 ADD MSTORE REVERT JUMPDEST SWAP1 CALLDATALOAD SWAP1 PUSH1 0x1E NOT DUP2 CALLDATASIZE SUB ADD DUP3 SLT ISZERO PUSH2 0x2DE JUMPI ADD DUP1 CALLDATALOAD SWAP1 PUSH8 0xFFFFFFFFFFFFFFFF DUP3 GT PUSH2 0x2DE JUMPI PUSH1 0x20 ADD SWAP2 PUSH1 0xE0 DUP3 MUL CALLDATASIZE SUB DUP4 SGT PUSH2 0x2DE JUMPI JUMP JUMPDEST CALLDATALOAD SWAP1 PUSH4 0xFFFFFFFF DUP3 AND DUP3 SUB PUSH2 0x2DE JUMPI JUMP JUMPDEST PUSH1 0x1 PUSH1 0x1 PUSH1 0xA0 SHL SUB PUSH1 0x0 SLOAD AND CALLER SUB PUSH2 0x2EBA JUMPI JUMP JUMPDEST PUSH1 0x64 PUSH1 0x40 MLOAD PUSH3 0x461BCD PUSH1 0xE5 SHL DUP2 MSTORE PUSH1 0x20 PUSH1 0x4 DUP3 ADD MSTORE PUSH1 0x20 PUSH1 0x24 DUP3 ADD MSTORE PUSH32 0x4F776E61626C653A2063616C6C6572206973206E6F7420746865206F776E6572 PUSH1 0x44 DUP3 ADD MSTORE REVERT JUMPDEST MLOAD SWAP1 PUSH10 0xFFFFFFFFFFFFFFFFFFFF DUP3 AND DUP3 SUB PUSH2 0x2DE JUMPI JUMP JUMPDEST PUSH1 0x0 JUMPDEST DUP2 MLOAD DUP2 LT ISZERO PUSH2 0x30B3 JUMPI PUSH1 0x1 PUSH1 0x1 PUSH1 0xA0 SHL SUB DUP1 PUSH2 0x2F34 DUP4 DUP6 PUSH2 0x2BD7 JUMP JUMPDEST MLOAD AND PUSH1 0x0 MSTORE PUSH1 0xD PUSH1 0x20 DUP2 DUP2 MSTORE PUSH1 0x40 SWAP3 DUP1 DUP5 PUSH1 0x0 KECCAK256 SLOAD AND PUSH2 0x2F5B JUMPI JUMPDEST POP POP POP POP PUSH1 0x1 ADD PUSH2 0x2F18 JUMP JUMPDEST DUP1 PUSH2 0x2F66 DUP7 DUP9 PUSH2 0x2BD7 JUMP JUMPDEST MLOAD AND PUSH1 0x0 MSTORE DUP3 DUP3 MSTORE DUP4 PUSH1 0x0 KECCAK256 SLOAD AND SWAP3 DUP1 MLOAD DUP1 DUP1 SWAP6 PUSH32 0xFEAF968C00000000000000000000000000000000000000000000000000000000 DUP3 MSTORE PUSH1 0xA0 SWAP2 DUP3 SWAP2 PUSH1 0x4 SWAP9 DUP10 SWAP2 GAS STATICCALL SWAP2 DUP3 ISZERO PUSH2 0x30A8 JUMPI PUSH1 0x0 SWAP2 DUP3 SWAP4 PUSH2 0x3055 JUMPI JUMPDEST POP POP PUSH1 0x0 SLT ISZERO PUSH2 0x3015 JUMPI PUSH2 0x2FD1 PUSH2 0xE10 SWAP2 TIMESTAMP PUSH2 0x2ADC JUMP JUMPDEST LT PUSH2 0x2F4F JUMPI PUSH1 0x64 SWAP5 POP MLOAD SWAP3 PUSH3 0x461BCD PUSH1 0xE5 SHL DUP5 MSTORE DUP4 ADD MSTORE PUSH1 0x24 DUP3 ADD MSTORE PUSH32 0x507269636520746F6F206F6C6400000000000000000000000000000000000000 PUSH1 0x44 DUP3 ADD MSTORE REVERT JUMPDEST POP PUSH1 0x64 SWAP5 POP MLOAD SWAP3 PUSH3 0x461BCD PUSH1 0xE5 SHL DUP5 MSTORE DUP4 ADD MSTORE PUSH1 0x24 DUP3 ADD MSTORE PUSH32 0x496E76616C696420707269636500000000000000000000000000000000000000 PUSH1 0x44 DUP3 ADD MSTORE REVERT JUMPDEST SWAP1 DUP1 SWAP4 POP DUP2 RETURNDATASIZE DUP4 GT PUSH2 0x30A1 JUMPI JUMPDEST PUSH2 0x306C DUP2 DUP4 PUSH2 0x294D JUMP JUMPDEST DUP2 ADD SUB SLT PUSH2 0x309E JUMPI POP PUSH2 0x307E DUP2 PUSH2 0x2EFE JUMP JUMPDEST POP PUSH1 0x0 DUP4 DUP3 ADD MLOAD PUSH2 0x3096 PUSH1 0x80 PUSH1 0x60 DUP6 ADD MLOAD SWAP5 ADD PUSH2 0x2EFE JUMP JUMPDEST POP SWAP1 CODESIZE PUSH2 0x2FBA JUMP JUMPDEST DUP1 REVERT JUMPDEST POP RETURNDATASIZE PUSH2 0x3062 JUMP JUMPDEST DUP4 MLOAD RETURNDATASIZE PUSH1 0x0 DUP3 RETURNDATACOPY RETURNDATASIZE SWAP1 REVERT JUMPDEST POP POP PUSH1 0x1 SWAP1 JUMP JUMPDEST SWAP2 PUSH1 0x80 SWAP4 PUSH2 0x30E7 SWAP2 PUSH1 0x1 PUSH1 0x1 PUSH1 0xA0 SHL SUB SWAP4 SWAP9 SWAP8 SWAP7 SWAP9 DUP6 MSTORE PUSH1 0x20 DUP6 ADD MSTORE PUSH1 0xA0 PUSH1 0x40 DUP6 ADD MSTORE PUSH1 0xA0 DUP5 ADD SWAP1 PUSH2 0x2CEA JUMP JUMPDEST SWAP6 AND PUSH1 0x60 DUP3 ADD MSTORE ADD MSTORE JUMP JUMPDEST PUSH1 0x4 DUP1 SLOAD PUSH1 0x40 DUP1 MLOAD PUSH4 0x95EA7B3 PUSH1 0xE0 SHL DUP1 DUP3 MSTORE PUSH1 0x1 PUSH1 0x1 PUSH1 0xA0 SHL SUB SWAP4 DUP5 AND DUP3 DUP7 ADD MSTORE PUSH1 0x24 DUP3 ADD DUP8 SWAP1 MSTORE PUSH1 0x0 SWAP9 SWAP7 SWAP8 SWAP3 SWAP7 SWAP4 SWAP6 SWAP1 SWAP4 PUSH1 0x20 SWAP3 SWAP1 SWAP2 DUP8 AND SWAP1 DUP4 DUP2 PUSH1 0x44 DUP2 DUP15 DUP7 GAS CALL DUP1 ISZERO PUSH2 0x34E9 JUMPI PUSH2 0x3510 JUMPI JUMPDEST POP DUP9 DUP4 DUP10 DUP13 DUP10 DUP10 PUSH2 0x3179 DUP14 PUSH1 0x5 SLOAD AND SWAP5 MLOAD SWAP7 DUP8 SWAP6 DUP7 SWAP5 DUP6 SWAP5 DUP6 MSTORE DUP5 ADD PUSH1 0x20 SWAP1 SWAP4 SWAP3 SWAP2 SWAP4 PUSH1 0x1 PUSH1 0x1 PUSH1 0xA0 SHL SUB PUSH1 0x40 DUP3 ADD SWAP6 AND DUP2 MSTORE ADD MSTORE JUMP JUMPDEST SUB SWAP2 DUP7 GAS CALL DUP1 ISZERO PUSH2 0x34E9 JUMPI PUSH2 0x34F3 JUMPI JUMPDEST POP DUP9 DUP4 DUP10 DUP13 DUP10 DUP10 PUSH2 0x31C0 DUP14 PUSH1 0x7 SLOAD AND SWAP5 MLOAD SWAP7 DUP8 SWAP6 DUP7 SWAP5 DUP6 SWAP5 DUP6 MSTORE DUP5 ADD PUSH1 0x20 SWAP1 SWAP4 SWAP3 SWAP2 SWAP4 PUSH1 0x1 PUSH1 0x1 PUSH1 0xA0 SHL SUB PUSH1 0x40 DUP3 ADD SWAP6 AND DUP2 MSTORE ADD MSTORE JUMP JUMPDEST SUB SWAP2 DUP7 GAS CALL DUP1 ISZERO PUSH2 0x34E9 JUMPI DUP11 SWAP3 DUP6 SWAP3 DUP12 SWAP3 PUSH2 0x34CC JUMPI JUMPDEST POP DUP9 DUP14 DUP10 PUSH2 0x320A DUP14 PUSH1 0x8 SLOAD AND SWAP6 MLOAD SWAP8 DUP9 SWAP7 DUP8 SWAP6 DUP7 SWAP5 DUP6 MSTORE DUP5 ADD PUSH1 0x20 SWAP1 SWAP4 SWAP3 SWAP2 SWAP4 PUSH1 0x1 PUSH1 0x1 PUSH1 0xA0 SHL SUB PUSH1 0x40 DUP3 ADD SWAP6 AND DUP2 MSTORE ADD MSTORE JUMP JUMPDEST SUB SWAP3 GAS CALL DUP1 ISZERO PUSH2 0x3387 JUMPI PUSH2 0x34AF JUMPI JUMPDEST POP ISZERO PUSH2 0x33BE JUMPI PUSH2 0x3229 DUP3 DUP9 PUSH2 0x3ECB JUMP JUMPDEST SWAP3 DUP6 PUSH2 0x3233 PUSH2 0x3BF0 JUMP JUMPDEST AND SWAP8 PUSH2 0x12C TIMESTAMP ADD SWAP9 DUP10 TIMESTAMP GT PUSH2 0x3391 JUMPI DUP11 SWAP2 DUP3 SWAP2 DUP12 DUP12 MLOAD SWAP5 DUP6 DUP1 SWAP5 DUP2 SWAP4 DUP14 DUP13 PUSH4 0x38ED1739 PUSH1 0xE0 SHL SWAP15 DUP16 DUP7 MSTORE ADDRESS SWAP3 DUP7 ADD SWAP5 PUSH2 0x326B SWAP6 PUSH2 0x30BA JUMP JUMPDEST SUB SWAP3 GAS CALL SWAP1 DUP2 ISZERO PUSH2 0x3387 JUMPI DUP11 SWAP2 PUSH2 0x33A4 JUMPI JUMPDEST POP DUP1 MLOAD PUSH1 0x0 NOT DUP2 ADD SWAP2 SWAP1 DUP3 GT PUSH2 0x3391 JUMPI SWAP3 PUSH2 0x329D DUP2 SWAP4 SWAP3 DUP11 SWAP8 SWAP7 SWAP6 PUSH2 0x2BD7 JUMP JUMPDEST MLOAD SWAP6 DUP7 SWAP3 DUP9 DUP14 DUP12 PUSH2 0x32AD DUP10 PUSH2 0x2BB7 JUMP JUMPDEST MLOAD AND SWAP3 PUSH2 0x32E5 DUP14 PUSH2 0x32BC PUSH2 0x3BCE JUMP JUMPDEST AND SWAP6 MLOAD SWAP8 DUP9 SWAP7 DUP8 SWAP6 DUP7 SWAP5 DUP6 MSTORE DUP5 ADD PUSH1 0x20 SWAP1 SWAP4 SWAP3 SWAP2 SWAP4 PUSH1 0x1 PUSH1 0x1 PUSH1 0xA0 SHL SUB PUSH1 0x40 DUP3 ADD SWAP6 AND DUP2 MSTORE ADD MSTORE JUMP JUMPDEST SUB SWAP3 GAS CALL DUP1 ISZERO PUSH2 0x3387 JUMPI DUP11 SWAP8 SWAP7 SWAP6 SWAP5 SWAP3 SWAP4 DUP9 SWAP5 PUSH2 0x3336 SWAP4 PUSH2 0x330C SWAP4 PUSH2 0x3369 JUMPI JUMPDEST POP POP PUSH2 0x3C30 JUMP JUMPDEST SWAP9 PUSH2 0x3317 DUP11 DUP7 PUSH2 0x3E04 JUMP JUMPDEST SWAP7 PUSH2 0x3320 PUSH2 0x3BCE JUMP JUMPDEST AND SWAP6 DUP10 MLOAD SWAP11 DUP12 SWAP9 DUP10 SWAP8 DUP9 SWAP7 DUP8 MSTORE ADDRESS SWAP4 DUP8 ADD PUSH2 0x30BA JUMP JUMPDEST SUB SWAP3 GAS CALL SWAP1 DUP2 ISZERO PUSH2 0x3360 JUMPI POP PUSH2 0x334A JUMPI POP POP JUMP JUMPDEST PUSH2 0x335D SWAP2 RETURNDATASIZE DUP1 SWAP2 DUP4 RETURNDATACOPY PUSH2 0x170F DUP2 DUP4 PUSH2 0x294D JUMP JUMPDEST POP JUMP JUMPDEST MLOAD RETURNDATASIZE DUP5 DUP3 RETURNDATACOPY RETURNDATASIZE SWAP1 REVERT JUMPDEST DUP2 PUSH2 0x337F SWAP3 SWAP1 RETURNDATASIZE LT PUSH2 0x6F5 JUMPI PUSH2 0x6E6 DUP2 DUP4 PUSH2 0x294D JUMP JUMPDEST POP CODESIZE DUP1 PUSH2 0x3305 JUMP JUMPDEST DUP9 MLOAD RETURNDATASIZE DUP13 DUP3 RETURNDATACOPY RETURNDATASIZE SWAP1 REVERT JUMPDEST PUSH1 0x24 DUP12 PUSH1 0x11 DUP10 PUSH4 0x4E487B71 PUSH1 0xE0 SHL DUP4 MSTORE MSTORE REVERT JUMPDEST PUSH2 0x33B8 SWAP2 POP RETURNDATASIZE DUP1 DUP13 DUP4 RETURNDATACOPY PUSH2 0x170F DUP2 DUP4 PUSH2 0x294D JUMP JUMPDEST CODESIZE PUSH2 0x327D JUMP JUMPDEST PUSH2 0x33C8 DUP3 DUP9 PUSH2 0x3E04 JUMP JUMPDEST SWAP3 DUP6 PUSH2 0x33D2 PUSH2 0x3BCE JUMP JUMPDEST AND SWAP8 PUSH2 0x12C TIMESTAMP ADD SWAP9 DUP10 TIMESTAMP GT PUSH2 0x3391 JUMPI DUP11 SWAP2 DUP3 SWAP2 DUP12 DUP12 MLOAD SWAP5 DUP6 DUP1 SWAP5 DUP2 SWAP4 DUP14 DUP13 PUSH4 0x38ED1739 PUSH1 0xE0 SHL SWAP15 DUP16 DUP7 MSTORE ADDRESS SWAP3 DUP7 ADD SWAP5 PUSH2 0x340A SWAP6 PUSH2 0x30BA JUMP JUMPDEST SUB SWAP3 GAS CALL SWAP1 DUP2 ISZERO PUSH2 0x3387 JUMPI DUP11 SWAP2 PUSH2 0x3495 JUMPI JUMPDEST POP DUP1 MLOAD PUSH1 0x0 NOT DUP2 ADD SWAP2 SWAP1 DUP3 GT PUSH2 0x3391 JUMPI SWAP3 PUSH2 0x343C DUP2 SWAP4 SWAP3 DUP11 SWAP8 SWAP7 SWAP6 PUSH2 0x2BD7 JUMP JUMPDEST MLOAD SWAP6 DUP7 SWAP3 DUP9 DUP14 DUP12 PUSH2 0x344C DUP10 PUSH2 0x2BB7 JUMP JUMPDEST MLOAD AND SWAP3 PUSH2 0x345B DUP14 PUSH2 0x32BC PUSH2 0x3BF0 JUMP JUMPDEST SUB SWAP3 GAS CALL DUP1 ISZERO PUSH2 0x3387 JUMPI DUP11 SWAP8 SWAP7 SWAP6 SWAP5 SWAP3 SWAP4 DUP9 SWAP5 PUSH2 0x3336 SWAP4 PUSH2 0x3481 SWAP4 PUSH2 0x3369 JUMPI POP POP PUSH2 0x3C30 JUMP JUMPDEST SWAP9 PUSH2 0x348C DUP11 DUP7 PUSH2 0x3ECB JUMP JUMPDEST SWAP7 PUSH2 0x3320 PUSH2 0x3BF0 JUMP JUMPDEST PUSH2 0x34A9 SWAP2 POP RETURNDATASIZE DUP1 DUP13 DUP4 RETURNDATACOPY PUSH2 0x170F DUP2 DUP4 PUSH2 0x294D JUMP JUMPDEST CODESIZE PUSH2 0x341C JUMP JUMPDEST PUSH2 0x34C5 SWAP1 DUP4 RETURNDATASIZE DUP6 GT PUSH2 0x6F5 JUMPI PUSH2 0x6E6 DUP2 DUP4 PUSH2 0x294D JUMP JUMPDEST POP CODESIZE PUSH2 0x3219 JUMP JUMPDEST PUSH2 0x34E2 SWAP1 DUP5 RETURNDATASIZE DUP7 GT PUSH2 0x6F5 JUMPI PUSH2 0x6E6 DUP2 DUP4 PUSH2 0x294D JUMP JUMPDEST POP CODESIZE PUSH2 0x31D6 JUMP JUMPDEST DUP10 MLOAD RETURNDATASIZE DUP14 DUP3 RETURNDATACOPY RETURNDATASIZE SWAP1 REVERT JUMPDEST PUSH2 0x3509 SWAP1 DUP5 RETURNDATASIZE DUP7 GT PUSH2 0x6F5 JUMPI PUSH2 0x6E6 DUP2 DUP4 PUSH2 0x294D JUMP JUMPDEST POP CODESIZE PUSH2 0x3189 JUMP JUMPDEST PUSH2 0x3526 SWAP1 DUP5 RETURNDATASIZE DUP7 GT PUSH2 0x6F5 JUMPI PUSH2 0x6E6 DUP2 DUP4 PUSH2 0x294D JUMP JUMPDEST POP CODESIZE PUSH2 0x3142 JUMP JUMPDEST PUSH1 0x7 SLOAD PUSH1 0x40 DUP1 MLOAD PUSH4 0x95EA7B3 PUSH1 0xE0 SHL DUP1 DUP3 MSTORE PUSH1 0x1 PUSH1 0x1 PUSH1 0xA0 SHL SUB SWAP4 DUP5 AND PUSH1 0x4 DUP1 DUP5 ADD SWAP2 SWAP1 SWAP2 MSTORE PUSH1 0x24 DUP4 ADD DUP8 SWAP1 MSTORE PUSH1 0x0 SWAP8 SWAP7 SWAP4 SWAP6 SWAP1 SWAP4 SWAP2 SWAP3 PUSH1 0x20 SWAP2 DUP7 AND SWAP1 DUP3 DUP2 PUSH1 0x44 DUP2 DUP14 DUP7 GAS CALL DUP1 ISZERO PUSH2 0x3387 JUMPI PUSH2 0x35B6 SWAP3 DUP5 SWAP3 DUP7 SWAP3 PUSH2 0x38EF JUMPI JUMPDEST POP DUP9 PUSH1 0x8 SLOAD AND DUP13 DUP12 MLOAD DUP1 SWAP7 DUP2 SWAP6 DUP3 SWAP5 DUP13 DUP5 MSTORE DUP14 DUP5 ADD PUSH1 0x20 SWAP1 SWAP4 SWAP3 SWAP2 SWAP4 PUSH1 0x1 PUSH1 0x1 PUSH1 0xA0 SHL SUB PUSH1 0x40 DUP3 ADD SWAP6 AND DUP2 MSTORE ADD MSTORE JUMP JUMPDEST SUB SWAP3 GAS CALL DUP1 ISZERO PUSH2 0x38E5 JUMPI PUSH2 0x38C8 JUMPI JUMPDEST POP DUP6 MLOAD SWAP1 PUSH2 0x35D2 DUP3 PUSH2 0x2915 JUMP JUMPDEST PUSH1 0x2 DUP3 MSTORE DUP7 CALLDATASIZE DUP3 DUP5 ADD CALLDATACOPY DUP6 PUSH2 0x35E6 DUP10 PUSH2 0x2BAA JUMP JUMPDEST MLOAD AND PUSH2 0x35F1 DUP4 PUSH2 0x2BAA JUMP JUMPDEST MSTORE DUP6 PUSH2 0x35FC DUP10 PUSH2 0x2BB7 JUMP JUMPDEST MLOAD AND PUSH2 0x3607 DUP4 PUSH2 0x2BB7 JUMP JUMPDEST MSTORE PUSH2 0x3612 DUP3 DUP5 PUSH2 0x3E04 JUMP JUMPDEST SWAP2 DUP7 PUSH1 0x7 SLOAD AND SWAP1 PUSH2 0x12C TIMESTAMP ADD SWAP4 DUP5 TIMESTAMP GT PUSH2 0x389B JUMPI DUP5 SWAP3 DUP13 SWAP3 DUP4 DUP11 SWAP4 PUSH2 0x364E DUP15 MLOAD SWAP8 DUP9 SWAP7 DUP8 SWAP6 DUP7 SWAP5 PUSH4 0x38ED1739 PUSH1 0xE0 SHL SWAP15 DUP16 DUP8 MSTORE ADDRESS SWAP4 DUP8 ADD PUSH2 0x30BA JUMP JUMPDEST SUB SWAP3 GAS CALL SWAP1 DUP2 ISZERO PUSH2 0x3387 JUMPI DUP11 SWAP2 PUSH2 0x38AE JUMPI JUMPDEST POP DUP1 MLOAD PUSH1 0x0 NOT SWAP2 DUP3 DUP3 ADD SWAP2 DUP3 GT PUSH2 0x389B JUMPI DUP12 DUP5 DUP12 DUP12 PUSH2 0x3681 DUP16 SWAP7 DUP14 SWAP7 PUSH2 0x2BD7 JUMP JUMPDEST MLOAD SWAP5 DUP6 SWAP5 DUP13 PUSH2 0x3705 DUP5 PUSH2 0x36D6 DUP8 MLOAD SWAP12 PUSH2 0x3699 DUP14 PUSH2 0x2915 JUMP JUMPDEST PUSH1 0x2 DUP14 MSTORE DUP9 CALLDATASIZE DUP12 DUP16 ADD CALLDATACOPY DUP13 PUSH2 0x36B9 DUP5 PUSH2 0x36B1 DUP5 PUSH2 0x2BB7 JUMP JUMPDEST MLOAD AND SWAP2 PUSH2 0x2BAA JUMP JUMPDEST MSTORE DUP13 PUSH2 0x36D0 DUP5 PUSH2 0x36C8 DUP5 PUSH2 0x2BC7 JUMP JUMPDEST MLOAD AND SWAP2 PUSH2 0x2BB7 JUMP JUMPDEST MSTORE PUSH2 0x2BB7 JUMP JUMPDEST MLOAD AND SWAP5 PUSH1 0x8 SLOAD AND SWAP6 MLOAD SWAP8 DUP9 SWAP7 DUP8 SWAP6 DUP7 SWAP5 DUP6 MSTORE DUP5 ADD PUSH1 0x20 SWAP1 SWAP4 SWAP3 SWAP2 SWAP4 PUSH1 0x1 PUSH1 0x1 PUSH1 0xA0 SHL SUB PUSH1 0x40 DUP3 ADD SWAP6 AND DUP2 MSTORE ADD MSTORE JUMP JUMPDEST SUB SWAP3 GAS CALL DUP1 ISZERO PUSH2 0x3891 JUMPI DUP14 SWAP3 DUP4 DUP10 PUSH2 0x3747 DUP16 SWAP5 DUP16 SWAP7 DUP16 SWAP1 DUP14 SWAP3 PUSH2 0x3874 JUMPI JUMPDEST POP PUSH2 0x372E DUP11 DUP8 PUSH2 0x3ECB JUMP JUMPDEST SWAP8 PUSH1 0x8 SLOAD AND SWAP7 MLOAD SWAP10 DUP11 SWAP9 DUP10 SWAP8 DUP9 SWAP7 DUP8 MSTORE ADDRESS SWAP4 DUP8 ADD PUSH2 0x30BA JUMP JUMPDEST SUB SWAP3 GAS CALL SWAP1 DUP2 ISZERO PUSH2 0x34E9 JUMPI DUP12 SWAP2 PUSH2 0x385A JUMPI JUMPDEST POP DUP1 MLOAD SWAP2 DUP3 ADD SWAP2 DUP3 GT PUSH2 0x3391 JUMPI PUSH2 0x3772 DUP12 SWAP3 DUP5 SWAP3 PUSH2 0x2BD7 JUMP JUMPDEST MLOAD SWAP6 DUP9 DUP11 MLOAD SWAP12 PUSH2 0x3781 DUP14 PUSH2 0x2915 JUMP JUMPDEST PUSH1 0x2 DUP14 MSTORE DUP12 CALLDATASIZE DUP6 DUP16 ADD CALLDATACOPY DUP13 DUP3 PUSH2 0x3796 DUP4 PUSH2 0x2BC7 JUMP JUMPDEST MLOAD AND SWAP1 PUSH2 0x37A2 SWAP1 PUSH2 0x2BAA JUMP JUMPDEST MSTORE DUP13 DUP3 PUSH2 0x37AE DUP4 PUSH2 0x2BAA JUMP JUMPDEST MLOAD AND SWAP1 PUSH2 0x37BA SWAP1 PUSH2 0x2BB7 JUMP JUMPDEST MSTORE PUSH2 0x37C4 SWAP1 PUSH2 0x2BC7 JUMP JUMPDEST MLOAD AND DUP10 PUSH1 0x7 SLOAD AND SWAP2 DUP12 MLOAD SWAP5 DUP6 DUP1 SWAP5 DUP2 SWAP4 DUP3 MSTORE DUP12 DUP14 DUP4 ADD SWAP2 PUSH2 0x37FA SWAP3 PUSH1 0x20 SWAP1 SWAP4 SWAP3 SWAP2 SWAP4 PUSH1 0x1 PUSH1 0x1 PUSH1 0xA0 SHL SUB PUSH1 0x40 DUP3 ADD SWAP6 AND DUP2 MSTORE ADD MSTORE JUMP JUMPDEST SUB SWAP3 GAS CALL DUP1 ISZERO PUSH2 0x3387 JUMPI SWAP3 DUP11 SWAP8 SWAP7 SWAP6 SWAP5 SWAP3 PUSH2 0x3336 SWAP3 DUP10 SWAP6 PUSH2 0x383C JUMPI JUMPDEST POP POP PUSH2 0x3822 DUP11 DUP7 PUSH2 0x3E04 JUMP JUMPDEST SWAP7 PUSH1 0x7 SLOAD AND SWAP6 DUP10 MLOAD SWAP11 DUP12 SWAP9 DUP10 SWAP8 DUP9 SWAP7 DUP8 MSTORE ADDRESS SWAP4 DUP8 ADD PUSH2 0x30BA JUMP JUMPDEST DUP2 PUSH2 0x3852 SWAP3 SWAP1 RETURNDATASIZE LT PUSH2 0x6F5 JUMPI PUSH2 0x6E6 DUP2 DUP4 PUSH2 0x294D JUMP JUMPDEST POP CODESIZE DUP1 PUSH2 0x3816 JUMP JUMPDEST PUSH2 0x386E SWAP2 POP RETURNDATASIZE DUP1 DUP14 DUP4 RETURNDATACOPY PUSH2 0x170F DUP2 DUP4 PUSH2 0x294D JUMP JUMPDEST CODESIZE PUSH2 0x3759 JUMP JUMPDEST PUSH2 0x388A SWAP1 DUP14 DUP1 RETURNDATASIZE LT PUSH2 0x6F5 JUMPI PUSH2 0x6E6 DUP2 DUP4 PUSH2 0x294D JUMP JUMPDEST POP CODESIZE PUSH2 0x3723 JUMP JUMPDEST DUP12 MLOAD RETURNDATASIZE DUP16 DUP3 RETURNDATACOPY RETURNDATASIZE SWAP1 REVERT JUMPDEST PUSH1 0x24 DUP13 PUSH1 0x11 DUP11 PUSH4 0x4E487B71 PUSH1 0xE0 SHL DUP4 MSTORE MSTORE REVERT JUMPDEST PUSH2 0x38C2 SWAP2 POP RETURNDATASIZE DUP1 DUP13 DUP4 RETURNDATACOPY PUSH2 0x170F DUP2 DUP4 PUSH2 0x294D JUMP JUMPDEST CODESIZE PUSH2 0x3660 JUMP JUMPDEST PUSH2 0x38DE SWAP1 DUP3 RETURNDATASIZE DUP5 GT PUSH2 0x6F5 JUMPI PUSH2 0x6E6 DUP2 DUP4 PUSH2 0x294D JUMP JUMPDEST POP CODESIZE PUSH2 0x35C5 JUMP JUMPDEST DUP8 MLOAD RETURNDATASIZE DUP12 DUP3 RETURNDATACOPY RETURNDATASIZE SWAP1 REVERT JUMPDEST PUSH2 0x3905 SWAP1 DUP5 RETURNDATASIZE DUP7 GT PUSH2 0x6F5 JUMPI PUSH2 0x6E6 DUP2 DUP4 PUSH2 0x294D JUMP JUMPDEST POP CODESIZE PUSH2 0x3586 JUMP JUMPDEST SWAP1 PUSH1 0x1 PUSH1 0x1 PUSH1 0xA0 SHL SUB SWAP1 DUP2 PUSH1 0xF SLOAD AND SWAP1 DUP2 ISZERO ISZERO DUP1 PUSH2 0x3A68 JUMPI JUMPDEST DUP1 PUSH2 0x3A5F JUMPI JUMPDEST PUSH2 0x3936 JUMPI JUMPDEST POP POP POP POP JUMP JUMPDEST PUSH2 0x3946 PUSH2 0x2710 SWAP2 PUSH1 0x10 SLOAD SWAP1 PUSH2 0x2B34 JUMP JUMPDEST DIV SWAP3 DUP4 ISZERO PUSH2 0x3930 JUMPI DUP3 AND SWAP2 PUSH1 0x40 MLOAD SWAP1 PUSH4 0x70A08231 PUSH1 0xE0 SHL DUP3 MSTORE ADDRESS PUSH1 0x4 DUP4 ADD MSTORE PUSH1 0x20 SWAP2 DUP3 DUP2 PUSH1 0x24 DUP2 DUP9 GAS STATICCALL DUP1 ISZERO PUSH2 0x6FC JUMPI DUP7 SWAP2 PUSH1 0x0 SWAP2 PUSH2 0x3A2E JUMPI JUMPDEST POP LT ISZERO PUSH2 0x398E JUMPI JUMPDEST POP PUSH2 0x3930 JUMP JUMPDEST PUSH1 0x40 MLOAD PUSH4 0xA9059CBB PUSH1 0xE0 SHL DUP2 MSTORE PUSH1 0x1 PUSH1 0x1 PUSH1 0xA0 SHL SUB SWAP4 SWAP1 SWAP4 AND PUSH1 0x4 DUP5 ADD MSTORE PUSH1 0x24 DUP4 ADD DUP6 SWAP1 MSTORE DUP2 DUP4 PUSH1 0x44 DUP2 PUSH1 0x0 DUP9 GAS CALL SWAP3 DUP4 ISZERO PUSH2 0x6FC JUMPI PUSH32 0xAE31919ED2F5E0AFD03E95E56D2D512A4CFDFDFE29AE313F92DFCCD88B47E68F SWAP4 PUSH2 0x3A11 JUMPI JUMPDEST POP PUSH2 0x39F8 DUP6 PUSH1 0x11 SLOAD PUSH2 0x2A84 JUMP JUMPDEST PUSH1 0x11 SSTORE PUSH1 0xF SLOAD AND SWAP4 PUSH1 0x40 MLOAD SWAP1 DUP2 MSTORE LOG3 CODESIZE DUP1 DUP1 DUP1 DUP1 PUSH2 0x3988 JUMP JUMPDEST PUSH2 0x3A27 SWAP1 DUP4 RETURNDATASIZE DUP6 GT PUSH2 0x6F5 JUMPI PUSH2 0x6E6 DUP2 DUP4 PUSH2 0x294D JUMP JUMPDEST POP CODESIZE PUSH2 0x39EB JUMP JUMPDEST DUP1 SWAP3 POP DUP5 DUP1 SWAP3 POP RETURNDATASIZE DUP4 GT PUSH2 0x3A58 JUMPI JUMPDEST PUSH2 0x3A47 DUP2 DUP4 PUSH2 0x294D JUMP JUMPDEST DUP2 ADD SUB SLT PUSH2 0x2DE JUMPI DUP6 SWAP1 MLOAD CODESIZE PUSH2 0x3980 JUMP JUMPDEST POP RETURNDATASIZE PUSH2 0x3A3D JUMP JUMPDEST POP DUP1 ISZERO ISZERO PUSH2 0x392B JUMP JUMPDEST POP PUSH1 0x10 SLOAD ISZERO ISZERO PUSH2 0x3925 JUMP JUMPDEST PUSH1 0x20 PUSH1 0x1 PUSH1 0x1 PUSH1 0xA0 SHL SUB PUSH1 0x24 DUP2 PUSH1 0x2 SLOAD PUSH1 0x8 SHR AND SWAP4 PUSH1 0x40 MLOAD SWAP5 DUP6 SWAP4 DUP5 SWAP3 PUSH32 0x613255AB00000000000000000000000000000000000000000000000000000000 DUP5 MSTORE AND PUSH1 0x4 DUP4 ADD MSTORE GAS STATICCALL SWAP1 DUP2 ISZERO PUSH2 0x6FC JUMPI PUSH1 0x0 SWAP2 PUSH2 0x3ADB JUMPI JUMPDEST POP LT ISZERO PUSH2 0x3AD6 JUMPI PUSH1 0x1 SWAP1 JUMP JUMPDEST PUSH1 0x0 SWAP1 JUMP JUMPDEST SWAP1 POP PUSH1 0x20 DUP2 RETURNDATASIZE PUSH1 0x20 GT PUSH2 0x3B05 JUMPI JUMPDEST DUP2 PUSH2 0x3AF6 PUSH1 0x20 SWAP4 DUP4 PUSH2 0x294D JUMP JUMPDEST DUP2 ADD SUB SLT PUSH2 0x2DE JUMPI MLOAD CODESIZE PUSH2 0x3ACA JUMP JUMPDEST RETURNDATASIZE SWAP2 POP PUSH2 0x3AE9 JUMP JUMPDEST PUSH1 0x4 PUSH1 0x20 PUSH1 0x1 PUSH1 0x1 PUSH1 0xA0 SHL SUB PUSH1 0x3 SLOAD AND PUSH1 0x40 MLOAD SWAP3 DUP4 DUP1 SWAP3 PUSH32 0x74B2E4300000000000000000000000000000000000000000000000000000000 DUP3 MSTORE GAS STATICCALL SWAP1 DUP2 ISZERO PUSH2 0x6FC JUMPI PUSH1 0x0 SWAP2 PUSH2 0x3B7D JUMPI JUMPDEST POP PUSH2 0x2710 SWAP2 PUSH16 0xFFFFFFFFFFFFFFFFFFFFFFFFFFFFFFFF PUSH2 0x3B79 SWAP3 AND SWAP1 PUSH2 0x2B34 JUMP JUMPDEST DIV SWAP1 JUMP JUMPDEST PUSH1 0x20 DUP2 RETURNDATASIZE PUSH1 0x20 GT PUSH2 0x3BC6 JUMPI JUMPDEST DUP2 PUSH2 0x3B96 PUSH1 0x20 SWAP4 DUP4 PUSH2 0x294D JUMP JUMPDEST DUP2 ADD SUB SLT PUSH2 0x3BC2 JUMPI MLOAD SWAP1 PUSH16 0xFFFFFFFFFFFFFFFFFFFFFFFFFFFFFFFF DUP3 AND DUP3 SUB PUSH2 0x309E JUMPI POP PUSH2 0x2710 PUSH2 0x3B58 JUMP JUMPDEST POP DUP1 REVERT JUMPDEST RETURNDATASIZE SWAP2 POP PUSH2 0x3B89 JUMP JUMPDEST PUSH1 0x7 SLOAD PUSH1 0x1 PUSH1 0x1 PUSH1 0xA0 SHL SUB SWAP1 DUP2 AND SWAP1 DUP2 ISZERO PUSH2 0x3BE7 JUMPI POP SWAP1 JUMP JUMPDEST SWAP1 POP PUSH1 0x5 SLOAD AND SWAP1 JUMP JUMPDEST PUSH1 0x8 SLOAD PUSH1 0x1 PUSH1 0x1 PUSH1 0xA0 SHL SUB SWAP1 DUP2 AND SWAP1 DUP2 ISZERO PUSH2 0x3C09 JUMPI POP SWAP1 JUMP JUMPDEST SWAP1 POP PUSH1 0x4 SLOAD AND SWAP1 JUMP JUMPDEST ISZERO PUSH2 0x3BCE JUMPI PUSH1 0x8 SLOAD PUSH1 0x1 PUSH1 0x1 PUSH1 0xA0 SHL SUB SWAP1 DUP2 AND SWAP1 DUP2 ISZERO PUSH2 0x3C09 JUMPI POP SWAP1 JUMP JUMPDEST SWAP1 DUP2 MLOAD PUSH2 0x3C3C DUP2 PUSH2 0x296F JUMP JUMPDEST SWAP1 PUSH2 0x3C4A PUSH1 0x40 MLOAD SWAP3 DUP4 PUSH2 0x294D JUMP JUMPDEST DUP1 DUP3 MSTORE PUSH2 0x3C59 PUSH1 0x1F NOT SWAP2 PUSH2 0x296F JUMP JUMPDEST ADD CALLDATASIZE PUSH1 0x20 DUP4 ADD CALLDATACOPY DUP1 SWAP2 PUSH1 0x0 DUP1 JUMPDEST DUP6 MLOAD DUP1 DUP3 LT ISZERO PUSH2 0x3CC1 JUMPI PUSH1 0x0 NOT DUP2 ADD SWAP1 DUP2 GT PUSH2 0x3CAD JUMPI SWAP1 PUSH1 0x1 PUSH1 0x1 PUSH1 0xA0 SHL SUB PUSH2 0x3C9A PUSH2 0x3C94 DUP4 PUSH1 0x1 SWAP6 PUSH2 0x2ADC JUMP JUMPDEST DUP10 PUSH2 0x2BD7 JUMP JUMPDEST MLOAD AND PUSH2 0x3CA6 DUP3 DUP8 PUSH2 0x2BD7 JUMP JUMPDEST MSTORE ADD PUSH2 0x3C66 JUMP JUMPDEST PUSH1 0x24 DUP4 PUSH4 0x4E487B71 PUSH1 0xE0 SHL DUP2 MSTORE PUSH1 0x11 PUSH1 0x4 MSTORE REVERT JUMPDEST POP POP POP SWAP2 SWAP3 POP POP JUMP JUMPDEST PUSH1 0xFF PUSH1 0x2 SLOAD AND PUSH2 0x3CD6 JUMPI JUMP JUMPDEST PUSH1 0x64 PUSH1 0x40 MLOAD PUSH3 0x461BCD PUSH1 0xE5 SHL DUP2 MSTORE PUSH1 0x20 PUSH1 0x4 DUP3 ADD MSTORE PUSH1 0x10 PUSH1 0x24 DUP3 ADD MSTORE PUSH32 0x5061757361626C653A2070617573656400000000000000000000000000000000 PUSH1 0x44 DUP3 ADD MSTORE REVERT JUMPDEST PUSH1 0x2 PUSH1 0x1 SLOAD EQ PUSH2 0x3D2B JUMPI PUSH1 0x2 PUSH1 0x1 SSTORE JUMP JUMPDEST PUSH1 0x64 PUSH1 0x40 MLOAD PUSH3 0x461BCD PUSH1 0xE5 SHL DUP2 MSTORE PUSH1 0x20 PUSH1 0x4 DUP3 ADD MSTORE PUSH1 0x1F PUSH1 0x24 DUP3 ADD MSTORE PUSH32 0x5265656E7472616E637947756172643A207265656E7472616E742063616C6C00 PUSH1 0x44 DUP3 ADD MSTORE REVERT JUMPDEST PUSH1 0x0 SWAP3 SWAP5 SWAP4 PUSH2 0x3D88 PUSH1 0x60 SWAP4 PUSH1 0x80 DUP5 MSTORE PUSH1 0x80 DUP5 ADD SWAP1 PUSH2 0x2CEA JUMP JUMPDEST SWAP6 ISZERO ISZERO PUSH1 0x20 DUP4 ADD MSTORE PUSH1 0x40 DUP3 ADD MSTORE ADD MSTORE JUMP JUMPDEST PUSH1 0x60 SWAP1 PUSH2 0x3DB3 PUSH1 0x1 SWAP4 SWAP6 SWAP5 SWAP6 PUSH1 0x80 DUP4 MSTORE PUSH1 0x80 DUP4 ADD SWAP1 PUSH2 0x2CEA JUMP JUMPDEST SWAP5 PUSH1 0x0 PUSH1 0x20 DUP4 ADD MSTORE PUSH1 0x40 DUP3 ADD MSTORE ADD MSTORE JUMP JUMPDEST SWAP2 SWAP1 DUP3 MLOAD SWAP3 DUP4 DUP3 MSTORE PUSH1 0x0 JUMPDEST DUP5 DUP2 LT PUSH2 0x3DF0 JUMPI POP POP DUP3 PUSH1 0x0 PUSH1 0x20 DUP1 SWAP5 SWAP6 DUP5 ADD ADD MSTORE PUSH1 0x1F DUP1 NOT SWAP2 ADD AND ADD ADD SWAP1 JUMP JUMPDEST PUSH1 0x20 DUP2 DUP4 ADD DUP2 ADD MLOAD DUP5 DUP4 ADD DUP3 ADD MSTORE ADD PUSH2 0x3DCF JUMP JUMPDEST PUSH2 0x3E47 SWAP2 PUSH1 0x1 PUSH1 0x1 PUSH1 0xA0 SHL SUB PUSH2 0x3E18 PUSH2 0x3BCE JUMP JUMPDEST AND SWAP2 PUSH1 0x40 MLOAD SWAP3 DUP4 SWAP2 PUSH4 0xD06CA61F PUSH1 0xE0 SHL DUP4 MSTORE PUSH1 0x4 DUP4 ADD MSTORE PUSH1 0x40 PUSH1 0x24 DUP4 ADD MSTORE DUP2 DUP1 PUSH1 0x0 SWAP7 DUP8 SWAP6 PUSH1 0x44 DUP4 ADD SWAP1 PUSH2 0x2CEA JUMP JUMPDEST SUB SWAP2 GAS STATICCALL SWAP1 DUP2 ISZERO PUSH2 0x3EC0 JUMPI DUP3 SWAP2 PUSH2 0x3EA6 JUMPI JUMPDEST POP DUP1 MLOAD PUSH1 0x0 NOT DUP2 ADD SWAP2 SWAP1 DUP3 GT PUSH2 0x3CAD JUMPI SWAP1 PUSH2 0x3E73 SWAP2 PUSH2 0x2BD7 JUMP JUMPDEST MLOAD SWAP1 PUSH1 0xB SLOAD SWAP2 PUSH2 0x2710 SWAP3 DUP4 SUB SWAP2 DUP4 DUP4 GT PUSH2 0x3E92 JUMPI POP SWAP1 PUSH2 0x3B79 SWAP2 PUSH2 0x2B34 JUMP JUMPDEST DUP1 PUSH4 0x4E487B71 PUSH1 0xE0 SHL PUSH1 0x24 SWAP3 MSTORE PUSH1 0x11 PUSH1 0x4 MSTORE REVERT JUMPDEST PUSH2 0x3EBA SWAP2 POP RETURNDATASIZE DUP1 DUP5 DUP4 RETURNDATACOPY PUSH2 0x170F DUP2 DUP4 PUSH2 0x294D JUMP JUMPDEST CODESIZE PUSH2 0x3E59 JUMP JUMPDEST PUSH1 0x40 MLOAD RETURNDATASIZE DUP5 DUP3 RETURNDATACOPY RETURNDATASIZE SWAP1 REVERT JUMPDEST PUSH2 0x3E47 SWAP2 PUSH1 0x1 PUSH1 0x1 PUSH1 0xA0 SHL SUB PUSH2 0x3E18 PUSH2 0x3BF0 JUMP INVALID LOG2 PUSH5 0x6970667358 0x22 SLT KECCAK256 SGT MOD PUSH19 0x9D2278E3373071C948E15DE041F450DA244DE PUSH5 0x2C76A5271D SIGNEXTEND SWAP8 0xE9 0x26 PUSH5 0x736F6C6343 STOP ADDMOD XOR STOP CALLER "},"methodIdentifiers":{"AAVE_POOL_ARBITRUM()":"ed6f1f4c","AAVE_POOL_OPTIMISM()":"3cd3d2ec","MAX_GAS_FUNDING_PERCENTAGE()":"acfcc895","MAX_SLIPPAGE()":"f9759518","MIN_PROFIT_BPS()":"507a2291","SUSHI_ROUTER_NEW()":"004670f1","SUSHI_ROUTER_OPT()":"15482ab2","UNI_V2_ROUTER_NEW()":"18d0b3ce","UNI_V2_ROUTER_OPT()":"3c988982","USDC()":"89a30271","USDT()":"c54e44eb","WBTC()":"4dede3de","WETH()":"ad5c4648","aavePool()":"a03e4bc3","authorizedCallers(address)":"536fff6c","currentChainId()":"6cbadbfa","disableGasFunding()":"7448f575","emergencyWithdraw(address)":"6ff1c9bc","executeArb(address,uint256,address[],bool,uint256)":"c69aec56","executeBatchArbitrage(((address,uint96,address,address,bool,uint32,uint32)[],uint256))":"d138b28e","executeOperation(address,uint256,uint256,address,bytes)":"1b11d0ff","executeTriangularArb(address,uint256,address[],uint256)":"ee9ed9d7","gasFundingPercentage()":"c257cdc3","gasFundingWallet()":"dad0b87c","getGasFundingStats()":"c6265576","getOptimalProvider(address,uint256)":"a6fed78e","isArbitrum()":"29f2c8f0","isOptimism()":"ec961a05","minProfitBps()":"383aeeae","owner()":"8da5cb5b","pause()":"8456cb59","paused()":"5c975abb","priceFeeds(address)":"9dcb511a","receiveFlashLoan(address[],uint256[],uint256[],bytes)":"f04f2707","renounceOwnership()":"715018a6","setAuthorizedCaller(address,bool)":"454bbd29","setGasFundingPercentage(uint256)":"c2dd302b","setGasFundingWallet(address)":"d66d5b08","setMinProfitBps(uint256)":"fcff2c28","setPriceFeed(address,address)":"76e11286","setSlippageTolerance(uint256)":"117da1ee","simulateArbitrage(address,uint256,address[],bool)":"c01f2524","simulateTriangularArbitrage(address,uint256,address[])":"277dd7e0","slippageTolerance()":"d03153aa","sushiRouter()":"6d13582c","sushiRouterNew()":"ea046659","totalGasFundingTransferred()":"314cce8a","transferOwnership(address)":"f2fde38b","uniRouter()":"a0e47bf6","uniV2RouterNew()":"3b9debf6","uniV3Quoter()":"795674ff","unpause()":"3f4ba83a","vault()":"fbfa77cf","withdraw(address)":"51cff8d9"}}}}}