{"contracts/test/MockPriceFeed.sol":{"MockPriceFeed":{"abi":[{"inputs":[],"stateMutability":"nonpayable","type":"constructor"},{"inputs":[],"name":"latestRoundData","outputs":[{"internalType":"uint80","name":"roundId","type":"uint80"},{"internalType":"int256","name":"answer","type":"int256"},{"internalType":"uint256","name":"startedAt","type":"uint256"},{"internalType":"uint256","name":"updatedAt","type":"uint256"},{"internalType":"uint80","name":"answeredInRound","type":"uint80"}],"stateMutability":"view","type":"function"},{"inputs":[{"internalType":"int256","name":"price","type":"int256"}],"name":"setPrice","outputs":[],"stateMutability":"nonpayable","type":"function"}],"evm":{"bytecode":{"linkReferences":{},"object":"6080806040523461002257642e90edd0006000554260015560be90816100288239f35b600080fdfe6080806040526004361015601257600080fd5b600090813560e01c8063f7a308061460695763feaf968c14603257600080fd5b346065578160031936011260655760a0915460015490600183526020830152806040830152606082015260016080820152f35b5080fd5b8234608557602036600319011260855760043581554260015580f35b80fdfea2646970667358221220bdcaece2c6735d425f7d0989ae7e171c37d23bed65258dbef90ee1a3029165c864736f6c63430008180033","opcodes":"PUSH1 0x80 DUP1 PUSH1 0x40 MSTORE CALLVALUE PUSH2 0x22 JUMPI PUSH5 0x2E90EDD000 PUSH1 0x0 SSTORE TIMESTAMP PUSH1 0x1 SSTORE PUSH1 0xBE SWAP1 DUP2 PUSH2 0x28 DUP3 CODECOPY RETURN JUMPDEST PUSH1 0x0 DUP1 REVERT INVALID PUSH1 0x80 DUP1 PUSH1 0x40 MSTORE PUSH1 0x4 CALLDATASIZE LT ISZERO PUSH1 0x12 JUMPI PUSH1 0x0 DUP1 REVERT JUMPDEST PUSH1 0x0 SWAP1 DUP2 CALLDATALOAD PUSH1 0xE0 SHR DUP1 PUSH4 0xF7A30806 EQ PUSH1 0x69 JUMPI PUSH4 0xFEAF968C EQ PUSH1 0x32 JUMPI PUSH1 0x0 DUP1 REVERT JUMPDEST CALLVALUE PUSH1 0x65 JUMPI DUP2 PUSH1 0x3 NOT CALLDATASIZE ADD SLT PUSH1 0x65 JUMPI PUSH1 0xA0 SWAP2 SLOAD PUSH1 0x1 SLOAD SWAP1 PUSH1 0x1 DUP4 MSTORE PUSH1 0x20 DUP4 ADD MSTORE DUP1 PUSH1 0x40 DUP4 ADD MSTORE PUSH1 0x60 DUP3 ADD MSTORE PUSH1 0x1 PUSH1 0x80 DUP3 ADD MSTORE RETURN JUMPDEST POP DUP1 REVERT JUMPDEST DUP3 CALLVALUE PUSH1 0x85 JUMPI PUSH1 0x20 CALLDATASIZE PUSH1 0x3 NOT ADD SLT PUSH1 0x85 JUMPI PUSH1 0x4 CALLDATALOAD DUP2 SSTORE TIMESTAMP PUSH1 0x1 SSTORE DUP1 RETURN JUMPDEST DUP1 REVERT INVALID LOG2 PUSH5 0x6970667358 0x22 SLT KECCAK256 0xBD 0xCA 0xEC 0xE2 0xC6 PUSH20 0x5D425F7D0989AE7E171C37D23BED65258DBEF90E 0xE1 LOG3 MUL SWAP2 PUSH6 0xC864736F6C63 NUMBER STOP ADDMOD XOR STOP CALLER "},"methodIdentifiers":{"latestRoundData()":"feaf968c","setPrice(int256)":"f7a30806"}}}}}