{"contracts/FlashArbBotBalancer.sol":{"FlashArbBotBalancer":{"abi":[{"inputs":[{"internalType":"address","name":"_vault","type":"address"},{"internalType":"address","name":"_sushiRouter","type":"address"},{"internalType":"address","name":"_uniRouter","type":"address"},{"internalType":"address","name":"_uniV3Quoter","type":"address"}],"stateMutability":"nonpayable","type":"constructor"},{"anonymous":false,"inputs":[{"indexed":true,"internalType":"address","name":"asset","type":"address"},{"indexed":false,"internalType":"uint256","name":"amount","type":"uint256"},{"indexed":false,"internalType":"uint256","name":"profit","type":"uint256"},{"indexed":false,"internalType":"bool","name":"sushiFirst","type":"bool"}],"name":"ArbitrageExecuted","type":"event"},{"anonymous":false,"inputs":[{"indexed":false,"internalType":"uint256","name":"tradesCount","type":"uint256"},{"indexed":false,"internalType":"uint256","name":"totalProfit","type":"uint256"}],"name":"BatchArbitrageExecuted","type":"event"},{"anonymous":false,"inputs":[{"indexed":true,"internalType":"uint256","name":"chainId","type":"uint256"},{"indexed":true,"internalType":"address","name":"asset","type":"address"},{"indexed":false,"internalType":"uint256","name":"spread","type":"uint256"},{"indexed":false,"internalType":"uint256","name":"estimatedProfit","type":"uint256"}],"name":"CrossChainOpportunityDetected","type":"event"},{"anonymous":false,"inputs":[{"indexed":false,"internalType":"enum FlashArbBotBalancer.FlashLoanProvider","name":"provider","type":"uint8"},{"indexed":false,"internalType":"address","name":"asset","type":"address"},{"indexed":false,"internalType":"uint256","name":"amount","type":"uint256"}],"name":"FlashLoanProviderSelected","type":"event"},{"anonymous":false,"inputs":[{"indexed":true,"internalType":"address","name":"newGasFundingWallet","type":"address"},{"indexed":false,"internalType":"uint256","name":"newPercentage","type":"uint256"}],"name":"GasFundingConfigUpdated","type":"event"},{"anonymous":false,"inputs":[{"indexed":true,"internalType":"address","name":"token","type":"address"},{"indexed":false,"internalType":"uint256","name":"amount","type":"uint256"},{"indexed":true,"internalType":"address","name":"gasFundingWallet","type":"address"}],"name":"GasFundingTransfer","type":"event"},{"anonymous":false,"inputs":[{"indexed":true,"internalType":"address","name":"previousOwner","type":"address"},{"indexed":true,"internalType":"address","name":"newOwner","type":"address"}],"name":"OwnershipTransferred","type":"event"},{"anonymous":false,"inputs":[{"indexed":false,"internalType":"address","name":"account","type":"address"}],"name":"Paused","type":"event"},{"anonymous":false,"inputs":[{"indexed":true,"internalType":"address","name":"oldWallet","type":"address"},{"indexed":true,"internalType":"address","name":"newWallet","type":"address"}],"name":"ProfitWalletUpdated","type":"event"},{"anonymous":false,"inputs":[{"indexed":true,"internalType":"address","name":"token","type":"address"},{"indexed":false,"internalType":"uint256","name":"amount","type":"uint256"}],"name":"ProfitWithdrawn","type":"event"},{"anonymous":false,"inputs":[{"indexed":true,"internalType":"address","name":"tokenA","type":"address"},{"indexed":true,"internalType":"address","name":"tokenB","type":"address"},{"indexed":true,"internalType":"address","name":"tokenC","type":"address"},{"indexed":false,"internalType":"uint256","name":"amount","type":"uint256"},{"indexed":false,"internalType":"uint256","name":"profit","type":"uint256"}],"name":"TriangularArbitrageExecuted","type":"event"},{"anonymous":false,"inputs":[{"indexed":false,"internalType":"address","name":"account","type":"address"}],"name":"Unpaused","type":"event"},{"inputs":[],"name":"AAVE_POOL_ARBITRUM","outputs":[{"internalType":"address","name":"","type":"address"}],"stateMutability":"view","type":"function"},{"inputs":[],"name":"AAVE_POOL_OPTIMISM","outputs":[{"internalType":"address","name":"","type":"address"}],"stateMutability":"view","type":"function"},{"inputs":[],"name":"MAX_GAS_FUNDING_PERCENTAGE","outputs":[{"internalType":"uint256","name":"","type":"uint256"}],"stateMutability":"view","type":"function"},{"inputs":[],"name":"MAX_SLIPPAGE","outputs":[{"internalType":"uint256","name":"","type":"uint256"}],"stateMutability":"view","type":"function"},{"inputs":[],"name":"MIN_PROFIT_BPS","outputs":[{"internalType":"uint256","name":"","type":"uint256"}],"stateMutability":"view","type":"function"},{"inputs":[],"name":"SUSHI_ROUTER_NEW","outputs":[{"internalType":"address","name":"","type":"address"}],"stateMutability":"view","type":"function"},{"inputs":[],"name":"SUSHI_ROUTER_OPT","outputs":[{"internalType":"address","name":"","type":"address"}],"stateMutability":"view","type":"function"},{"inputs":[],"name":"UNI_V2_ROUTER_NEW","outputs":[{"internalType":"address","name":"","type":"address"}],"stateMutability":"view","type":"function"},{"inputs":[],"name":"UNI_V2_ROUTER_OPT","outputs":[{"internalType":"address","name":"","type":"address"}],"stateMutability":"view","type":"function"},{"inputs":[],"name":"USDC","outputs":[{"internalType":"address","name":"","type":"address"}],"stateMutability":"view","type":"function"},{"inputs":[],"name":"USDT","outputs":[{"internalType":"address","name":"","type":"address"}],"stateMutability":"view","type":"function"},{"inputs":[],"name":"WBTC","outputs":[{"internalType":"address","name":"","type":"address"}],"stateMutability":"view","type":"function"},{"inputs":[],"name":"WETH","outputs":[{"internalType":"address","name":"","type":"address"}],"stateMutability":"view","type":"function"},{"inputs":[],"name":"aavePool","outputs":[{"internalType":"contract IPool","name":"","type":"address"}],"stateMutability":"view","type":"function"},{"inputs":[{"internalType":"address","name":"","type":"address"}],"name":"authorizedCallers","outputs":[{"internalType":"bool","name":"","type":"bool"}],"stateMutability":"view","type":"function"},{"inputs":[],"name":"currentChainId","outputs":[{"internalType":"uint256","name":"","type":"uint256"}],"stateMutability":"view","type":"function"},{"inputs":[],"name":"disableGasFunding","outputs":[],"stateMutability":"nonpayable","type":"function"},{"inputs":[{"internalType":"address","name":"token","type":"address"}],"name":"emergencyWithdraw","outputs":[],"stateMutability":"nonpayable","type":"function"},{"inputs":[{"internalType":"address","name":"asset","type":"address"},{"internalType":"uint256","name":"amount","type":"uint256"},{"internalType":"address[]","name":"path","type":"address[]"},{"internalType":"bool","name":"sushiFirst","type":"bool"},{"internalType":"uint256","name":"expectedProfit","type":"uint256"}],"name":"executeArb","outputs":[],"stateMutability":"nonpayable","type":"function"},{"inputs":[{"components":[{"components":[{"internalType":"address","name":"asset","type":"address"},{"internalType":"uint96","name":"amount","type":"uint96"},{"internalType":"address","name":"tokenA","type":"address"},{"internalType":"address","name":"tokenB","type":"address"},{"internalType":"bool","name":"sushiFirst","type":"bool"},{"internalType":"uint32","name":"slippageBps","type":"uint32"},{"internalType":"uint32","name":"minProfitBps","type":"uint32"}],"internalType":"struct FlashArbBotBalancer.ArbitrageParams[]","name":"trades","type":"tuple[]"},{"internalType":"uint256","name":"deadline","type":"uint256"}],"internalType":"struct FlashArbBotBalancer.BatchArbitrageParams","name":"params","type":"tuple"}],"name":"executeBatchArbitrage","outputs":[],"stateMutability":"nonpayable","type":"function"},{"inputs":[{"internalType":"address","name":"asset","type":"address"},{"internalType":"uint256","name":"amount","type":"uint256"},{"internalType":"uint256","name":"premium","type":"uint256"},{"internalType":"address","name":"initiator","type":"address"},{"internalType":"bytes","name":"params","type":"bytes"}],"name":"executeOperation","outputs":[{"internalType":"bool","name":"","type":"bool"}],"stateMutability":"nonpayable","type":"function"},{"inputs":[{"internalType":"address","name":"asset","type":"address"},{"internalType":"uint256","name":"amount","type":"uint256"},{"internalType":"address[]","name":"path","type":"address[]"},{"internalType":"uint256","name":"expectedProfit","type":"uint256"}],"name":"executeTriangularArb","outputs":[],"stateMutability":"nonpayable","type":"function"},{"inputs":[],"name":"gasFundingPercentage","outputs":[{"internalType":"uint256","name":"","type":"uint256"}],"stateMutability":"view","type":"function"},{"inputs":[],"name":"gasFundingWallet","outputs":[{"internalType":"address","name":"","type":"address"}],"stateMutability":"view","type":"function"},{"inputs":[],"name":"getGasFundingStats","outputs":[{"internalType":"address","name":"wallet","type":"address"},{"internalType":"uint256","name":"percentage","type":"uint256"},{"internalType":"uint256","name":"totalTransferred","type":"uint256"}],"stateMutability":"view","type":"function"},{"inputs":[{"internalType":"address","name":"asset","type":"address"},{"internalType":"uint256","name":"amount","type":"uint256"}],"name":"getOptimalProvider","outputs":[{"internalType":"enum FlashArbBotBalancer.FlashLoanProvider","name":"provider","type":"uint8"},{"internalType":"uint256","name":"fee","type":"uint256"}],"stateMutability":"view","type":"function"},{"inputs":[],"name":"isArbitrum","outputs":[{"internalType":"bool","name":"","type":"bool"}],"stateMutability":"view","type":"function"},{"inputs":[],"name":"isOptimism","outputs":[{"internalType":"bool","name":"","type":"bool"}],"stateMutability":"view","type":"function"},{"inputs":[],"name":"minProfitBps","outputs":[{"internalType":"uint256","name":"","type":"uint256"}],"stateMutability":"view","type":"function"},{"inputs":[],"name":"owner","outputs":[{"internalType":"address","name":"","type":"address"}],"stateMutability":"view","type":"function"},{"inputs":[],"name":"pause","outputs":[],"stateMutability":"nonpayable","type":"function"},{"inputs":[],"name":"paused","outputs":[{"internalType":"bool","name":"","type":"bool"}],"stateMutability":"view","type":"function"},{"inputs":[{"internalType":"address","name":"","type":"address"}],"name":"priceFeeds","outputs":[{"internalType":"address","name":"","type":"address"}],"stateMutability":"view","type":"function"},{"inputs":[],"name":"profitWallet","outputs":[{"internalType":"address","name":"","type":"address"}],"stateMutability":"view","type":"function"},{"inputs":[{"internalType":"address[]","name":"tokens","type":"address[]"},{"internalType":"uint256[]","name":"amounts","type":"uint256[]"},{"internalType":"uint256[]","name":"feeAmounts","type":"uint256[]"},{"internalType":"bytes","name":"userData","type":"bytes"}],"name":"receiveFlashLoan","outputs":[],"stateMutability":"nonpayable","type":"function"},{"inputs":[],"name":"renounceOwnership","outputs":[],"stateMutability":"nonpayable","type":"function"},{"inputs":[{"internalType":"address","name":"caller","type":"address"},{"internalType":"bool","name":"authorized","type":"bool"}],"name":"setAuthorizedCaller","outputs":[],"stateMutability":"nonpayable","type":"function"},{"inputs":[{"internalType":"uint256","name":"_percentage","type":"uint256"}],"name":"setGasFundingPercentage","outputs":[],"stateMutability":"nonpayable","type":"function"},{"inputs":[{"internalType":"address","name":"_gasFundingWallet","type":"address"}],"name":"setGasFundingWallet","outputs":[],"stateMutability":"nonpayable","type":"function"},{"inputs":[{"internalType":"uint256","name":"_minProfit","type":"uint256"}],"name":"setMinProfitBps","outputs":[],"stateMutability":"nonpayable","type":"function"},{"inputs":[{"internalType":"address","name":"token","type":"address"},{"internalType":"address","name":"feed","type":"address"}],"name":"setPriceFeed","outputs":[],"stateMutability":"nonpayable","type":"function"},{"inputs":[{"internalType":"address","name":"_profitWallet","type":"address"}],"name":"setProfitWallet","outputs":[],"stateMutability":"nonpayable","type":"function"},{"inputs":[{"internalType":"uint256","name":"_slippage","type":"uint256"}],"name":"setSlippageTolerance","outputs":[],"stateMutability":"nonpayable","type":"function"},{"inputs":[{"internalType":"address","name":"asset","type":"address"},{"internalType":"uint256","name":"amount","type":"uint256"},{"internalType":"address[]","name":"path","type":"address[]"},{"internalType":"bool","name":"sushiFirst","type":"bool"}],"name":"simulateArbitrage","outputs":[{"internalType":"uint256","name":"profit","type":"uint256"}],"stateMutability":"view","type":"function"},{"inputs":[{"internalType":"address","name":"asset","type":"address"},{"internalType":"uint256","name":"amount","type":"uint256"},{"internalType":"address[]","name":"path","type":"address[]"}],"name":"simulateTriangularArbitrage","outputs":[{"internalType":"uint256","name":"profit","type":"uint256"}],"stateMutability":"view","type":"function"},{"inputs":[],"name":"slippageTolerance","outputs":[{"internalType":"uint256","name":"","type":"uint256"}],"stateMutability":"view","type":"function"},{"inputs":[],"name":"sushiRouter","outputs":[{"internalType":"contract IUniswapV2Router02","name":"","type":"address"}],"stateMutability":"view","type":"function"},{"inputs":[],"name":"sushiRouterNew","outputs":[{"internalType":"contract IUniswapV2Router02","name":"","type":"address"}],"stateMutability":"view","type":"function"},{"inputs":[],"name":"totalGasFundingTransferred","outputs":[{"internalType":"uint256","name":"","type":"uint256"}],"stateMutability":"view","type":"function"},{"inputs":[{"internalType":"address","name":"newOwner","type":"address"}],"name":"transferOwnership","outputs":[],"stateMutability":"nonpayable","type":"function"},{"inputs":[],"name":"uniRouter","outputs":[{"internalType":"contract IUniswapV2Router02","name":"","type":"address"}],"stateMutability":"view","type":"function"},{"inputs":[],"name":"uniV2RouterNew","outputs":[{"internalType":"contract IUniswapV2Router02","name":"","type":"address"}],"stateMutability":"view","type":"function"},{"inputs":[],"name":"uniV3Quoter","outputs":[{"internalType":"contract IUniswapV3Quoter","name":"","type":"address"}],"stateMutability":"view","type":"function"},{"inputs":[],"name":"unpause","outputs":[],"stateMutability":"nonpayable","type":"function"},{"inputs":[],"name":"vault","outputs":[{"internalType":"contract IBalancerVault","name":"","type":"address"}],"stateMutability":"view","type":"function"},{"inputs":[{"internalType":"address","name":"token","type":"address"}],"name":"withdraw","outputs":[],"stateMutability":"nonpayable","type":"function"}],"evm":{"bytecode":{"linkReferences":{},"object":"6080346200022d57601f6200425638819003918201601f19168301916001600160401b0383118484101762000232578084926080946040528339810103126200022d576200004d8162000248565b6200005b6020830162000248565b90620000786060620000706040860162000248565b940162000248565b906000549360018060a01b03928380928160018060a01b03199733898b161760005560405199823391167f8be0079c531659141344cd1fd0a4f28419497f9722a3daafe3b4186f6b6457e0600080a36001805560025460c8600b55601e600c556103e8601155600897610100600160a81b0390891b169060018060a81b0319161760025516876004541617600455168560055416176005551683600654161760065546600955600a5460ff80600a461416809261ff0061a4b14614861b169061ffff1916171780600a55831c16600014620001c15750734752ba5dbc23f44d87826276bf6fd6b1c372ad2483600754161760075573f2614a233c7c3e7f08b1f887ba133a13f1eb2c558382541617905573794a61358d6845594f94dc1db02a252b5b4814ad8260035416176003555b6000541690600f541617600f55613ff890816200025e8239f35b620001ce575b50620001a7565b734a7b5da61326a6379179b40d00f57e5bbdc962c2836007541617600755732abf469074dc0b54d793850807e6eb5faf2625b18382541617905573794a61358d6845594f94dc1db02a252b5b4814ad82600354161760035538620001c7565b600080fd5b634e487b7160e01b600052604160045260246000fd5b51906001600160a01b03821682036200022d5756fe608080604052600436101561001357600080fd5b60e060003560e01c9182624670f1146128cd57508163117da1ee1461285f57816315482ab21461283057816318d0b3ce146128015781631b11d0ff1461248a5781632301d77514612463578163277dd7e0146120c757816329f2c8f0146120a1578163314cce8a14612083578163383aeeae146120655781633b9debf61461203e5781633c9889821461200f5781633cd3d2ec14610bf65781633f4ba83a14611f73578163454bbd2914611f1b5781634dede3de14611eec578163507a229114611ed057816351cff8d914611d71578163536fff6c14611d325781635c975abb14611d0f5781636cbadbfa14611cf15781636d13582c14611cca5781636ff1c9bc14611be3578163715018a614611b8a5781637448f57514611b2e57816376e1128614611ad3578163795674ff14611aac5781638456cb5914611a5257816389a3027114611a235781638da5cb5b146119fc5781639dcb511a146119c1578163a03e4bc31461199a578163a0e47bf614611973578163a6fed78e1461191e578163acfcc89514611901578163ad5c4648146118d2578163c01f252414611642578163c257cdc314611624578163c2dd302b1461157e578163c54e44eb1461154f578163c626557614611517578163c69aec56146111de578163d03153aa146111c0578163d138b28e14610dd357508063d66d5b0814610d1e578063da2ca9b514610c6c578063dad0b87c14610c45578063ea04665914610c1e578063ec961a0514610bfb578063ed6f1f4c14610bf6578063ee9ed9d7146107ff578063f04f270714610418578063f2fde38b14610340578063f975951814610323578063fbfa77cf146102f95763fcff2c281461028957600080fd5b346102f45760203660031901126102f4576004356102a5612f89565b80156102b057600c55005b606460405162461bcd60e51b815260206004820152601b60248201527f4d696e2070726f666974206d75737420626520706f73697469766500000000006044820152fd5b600080fd5b346102f45760003660031901126102f45760206001600160a01b0360025460081c16604051908152f35b346102f45760003660031901126102f45760206040516101f48152f35b346102f45760203660031901126102f4576103596128fa565b610361612f89565b6001600160a01b038091169081156103ae57600054826001600160a01b0319821617600055167f8be0079c531659141344cd1fd0a4f28419497f9722a3daafe3b4186f6b6457e0600080a3005b608460405162461bcd60e51b815260206004820152602660248201527f4f776e61626c653a206e6577206f776e657220697320746865207a65726f206160448201527f64647265737300000000000000000000000000000000000000000000000000006064820152fd5b346102f45760803660031901126102f45767ffffffffffffffff6004358181116102f45761044a903690600401612952565b91906024358281116102f457610464903690600401612952565b90916044358481116102f45761047e903690600401612952565b90946064359081116102f457610498903690600401612924565b906001600160a01b0360025460081c1633036107bb576104ba91810190612ac0565b9392979194909815610734576104cf90612cce565b9415610734576104e66104e188612ff8565b612b1c565b6040516370a0823160e01b81523060048201526020816024816001600160a01b038a165afa801561071257610790575b50821561077e5761052987873587613610565b604051916370a0823160e01b83523060048401526020836024816001600160a01b038a165afa9283156107125760009361074a575b50156107345761057361058691358735612b67565b826105818280951015612b74565b612bbf565b966105a361271061059a600c548935612c17565b04891015612bcc565b605f810290808204605f149015171561071e57610603916105cb6064602093048a1015612c2a565b60025460405163095ea7b360e01b815260089190911c6001600160a01b03166004820152602481019190915291829081906044820190565b038160006001600160a01b0389165af18015610712576106e3575b5061062986846139ef565b156106955750507f511dc6c70263758503ff9aee3e77f3e7bef3cabee21a4eb0b017e7cf0438f2f260406001600160a01b0361066485612c8d565b5116926001600160a01b036106848161067c88612c9a565b511696612caa565b5116958251913582526020820152a4005b604080519335845260208401959095521515938201939093526001600160a01b03909216917f05625c164577e109e0c8964ab47768b235a36d08f5146dfa9858a382fa5c5efd9150606090a2005b6107049060203d60201161070b575b6106fc8183612a30565b810190612c75565b508661061e565b503d6106f2565b6040513d6000823e3d90fd5b634e487b7160e01b600052601160045260246000fd5b634e487b7160e01b600052603260045260246000fd5b9092506020813d602011610776575b8161076660209383612a30565b810103126102f45751918961055e565b3d9150610759565b61078b84888835886131d5565b610529565b602090813d83116107b4575b6107a68183612a30565b810103126102f45788610516565b503d61079c565b606460405162461bcd60e51b815260206004820152601360248201527f4f6e6c792042616c616e636572207661756c74000000000000000000000000006044820152fd5b346102f4576003196080368201126102f4576108196128fa565b90602491823560443567ffffffffffffffff81116102f45761083f903690600401612952565b9390926064359233600052602094600e865260ff604060002054168015610bdd575b61086a90612e61565b610872613dad565b61087a613dfd565b60048703610b74578615610b5f5761089181612cce565b968060031015610b4a576108be6001600160a01b039889806108b560608701612cce565b16911614612ce2565b6108c9831515612eac565b6108d4861515612ef7565b6108de8385613b56565b6002811015610b3557610a5657906108f7913691612a6a565b946040519661090588612a14565b7ff5ea93fa71a16e89b26b22976590659f91d44ae3f503be2afcd292796d305218606060019560018b528436818d01378361093f8c612c8d565b91168091526040519561095187612a14565b6001875261098b8688019b878d3690378261096b8a612c8d565b5261097d6040519c8d928a8401613e7c565b03601f1981018c528b612a30565b6040519160008352868301526040820152a160025460081c1696873b156102f45791816109dd60809a9897969593946040519b8c9a632e1c224f60e11b8c523060048d01528b015260848a0190612dcd565b91858984030160448a0152519182815201959260005b828110610a4057505050505083610a1a8482946000989694848a9603016064850152613ea7565b03925af1801561071257610a31575b505b60018055005b610a3a906129ce565b80610a29565b845188528a9850968101969381019383016109f3565b606092969598979450610a907ff5ea93fa71a16e89b26b22976590659f91d44ae3f503be2afcd292796d3052189492610aaf923691612a6a565b610aa16040519a8b92898401613e7c565b03601f1981018a5289612a30565b836040519160018352168095820152856040820152a16003541690813b156102f45760008094610b0b604051978896879586946310ac2ddf60e21b8652306004870152850152604484015260a0606484015260a4830190613ea7565b82608483015203925af1801561071257610b26575b50610a2b565b610b2f906129ce565b80610b20565b89634e487b7160e01b60005260216004526000fd5b88634e487b7160e01b60005260326004526000fd5b87634e487b7160e01b60005260326004526000fd5b608486602f8a6040519262461bcd60e51b845260048401528201527f547269616e67756c61722070617468206d7573742068617665203420746f6b6560448201527f6e732028412d3e422d3e432d3e412900000000000000000000000000000000006064820152fd5b5061086a6001600160a01b036000541633149050610861565b612983565b346102f45760003660031901126102f457602060ff600a54166040519015158152f35b346102f45760003660031901126102f45760206001600160a01b0360085416604051908152f35b346102f45760003660031901126102f45760206001600160a01b0360105416604051908152f35b346102f45760203660031901126102f457610c856128fa565b610c8d612f89565b6001600160a01b03809116908115610cda57600f54826001600160a01b0319821617600f55167fe4de69ef21cd49dac1d5fdbf2461976cfbefcb315afbc932a9c0a755068b6489600080a3005b606460405162461bcd60e51b815260206004820152601d60248201527f496e76616c69642070726f6669742077616c6c657420616464726573730000006044820152fd5b346102f45760203660031901126102f4576001600160a01b03610d3f6128fa565b610d47612f89565b168015610d8f57806001600160a01b031960105416176010557f5d4263eb49a8092ea4735dc1e5200292fe3ac3afb2d5d3f3339034efbe9ae4f06020601154604051908152a2005b606460405162461bcd60e51b815260206004820152601a60248201527f496e76616c6964206761732066756e64696e672077616c6c65740000000000006044820152fd5b346102f457600319602036820181136102f45767ffffffffffffffff906004358281116102f4576040816004019482360301126102f457610e12613dfd565b610e1a613dad565b33600052600e825260ff6040600020541680156111a7575b610e3b90612e61565b602480910135421161116457610e518480612f42565b90501561112157600a610e648580612f42565b9050116110de57600092835b610e7a8680612f42565b905085101561105157610e8d8680612f42565b86101561103c578786020187813603126102f4576040518881018181108582111761102757604052610ebe82612910565b91828252868101356bffffffffffffffffffffffff811681036102f45787830152610eeb60408201612910565b60408301526060610efd818301612910565b908301526080610f0e8183016129c1565b9083015260a0610f1f818301612f78565b90830152610f3060c0809201612f78565b908201526001600160a01b036040519087828881846370a0823160e01b98898352306004840152165afa928315610712578892600094610ff6575b50511692866040518095819382523060048301525afa91821561071257600092610fc4575b5091610fb291600193808211600014610fba57610fac91612bbf565b90612b67565b940193610e70565b5050600090612b67565b9150918582813d8311610fef575b610fdc8183612a30565b810103126102f457905190916001610f90565b503d610fd2565b8381949295503d8311611020575b61100e8183612a30565b810103126102f457879151928c610f6b565b503d611004565b85634e487b7160e01b60005260416004526000fd5b83634e487b7160e01b60005260326004526000fd5b838684831561109b577fcccf891412a70ad9fb0665c9d1959b16f1232c4dfd1a529b5528b3e1e7e59357604084866110898680612f42565b9290508351928352820152a160018055005b8260146064926040519262461bcd60e51b845260048401528201527f4261746368206e6f742070726f66697461626c650000000000000000000000006044820152fd5b90600f6064926040519262461bcd60e51b845260048401528201527f546f6f206d616e792074726164657300000000000000000000000000000000006044820152fd5b9060126064926040519262461bcd60e51b845260048401528201527f4e6f207472616465732070726f766964656400000000000000000000000000006044820152fd5b9060136064926040519262461bcd60e51b845260048401528201527f5472616e73616374696f6e2065787069726564000000000000000000000000006044820152fd5b50610e3b6001600160a01b036000541633149050610e32565b346102f45760003660031901126102f4576020600b54604051908152f35b346102f45760031960a0368201126102f4576111f86128fa565b6024359060443567ffffffffffffffff81116102f45761121c903690600401612952565b9190936112276129b2565b936084359433600052602094600e865260ff6040600020541680156114fe575b61125090612e61565b611258613dad565b611260613dfd565b600281106114ba57611273831515612eac565b61127e871515612ef7565b6112888386613b56565b60028110156114a4576113e6578596976112a3913691612a6a565b937ff5ea93fa71a16e89b26b22976590659f91d44ae3f503be2afcd292796d3052186060604051998a956112d687612a14565b6113408a6113326112f260019a60018152833681830137612c8d565b946001600160a01b038099168096526040519961130e8b612a14565b60018b52838b019e8f369037856113248c612c8d565b526040519d8e948501613e52565b03601f1981018b528a612a30565b60405191600083528b8301526040820152a160025460081c1695863b156102f4579091611393979594939282604051998a98632e1c224f60e11b8a523060048b0152608060248b015260848a0190612dcd565b91858984030160448a0152519182815201959260005b8281106113d057505050505083610a1a8482946000989694848a9603016064850152613ea7565b845188528a9850968101969381019383016113a9565b61141b935061140d91959692976113fe913691612a6a565b91604051958693888501613e52565b03601f198101845283612a30565b7ff5ea93fa71a16e89b26b22976590659f91d44ae3f503be2afcd292796d3052186060604051600181526001600160a01b038094168096820152866040820152a160035416803b156102f457610b0b9360008094604051968795869485936310ac2ddf60e21b85523060048601526024850152604484015260a0606484015260a4830190613ea7565b634e487b7160e01b600052602160045260246000fd5b6064866040519062461bcd60e51b82526004820152600c60248201527f496e76616c6964207061746800000000000000000000000000000000000000006044820152fd5b506112506001600160a01b036000541633149050611247565b346102f45760003660031901126102f45760606001600160a01b03601054166011546012549060405192835260208301526040820152f35b346102f45760003660031901126102f457602060405173fd086bc7cd5c481dcc9c85ebe478a1c0b69fcbb98152f35b346102f45760203660031901126102f45760043561159a612f89565b61138881116115e057806011557f5d4263eb49a8092ea4735dc1e5200292fe3ac3afb2d5d3f3339034efbe9ae4f060206001600160a01b036010541692604051908152a2005b606460405162461bcd60e51b815260206004820152601360248201527f50657263656e7461676520746f6f2068696768000000000000000000000000006044820152fd5b346102f45760003660031901126102f4576020601154604051908152f35b346102f45760803660031901126102f45761165b6128fa565b506024803560443567ffffffffffffffff81116102f457611680903690600401612952565b908261168a6129b2565b61169381613cf5565b9361169e8215613cf5565b9115611817576001600160a01b03600060405180978184816116d0888c63d06ca61f60e01b9c8d855260048501612e0a565b0392165afa958615610712576000966117fa575b5085516000198101969087116117e55761171360009661170a61173a9961171894612cba565b51943691612a6a565b613d13565b93604051968795869485938452600484015260408b8401526044830190612dcd565b0392165afa908115610712576000916117c2575b505b80516000198101919082116117ad579061176991612cba565b51818111156117a25761177f8261178592612bbf565b91613bf0565b90818111156117a25760209161179a91612bbf565b604051908152f35b50506020600061179a565b83634e487b7160e01b60005260116004526000fd5b6117df91503d806000833e6117d78183612a30565b810190612d53565b8361174e565b88634e487b7160e01b60005260116004526000fd5b6118109196503d806000833e6117d78183612a30565b94886116e4565b6001600160a01b0394919460006040518097818481611846888c63d06ca61f60e01b9c8d855260048501612e0a565b0392165afa958615610712576000966118b5575b5085516000198101969087116117e55761171360009661170a6118809961171894612cba565b0392165afa9081156107125760009161189a575b50611750565b6118af91503d806000833e6117d78183612a30565b83611894565b6118cb9196503d806000833e6117d78183612a30565b948861185a565b346102f45760003660031901126102f45760206040517382af49447d8a07e3bd95bd0d56f35241523fbab18152f35b346102f45760003660031901126102f45760206040516113888152f35b346102f45760403660031901126102f4576119376128fa565b6119446024358092613b56565b60028110156114a45760409181611965575060005b82519182526020820152f35b61196e90613bf0565b611959565b346102f45760003660031901126102f45760206001600160a01b0360055416604051908152f35b346102f45760003660031901126102f45760206001600160a01b0360035416604051908152f35b346102f45760203660031901126102f45760206001600160a01b03806119e56128fa565b16600052600d825260406000205416604051908152f35b346102f45760003660031901126102f45760206001600160a01b0360005416604051908152f35b346102f45760003660031901126102f457602060405173ff970a61a04b1ca14834a43f5de4533ebddb5cc88152f35b346102f45760003660031901126102f457611a6b612f89565b611a73613dad565b600160ff1960025416176002557f62e78cea01bee320cd4e420270b5ea74000d11b0c9f74754ebdbfc544b05a2586020604051338152a1005b346102f45760003660031901126102f45760206001600160a01b0360065416604051908152f35b346102f45760403660031901126102f457611aec6128fa565b602435906001600160a01b03908183168093036102f457611b0b612f89565b16600052600d6020526040600020906001600160a01b0319825416179055600080f35b346102f45760003660031901126102f457611b47612f89565b6001600160a01b031960105416601055600060115560007f5d4263eb49a8092ea4735dc1e5200292fe3ac3afb2d5d3f3339034efbe9ae4f06020604051838152a2005b346102f45760003660031901126102f457611ba3612f89565b60006001600160a01b0381546001600160a01b031981168355167f8be0079c531659141344cd1fd0a4f28419497f9722a3daafe3b4186f6b6457e08280a3005b346102f4576020806003193601126102f457611bfd6128fa565b611c05612f89565b6001600160a01b03809116906040516370a0823160e01b81523060048201528381602481865afa90811561071257600091611c9d575b5080611c4357005b600f5460405163a9059cbb60e01b815292166001600160a01b0316600483015260248201529082908290816000816044810103925af1801561071257611c8557005b81611c9b92903d1061070b576106fc8183612a30565b005b90508381813d8311611cc3575b611cb48183612a30565b810103126102f4575184611c3b565b503d611caa565b346102f45760003660031901126102f45760206001600160a01b0360045416604051908152f35b346102f45760003660031901126102f4576020600954604051908152f35b346102f45760003660031901126102f457602060ff600254166040519015158152f35b346102f45760203660031901126102f4576001600160a01b03611d536128fa565b16600052600e602052602060ff604060002054166040519015158152f35b346102f4576020806003193601126102f457611d8b6128fa565b90611d94612f89565b6040516370a0823160e01b81523060048201526001600160a01b03928316928282602481875afa91821561071257600092611ea1575b508115611e5d57600f5460405163a9059cbb60e01b815291166001600160a01b031660048201526024810182905291908183806044810103816000885af1928315610712577f016e128b6bdadd9e9068abd0b18db2fc8b27ed3dbced50e4aa6cc0a6934251ab93611e40575b50604051908152a2005b611e5690833d851161070b576106fc8183612a30565b5084611e36565b6064836040519062461bcd60e51b82526004820152601660248201527f4e6f2062616c616e636520746f207769746864726177000000000000000000006044820152fd5b9091508281813d8311611ec9575b611eb98183612a30565b810103126102f457519084611dca565b503d611eaf565b346102f45760003660031901126102f457602060405160328152f35b346102f45760003660031901126102f4576020604051732f2a2543b76a4166549f7aab2e75bef0aefc5b0f8152f35b346102f45760403660031901126102f457611f346128fa565b602435908115158092036102f4576001600160a01b0390611f53612f89565b16600052600e60205260406000209060ff80198354169116179055600080f35b346102f45760003660031901126102f457611f8c612f89565b60025460ff811615611fcb5760ff19166002557f5db9ee0a495bf2e6ff9c91a7834c1ba4fdd244a5e8aa4e537bd38aeae4b073aa6020604051338152a1005b606460405162461bcd60e51b815260206004820152601460248201527f5061757361626c653a206e6f74207061757365640000000000000000000000006044820152fd5b346102f45760003660031901126102f4576020604051734a7b5da61326a6379179b40d00f57e5bbdc962c28152f35b346102f45760003660031901126102f45760206001600160a01b0360075416604051908152f35b346102f45760003660031901126102f4576020600c54604051908152f35b346102f45760003660031901126102f4576020601254604051908152f35b346102f45760003660031901126102f457602060ff600a5460081c166040519015158152f35b346102f45760603660031901126102f4576120e06128fa565b506024803560443567ffffffffffffffff81116102f457612105903690600401612952565b90600482036123f957811561103c5761211d81612cce565b9082600310156123e4576121416001600160a01b039283806108b560608601612cce565b6040519261214e846129f8565b60028452604036602086013761216382612cce565b8361216d86612c8d565b9116905280600110156123cf57602082019161218883612cce565b8461219287612c9a565b9116905283600754169086600060408a6121ca82519a8b93849363d06ca61f60e01b9788865260048601528401526044830190612dcd565b0381865afa968715610712576000976123b2575b508651600019979088810190811161239d576121f991612cba565b519361221c6040519661220b886129f8565b6002885260403660208a0137612cce565b8761222688612c8d565b9116905260021015610b4a57600060408084019561224387612cce565b8961224d8a612c9a565b911690528b89600854169161227984519a8b95869485948a865260048601528401526044830190612dcd565b03915afa94851561071257600095612380575b5084519587870196871161236b576122e26122ac61231198600098612cba565b51936122cf604051976122be896129f8565b6002895260403660208b0137612cce565b836122d989612c8d565b91169052612cce565b906122ec86612c9a565b91169052604051958694859384938452600484015260408b8401526044830190612dcd565b03915afa90811561071257600091612350575b5080519182019182116117ad579061233b91612cba565b51818111156117a25760209161179a91612bbf565b61236591503d806000833e6117d78183612a30565b84612324565b89634e487b7160e01b60005260116004526000fd5b6123969195503d806000833e6117d78183612a30565b938961228c565b8a634e487b7160e01b60005260116004526000fd5b6123c89197503d806000833e6117d78183612a30565b95896121de565b85634e487b7160e01b60005260326004526000fd5b84634e487b7160e01b60005260326004526000fd5b60848460226040519162461bcd60e51b8352602060048401528201527f547269616e67756c61722070617468206d7573742068617665203420746f6b6560448201527f6e730000000000000000000000000000000000000000000000000000000000006064820152fd5b346102f45760003660031901126102f45760206001600160a01b03600f5416604051908152f35b346102f45760a03660031901126102f4576124a36128fa565b602490604435906001600160a01b038335606435828116908190036102f45760843567ffffffffffffffff81116102f4576124e2903690600401612924565b9091846003541633036127bd573003612779579061250291810190612ac0565b909792956125126104e188612ff8565b85811693604051996370a0823160e01b91828c523060048d015260209b8c8183818b5afa908115610712578d91612750575b5050841561273f576125578a8986613610565b6040519283523060048401528b8382818a5afa928315610712578b9060009461270b575b506125b361259d61258f6125bb938c612b67565b866105818280991015612b74565b9c6127106125ad600c548d612c17565b04612b67565b8c1015612bcc565b605a820291808304605a14901517156126f7575061261a92916125e460648d93048c1015612c2a565b8860035416604051948592839263095ea7b360e01b845260048401602090939291936001600160a01b0360408201951681520152565b03816000895af190811561071257612639928a926126da575b506139ef565b1561269557505060407f511dc6c70263758503ff9aee3e77f3e7bef3cabee21a4eb0b017e7cf0438f2f2918361266e86612c8d565b51169361267e8161067c88612c9a565b511695825191825287820152a45b60405160018152f35b6040805193845260208401969096521515948201949094527f05625c164577e109e0c8964ab47768b235a36d08f5146dfa9858a382fa5c5efd925060609150a261268c565b6126f0908c8d3d1061070b576106fc8183612a30565b508b612633565b634e487b7160e01b60005260116004526000fd5b8094508d8092503d8311612738575b6127248183612a30565b810103126102f4579151918a6125b361257b565b503d61271a565b61274b868b8a876131d5565b612557565b813d8311612772575b6127638183612a30565b810103126102f4578b8d612544565b503d612759565b60648760116040519162461bcd60e51b8352602060048401528201527f496e76616c696420696e69746961746f720000000000000000000000000000006044820152fd5b606488600e6040519162461bcd60e51b8352602060048401528201527f4f6e6c79204161766520706f6f6c0000000000000000000000000000000000006044820152fd5b346102f45760003660031901126102f4576020604051734752ba5dbc23f44d87826276bf6fd6b1c372ad248152f35b346102f45760003660031901126102f4576020604051732abf469074dc0b54d793850807e6eb5faf2625b18152f35b346102f45760203660031901126102f45760043561287b612f89565b6101f4811161288957600b55005b606460405162461bcd60e51b815260206004820152601160248201527f536c69707061676520746f6f20686967680000000000000000000000000000006044820152fd5b346102f45760003660031901126102f4578073f2614a233c7c3e7f08b1f887ba133a13f1eb2c5560209252f35b600435906001600160a01b03821682036102f457565b35906001600160a01b03821682036102f457565b9181601f840112156102f45782359167ffffffffffffffff83116102f457602083818601950101116102f457565b9181601f840112156102f45782359167ffffffffffffffff83116102f4576020808501948460051b0101116102f457565b346102f45760003660031901126102f457602060405173794a61358d6845594f94dc1db02a252b5b4814ad8152f35b6064359081151582036102f457565b359081151582036102f457565b67ffffffffffffffff81116129e257604052565b634e487b7160e01b600052604160045260246000fd5b6060810190811067ffffffffffffffff8211176129e257604052565b6040810190811067ffffffffffffffff8211176129e257604052565b90601f8019910116810190811067ffffffffffffffff8211176129e257604052565b67ffffffffffffffff81116129e25760051b60200190565b9291612a7582612a52565b91612a836040519384612a30565b829481845260208094019160051b81019283116102f457905b828210612aa95750505050565b838091612ab584612910565b815201910190612a9c565b91906080838203126102f457823567ffffffffffffffff81116102f45783019080601f830112156102f457816020612afa93359101612a6a565b91612b07602082016129c1565b91612b196060604084013593016129c1565b90565b15612b2357565b606460405162461bcd60e51b815260206004820152601260248201527f496e76616c6964207072696365206665656400000000000000000000000000006044820152fd5b9190820180921161071e57565b15612b7b57565b606460405162461bcd60e51b815260206004820152600c60248201527f556e70726f66697461626c6500000000000000000000000000000000000000006044820152fd5b9190820391821161071e57565b15612bd357565b606460405162461bcd60e51b815260206004820152600e60248201527f50726f66697420746f6f206c6f770000000000000000000000000000000000006044820152fd5b8181029291811591840414171561071e57565b15612c3157565b606460405162461bcd60e51b815260206004820152601960248201527f50726f66697420646576696174696f6e20746f6f2068696768000000000000006044820152fd5b908160209103126102f4575180151581036102f45790565b8051156107345760200190565b8051600110156107345760400190565b8051600210156107345760600190565b80518210156107345760209160051b010190565b356001600160a01b03811681036102f45790565b15612ce957565b608460405162461bcd60e51b815260206004820152602760248201527f50617468206d75737420737461727420616e6420656e6420776974682073616d60448201527f6520746f6b656e000000000000000000000000000000000000000000000000006064820152fd5b60209081818403126102f45780519067ffffffffffffffff82116102f457019180601f840112156102f4578251612d8981612a52565b93612d976040519586612a30565b818552838086019260051b8201019283116102f4578301905b828210612dbe575050505090565b81518152908301908301612db0565b90815180825260208080930193019160005b828110612ded575050505090565b83516001600160a01b031685529381019392810192600101612ddf565b606090939192936040810193815282602094604060208401525201929160005b828110612e38575050505090565b9091929382806001926001600160a01b03612e5289612910565b16815201950193929101612e2a565b15612e6857565b606460405162461bcd60e51b815260206004820152600e60248201527f4e6f7420617574686f72697a65640000000000000000000000000000000000006044820152fd5b15612eb357565b606460405162461bcd60e51b815260206004820152601760248201527f416d6f756e74206d75737420626520706f7369746976650000000000000000006044820152fd5b15612efe57565b606460405162461bcd60e51b815260206004820152602060248201527f45787065637465642070726f666974206d75737420626520706f7369746976656044820152fd5b903590601e19813603018212156102f4570180359067ffffffffffffffff82116102f4576020019160e08202360383136102f457565b359063ffffffff821682036102f457565b6001600160a01b03600054163303612f9d57565b606460405162461bcd60e51b815260206004820152602060248201527f4f776e61626c653a2063616c6c6572206973206e6f7420746865206f776e65726044820152fd5b519069ffffffffffffffffffff821682036102f457565b60005b8151811015613196576001600160a01b03806130178385612cba565b5116600052600d60208181526040928084600020541661303e575b50505050600101612ffb565b806130498688612cba565b51166000528282528360002054169280518080957ffeaf968c00000000000000000000000000000000000000000000000000000000825260a091829160049889915afa91821561318b576000918293613138575b5050600012156130f8576130b4610e109142612bbf565b106130325760649450519262461bcd60e51b845283015260248201527f507269636520746f6f206f6c64000000000000000000000000000000000000006044820152fd5b5060649450519262461bcd60e51b845283015260248201527f496e76616c6964207072696365000000000000000000000000000000000000006044820152fd5b90809350813d8311613184575b61314f8183612a30565b81010312613181575061316181612fe1565b50600083820151613179608060608501519401612fe1565b50903861309d565b80fd5b503d613145565b83513d6000823e3d90fd5b5050600190565b916080936131ca916001600160a01b0393989796988552602085015260a0604085015260a0840190612dcd565b951660608201520152565b600480546040805163095ea7b360e01b8082526001600160a01b0393841682860152602482018790526000989697929693959093602092909187169083816044818e865af180156135cc576135f3575b508883898c898961325c8d6005541694519687958694859485528401602090939291936001600160a01b0360408201951681520152565b0391865af180156135cc576135d6575b508883898c89896132a38d6007541694519687958694859485528401602090939291936001600160a01b0360408201951681520152565b0391865af180156135cc578a9285928b926135af575b50888d896132ed8d6008541695519788968795869485528401602090939291936001600160a01b0360408201951681520152565b03925af1801561346a57613592575b50156134a15761330c8288613fae565b9285613316613cd3565b169761012c420198894211613474578a9182918b8b519485809481938d8c6338ed173960e01b9e8f8652309286019461334e9561319d565b03925af190811561346a578a91613487575b50805160001981019190821161347457926133808193928a979695612cba565b51958692888d8b61339089612c9a565b5116926133c88d61339f613cb1565b1695519788968795869485528401602090939291936001600160a01b0360408201951681520152565b03925af1801561346a578a9796959492938894613419936133ef9361344c575b5050613d13565b986133fa8a86613ee7565b96613403613cb1565b169589519a8b988997889687523093870161319d565b03925af1908115613443575061342d575050565b613440913d8091833e6117d78183612a30565b50565b513d84823e3d90fd5b8161346292903d1061070b576106fc8183612a30565b5038806133e8565b88513d8c823e3d90fd5b60248b601189634e487b7160e01b835252fd5b61349b91503d808c833e6117d78183612a30565b38613360565b6134ab8288613ee7565b92856134b5613cb1565b169761012c420198894211613474578a9182918b8b519485809481938d8c6338ed173960e01b9e8f865230928601946134ed9561319d565b03925af190811561346a578a91613578575b508051600019810191908211613474579261351f8193928a979695612cba565b51958692888d8b61352f89612c9a565b51169261353e8d61339f613cd3565b03925af1801561346a578a9796959492938894613419936135649361344c575050613d13565b9861356f8a86613fae565b96613403613cd3565b61358c91503d808c833e6117d78183612a30565b386134ff565b6135a890833d851161070b576106fc8183612a30565b50386132fc565b6135c590843d861161070b576106fc8183612a30565b50386132b9565b89513d8d823e3d90fd5b6135ec90843d861161070b576106fc8183612a30565b503861326c565b61360990843d861161070b576106fc8183612a30565b5038613225565b6007546040805163095ea7b360e01b8082526001600160a01b03938416600480840191909152602483018790526000979693959093919260209186169082816044818d865af1801561346a5761369992849286926139d2575b5088600854168c8b518096819582948c84528d8401602090939291936001600160a01b0360408201951681520152565b03925af180156139c8576139ab575b508551906136b5826129f8565b60028252863682840137856136c989612c8d565b51166136d483612c8d565b52856136df89612c9a565b51166136ea83612c9a565b526136f58284613ee7565b9186600754169061012c42019384421161397e5784928c92838a936137318e51978896879586946338ed173960e01b9e8f87523093870161319d565b03925af190811561346a578a91613991575b5080516000199182820191821161397e578b848b8b6137648f968d96612cba565b519485948c6137e8846137b987519b61377c8d6129f8565b60028d5288368b8f01378c61379c8461379484612c9a565b511691612c8d565b528c6137b3846137ab84612caa565b511691612c9a565b52612c9a565b5116946008541695519788968795869485528401602090939291936001600160a01b0360408201951681520152565b03925af18015613974578d92838961382a8f948f968f908d92613957575b506138118a87613fae565b97600854169651998a988997889687523093870161319d565b03925af19081156135cc578b9161393d575b508051918201918211613474576138558b928492612cba565b5195888a519b6138648d6129f8565b60028d528b36858f01378c8261387983612caa565b51169061388590612c8d565b528c8261389183612c8d565b51169061389d90612c9a565b526138a790612caa565b51168960075416918b5194858094819382528b8d8301916138dd92602090939291936001600160a01b0360408201951681520152565b03925af1801561346a57928a979695949261341992899561391f575b50506139058a86613ee7565b96600754169589519a8b988997889687523093870161319d565b8161393592903d1061070b576106fc8183612a30565b5038806138f9565b61395191503d808d833e6117d78183612a30565b3861383c565b61396d908d803d1061070b576106fc8183612a30565b5038613806565b8b513d8f823e3d90fd5b60248c60118a634e487b7160e01b835252fd5b6139a591503d808c833e6117d78183612a30565b38613743565b6139c190823d841161070b576106fc8183612a30565b50386136a8565b87513d8b823e3d90fd5b6139e890843d861161070b576106fc8183612a30565b5038613669565b906001600160a01b039081601054169081151580613b4b575b80613b42575b613a19575b50505050565b613a296127109160115490612c17565b04928315613a1357821691604051906370a0823160e01b82523060048301526020918281602481885afa8015610712578691600091613b11575b501015613a71575b50613a13565b60405163a9059cbb60e01b81526001600160a01b039390931660048401526024830185905281836044816000885af1928315610712577fae31919ed2f5e0afd03e95e56d2d512a4cfdfdfe29ae313f92dfccd88b47e68f93613af4575b50613adb85601254612b67565b6012556010541693604051908152a33880808080613a6b565b613b0a90833d851161070b576106fc8183612a30565b5038613ace565b809250848092503d8311613b3b575b613b2a8183612a30565b810103126102f45785905138613a63565b503d613b20565b50801515613a0e565b506011541515613a08565b60206001600160a01b0360248160025460081c169360405194859384927f613255ab0000000000000000000000000000000000000000000000000000000084521660048301525afa90811561071257600091613bbe575b501015613bb957600190565b600090565b90506020813d602011613be8575b81613bd960209383612a30565b810103126102f4575138613bad565b3d9150613bcc565b600460206001600160a01b0360035416604051928380927f074b2e430000000000000000000000000000000000000000000000000000000082525afa90811561071257600091613c60575b50612710916fffffffffffffffffffffffffffffffff613c5c921690612c17565b0490565b6020813d602011613ca9575b81613c7960209383612a30565b81010312613ca55751906fffffffffffffffffffffffffffffffff821682036131815750612710613c3b565b5080fd5b3d9150613c6c565b6007546001600160a01b03908116908115613cca575090565b90506005541690565b6008546001600160a01b03908116908115613cec575090565b90506004541690565b15613cb1576008546001600160a01b03908116908115613cec575090565b908151613d1f81612a52565b90613d2d6040519283612a30565b808252613d3c601f1991612a52565b0136602083013780916000805b855180821015613da4576000198101908111613d9057906001600160a01b03613d7d613d7783600195612bbf565b89612cba565b5116613d898287612cba565b5201613d49565b602483634e487b7160e01b81526011600452fd5b50505091925050565b60ff60025416613db957565b606460405162461bcd60e51b815260206004820152601060248201527f5061757361626c653a20706175736564000000000000000000000000000000006044820152fd5b600260015414613e0e576002600155565b606460405162461bcd60e51b815260206004820152601f60248201527f5265656e7472616e637947756172643a207265656e7472616e742063616c6c006044820152fd5b6000929493613e6b606093608084526080840190612dcd565b951515602083015260408201520152565b606090613e96600193959495608083526080830190612dcd565b946000602083015260408201520152565b919082519283825260005b848110613ed3575050826000602080949584010152601f8019910116010190565b602081830181015184830182015201613eb2565b613f2a916001600160a01b03613efb613cb1565b169160405192839163d06ca61f60e01b8352600483015260406024830152818060009687956044830190612dcd565b03915afa908115613fa3578291613f89575b508051600019810191908211613d905790613f5691612cba565b5190600b549161271092830391838311613f75575090613c5c91612c17565b80634e487b7160e01b602492526011600452fd5b613f9d91503d8084833e6117d78183612a30565b38613f3c565b6040513d84823e3d90fd5b613f2a916001600160a01b03613efb613cd356fea26469706673582212204644f3e6a79b42ed39da4bc31b5bcd01573085a66b73da3dc36bfe1f443c663564736f6c63430008180033","opcodes":"PUSH1 0x80 CALLVALUE PUSH3 0x22D JUMPI PUSH1 0x1F PUSH3 0x4256 CODESIZE DUP2 SWAP1 SUB SWAP2 DUP3 ADD PUSH1 0x1F NOT AND DUP4 ADD SWAP2 PUSH1 0x1 PUSH1 0x1 PUSH1 0x40 SHL SUB DUP4 GT DUP5 DUP5 LT OR PUSH3 0x232 JUMPI DUP1 DUP5 SWAP3 PUSH1 0x80 SWAP5 PUSH1 0x40 MSTORE DUP4 CODECOPY DUP2 ADD SUB SLT PUSH3 0x22D JUMPI PUSH3 0x4D DUP2 PUSH3 0x248 JUMP JUMPDEST PUSH3 0x5B PUSH1 0x20 DUP4 ADD PUSH3 0x248 JUMP JUMPDEST SWAP1 PUSH3 0x78 PUSH1 0x60 PUSH3 0x70 PUSH1 0x40 DUP7 ADD PUSH3 0x248 JUMP JUMPDEST SWAP5 ADD PUSH3 0x248 JUMP JUMPDEST SWAP1 PUSH1 0x0 SLOAD SWAP4 PUSH1 0x1 DUP1 PUSH1 0xA0 SHL SUB SWAP3 DUP4 DUP1 SWAP3 DUP2 PUSH1 0x1 DUP1 PUSH1 0xA0 SHL SUB NOT SWAP8 CALLER DUP10 DUP12 AND OR PUSH1 0x0 SSTORE PUSH1 0x40 MLOAD SWAP10 DUP3 CALLER SWAP2 AND PUSH32 0x8BE0079C531659141344CD1FD0A4F28419497F9722A3DAAFE3B4186F6B6457E0 PUSH1 0x0 DUP1 LOG3 PUSH1 0x1 DUP1 SSTORE PUSH1 0x2 SLOAD PUSH1 0xC8 PUSH1 0xB SSTORE PUSH1 0x1E PUSH1 0xC SSTORE PUSH2 0x3E8 PUSH1 0x11 SSTORE PUSH1 0x8 SWAP8 PUSH2 0x100 PUSH1 0x1 PUSH1 0xA8 SHL SUB SWAP1 DUP10 SHL AND SWAP1 PUSH1 0x1 DUP1 PUSH1 0xA8 SHL SUB NOT AND OR PUSH1 0x2 SSTORE AND DUP8 PUSH1 0x4 SLOAD AND OR PUSH1 0x4 SSTORE AND DUP6 PUSH1 0x5 SLOAD AND OR PUSH1 0x5 SSTORE AND DUP4 PUSH1 0x6 SLOAD AND OR PUSH1 0x6 SSTORE CHAINID PUSH1 0x9 SSTORE PUSH1 0xA SLOAD PUSH1 0xFF DUP1 PUSH1 0xA CHAINID EQ AND DUP1 SWAP3 PUSH2 0xFF00 PUSH2 0xA4B1 CHAINID EQ DUP7 SHL AND SWAP1 PUSH2 0xFFFF NOT AND OR OR DUP1 PUSH1 0xA SSTORE DUP4 SHR AND PUSH1 0x0 EQ PUSH3 0x1C1 JUMPI POP PUSH20 0x4752BA5DBC23F44D87826276BF6FD6B1C372AD24 DUP4 PUSH1 0x7 SLOAD AND OR PUSH1 0x7 SSTORE PUSH20 0xF2614A233C7C3E7F08B1F887BA133A13F1EB2C55 DUP4 DUP3 SLOAD AND OR SWAP1 SSTORE PUSH20 0x794A61358D6845594F94DC1DB02A252B5B4814AD DUP3 PUSH1 0x3 SLOAD AND OR PUSH1 0x3 SSTORE JUMPDEST PUSH1 0x0 SLOAD AND SWAP1 PUSH1 0xF SLOAD AND OR PUSH1 0xF SSTORE PUSH2 0x3FF8 SWAP1 DUP2 PUSH3 0x25E DUP3 CODECOPY RETURN JUMPDEST PUSH3 0x1CE JUMPI JUMPDEST POP PUSH3 0x1A7 JUMP JUMPDEST PUSH20 0x4A7B5DA61326A6379179B40D00F57E5BBDC962C2 DUP4 PUSH1 0x7 SLOAD AND OR PUSH1 0x7 SSTORE PUSH20 0x2ABF469074DC0B54D793850807E6EB5FAF2625B1 DUP4 DUP3 SLOAD AND OR SWAP1 SSTORE PUSH20 0x794A61358D6845594F94DC1DB02A252B5B4814AD DUP3 PUSH1 0x3 SLOAD AND OR PUSH1 0x3 SSTORE CODESIZE PUSH3 0x1C7 JUMP JUMPDEST PUSH1 0x0 DUP1 REVERT JUMPDEST PUSH4 0x4E487B71 PUSH1 0xE0 SHL PUSH1 0x0 MSTORE PUSH1 0x41 PUSH1 0x4 MSTORE PUSH1 0x24 PUSH1 0x0 REVERT JUMPDEST MLOAD SWAP1 PUSH1 0x1 PUSH1 0x1 PUSH1 0xA0 SHL SUB DUP3 AND DUP3 SUB PUSH3 0x22D JUMPI JUMP INVALID PUSH1 0x80 DUP1 PUSH1 0x40 MSTORE PUSH1 0x4 CALLDATASIZE LT ISZERO PUSH2 0x13 JUMPI PUSH1 0x0 DUP1 REVERT JUMPDEST PUSH1 0xE0 PUSH1 0x0 CALLDATALOAD PUSH1 0xE0 SHR SWAP2 DUP3 PUSH3 0x4670F1 EQ PUSH2 0x28CD JUMPI POP DUP2 PUSH4 0x117DA1EE EQ PUSH2 0x285F JUMPI DUP2 PUSH4 0x15482AB2 EQ PUSH2 0x2830 JUMPI DUP2 PUSH4 0x18D0B3CE EQ PUSH2 0x2801 JUMPI DUP2 PUSH4 0x1B11D0FF EQ PUSH2 0x248A JUMPI DUP2 PUSH4 0x2301D775 EQ PUSH2 0x2463 JUMPI DUP2 PUSH4 0x277DD7E0 EQ PUSH2 0x20C7 JUMPI DUP2 PUSH4 0x29F2C8F0 EQ PUSH2 0x20A1 JUMPI DUP2 PUSH4 0x314CCE8A EQ PUSH2 0x2083 JUMPI DUP2 PUSH4 0x383AEEAE EQ PUSH2 0x2065 JUMPI DUP2 PUSH4 0x3B9DEBF6 EQ PUSH2 0x203E JUMPI DUP2 PUSH4 0x3C988982 EQ PUSH2 0x200F JUMPI DUP2 PUSH4 0x3CD3D2EC EQ PUSH2 0xBF6 JUMPI DUP2 PUSH4 0x3F4BA83A EQ PUSH2 0x1F73 JUMPI DUP2 PUSH4 0x454BBD29 EQ PUSH2 0x1F1B JUMPI DUP2 PUSH4 0x4DEDE3DE EQ PUSH2 0x1EEC JUMPI DUP2 PUSH4 0x507A2291 EQ PUSH2 0x1ED0 JUMPI DUP2 PUSH4 0x51CFF8D9 EQ PUSH2 0x1D71 JUMPI DUP2 PUSH4 0x536FFF6C EQ PUSH2 0x1D32 JUMPI DUP2 PUSH4 0x5C975ABB EQ PUSH2 0x1D0F JUMPI DUP2 PUSH4 0x6CBADBFA EQ PUSH2 0x1CF1 JUMPI DUP2 PUSH4 0x6D13582C EQ PUSH2 0x1CCA JUMPI DUP2 PUSH4 0x6FF1C9BC EQ PUSH2 0x1BE3 JUMPI DUP2 PUSH4 0x715018A6 EQ PUSH2 0x1B8A JUMPI DUP2 PUSH4 0x7448F575 EQ PUSH2 0x1B2E JUMPI DUP2 PUSH4 0x76E11286 EQ PUSH2 0x1AD3 JUMPI DUP2 PUSH4 0x795674FF EQ PUSH2 0x1AAC JUMPI DUP2 PUSH4 0x8456CB59 EQ PUSH2 0x1A52 JUMPI DUP2 PUSH4 0x89A30271 EQ PUSH2 0x1A23 JUMPI DUP2 PUSH4 0x8DA5CB5B EQ PUSH2 0x19FC JUMPI DUP2 PUSH4 0x9DCB511A EQ PUSH2 0x19C1 JUMPI DUP2 PUSH4 0xA03E4BC3 EQ PUSH2 0x199A JUMPI DUP2 PUSH4 0xA0E47BF6 EQ PUSH2 0x1973 JUMPI DUP2 PUSH4 0xA6FED78E EQ PUSH2 0x191E JUMPI DUP2 PUSH4 0xACFCC895 EQ PUSH2 0x1901 JUMPI DUP2 PUSH4 0xAD5C4648 EQ PUSH2 0x18D2 JUMPI DUP2 PUSH4 0xC01F2524 EQ PUSH2 0x1642 JUMPI DUP2 PUSH4 0xC257CDC3 EQ PUSH2 0x1624 JUMPI DUP2 PUSH4 0xC2DD302B EQ PUSH2 0x157E JUMPI DUP2 PUSH4 0xC54E44EB EQ PUSH2 0x154F JUMPI DUP2 PUSH4 0xC6265576 EQ PUSH2 0x1517 JUMPI DUP2 PUSH4 0xC69AEC56 EQ PUSH2 0x11DE JUMPI DUP2 PUSH4 0xD03153AA EQ PUSH2 0x11C0 JUMPI DUP2 PUSH4 0xD138B28E EQ PUSH2 0xDD3 JUMPI POP DUP1 PUSH4 0xD66D5B08 EQ PUSH2 0xD1E JUMPI DUP1 PUSH4 0xDA2CA9B5 EQ PUSH2 0xC6C JUMPI DUP1 PUSH4 0xDAD0B87C EQ PUSH2 0xC45 JUMPI DUP1 PUSH4 0xEA046659 EQ PUSH2 0xC1E JUMPI DUP1 PUSH4 0xEC961A05 EQ PUSH2 0xBFB JUMPI DUP1 PUSH4 0xED6F1F4C EQ PUSH2 0xBF6 JUMPI DUP1 PUSH4 0xEE9ED9D7 EQ PUSH2 0x7FF JUMPI DUP1 PUSH4 0xF04F2707 EQ PUSH2 0x418 JUMPI DUP1 PUSH4 0xF2FDE38B EQ PUSH2 0x340 JUMPI DUP1 PUSH4 0xF9759518 EQ PUSH2 0x323 JUMPI DUP1 PUSH4 0xFBFA77CF EQ PUSH2 0x2F9 JUMPI PUSH4 0xFCFF2C28 EQ PUSH2 0x289 JUMPI PUSH1 0x0 DUP1 REVERT JUMPDEST CALLVALUE PUSH2 0x2F4 JUMPI PUSH1 0x20 CALLDATASIZE PUSH1 0x3 NOT ADD SLT PUSH2 0x2F4 JUMPI PUSH1 0x4 CALLDATALOAD PUSH2 0x2A5 PUSH2 0x2F89 JUMP JUMPDEST DUP1 ISZERO PUSH2 0x2B0 JUMPI PUSH1 0xC SSTORE STOP JUMPDEST PUSH1 0x64 PUSH1 0x40 MLOAD PUSH3 0x461BCD PUSH1 0xE5 SHL DUP2 MSTORE PUSH1 0x20 PUSH1 0x4 DUP3 ADD MSTORE PUSH1 0x1B PUSH1 0x24 DUP3 ADD MSTORE PUSH32 0x4D696E2070726F666974206D75737420626520706F7369746976650000000000 PUSH1 0x44 DUP3 ADD MSTORE REVERT JUMPDEST PUSH1 0x0 DUP1 REVERT JUMPDEST CALLVALUE PUSH2 0x2F4 JUMPI PUSH1 0x0 CALLDATASIZE PUSH1 0x3 NOT ADD SLT PUSH2 0x2F4 JUMPI PUSH1 0x20 PUSH1 0x1 PUSH1 0x1 PUSH1 0xA0 SHL SUB PUSH1 0x2 SLOAD PUSH1 0x8 SHR AND PUSH1 0x40 MLOAD SWAP1 DUP2 MSTORE RETURN JUMPDEST CALLVALUE PUSH2 0x2F4 JUMPI PUSH1 0x0 CALLDATASIZE PUSH1 0x3 NOT ADD SLT PUSH2 0x2F4 JUMPI PUSH1 0x20 PUSH1 0x40 MLOAD PUSH2 0x1F4 DUP2 MSTORE RETURN JUMPDEST CALLVALUE PUSH2 0x2F4 JUMPI PUSH1 0x20 CALLDATASIZE PUSH1 0x3 NOT ADD SLT PUSH2 0x2F4 JUMPI PUSH2 0x359 PUSH2 0x28FA JUMP JUMPDEST PUSH2 0x361 PUSH2 0x2F89 JUMP JUMPDEST PUSH1 0x1 PUSH1 0x1 PUSH1 0xA0 SHL SUB DUP1 SWAP2 AND SWAP1 DUP2 ISZERO PUSH2 0x3AE JUMPI PUSH1 0x0 SLOAD DUP3 PUSH1 0x1 PUSH1 0x1 PUSH1 0xA0 SHL SUB NOT DUP3 AND OR PUSH1 0x0 SSTORE AND PUSH32 0x8BE0079C531659141344CD1FD0A4F28419497F9722A3DAAFE3B4186F6B6457E0 PUSH1 0x0 DUP1 LOG3 STOP JUMPDEST PUSH1 0x84 PUSH1 0x40 MLOAD PUSH3 0x461BCD PUSH1 0xE5 SHL DUP2 MSTORE PUSH1 0x20 PUSH1 0x4 DUP3 ADD MSTORE PUSH1 0x26 PUSH1 0x24 DUP3 ADD MSTORE PUSH32 0x4F776E61626C653A206E6577206F776E657220697320746865207A65726F2061 PUSH1 0x44 DUP3 ADD MSTORE PUSH32 0x6464726573730000000000000000000000000000000000000000000000000000 PUSH1 0x64 DUP3 ADD MSTORE REVERT JUMPDEST CALLVALUE PUSH2 0x2F4 JUMPI PUSH1 0x80 CALLDATASIZE PUSH1 0x3 NOT ADD SLT PUSH2 0x2F4 JUMPI PUSH8 0xFFFFFFFFFFFFFFFF PUSH1 0x4 CALLDATALOAD DUP2 DUP2 GT PUSH2 0x2F4 JUMPI PUSH2 0x44A SWAP1 CALLDATASIZE SWAP1 PUSH1 0x4 ADD PUSH2 0x2952 JUMP JUMPDEST SWAP2 SWAP1 PUSH1 0x24 CALLDATALOAD DUP3 DUP2 GT PUSH2 0x2F4 JUMPI PUSH2 0x464 SWAP1 CALLDATASIZE SWAP1 PUSH1 0x4 ADD PUSH2 0x2952 JUMP JUMPDEST SWAP1 SWAP2 PUSH1 0x44 CALLDATALOAD DUP5 DUP2 GT PUSH2 0x2F4 JUMPI PUSH2 0x47E SWAP1 CALLDATASIZE SWAP1 PUSH1 0x4 ADD PUSH2 0x2952 JUMP JUMPDEST SWAP1 SWAP5 PUSH1 0x64 CALLDATALOAD SWAP1 DUP2 GT PUSH2 0x2F4 JUMPI PUSH2 0x498 SWAP1 CALLDATASIZE SWAP1 PUSH1 0x4 ADD PUSH2 0x2924 JUMP JUMPDEST SWAP1 PUSH1 0x1 PUSH1 0x1 PUSH1 0xA0 SHL SUB PUSH1 0x2 SLOAD PUSH1 0x8 SHR AND CALLER SUB PUSH2 0x7BB JUMPI PUSH2 0x4BA SWAP2 DUP2 ADD SWAP1 PUSH2 0x2AC0 JUMP JUMPDEST SWAP4 SWAP3 SWAP8 SWAP2 SWAP5 SWAP1 SWAP9 ISZERO PUSH2 0x734 JUMPI PUSH2 0x4CF SWAP1 PUSH2 0x2CCE JUMP JUMPDEST SWAP5 ISZERO PUSH2 0x734 JUMPI PUSH2 0x4E6 PUSH2 0x4E1 DUP9 PUSH2 0x2FF8 JUMP JUMPDEST PUSH2 0x2B1C JUMP JUMPDEST PUSH1 0x40 MLOAD PUSH4 0x70A08231 PUSH1 0xE0 SHL DUP2 MSTORE ADDRESS PUSH1 0x4 DUP3 ADD MSTORE PUSH1 0x20 DUP2 PUSH1 0x24 DUP2 PUSH1 0x1 PUSH1 0x1 PUSH1 0xA0 SHL SUB DUP11 AND GAS STATICCALL DUP1 ISZERO PUSH2 0x712 JUMPI PUSH2 0x790 JUMPI JUMPDEST POP DUP3 ISZERO PUSH2 0x77E JUMPI PUSH2 0x529 DUP8 DUP8 CALLDATALOAD DUP8 PUSH2 0x3610 JUMP JUMPDEST PUSH1 0x40 MLOAD SWAP2 PUSH4 0x70A08231 PUSH1 0xE0 SHL DUP4 MSTORE ADDRESS PUSH1 0x4 DUP5 ADD MSTORE PUSH1 0x20 DUP4 PUSH1 0x24 DUP2 PUSH1 0x1 PUSH1 0x1 PUSH1 0xA0 SHL SUB DUP11 AND GAS STATICCALL SWAP3 DUP4 ISZERO PUSH2 0x712 JUMPI PUSH1 0x0 SWAP4 PUSH2 0x74A JUMPI JUMPDEST POP ISZERO PUSH2 0x734 JUMPI PUSH2 0x573 PUSH2 0x586 SWAP2 CALLDATALOAD DUP8 CALLDATALOAD PUSH2 0x2B67 JUMP JUMPDEST DUP3 PUSH2 0x581 DUP3 DUP1 SWAP6 LT ISZERO PUSH2 0x2B74 JUMP JUMPDEST PUSH2 0x2BBF JUMP JUMPDEST SWAP7 PUSH2 0x5A3 PUSH2 0x2710 PUSH2 0x59A PUSH1 0xC SLOAD DUP10 CALLDATALOAD PUSH2 0x2C17 JUMP JUMPDEST DIV DUP10 LT ISZERO PUSH2 0x2BCC JUMP JUMPDEST PUSH1 0x5F DUP2 MUL SWAP1 DUP1 DUP3 DIV PUSH1 0x5F EQ SWAP1 ISZERO OR ISZERO PUSH2 0x71E JUMPI PUSH2 0x603 SWAP2 PUSH2 0x5CB PUSH1 0x64 PUSH1 0x20 SWAP4 DIV DUP11 LT ISZERO PUSH2 0x2C2A JUMP JUMPDEST PUSH1 0x2 SLOAD PUSH1 0x40 MLOAD PUSH4 0x95EA7B3 PUSH1 0xE0 SHL DUP2 MSTORE PUSH1 0x8 SWAP2 SWAP1 SWAP2 SHR PUSH1 0x1 PUSH1 0x1 PUSH1 0xA0 SHL SUB AND PUSH1 0x4 DUP3 ADD MSTORE PUSH1 0x24 DUP2 ADD SWAP2 SWAP1 SWAP2 MSTORE SWAP2 DUP3 SWAP1 DUP2 SWAP1 PUSH1 0x44 DUP3 ADD SWAP1 JUMP JUMPDEST SUB DUP2 PUSH1 0x0 PUSH1 0x1 PUSH1 0x1 PUSH1 0xA0 SHL SUB DUP10 AND GAS CALL DUP1 ISZERO PUSH2 0x712 JUMPI PUSH2 0x6E3 JUMPI JUMPDEST POP PUSH2 0x629 DUP7 DUP5 PUSH2 0x39EF JUMP JUMPDEST ISZERO PUSH2 0x695 JUMPI POP POP PUSH32 0x511DC6C70263758503FF9AEE3E77F3E7BEF3CABEE21A4EB0B017E7CF0438F2F2 PUSH1 0x40 PUSH1 0x1 PUSH1 0x1 PUSH1 0xA0 SHL SUB PUSH2 0x664 DUP6 PUSH2 0x2C8D JUMP JUMPDEST MLOAD AND SWAP3 PUSH1 0x1 PUSH1 0x1 PUSH1 0xA0 SHL SUB PUSH2 0x684 DUP2 PUSH2 0x67C DUP9 PUSH2 0x2C9A JUMP JUMPDEST MLOAD AND SWAP7 PUSH2 0x2CAA JUMP JUMPDEST MLOAD AND SWAP6 DUP3 MLOAD SWAP2 CALLDATALOAD DUP3 MSTORE PUSH1 0x20 DUP3 ADD MSTORE LOG4 STOP JUMPDEST PUSH1 0x40 DUP1 MLOAD SWAP4 CALLDATALOAD DUP5 MSTORE PUSH1 0x20 DUP5 ADD SWAP6 SWAP1 SWAP6 MSTORE ISZERO ISZERO SWAP4 DUP3 ADD SWAP4 SWAP1 SWAP4 MSTORE PUSH1 0x1 PUSH1 0x1 PUSH1 0xA0 SHL SUB SWAP1 SWAP3 AND SWAP2 PUSH32 0x5625C164577E109E0C8964AB47768B235A36D08F5146DFA9858A382FA5C5EFD SWAP2 POP PUSH1 0x60 SWAP1 LOG2 STOP JUMPDEST PUSH2 0x704 SWAP1 PUSH1 0x20 RETURNDATASIZE PUSH1 0x20 GT PUSH2 0x70B JUMPI JUMPDEST PUSH2 0x6FC DUP2 DUP4 PUSH2 0x2A30 JUMP JUMPDEST DUP2 ADD SWAP1 PUSH2 0x2C75 JUMP JUMPDEST POP DUP7 PUSH2 0x61E JUMP JUMPDEST POP RETURNDATASIZE PUSH2 0x6F2 JUMP JUMPDEST PUSH1 0x40 MLOAD RETURNDATASIZE PUSH1 0x0 DUP3 RETURNDATACOPY RETURNDATASIZE SWAP1 REVERT JUMPDEST PUSH4 0x4E487B71 PUSH1 0xE0 SHL PUSH1 0x0 MSTORE PUSH1 0x11 PUSH1 0x4 MSTORE PUSH1 0x24 PUSH1 0x0 REVERT JUMPDEST PUSH4 0x4E487B71 PUSH1 0xE0 SHL PUSH1 0x0 MSTORE PUSH1 0x32 PUSH1 0x4 MSTORE PUSH1 0x24 PUSH1 0x0 REVERT JUMPDEST SWAP1 SWAP3 POP PUSH1 0x20 DUP2 RETURNDATASIZE PUSH1 0x20 GT PUSH2 0x776 JUMPI JUMPDEST DUP2 PUSH2 0x766 PUSH1 0x20 SWAP4 DUP4 PUSH2 0x2A30 JUMP JUMPDEST DUP2 ADD SUB SLT PUSH2 0x2F4 JUMPI MLOAD SWAP2 DUP10 PUSH2 0x55E JUMP JUMPDEST RETURNDATASIZE SWAP2 POP PUSH2 0x759 JUMP JUMPDEST PUSH2 0x78B DUP5 DUP9 DUP9 CALLDATALOAD DUP9 PUSH2 0x31D5 JUMP JUMPDEST PUSH2 0x529 JUMP JUMPDEST PUSH1 0x20 SWAP1 DUP2 RETURNDATASIZE DUP4 GT PUSH2 0x7B4 JUMPI JUMPDEST PUSH2 0x7A6 DUP2 DUP4 PUSH2 0x2A30 JUMP JUMPDEST DUP2 ADD SUB SLT PUSH2 0x2F4 JUMPI DUP9 PUSH2 0x516 JUMP JUMPDEST POP RETURNDATASIZE PUSH2 0x79C JUMP JUMPDEST PUSH1 0x64 PUSH1 0x40 MLOAD PUSH3 0x461BCD PUSH1 0xE5 SHL DUP2 MSTORE PUSH1 0x20 PUSH1 0x4 DUP3 ADD MSTORE PUSH1 0x13 PUSH1 0x24 DUP3 ADD MSTORE PUSH32 0x4F6E6C792042616C616E636572207661756C7400000000000000000000000000 PUSH1 0x44 DUP3 ADD MSTORE REVERT JUMPDEST CALLVALUE PUSH2 0x2F4 JUMPI PUSH1 0x3 NOT PUSH1 0x80 CALLDATASIZE DUP3 ADD SLT PUSH2 0x2F4 JUMPI PUSH2 0x819 PUSH2 0x28FA JUMP JUMPDEST SWAP1 PUSH1 0x24 SWAP2 DUP3 CALLDATALOAD PUSH1 0x44 CALLDATALOAD PUSH8 0xFFFFFFFFFFFFFFFF DUP2 GT PUSH2 0x2F4 JUMPI PUSH2 0x83F SWAP1 CALLDATASIZE SWAP1 PUSH1 0x4 ADD PUSH2 0x2952 JUMP JUMPDEST SWAP4 SWAP1 SWAP3 PUSH1 0x64 CALLDATALOAD SWAP3 CALLER PUSH1 0x0 MSTORE PUSH1 0x20 SWAP5 PUSH1 0xE DUP7 MSTORE PUSH1 0xFF PUSH1 0x40 PUSH1 0x0 KECCAK256 SLOAD AND DUP1 ISZERO PUSH2 0xBDD JUMPI JUMPDEST PUSH2 0x86A SWAP1 PUSH2 0x2E61 JUMP JUMPDEST PUSH2 0x872 PUSH2 0x3DAD JUMP JUMPDEST PUSH2 0x87A PUSH2 0x3DFD JUMP JUMPDEST PUSH1 0x4 DUP8 SUB PUSH2 0xB74 JUMPI DUP7 ISZERO PUSH2 0xB5F JUMPI PUSH2 0x891 DUP2 PUSH2 0x2CCE JUMP JUMPDEST SWAP7 DUP1 PUSH1 0x3 LT ISZERO PUSH2 0xB4A JUMPI PUSH2 0x8BE PUSH1 0x1 PUSH1 0x1 PUSH1 0xA0 SHL SUB SWAP9 DUP10 DUP1 PUSH2 0x8B5 PUSH1 0x60 DUP8 ADD PUSH2 0x2CCE JUMP JUMPDEST AND SWAP2 AND EQ PUSH2 0x2CE2 JUMP JUMPDEST PUSH2 0x8C9 DUP4 ISZERO ISZERO PUSH2 0x2EAC JUMP JUMPDEST PUSH2 0x8D4 DUP7 ISZERO ISZERO PUSH2 0x2EF7 JUMP JUMPDEST PUSH2 0x8DE DUP4 DUP6 PUSH2 0x3B56 JUMP JUMPDEST PUSH1 0x2 DUP2 LT ISZERO PUSH2 0xB35 JUMPI PUSH2 0xA56 JUMPI SWAP1 PUSH2 0x8F7 SWAP2 CALLDATASIZE SWAP2 PUSH2 0x2A6A JUMP JUMPDEST SWAP5 PUSH1 0x40 MLOAD SWAP7 PUSH2 0x905 DUP9 PUSH2 0x2A14 JUMP JUMPDEST PUSH32 0xF5EA93FA71A16E89B26B22976590659F91D44AE3F503BE2AFCD292796D305218 PUSH1 0x60 PUSH1 0x1 SWAP6 PUSH1 0x1 DUP12 MSTORE DUP5 CALLDATASIZE DUP2 DUP14 ADD CALLDATACOPY DUP4 PUSH2 0x93F DUP13 PUSH2 0x2C8D JUMP JUMPDEST SWAP2 AND DUP1 SWAP2 MSTORE PUSH1 0x40 MLOAD SWAP6 PUSH2 0x951 DUP8 PUSH2 0x2A14 JUMP JUMPDEST PUSH1 0x1 DUP8 MSTORE PUSH2 0x98B DUP7 DUP9 ADD SWAP12 DUP8 DUP14 CALLDATASIZE SWAP1 CALLDATACOPY DUP3 PUSH2 0x96B DUP11 PUSH2 0x2C8D JUMP JUMPDEST MSTORE PUSH2 0x97D PUSH1 0x40 MLOAD SWAP13 DUP14 SWAP3 DUP11 DUP5 ADD PUSH2 0x3E7C JUMP JUMPDEST SUB PUSH1 0x1F NOT DUP2 ADD DUP13 MSTORE DUP12 PUSH2 0x2A30 JUMP JUMPDEST PUSH1 0x40 MLOAD SWAP2 PUSH1 0x0 DUP4 MSTORE DUP7 DUP4 ADD MSTORE PUSH1 0x40 DUP3 ADD MSTORE LOG1 PUSH1 0x2 SLOAD PUSH1 0x8 SHR AND SWAP7 DUP8 EXTCODESIZE ISZERO PUSH2 0x2F4 JUMPI SWAP2 DUP2 PUSH2 0x9DD PUSH1 0x80 SWAP11 SWAP9 SWAP8 SWAP7 SWAP6 SWAP4 SWAP5 PUSH1 0x40 MLOAD SWAP12 DUP13 SWAP11 PUSH4 0x2E1C224F PUSH1 0xE1 SHL DUP13 MSTORE ADDRESS PUSH1 0x4 DUP14 ADD MSTORE DUP12 ADD MSTORE PUSH1 0x84 DUP11 ADD SWAP1 PUSH2 0x2DCD JUMP JUMPDEST SWAP2 DUP6 DUP10 DUP5 SUB ADD PUSH1 0x44 DUP11 ADD MSTORE MLOAD SWAP2 DUP3 DUP2 MSTORE ADD SWAP6 SWAP3 PUSH1 0x0 JUMPDEST DUP3 DUP2 LT PUSH2 0xA40 JUMPI POP POP POP POP POP DUP4 PUSH2 0xA1A DUP5 DUP3 SWAP5 PUSH1 0x0 SWAP9 SWAP7 SWAP5 DUP5 DUP11 SWAP7 SUB ADD PUSH1 0x64 DUP6 ADD MSTORE PUSH2 0x3EA7 JUMP JUMPDEST SUB SWAP3 GAS CALL DUP1 ISZERO PUSH2 0x712 JUMPI PUSH2 0xA31 JUMPI JUMPDEST POP JUMPDEST PUSH1 0x1 DUP1 SSTORE STOP JUMPDEST PUSH2 0xA3A SWAP1 PUSH2 0x29CE JUMP JUMPDEST DUP1 PUSH2 0xA29 JUMP JUMPDEST DUP5 MLOAD DUP9 MSTORE DUP11 SWAP9 POP SWAP7 DUP2 ADD SWAP7 SWAP4 DUP2 ADD SWAP4 DUP4 ADD PUSH2 0x9F3 JUMP JUMPDEST PUSH1 0x60 SWAP3 SWAP7 SWAP6 SWAP9 SWAP8 SWAP5 POP PUSH2 0xA90 PUSH32 0xF5EA93FA71A16E89B26B22976590659F91D44AE3F503BE2AFCD292796D305218 SWAP5 SWAP3 PUSH2 0xAAF SWAP3 CALLDATASIZE SWAP2 PUSH2 0x2A6A JUMP JUMPDEST PUSH2 0xAA1 PUSH1 0x40 MLOAD SWAP11 DUP12 SWAP3 DUP10 DUP5 ADD PUSH2 0x3E7C JUMP JUMPDEST SUB PUSH1 0x1F NOT DUP2 ADD DUP11 MSTORE DUP10 PUSH2 0x2A30 JUMP JUMPDEST DUP4 PUSH1 0x40 MLOAD SWAP2 PUSH1 0x1 DUP4 MSTORE AND DUP1 SWAP6 DUP3 ADD MSTORE DUP6 PUSH1 0x40 DUP3 ADD MSTORE LOG1 PUSH1 0x3 SLOAD AND SWAP1 DUP2 EXTCODESIZE ISZERO PUSH2 0x2F4 JUMPI PUSH1 0x0 DUP1 SWAP5 PUSH2 0xB0B PUSH1 0x40 MLOAD SWAP8 DUP9 SWAP7 DUP8 SWAP6 DUP7 SWAP5 PUSH4 0x10AC2DDF PUSH1 0xE2 SHL DUP7 MSTORE ADDRESS PUSH1 0x4 DUP8 ADD MSTORE DUP6 ADD MSTORE PUSH1 0x44 DUP5 ADD MSTORE PUSH1 0xA0 PUSH1 0x64 DUP5 ADD MSTORE PUSH1 0xA4 DUP4 ADD SWAP1 PUSH2 0x3EA7 JUMP JUMPDEST DUP3 PUSH1 0x84 DUP4 ADD MSTORE SUB SWAP3 GAS CALL DUP1 ISZERO PUSH2 0x712 JUMPI PUSH2 0xB26 JUMPI JUMPDEST POP PUSH2 0xA2B JUMP JUMPDEST PUSH2 0xB2F SWAP1 PUSH2 0x29CE JUMP JUMPDEST DUP1 PUSH2 0xB20 JUMP JUMPDEST DUP10 PUSH4 0x4E487B71 PUSH1 0xE0 SHL PUSH1 0x0 MSTORE PUSH1 0x21 PUSH1 0x4 MSTORE PUSH1 0x0 REVERT JUMPDEST DUP9 PUSH4 0x4E487B71 PUSH1 0xE0 SHL PUSH1 0x0 MSTORE PUSH1 0x32 PUSH1 0x4 MSTORE PUSH1 0x0 REVERT JUMPDEST DUP8 PUSH4 0x4E487B71 PUSH1 0xE0 SHL PUSH1 0x0 MSTORE PUSH1 0x32 PUSH1 0x4 MSTORE PUSH1 0x0 REVERT JUMPDEST PUSH1 0x84 DUP7 PUSH1 0x2F DUP11 PUSH1 0x40 MLOAD SWAP3 PUSH3 0x461BCD PUSH1 0xE5 SHL DUP5 MSTORE PUSH1 0x4 DUP5 ADD MSTORE DUP3 ADD MSTORE PUSH32 0x547269616E67756C61722070617468206D7573742068617665203420746F6B65 PUSH1 0x44 DUP3 ADD MSTORE PUSH32 0x6E732028412D3E422D3E432D3E41290000000000000000000000000000000000 PUSH1 0x64 DUP3 ADD MSTORE REVERT JUMPDEST POP PUSH2 0x86A PUSH1 0x1 PUSH1 0x1 PUSH1 0xA0 SHL SUB PUSH1 0x0 SLOAD AND CALLER EQ SWAP1 POP PUSH2 0x861 JUMP JUMPDEST PUSH2 0x2983 JUMP JUMPDEST CALLVALUE PUSH2 0x2F4 JUMPI PUSH1 0x0 CALLDATASIZE PUSH1 0x3 NOT ADD SLT PUSH2 0x2F4 JUMPI PUSH1 0x20 PUSH1 0xFF PUSH1 0xA SLOAD AND PUSH1 0x40 MLOAD SWAP1 ISZERO ISZERO DUP2 MSTORE RETURN JUMPDEST CALLVALUE PUSH2 0x2F4 JUMPI PUSH1 0x0 CALLDATASIZE PUSH1 0x3 NOT ADD SLT PUSH2 0x2F4 JUMPI PUSH1 0x20 PUSH1 0x1 PUSH1 0x1 PUSH1 0xA0 SHL SUB PUSH1 0x8 SLOAD AND PUSH1 0x40 MLOAD SWAP1 DUP2 MSTORE RETURN JUMPDEST CALLVALUE PUSH2 0x2F4 JUMPI PUSH1 0x0 CALLDATASIZE PUSH1 0x3 NOT ADD SLT PUSH2 0x2F4 JUMPI PUSH1 0x20 PUSH1 0x1 PUSH1 0x1 PUSH1 0xA0 SHL SUB PUSH1 0x10 SLOAD AND PUSH1 0x40 MLOAD SWAP1 DUP2 MSTORE RETURN JUMPDEST CALLVALUE PUSH2 0x2F4 JUMPI PUSH1 0x20 CALLDATASIZE PUSH1 0x3 NOT ADD SLT PUSH2 0x2F4 JUMPI PUSH2 0xC85 PUSH2 0x28FA JUMP JUMPDEST PUSH2 0xC8D PUSH2 0x2F89 JUMP JUMPDEST PUSH1 0x1 PUSH1 0x1 PUSH1 0xA0 SHL SUB DUP1 SWAP2 AND SWAP1 DUP2 ISZERO PUSH2 0xCDA JUMPI PUSH1 0xF SLOAD DUP3 PUSH1 0x1 PUSH1 0x1 PUSH1 0xA0 SHL SUB NOT DUP3 AND OR PUSH1 0xF SSTORE AND PUSH32 0xE4DE69EF21CD49DAC1D5FDBF2461976CFBEFCB315AFBC932A9C0A755068B6489 PUSH1 0x0 DUP1 LOG3 STOP JUMPDEST PUSH1 0x64 PUSH1 0x40 MLOAD PUSH3 0x461BCD PUSH1 0xE5 SHL DUP2 MSTORE PUSH1 0x20 PUSH1 0x4 DUP3 ADD MSTORE PUSH1 0x1D PUSH1 0x24 DUP3 ADD MSTORE PUSH32 0x496E76616C69642070726F6669742077616C6C65742061646472657373000000 PUSH1 0x44 DUP3 ADD MSTORE REVERT JUMPDEST CALLVALUE PUSH2 0x2F4 JUMPI PUSH1 0x20 CALLDATASIZE PUSH1 0x3 NOT ADD SLT PUSH2 0x2F4 JUMPI PUSH1 0x1 PUSH1 0x1 PUSH1 0xA0 SHL SUB PUSH2 0xD3F PUSH2 0x28FA JUMP JUMPDEST PUSH2 0xD47 PUSH2 0x2F89 JUMP JUMPDEST AND DUP1 ISZERO PUSH2 0xD8F JUMPI DUP1 PUSH1 0x1 PUSH1 0x1 PUSH1 0xA0 SHL SUB NOT PUSH1 0x10 SLOAD AND OR PUSH1 0x10 SSTORE PUSH32 0x5D4263EB49A8092EA4735DC1E5200292FE3AC3AFB2D5D3F3339034EFBE9AE4F0 PUSH1 0x20 PUSH1 0x11 SLOAD PUSH1 0x40 MLOAD SWAP1 DUP2 MSTORE LOG2 STOP JUMPDEST PUSH1 0x64 PUSH1 0x40 MLOAD PUSH3 0x461BCD PUSH1 0xE5 SHL DUP2 MSTORE PUSH1 0x20 PUSH1 0x4 DUP3 ADD MSTORE PUSH1 0x1A PUSH1 0x24 DUP3 ADD MSTORE PUSH32 0x496E76616C6964206761732066756E64696E672077616C6C6574000000000000 PUSH1 0x44 DUP3 ADD MSTORE REVERT JUMPDEST CALLVALUE PUSH2 0x2F4 JUMPI PUSH1 0x3 NOT PUSH1 0x20 CALLDATASIZE DUP3 ADD DUP2 SGT PUSH2 0x2F4 JUMPI PUSH8 0xFFFFFFFFFFFFFFFF SWAP1 PUSH1 0x4 CALLDATALOAD DUP3 DUP2 GT PUSH2 0x2F4 JUMPI PUSH1 0x40 DUP2 PUSH1 0x4 ADD SWAP5 DUP3 CALLDATASIZE SUB ADD SLT PUSH2 0x2F4 JUMPI PUSH2 0xE12 PUSH2 0x3DFD JUMP JUMPDEST PUSH2 0xE1A PUSH2 0x3DAD JUMP JUMPDEST CALLER PUSH1 0x0 MSTORE PUSH1 0xE DUP3 MSTORE PUSH1 0xFF PUSH1 0x40 PUSH1 0x0 KECCAK256 SLOAD AND DUP1 ISZERO PUSH2 0x11A7 JUMPI JUMPDEST PUSH2 0xE3B SWAP1 PUSH2 0x2E61 JUMP JUMPDEST PUSH1 0x24 DUP1 SWAP2 ADD CALLDATALOAD TIMESTAMP GT PUSH2 0x1164 JUMPI PUSH2 0xE51 DUP5 DUP1 PUSH2 0x2F42 JUMP JUMPDEST SWAP1 POP ISZERO PUSH2 0x1121 JUMPI PUSH1 0xA PUSH2 0xE64 DUP6 DUP1 PUSH2 0x2F42 JUMP JUMPDEST SWAP1 POP GT PUSH2 0x10DE JUMPI PUSH1 0x0 SWAP3 DUP4 JUMPDEST PUSH2 0xE7A DUP7 DUP1 PUSH2 0x2F42 JUMP JUMPDEST SWAP1 POP DUP6 LT ISZERO PUSH2 0x1051 JUMPI PUSH2 0xE8D DUP7 DUP1 PUSH2 0x2F42 JUMP JUMPDEST DUP7 LT ISZERO PUSH2 0x103C JUMPI DUP8 DUP7 MUL ADD DUP8 DUP2 CALLDATASIZE SUB SLT PUSH2 0x2F4 JUMPI PUSH1 0x40 MLOAD DUP9 DUP2 ADD DUP2 DUP2 LT DUP6 DUP3 GT OR PUSH2 0x1027 JUMPI PUSH1 0x40 MSTORE PUSH2 0xEBE DUP3 PUSH2 0x2910 JUMP JUMPDEST SWAP2 DUP3 DUP3 MSTORE DUP7 DUP2 ADD CALLDATALOAD PUSH12 0xFFFFFFFFFFFFFFFFFFFFFFFF DUP2 AND DUP2 SUB PUSH2 0x2F4 JUMPI DUP8 DUP4 ADD MSTORE PUSH2 0xEEB PUSH1 0x40 DUP3 ADD PUSH2 0x2910 JUMP JUMPDEST PUSH1 0x40 DUP4 ADD MSTORE PUSH1 0x60 PUSH2 0xEFD DUP2 DUP4 ADD PUSH2 0x2910 JUMP JUMPDEST SWAP1 DUP4 ADD MSTORE PUSH1 0x80 PUSH2 0xF0E DUP2 DUP4 ADD PUSH2 0x29C1 JUMP JUMPDEST SWAP1 DUP4 ADD MSTORE PUSH1 0xA0 PUSH2 0xF1F DUP2 DUP4 ADD PUSH2 0x2F78 JUMP JUMPDEST SWAP1 DUP4 ADD MSTORE PUSH2 0xF30 PUSH1 0xC0 DUP1 SWAP3 ADD PUSH2 0x2F78 JUMP JUMPDEST SWAP1 DUP3 ADD MSTORE PUSH1 0x1 PUSH1 0x1 PUSH1 0xA0 SHL SUB PUSH1 0x40 MLOAD SWAP1 DUP8 DUP3 DUP9 DUP2 DUP5 PUSH4 0x70A08231 PUSH1 0xE0 SHL SWAP9 DUP10 DUP4 MSTORE ADDRESS PUSH1 0x4 DUP5 ADD MSTORE AND GAS STATICCALL SWAP3 DUP4 ISZERO PUSH2 0x712 JUMPI DUP9 SWAP3 PUSH1 0x0 SWAP5 PUSH2 0xFF6 JUMPI JUMPDEST POP MLOAD AND SWAP3 DUP7 PUSH1 0x40 MLOAD DUP1 SWAP6 DUP2 SWAP4 DUP3 MSTORE ADDRESS PUSH1 0x4 DUP4 ADD MSTORE GAS STATICCALL SWAP2 DUP3 ISZERO PUSH2 0x712 JUMPI PUSH1 0x0 SWAP3 PUSH2 0xFC4 JUMPI JUMPDEST POP SWAP2 PUSH2 0xFB2 SWAP2 PUSH1 0x1 SWAP4 DUP1 DUP3 GT PUSH1 0x0 EQ PUSH2 0xFBA JUMPI PUSH2 0xFAC SWAP2 PUSH2 0x2BBF JUMP JUMPDEST SWAP1 PUSH2 0x2B67 JUMP JUMPDEST SWAP5 ADD SWAP4 PUSH2 0xE70 JUMP JUMPDEST POP POP PUSH1 0x0 SWAP1 PUSH2 0x2B67 JUMP JUMPDEST SWAP2 POP SWAP2 DUP6 DUP3 DUP2 RETURNDATASIZE DUP4 GT PUSH2 0xFEF JUMPI JUMPDEST PUSH2 0xFDC DUP2 DUP4 PUSH2 0x2A30 JUMP JUMPDEST DUP2 ADD SUB SLT PUSH2 0x2F4 JUMPI SWAP1 MLOAD SWAP1 SWAP2 PUSH1 0x1 PUSH2 0xF90 JUMP JUMPDEST POP RETURNDATASIZE PUSH2 0xFD2 JUMP JUMPDEST DUP4 DUP2 SWAP5 SWAP3 SWAP6 POP RETURNDATASIZE DUP4 GT PUSH2 0x1020 JUMPI JUMPDEST PUSH2 0x100E DUP2 DUP4 PUSH2 0x2A30 JUMP JUMPDEST DUP2 ADD SUB SLT PUSH2 0x2F4 JUMPI DUP8 SWAP2 MLOAD SWAP3 DUP13 PUSH2 0xF6B JUMP JUMPDEST POP RETURNDATASIZE PUSH2 0x1004 JUMP JUMPDEST DUP6 PUSH4 0x4E487B71 PUSH1 0xE0 SHL PUSH1 0x0 MSTORE PUSH1 0x41 PUSH1 0x4 MSTORE PUSH1 0x0 REVERT JUMPDEST DUP4 PUSH4 0x4E487B71 PUSH1 0xE0 SHL PUSH1 0x0 MSTORE PUSH1 0x32 PUSH1 0x4 MSTORE PUSH1 0x0 REVERT JUMPDEST DUP4 DUP7 DUP5 DUP4 ISZERO PUSH2 0x109B JUMPI PUSH32 0xCCCF891412A70AD9FB0665C9D1959B16F1232C4DFD1A529B5528B3E1E7E59357 PUSH1 0x40 DUP5 DUP7 PUSH2 0x1089 DUP7 DUP1 PUSH2 0x2F42 JUMP JUMPDEST SWAP3 SWAP1 POP DUP4 MLOAD SWAP3 DUP4 MSTORE DUP3 ADD MSTORE LOG1 PUSH1 0x1 DUP1 SSTORE STOP JUMPDEST DUP3 PUSH1 0x14 PUSH1 0x64 SWAP3 PUSH1 0x40 MLOAD SWAP3 PUSH3 0x461BCD PUSH1 0xE5 SHL DUP5 MSTORE PUSH1 0x4 DUP5 ADD MSTORE DUP3 ADD MSTORE PUSH32 0x4261746368206E6F742070726F66697461626C65000000000000000000000000 PUSH1 0x44 DUP3 ADD MSTORE REVERT JUMPDEST SWAP1 PUSH1 0xF PUSH1 0x64 SWAP3 PUSH1 0x40 MLOAD SWAP3 PUSH3 0x461BCD PUSH1 0xE5 SHL DUP5 MSTORE PUSH1 0x4 DUP5 ADD MSTORE DUP3 ADD MSTORE PUSH32 0x546F6F206D616E79207472616465730000000000000000000000000000000000 PUSH1 0x44 DUP3 ADD MSTORE REVERT JUMPDEST SWAP1 PUSH1 0x12 PUSH1 0x64 SWAP3 PUSH1 0x40 MLOAD SWAP3 PUSH3 0x461BCD PUSH1 0xE5 SHL DUP5 MSTORE PUSH1 0x4 DUP5 ADD MSTORE DUP3 ADD MSTORE PUSH32 0x4E6F207472616465732070726F76696465640000000000000000000000000000 PUSH1 0x44 DUP3 ADD MSTORE REVERT JUMPDEST SWAP1 PUSH1 0x13 PUSH1 0x64 SWAP3 PUSH1 0x40 MLOAD SWAP3 PUSH3 0x461BCD PUSH1 0xE5 SHL DUP5 MSTORE PUSH1 0x4 DUP5 ADD MSTORE DUP3 ADD MSTORE PUSH32 0x5472616E73616374696F6E206578706972656400000000000000000000000000 PUSH1 0x44 DUP3 ADD MSTORE REVERT JUMPDEST POP PUSH2 0xE3B PUSH1 0x1 PUSH1 0x1 PUSH1 0xA0 SHL SUB PUSH1 0x0 SLOAD AND CALLER EQ SWAP1 POP PUSH2 0xE32 JUMP JUMPDEST CALLVALUE PUSH2 0x2F4 JUMPI PUSH1 0x0 CALLDATASIZE PUSH1 0x3 NOT ADD SLT PUSH2 0x2F4 JUMPI PUSH1 0x20 PUSH1 0xB SLOAD PUSH1 0x40 MLOAD SWAP1 DUP2 MSTORE RETURN JUMPDEST CALLVALUE PUSH2 0x2F4 JUMPI PUSH1 0x3 NOT PUSH1 0xA0 CALLDATASIZE DUP3 ADD SLT PUSH2 0x2F4 JUMPI PUSH2 0x11F8 PUSH2 0x28FA JUMP JUMPDEST PUSH1 0x24 CALLDATALOAD SWAP1 PUSH1 0x44 CALLDATALOAD PUSH8 0xFFFFFFFFFFFFFFFF DUP2 GT PUSH2 0x2F4 JUMPI PUSH2 0x121C SWAP1 CALLDATASIZE SWAP1 PUSH1 0x4 ADD PUSH2 0x2952 JUMP JUMPDEST SWAP2 SWAP1 SWAP4 PUSH2 0x1227 PUSH2 0x29B2 JUMP JUMPDEST SWAP4 PUSH1 0x84 CALLDATALOAD SWAP5 CALLER PUSH1 0x0 MSTORE PUSH1 0x20 SWAP5 PUSH1 0xE DUP7 MSTORE PUSH1 0xFF PUSH1 0x40 PUSH1 0x0 KECCAK256 SLOAD AND DUP1 ISZERO PUSH2 0x14FE JUMPI JUMPDEST PUSH2 0x1250 SWAP1 PUSH2 0x2E61 JUMP JUMPDEST PUSH2 0x1258 PUSH2 0x3DAD JUMP JUMPDEST PUSH2 0x1260 PUSH2 0x3DFD JUMP JUMPDEST PUSH1 0x2 DUP2 LT PUSH2 0x14BA JUMPI PUSH2 0x1273 DUP4 ISZERO ISZERO PUSH2 0x2EAC JUMP JUMPDEST PUSH2 0x127E DUP8 ISZERO ISZERO PUSH2 0x2EF7 JUMP JUMPDEST PUSH2 0x1288 DUP4 DUP7 PUSH2 0x3B56 JUMP JUMPDEST PUSH1 0x2 DUP2 LT ISZERO PUSH2 0x14A4 JUMPI PUSH2 0x13E6 JUMPI DUP6 SWAP7 SWAP8 PUSH2 0x12A3 SWAP2 CALLDATASIZE SWAP2 PUSH2 0x2A6A JUMP JUMPDEST SWAP4 PUSH32 0xF5EA93FA71A16E89B26B22976590659F91D44AE3F503BE2AFCD292796D305218 PUSH1 0x60 PUSH1 0x40 MLOAD SWAP10 DUP11 SWAP6 PUSH2 0x12D6 DUP8 PUSH2 0x2A14 JUMP JUMPDEST PUSH2 0x1340 DUP11 PUSH2 0x1332 PUSH2 0x12F2 PUSH1 0x1 SWAP11 PUSH1 0x1 DUP2 MSTORE DUP4 CALLDATASIZE DUP2 DUP4 ADD CALLDATACOPY PUSH2 0x2C8D JUMP JUMPDEST SWAP5 PUSH1 0x1 PUSH1 0x1 PUSH1 0xA0 SHL SUB DUP1 SWAP10 AND DUP1 SWAP7 MSTORE PUSH1 0x40 MLOAD SWAP10 PUSH2 0x130E DUP12 PUSH2 0x2A14 JUMP JUMPDEST PUSH1 0x1 DUP12 MSTORE DUP4 DUP12 ADD SWAP15 DUP16 CALLDATASIZE SWAP1 CALLDATACOPY DUP6 PUSH2 0x1324 DUP13 PUSH2 0x2C8D JUMP JUMPDEST MSTORE PUSH1 0x40 MLOAD SWAP14 DUP15 SWAP5 DUP6 ADD PUSH2 0x3E52 JUMP JUMPDEST SUB PUSH1 0x1F NOT DUP2 ADD DUP12 MSTORE DUP11 PUSH2 0x2A30 JUMP JUMPDEST PUSH1 0x40 MLOAD SWAP2 PUSH1 0x0 DUP4 MSTORE DUP12 DUP4 ADD MSTORE PUSH1 0x40 DUP3 ADD MSTORE LOG1 PUSH1 0x2 SLOAD PUSH1 0x8 SHR AND SWAP6 DUP7 EXTCODESIZE ISZERO PUSH2 0x2F4 JUMPI SWAP1 SWAP2 PUSH2 0x1393 SWAP8 SWAP6 SWAP5 SWAP4 SWAP3 DUP3 PUSH1 0x40 MLOAD SWAP10 DUP11 SWAP9 PUSH4 0x2E1C224F PUSH1 0xE1 SHL DUP11 MSTORE ADDRESS PUSH1 0x4 DUP12 ADD MSTORE PUSH1 0x80 PUSH1 0x24 DUP12 ADD MSTORE PUSH1 0x84 DUP11 ADD SWAP1 PUSH2 0x2DCD JUMP JUMPDEST SWAP2 DUP6 DUP10 DUP5 SUB ADD PUSH1 0x44 DUP11 ADD MSTORE MLOAD SWAP2 DUP3 DUP2 MSTORE ADD SWAP6 SWAP3 PUSH1 0x0 JUMPDEST DUP3 DUP2 LT PUSH2 0x13D0 JUMPI POP POP POP POP POP DUP4 PUSH2 0xA1A DUP5 DUP3 SWAP5 PUSH1 0x0 SWAP9 SWAP7 SWAP5 DUP5 DUP11 SWAP7 SUB ADD PUSH1 0x64 DUP6 ADD MSTORE PUSH2 0x3EA7 JUMP JUMPDEST DUP5 MLOAD DUP9 MSTORE DUP11 SWAP9 POP SWAP7 DUP2 ADD SWAP7 SWAP4 DUP2 ADD SWAP4 DUP4 ADD PUSH2 0x13A9 JUMP JUMPDEST PUSH2 0x141B SWAP4 POP PUSH2 0x140D SWAP2 SWAP6 SWAP7 SWAP3 SWAP8 PUSH2 0x13FE SWAP2 CALLDATASIZE SWAP2 PUSH2 0x2A6A JUMP JUMPDEST SWAP2 PUSH1 0x40 MLOAD SWAP6 DUP7 SWAP4 DUP9 DUP6 ADD PUSH2 0x3E52 JUMP JUMPDEST SUB PUSH1 0x1F NOT DUP2 ADD DUP5 MSTORE DUP4 PUSH2 0x2A30 JUMP JUMPDEST PUSH32 0xF5EA93FA71A16E89B26B22976590659F91D44AE3F503BE2AFCD292796D305218 PUSH1 0x60 PUSH1 0x40 MLOAD PUSH1 0x1 DUP2 MSTORE PUSH1 0x1 PUSH1 0x1 PUSH1 0xA0 SHL SUB DUP1 SWAP5 AND DUP1 SWAP7 DUP3 ADD MSTORE DUP7 PUSH1 0x40 DUP3 ADD MSTORE LOG1 PUSH1 0x3 SLOAD AND DUP1 EXTCODESIZE ISZERO PUSH2 0x2F4 JUMPI PUSH2 0xB0B SWAP4 PUSH1 0x0 DUP1 SWAP5 PUSH1 0x40 MLOAD SWAP7 DUP8 SWAP6 DUP7 SWAP5 DUP6 SWAP4 PUSH4 0x10AC2DDF PUSH1 0xE2 SHL DUP6 MSTORE ADDRESS PUSH1 0x4 DUP7 ADD MSTORE PUSH1 0x24 DUP6 ADD MSTORE PUSH1 0x44 DUP5 ADD MSTORE PUSH1 0xA0 PUSH1 0x64 DUP5 ADD MSTORE PUSH1 0xA4 DUP4 ADD SWAP1 PUSH2 0x3EA7 JUMP JUMPDEST PUSH4 0x4E487B71 PUSH1 0xE0 SHL PUSH1 0x0 MSTORE PUSH1 0x21 PUSH1 0x4 MSTORE PUSH1 0x24 PUSH1 0x0 REVERT JUMPDEST PUSH1 0x64 DUP7 PUSH1 0x40 MLOAD SWAP1 PUSH3 0x461BCD PUSH1 0xE5 SHL DUP3 MSTORE PUSH1 0x4 DUP3 ADD MSTORE PUSH1 0xC PUSH1 0x24 DUP3 ADD MSTORE PUSH32 0x496E76616C696420706174680000000000000000000000000000000000000000 PUSH1 0x44 DUP3 ADD MSTORE REVERT JUMPDEST POP PUSH2 0x1250 PUSH1 0x1 PUSH1 0x1 PUSH1 0xA0 SHL SUB PUSH1 0x0 SLOAD AND CALLER EQ SWAP1 POP PUSH2 0x1247 JUMP JUMPDEST CALLVALUE PUSH2 0x2F4 JUMPI PUSH1 0x0 CALLDATASIZE PUSH1 0x3 NOT ADD SLT PUSH2 0x2F4 JUMPI PUSH1 0x60 PUSH1 0x1 PUSH1 0x1 PUSH1 0xA0 SHL SUB PUSH1 0x10 SLOAD AND PUSH1 0x11 SLOAD PUSH1 0x12 SLOAD SWAP1 PUSH1 0x40 MLOAD SWAP3 DUP4 MSTORE PUSH1 0x20 DUP4 ADD MSTORE PUSH1 0x40 DUP3 ADD MSTORE RETURN JUMPDEST CALLVALUE PUSH2 0x2F4 JUMPI PUSH1 0x0 CALLDATASIZE PUSH1 0x3 NOT ADD SLT PUSH2 0x2F4 JUMPI PUSH1 0x20 PUSH1 0x40 MLOAD PUSH20 0xFD086BC7CD5C481DCC9C85EBE478A1C0B69FCBB9 DUP2 MSTORE RETURN JUMPDEST CALLVALUE PUSH2 0x2F4 JUMPI PUSH1 0x20 CALLDATASIZE PUSH1 0x3 NOT ADD SLT PUSH2 0x2F4 JUMPI PUSH1 0x4 CALLDATALOAD PUSH2 0x159A PUSH2 0x2F89 JUMP JUMPDEST PUSH2 0x1388 DUP2 GT PUSH2 0x15E0 JUMPI DUP1 PUSH1 0x11 SSTORE PUSH32 0x5D4263EB49A8092EA4735DC1E5200292FE3AC3AFB2D5D3F3339034EFBE9AE4F0 PUSH1 0x20 PUSH1 0x1 PUSH1 0x1 PUSH1 0xA0 SHL SUB PUSH1 0x10 SLOAD AND SWAP3 PUSH1 0x40 MLOAD SWAP1 DUP2 MSTORE LOG2 STOP JUMPDEST PUSH1 0x64 PUSH1 0x40 MLOAD PUSH3 0x461BCD PUSH1 0xE5 SHL DUP2 MSTORE PUSH1 0x20 PUSH1 0x4 DUP3 ADD MSTORE PUSH1 0x13 PUSH1 0x24 DUP3 ADD MSTORE PUSH32 0x50657263656E7461676520746F6F206869676800000000000000000000000000 PUSH1 0x44 DUP3 ADD MSTORE REVERT JUMPDEST CALLVALUE PUSH2 0x2F4 JUMPI PUSH1 0x0 CALLDATASIZE PUSH1 0x3 NOT ADD SLT PUSH2 0x2F4 JUMPI PUSH1 0x20 PUSH1 0x11 SLOAD PUSH1 0x40 MLOAD SWAP1 DUP2 MSTORE RETURN JUMPDEST CALLVALUE PUSH2 0x2F4 JUMPI PUSH1 0x80 CALLDATASIZE PUSH1 0x3 NOT ADD SLT PUSH2 0x2F4 JUMPI PUSH2 0x165B PUSH2 0x28FA JUMP JUMPDEST POP PUSH1 0x24 DUP1 CALLDATALOAD PUSH1 0x44 CALLDATALOAD PUSH8 0xFFFFFFFFFFFFFFFF DUP2 GT PUSH2 0x2F4 JUMPI PUSH2 0x1680 SWAP1 CALLDATASIZE SWAP1 PUSH1 0x4 ADD PUSH2 0x2952 JUMP JUMPDEST SWAP1 DUP3 PUSH2 0x168A PUSH2 0x29B2 JUMP JUMPDEST PUSH2 0x1693 DUP2 PUSH2 0x3CF5 JUMP JUMPDEST SWAP4 PUSH2 0x169E DUP3 ISZERO PUSH2 0x3CF5 JUMP JUMPDEST SWAP2 ISZERO PUSH2 0x1817 JUMPI PUSH1 0x1 PUSH1 0x1 PUSH1 0xA0 SHL SUB PUSH1 0x0 PUSH1 0x40 MLOAD DUP1 SWAP8 DUP2 DUP5 DUP2 PUSH2 0x16D0 DUP9 DUP13 PUSH4 0xD06CA61F PUSH1 0xE0 SHL SWAP13 DUP14 DUP6 MSTORE PUSH1 0x4 DUP6 ADD PUSH2 0x2E0A JUMP JUMPDEST SUB SWAP3 AND GAS STATICCALL SWAP6 DUP7 ISZERO PUSH2 0x712 JUMPI PUSH1 0x0 SWAP7 PUSH2 0x17FA JUMPI JUMPDEST POP DUP6 MLOAD PUSH1 0x0 NOT DUP2 ADD SWAP7 SWAP1 DUP8 GT PUSH2 0x17E5 JUMPI PUSH2 0x1713 PUSH1 0x0 SWAP7 PUSH2 0x170A PUSH2 0x173A SWAP10 PUSH2 0x1718 SWAP5 PUSH2 0x2CBA JUMP JUMPDEST MLOAD SWAP5 CALLDATASIZE SWAP2 PUSH2 0x2A6A JUMP JUMPDEST PUSH2 0x3D13 JUMP JUMPDEST SWAP4 PUSH1 0x40 MLOAD SWAP7 DUP8 SWAP6 DUP7 SWAP5 DUP6 SWAP4 DUP5 MSTORE PUSH1 0x4 DUP5 ADD MSTORE PUSH1 0x40 DUP12 DUP5 ADD MSTORE PUSH1 0x44 DUP4 ADD SWAP1 PUSH2 0x2DCD JUMP JUMPDEST SUB SWAP3 AND GAS STATICCALL SWAP1 DUP2 ISZERO PUSH2 0x712 JUMPI PUSH1 0x0 SWAP2 PUSH2 0x17C2 JUMPI JUMPDEST POP JUMPDEST DUP1 MLOAD PUSH1 0x0 NOT DUP2 ADD SWAP2 SWAP1 DUP3 GT PUSH2 0x17AD JUMPI SWAP1 PUSH2 0x1769 SWAP2 PUSH2 0x2CBA JUMP JUMPDEST MLOAD DUP2 DUP2 GT ISZERO PUSH2 0x17A2 JUMPI PUSH2 0x177F DUP3 PUSH2 0x1785 SWAP3 PUSH2 0x2BBF JUMP JUMPDEST SWAP2 PUSH2 0x3BF0 JUMP JUMPDEST SWAP1 DUP2 DUP2 GT ISZERO PUSH2 0x17A2 JUMPI PUSH1 0x20 SWAP2 PUSH2 0x179A SWAP2 PUSH2 0x2BBF JUMP JUMPDEST PUSH1 0x40 MLOAD SWAP1 DUP2 MSTORE RETURN JUMPDEST POP POP PUSH1 0x20 PUSH1 0x0 PUSH2 0x179A JUMP JUMPDEST DUP4 PUSH4 0x4E487B71 PUSH1 0xE0 SHL PUSH1 0x0 MSTORE PUSH1 0x11 PUSH1 0x4 MSTORE PUSH1 0x0 REVERT JUMPDEST PUSH2 0x17DF SWAP2 POP RETURNDATASIZE DUP1 PUSH1 0x0 DUP4 RETURNDATACOPY PUSH2 0x17D7 DUP2 DUP4 PUSH2 0x2A30 JUMP JUMPDEST DUP2 ADD SWAP1 PUSH2 0x2D53 JUMP JUMPDEST DUP4 PUSH2 0x174E JUMP JUMPDEST DUP9 PUSH4 0x4E487B71 PUSH1 0xE0 SHL PUSH1 0x0 MSTORE PUSH1 0x11 PUSH1 0x4 MSTORE PUSH1 0x0 REVERT JUMPDEST PUSH2 0x1810 SWAP2 SWAP7 POP RETURNDATASIZE DUP1 PUSH1 0x0 DUP4 RETURNDATACOPY PUSH2 0x17D7 DUP2 DUP4 PUSH2 0x2A30 JUMP JUMPDEST SWAP5 DUP9 PUSH2 0x16E4 JUMP JUMPDEST PUSH1 0x1 PUSH1 0x1 PUSH1 0xA0 SHL SUB SWAP5 SWAP2 SWAP5 PUSH1 0x0 PUSH1 0x40 MLOAD DUP1 SWAP8 DUP2 DUP5 DUP2 PUSH2 0x1846 DUP9 DUP13 PUSH4 0xD06CA61F PUSH1 0xE0 SHL SWAP13 DUP14 DUP6 MSTORE PUSH1 0x4 DUP6 ADD PUSH2 0x2E0A JUMP JUMPDEST SUB SWAP3 AND GAS STATICCALL SWAP6 DUP7 ISZERO PUSH2 0x712 JUMPI PUSH1 0x0 SWAP7 PUSH2 0x18B5 JUMPI JUMPDEST POP DUP6 MLOAD PUSH1 0x0 NOT DUP2 ADD SWAP7 SWAP1 DUP8 GT PUSH2 0x17E5 JUMPI PUSH2 0x1713 PUSH1 0x0 SWAP7 PUSH2 0x170A PUSH2 0x1880 SWAP10 PUSH2 0x1718 SWAP5 PUSH2 0x2CBA JUMP JUMPDEST SUB SWAP3 AND GAS STATICCALL SWAP1 DUP2 ISZERO PUSH2 0x712 JUMPI PUSH1 0x0 SWAP2 PUSH2 0x189A JUMPI JUMPDEST POP PUSH2 0x1750 JUMP JUMPDEST PUSH2 0x18AF SWAP2 POP RETURNDATASIZE DUP1 PUSH1 0x0 DUP4 RETURNDATACOPY PUSH2 0x17D7 DUP2 DUP4 PUSH2 0x2A30 JUMP JUMPDEST DUP4 PUSH2 0x1894 JUMP JUMPDEST PUSH2 0x18CB SWAP2 SWAP7 POP RETURNDATASIZE DUP1 PUSH1 0x0 DUP4 RETURNDATACOPY PUSH2 0x17D7 DUP2 DUP4 PUSH2 0x2A30 JUMP JUMPDEST SWAP5 DUP9 PUSH2 0x185A JUMP JUMPDEST CALLVALUE PUSH2 0x2F4 JUMPI PUSH1 0x0 CALLDATASIZE PUSH1 0x3 NOT ADD SLT PUSH2 0x2F4 JUMPI PUSH1 0x20 PUSH1 0x40 MLOAD PUSH20 0x82AF49447D8A07E3BD95BD0D56F35241523FBAB1 DUP2 MSTORE RETURN JUMPDEST CALLVALUE PUSH2 0x2F4 JUMPI PUSH1 0x0 CALLDATASIZE PUSH1 0x3 NOT ADD SLT PUSH2 0x2F4 JUMPI PUSH1 0x20 PUSH1 0x40 MLOAD PUSH2 0x1388 DUP2 MSTORE RETURN JUMPDEST CALLVALUE PUSH2 0x2F4 JUMPI PUSH1 0x40 CALLDATASIZE PUSH1 0x3 NOT ADD SLT PUSH2 0x2F4 JUMPI PUSH2 0x1937 PUSH2 0x28FA JUMP JUMPDEST PUSH2 0x1944 PUSH1 0x24 CALLDATALOAD DUP1 SWAP3 PUSH2 0x3B56 JUMP JUMPDEST PUSH1 0x2 DUP2 LT ISZERO PUSH2 0x14A4 JUMPI PUSH1 0x40 SWAP2 DUP2 PUSH2 0x1965 JUMPI POP PUSH1 0x0 JUMPDEST DUP3 MLOAD SWAP2 DUP3 MSTORE PUSH1 0x20 DUP3 ADD MSTORE RETURN JUMPDEST PUSH2 0x196E SWAP1 PUSH2 0x3BF0 JUMP JUMPDEST PUSH2 0x1959 JUMP JUMPDEST CALLVALUE PUSH2 0x2F4 JUMPI PUSH1 0x0 CALLDATASIZE PUSH1 0x3 NOT ADD SLT PUSH2 0x2F4 JUMPI PUSH1 0x20 PUSH1 0x1 PUSH1 0x1 PUSH1 0xA0 SHL SUB PUSH1 0x5 SLOAD AND PUSH1 0x40 MLOAD SWAP1 DUP2 MSTORE RETURN JUMPDEST CALLVALUE PUSH2 0x2F4 JUMPI PUSH1 0x0 CALLDATASIZE PUSH1 0x3 NOT ADD SLT PUSH2 0x2F4 JUMPI PUSH1 0x20 PUSH1 0x1 PUSH1 0x1 PUSH1 0xA0 SHL SUB PUSH1 0x3 SLOAD AND PUSH1 0x40 MLOAD SWAP1 DUP2 MSTORE RETURN JUMPDEST CALLVALUE PUSH2 0x2F4 JUMPI PUSH1 0x20 CALLDATASIZE PUSH1 0x3 NOT ADD SLT PUSH2 0x2F4 JUMPI PUSH1 0x20 PUSH1 0x1 PUSH1 0x1 PUSH1 0xA0 SHL SUB DUP1 PUSH2 0x19E5 PUSH2 0x28FA JUMP JUMPDEST AND PUSH1 0x0 MSTORE PUSH1 0xD DUP3 MSTORE PUSH1 0x40 PUSH1 0x0 KECCAK256 SLOAD AND PUSH1 0x40 MLOAD SWAP1 DUP2 MSTORE RETURN JUMPDEST CALLVALUE PUSH2 0x2F4 JUMPI PUSH1 0x0 CALLDATASIZE PUSH1 0x3 NOT ADD SLT PUSH2 0x2F4 JUMPI PUSH1 0x20 PUSH1 0x1 PUSH1 0x1 PUSH1 0xA0 SHL SUB PUSH1 0x0 SLOAD AND PUSH1 0x40 MLOAD SWAP1 DUP2 MSTORE RETURN JUMPDEST CALLVALUE PUSH2 0x2F4 JUMPI PUSH1 0x0 CALLDATASIZE PUSH1 0x3 NOT ADD SLT PUSH2 0x2F4 JUMPI PUSH1 0x20 PUSH1 0x40 MLOAD PUSH20 0xFF970A61A04B1CA14834A43F5DE4533EBDDB5CC8 DUP2 MSTORE RETURN JUMPDEST CALLVALUE PUSH2 0x2F4 JUMPI PUSH1 0x0 CALLDATASIZE PUSH1 0x3 NOT ADD SLT PUSH2 0x2F4 JUMPI PUSH2 0x1A6B PUSH2 0x2F89 JUMP JUMPDEST PUSH2 0x1A73 PUSH2 0x3DAD JUMP JUMPDEST PUSH1 0x1 PUSH1 0xFF NOT PUSH1 0x2 SLOAD AND OR PUSH1 0x2 SSTORE PUSH32 0x62E78CEA01BEE320CD4E420270B5EA74000D11B0C9F74754EBDBFC544B05A258 PUSH1 0x20 PUSH1 0x40 MLOAD CALLER DUP2 MSTORE LOG1 STOP JUMPDEST CALLVALUE PUSH2 0x2F4 JUMPI PUSH1 0x0 CALLDATASIZE PUSH1 0x3 NOT ADD SLT PUSH2 0x2F4 JUMPI PUSH1 0x20 PUSH1 0x1 PUSH1 0x1 PUSH1 0xA0 SHL SUB PUSH1 0x6 SLOAD AND PUSH1 0x40 MLOAD SWAP1 DUP2 MSTORE RETURN JUMPDEST CALLVALUE PUSH2 0x2F4 JUMPI PUSH1 0x40 CALLDATASIZE PUSH1 0x3 NOT ADD SLT PUSH2 0x2F4 JUMPI PUSH2 0x1AEC PUSH2 0x28FA JUMP JUMPDEST PUSH1 0x24 CALLDATALOAD SWAP1 PUSH1 0x1 PUSH1 0x1 PUSH1 0xA0 SHL SUB SWAP1 DUP2 DUP4 AND DUP1 SWAP4 SUB PUSH2 0x2F4 JUMPI PUSH2 0x1B0B PUSH2 0x2F89 JUMP JUMPDEST AND PUSH1 0x0 MSTORE PUSH1 0xD PUSH1 0x20 MSTORE PUSH1 0x40 PUSH1 0x0 KECCAK256 SWAP1 PUSH1 0x1 PUSH1 0x1 PUSH1 0xA0 SHL SUB NOT DUP3 SLOAD AND OR SWAP1 SSTORE PUSH1 0x0 DUP1 RETURN JUMPDEST CALLVALUE PUSH2 0x2F4 JUMPI PUSH1 0x0 CALLDATASIZE PUSH1 0x3 NOT ADD SLT PUSH2 0x2F4 JUMPI PUSH2 0x1B47 PUSH2 0x2F89 JUMP JUMPDEST PUSH1 0x1 PUSH1 0x1 PUSH1 0xA0 SHL SUB NOT PUSH1 0x10 SLOAD AND PUSH1 0x10 SSTORE PUSH1 0x0 PUSH1 0x11 SSTORE PUSH1 0x0 PUSH32 0x5D4263EB49A8092EA4735DC1E5200292FE3AC3AFB2D5D3F3339034EFBE9AE4F0 PUSH1 0x20 PUSH1 0x40 MLOAD DUP4 DUP2 MSTORE LOG2 STOP JUMPDEST CALLVALUE PUSH2 0x2F4 JUMPI PUSH1 0x0 CALLDATASIZE PUSH1 0x3 NOT ADD SLT PUSH2 0x2F4 JUMPI PUSH2 0x1BA3 PUSH2 0x2F89 JUMP JUMPDEST PUSH1 0x0 PUSH1 0x1 PUSH1 0x1 PUSH1 0xA0 SHL SUB DUP2 SLOAD PUSH1 0x1 PUSH1 0x1 PUSH1 0xA0 SHL SUB NOT DUP2 AND DUP4 SSTORE AND PUSH32 0x8BE0079C531659141344CD1FD0A4F28419497F9722A3DAAFE3B4186F6B6457E0 DUP3 DUP1 LOG3 STOP JUMPDEST CALLVALUE PUSH2 0x2F4 JUMPI PUSH1 0x20 DUP1 PUSH1 0x3 NOT CALLDATASIZE ADD SLT PUSH2 0x2F4 JUMPI PUSH2 0x1BFD PUSH2 0x28FA JUMP JUMPDEST PUSH2 0x1C05 PUSH2 0x2F89 JUMP JUMPDEST PUSH1 0x1 PUSH1 0x1 PUSH1 0xA0 SHL SUB DUP1 SWAP2 AND SWAP1 PUSH1 0x40 MLOAD PUSH4 0x70A08231 PUSH1 0xE0 SHL DUP2 MSTORE ADDRESS PUSH1 0x4 DUP3 ADD MSTORE DUP4 DUP2 PUSH1 0x24 DUP2 DUP7 GAS STATICCALL SWAP1 DUP2 ISZERO PUSH2 0x712 JUMPI PUSH1 0x0 SWAP2 PUSH2 0x1C9D JUMPI JUMPDEST POP DUP1 PUSH2 0x1C43 JUMPI STOP JUMPDEST PUSH1 0xF SLOAD PUSH1 0x40 MLOAD PUSH4 0xA9059CBB PUSH1 0xE0 SHL DUP2 MSTORE SWAP3 AND PUSH1 0x1 PUSH1 0x1 PUSH1 0xA0 SHL SUB AND PUSH1 0x4 DUP4 ADD MSTORE PUSH1 0x24 DUP3 ADD MSTORE SWAP1 DUP3 SWAP1 DUP3 SWAP1 DUP2 PUSH1 0x0 DUP2 PUSH1 0x44 DUP2 ADD SUB SWAP3 GAS CALL DUP1 ISZERO PUSH2 0x712 JUMPI PUSH2 0x1C85 JUMPI STOP JUMPDEST DUP2 PUSH2 0x1C9B SWAP3 SWAP1 RETURNDATASIZE LT PUSH2 0x70B JUMPI PUSH2 0x6FC DUP2 DUP4 PUSH2 0x2A30 JUMP JUMPDEST STOP JUMPDEST SWAP1 POP DUP4 DUP2 DUP2 RETURNDATASIZE DUP4 GT PUSH2 0x1CC3 JUMPI JUMPDEST PUSH2 0x1CB4 DUP2 DUP4 PUSH2 0x2A30 JUMP JUMPDEST DUP2 ADD SUB SLT PUSH2 0x2F4 JUMPI MLOAD DUP5 PUSH2 0x1C3B JUMP JUMPDEST POP RETURNDATASIZE PUSH2 0x1CAA JUMP JUMPDEST CALLVALUE PUSH2 0x2F4 JUMPI PUSH1 0x0 CALLDATASIZE PUSH1 0x3 NOT ADD SLT PUSH2 0x2F4 JUMPI PUSH1 0x20 PUSH1 0x1 PUSH1 0x1 PUSH1 0xA0 SHL SUB PUSH1 0x4 SLOAD AND PUSH1 0x40 MLOAD SWAP1 DUP2 MSTORE RETURN JUMPDEST CALLVALUE PUSH2 0x2F4 JUMPI PUSH1 0x0 CALLDATASIZE PUSH1 0x3 NOT ADD SLT PUSH2 0x2F4 JUMPI PUSH1 0x20 PUSH1 0x9 SLOAD PUSH1 0x40 MLOAD SWAP1 DUP2 MSTORE RETURN JUMPDEST CALLVALUE PUSH2 0x2F4 JUMPI PUSH1 0x0 CALLDATASIZE PUSH1 0x3 NOT ADD SLT PUSH2 0x2F4 JUMPI PUSH1 0x20 PUSH1 0xFF PUSH1 0x2 SLOAD AND PUSH1 0x40 MLOAD SWAP1 ISZERO ISZERO DUP2 MSTORE RETURN JUMPDEST CALLVALUE PUSH2 0x2F4 JUMPI PUSH1 0x20 CALLDATASIZE PUSH1 0x3 NOT ADD SLT PUSH2 0x2F4 JUMPI PUSH1 0x1 PUSH1 0x1 PUSH1 0xA0 SHL SUB PUSH2 0x1D53 PUSH2 0x28FA JUMP JUMPDEST AND PUSH1 0x0 MSTORE PUSH1 0xE PUSH1 0x20 MSTORE PUSH1 0x20 PUSH1 0xFF PUSH1 0x40 PUSH1 0x0 KECCAK256 SLOAD AND PUSH1 0x40 MLOAD SWAP1 ISZERO ISZERO DUP2 MSTORE RETURN JUMPDEST CALLVALUE PUSH2 0x2F4 JUMPI PUSH1 0x20 DUP1 PUSH1 0x3 NOT CALLDATASIZE ADD SLT PUSH2 0x2F4 JUMPI PUSH2 0x1D8B PUSH2 0x28FA JUMP JUMPDEST SWAP1 PUSH2 0x1D94 PUSH2 0x2F89 JUMP JUMPDEST PUSH1 0x40 MLOAD PUSH4 0x70A08231 PUSH1 0xE0 SHL DUP2 MSTORE ADDRESS PUSH1 0x4 DUP3 ADD MSTORE PUSH1 0x1 PUSH1 0x1 PUSH1 0xA0 SHL SUB SWAP3 DUP4 AND SWAP3 DUP3 DUP3 PUSH1 0x24 DUP2 DUP8 GAS STATICCALL SWAP2 DUP3 ISZERO PUSH2 0x712 JUMPI PUSH1 0x0 SWAP3 PUSH2 0x1EA1 JUMPI JUMPDEST POP DUP2 ISZERO PUSH2 0x1E5D JUMPI PUSH1 0xF SLOAD PUSH1 0x40 MLOAD PUSH4 0xA9059CBB PUSH1 0xE0 SHL DUP2 MSTORE SWAP2 AND PUSH1 0x1 PUSH1 0x1 PUSH1 0xA0 SHL SUB AND PUSH1 0x4 DUP3 ADD MSTORE PUSH1 0x24 DUP2 ADD DUP3 SWAP1 MSTORE SWAP2 SWAP1 DUP2 DUP4 DUP1 PUSH1 0x44 DUP2 ADD SUB DUP2 PUSH1 0x0 DUP9 GAS CALL SWAP3 DUP4 ISZERO PUSH2 0x712 JUMPI PUSH32 0x16E128B6BDADD9E9068ABD0B18DB2FC8B27ED3DBCED50E4AA6CC0A6934251AB SWAP4 PUSH2 0x1E40 JUMPI JUMPDEST POP PUSH1 0x40 MLOAD SWAP1 DUP2 MSTORE LOG2 STOP JUMPDEST PUSH2 0x1E56 SWAP1 DUP4 RETURNDATASIZE DUP6 GT PUSH2 0x70B JUMPI PUSH2 0x6FC DUP2 DUP4 PUSH2 0x2A30 JUMP JUMPDEST POP DUP5 PUSH2 0x1E36 JUMP JUMPDEST PUSH1 0x64 DUP4 PUSH1 0x40 MLOAD SWAP1 PUSH3 0x461BCD PUSH1 0xE5 SHL DUP3 MSTORE PUSH1 0x4 DUP3 ADD MSTORE PUSH1 0x16 PUSH1 0x24 DUP3 ADD MSTORE PUSH32 0x4E6F2062616C616E636520746F20776974686472617700000000000000000000 PUSH1 0x44 DUP3 ADD MSTORE REVERT JUMPDEST SWAP1 SWAP2 POP DUP3 DUP2 DUP2 RETURNDATASIZE DUP4 GT PUSH2 0x1EC9 JUMPI JUMPDEST PUSH2 0x1EB9 DUP2 DUP4 PUSH2 0x2A30 JUMP JUMPDEST DUP2 ADD SUB SLT PUSH2 0x2F4 JUMPI MLOAD SWAP1 DUP5 PUSH2 0x1DCA JUMP JUMPDEST POP RETURNDATASIZE PUSH2 0x1EAF JUMP JUMPDEST CALLVALUE PUSH2 0x2F4 JUMPI PUSH1 0x0 CALLDATASIZE PUSH1 0x3 NOT ADD SLT PUSH2 0x2F4 JUMPI PUSH1 0x20 PUSH1 0x40 MLOAD PUSH1 0x32 DUP2 MSTORE RETURN JUMPDEST CALLVALUE PUSH2 0x2F4 JUMPI PUSH1 0x0 CALLDATASIZE PUSH1 0x3 NOT ADD SLT PUSH2 0x2F4 JUMPI PUSH1 0x20 PUSH1 0x40 MLOAD PUSH20 0x2F2A2543B76A4166549F7AAB2E75BEF0AEFC5B0F DUP2 MSTORE RETURN JUMPDEST CALLVALUE PUSH2 0x2F4 JUMPI PUSH1 0x40 CALLDATASIZE PUSH1 0x3 NOT ADD SLT PUSH2 0x2F4 JUMPI PUSH2 0x1F34 PUSH2 0x28FA JUMP JUMPDEST PUSH1 0x24 CALLDATALOAD SWAP1 DUP2 ISZERO ISZERO DUP1 SWAP3 SUB PUSH2 0x2F4 JUMPI PUSH1 0x1 PUSH1 0x1 PUSH1 0xA0 SHL SUB SWAP1 PUSH2 0x1F53 PUSH2 0x2F89 JUMP JUMPDEST AND PUSH1 0x0 MSTORE PUSH1 0xE PUSH1 0x20 MSTORE PUSH1 0x40 PUSH1 0x0 KECCAK256 SWAP1 PUSH1 0xFF DUP1 NOT DUP4 SLOAD AND SWAP2 AND OR SWAP1 SSTORE PUSH1 0x0 DUP1 RETURN JUMPDEST CALLVALUE PUSH2 0x2F4 JUMPI PUSH1 0x0 CALLDATASIZE PUSH1 0x3 NOT ADD SLT PUSH2 0x2F4 JUMPI PUSH2 0x1F8C PUSH2 0x2F89 JUMP JUMPDEST PUSH1 0x2 SLOAD PUSH1 0xFF DUP2 AND ISZERO PUSH2 0x1FCB JUMPI PUSH1 0xFF NOT AND PUSH1 0x2 SSTORE PUSH32 0x5DB9EE0A495BF2E6FF9C91A7834C1BA4FDD244A5E8AA4E537BD38AEAE4B073AA PUSH1 0x20 PUSH1 0x40 MLOAD CALLER DUP2 MSTORE LOG1 STOP JUMPDEST PUSH1 0x64 PUSH1 0x40 MLOAD PUSH3 0x461BCD PUSH1 0xE5 SHL DUP2 MSTORE PUSH1 0x20 PUSH1 0x4 DUP3 ADD MSTORE PUSH1 0x14 PUSH1 0x24 DUP3 ADD MSTORE PUSH32 0x5061757361626C653A206E6F7420706175736564000000000000000000000000 PUSH1 0x44 DUP3 ADD MSTORE REVERT JUMPDEST CALLVALUE PUSH2 0x2F4 JUMPI PUSH1 0x0 CALLDATASIZE PUSH1 0x3 NOT ADD SLT PUSH2 0x2F4 JUMPI PUSH1 0x20 PUSH1 0x40 MLOAD PUSH20 0x4A7B5DA61326A6379179B40D00F57E5BBDC962C2 DUP2 MSTORE RETURN JUMPDEST CALLVALUE PUSH2 0x2F4 JUMPI PUSH1 0x0 CALLDATASIZE PUSH1 0x3 NOT ADD SLT PUSH2 0x2F4 JUMPI PUSH1 0x20 PUSH1 0x1 PUSH1 0x1 PUSH1 0xA0 SHL SUB PUSH1 0x7 SLOAD AND PUSH1 0x40 MLOAD SWAP1 DUP2 MSTORE RETURN JUMPDEST CALLVALUE PUSH2 0x2F4 JUMPI PUSH1 0x0 CALLDATASIZE PUSH1 0x3 NOT ADD SLT PUSH2 0x2F4 JUMPI PUSH1 0x20 PUSH1 0xC SLOAD PUSH1 0x40 MLOAD SWAP1 DUP2 MSTORE RETURN JUMPDEST CALLVALUE PUSH2 0x2F4 JUMPI PUSH1 0x0 CALLDATASIZE PUSH1 0x3 NOT ADD SLT PUSH2 0x2F4 JUMPI PUSH1 0x20 PUSH1 0x12 SLOAD PUSH1 0x40 MLOAD SWAP1 DUP2 MSTORE RETURN JUMPDEST CALLVALUE PUSH2 0x2F4 JUMPI PUSH1 0x0 CALLDATASIZE PUSH1 0x3 NOT ADD SLT PUSH2 0x2F4 JUMPI PUSH1 0x20 PUSH1 0xFF PUSH1 0xA SLOAD PUSH1 0x8 SHR AND PUSH1 0x40 MLOAD SWAP1 ISZERO ISZERO DUP2 MSTORE RETURN JUMPDEST CALLVALUE PUSH2 0x2F4 JUMPI PUSH1 0x60 CALLDATASIZE PUSH1 0x3 NOT ADD SLT PUSH2 0x2F4 JUMPI PUSH2 0x20E0 PUSH2 0x28FA JUMP JUMPDEST POP PUSH1 0x24 DUP1 CALLDATALOAD PUSH1 0x44 CALLDATALOAD PUSH8 0xFFFFFFFFFFFFFFFF DUP2 GT PUSH2 0x2F4 JUMPI PUSH2 0x2105 SWAP1 CALLDATASIZE SWAP1 PUSH1 0x4 ADD PUSH2 0x2952 JUMP JUMPDEST SWAP1 PUSH1 0x4 DUP3 SUB PUSH2 0x23F9 JUMPI DUP2 ISZERO PUSH2 0x103C JUMPI PUSH2 0x211D DUP2 PUSH2 0x2CCE JUMP JUMPDEST SWAP1 DUP3 PUSH1 0x3 LT ISZERO PUSH2 0x23E4 JUMPI PUSH2 0x2141 PUSH1 0x1 PUSH1 0x1 PUSH1 0xA0 SHL SUB SWAP3 DUP4 DUP1 PUSH2 0x8B5 PUSH1 0x60 DUP7 ADD PUSH2 0x2CCE JUMP JUMPDEST PUSH1 0x40 MLOAD SWAP3 PUSH2 0x214E DUP5 PUSH2 0x29F8 JUMP JUMPDEST PUSH1 0x2 DUP5 MSTORE PUSH1 0x40 CALLDATASIZE PUSH1 0x20 DUP7 ADD CALLDATACOPY PUSH2 0x2163 DUP3 PUSH2 0x2CCE JUMP JUMPDEST DUP4 PUSH2 0x216D DUP7 PUSH2 0x2C8D JUMP JUMPDEST SWAP2 AND SWAP1 MSTORE DUP1 PUSH1 0x1 LT ISZERO PUSH2 0x23CF JUMPI PUSH1 0x20 DUP3 ADD SWAP2 PUSH2 0x2188 DUP4 PUSH2 0x2CCE JUMP JUMPDEST DUP5 PUSH2 0x2192 DUP8 PUSH2 0x2C9A JUMP JUMPDEST SWAP2 AND SWAP1 MSTORE DUP4 PUSH1 0x7 SLOAD AND SWAP1 DUP7 PUSH1 0x0 PUSH1 0x40 DUP11 PUSH2 0x21CA DUP3 MLOAD SWAP11 DUP12 SWAP4 DUP5 SWAP4 PUSH4 0xD06CA61F PUSH1 0xE0 SHL SWAP8 DUP9 DUP7 MSTORE PUSH1 0x4 DUP7 ADD MSTORE DUP5 ADD MSTORE PUSH1 0x44 DUP4 ADD SWAP1 PUSH2 0x2DCD JUMP JUMPDEST SUB DUP2 DUP7 GAS STATICCALL SWAP7 DUP8 ISZERO PUSH2 0x712 JUMPI PUSH1 0x0 SWAP8 PUSH2 0x23B2 JUMPI JUMPDEST POP DUP7 MLOAD PUSH1 0x0 NOT SWAP8 SWAP1 DUP9 DUP2 ADD SWAP1 DUP2 GT PUSH2 0x239D JUMPI PUSH2 0x21F9 SWAP2 PUSH2 0x2CBA JUMP JUMPDEST MLOAD SWAP4 PUSH2 0x221C PUSH1 0x40 MLOAD SWAP7 PUSH2 0x220B DUP9 PUSH2 0x29F8 JUMP JUMPDEST PUSH1 0x2 DUP9 MSTORE PUSH1 0x40 CALLDATASIZE PUSH1 0x20 DUP11 ADD CALLDATACOPY PUSH2 0x2CCE JUMP JUMPDEST DUP8 PUSH2 0x2226 DUP9 PUSH2 0x2C8D JUMP JUMPDEST SWAP2 AND SWAP1 MSTORE PUSH1 0x2 LT ISZERO PUSH2 0xB4A JUMPI PUSH1 0x0 PUSH1 0x40 DUP1 DUP5 ADD SWAP6 PUSH2 0x2243 DUP8 PUSH2 0x2CCE JUMP JUMPDEST DUP10 PUSH2 0x224D DUP11 PUSH2 0x2C9A JUMP JUMPDEST SWAP2 AND SWAP1 MSTORE DUP12 DUP10 PUSH1 0x8 SLOAD AND SWAP2 PUSH2 0x2279 DUP5 MLOAD SWAP11 DUP12 SWAP6 DUP7 SWAP5 DUP6 SWAP5 DUP11 DUP7 MSTORE PUSH1 0x4 DUP7 ADD MSTORE DUP5 ADD MSTORE PUSH1 0x44 DUP4 ADD SWAP1 PUSH2 0x2DCD JUMP JUMPDEST SUB SWAP2 GAS STATICCALL SWAP5 DUP6 ISZERO PUSH2 0x712 JUMPI PUSH1 0x0 SWAP6 PUSH2 0x2380 JUMPI JUMPDEST POP DUP5 MLOAD SWAP6 DUP8 DUP8 ADD SWAP7 DUP8 GT PUSH2 0x236B JUMPI PUSH2 0x22E2 PUSH2 0x22AC PUSH2 0x2311 SWAP9 PUSH1 0x0 SWAP9 PUSH2 0x2CBA JUMP JUMPDEST MLOAD SWAP4 PUSH2 0x22CF PUSH1 0x40 MLOAD SWAP8 PUSH2 0x22BE DUP10 PUSH2 0x29F8 JUMP JUMPDEST PUSH1 0x2 DUP10 MSTORE PUSH1 0x40 CALLDATASIZE PUSH1 0x20 DUP12 ADD CALLDATACOPY PUSH2 0x2CCE JUMP JUMPDEST DUP4 PUSH2 0x22D9 DUP10 PUSH2 0x2C8D JUMP JUMPDEST SWAP2 AND SWAP1 MSTORE PUSH2 0x2CCE JUMP JUMPDEST SWAP1 PUSH2 0x22EC DUP7 PUSH2 0x2C9A JUMP JUMPDEST SWAP2 AND SWAP1 MSTORE PUSH1 0x40 MLOAD SWAP6 DUP7 SWAP5 DUP6 SWAP4 DUP5 SWAP4 DUP5 MSTORE PUSH1 0x4 DUP5 ADD MSTORE PUSH1 0x40 DUP12 DUP5 ADD MSTORE PUSH1 0x44 DUP4 ADD SWAP1 PUSH2 0x2DCD JUMP JUMPDEST SUB SWAP2 GAS STATICCALL SWAP1 DUP2 ISZERO PUSH2 0x712 JUMPI PUSH1 0x0 SWAP2 PUSH2 0x2350 JUMPI JUMPDEST POP DUP1 MLOAD SWAP2 DUP3 ADD SWAP2 DUP3 GT PUSH2 0x17AD JUMPI SWAP1 PUSH2 0x233B SWAP2 PUSH2 0x2CBA JUMP JUMPDEST MLOAD DUP2 DUP2 GT ISZERO PUSH2 0x17A2 JUMPI PUSH1 0x20 SWAP2 PUSH2 0x179A SWAP2 PUSH2 0x2BBF JUMP JUMPDEST PUSH2 0x2365 SWAP2 POP RETURNDATASIZE DUP1 PUSH1 0x0 DUP4 RETURNDATACOPY PUSH2 0x17D7 DUP2 DUP4 PUSH2 0x2A30 JUMP JUMPDEST DUP5 PUSH2 0x2324 JUMP JUMPDEST DUP10 PUSH4 0x4E487B71 PUSH1 0xE0 SHL PUSH1 0x0 MSTORE PUSH1 0x11 PUSH1 0x4 MSTORE PUSH1 0x0 REVERT JUMPDEST PUSH2 0x2396 SWAP2 SWAP6 POP RETURNDATASIZE DUP1 PUSH1 0x0 DUP4 RETURNDATACOPY PUSH2 0x17D7 DUP2 DUP4 PUSH2 0x2A30 JUMP JUMPDEST SWAP4 DUP10 PUSH2 0x228C JUMP JUMPDEST DUP11 PUSH4 0x4E487B71 PUSH1 0xE0 SHL PUSH1 0x0 MSTORE PUSH1 0x11 PUSH1 0x4 MSTORE PUSH1 0x0 REVERT JUMPDEST PUSH2 0x23C8 SWAP2 SWAP8 POP RETURNDATASIZE DUP1 PUSH1 0x0 DUP4 RETURNDATACOPY PUSH2 0x17D7 DUP2 DUP4 PUSH2 0x2A30 JUMP JUMPDEST SWAP6 DUP10 PUSH2 0x21DE JUMP JUMPDEST DUP6 PUSH4 0x4E487B71 PUSH1 0xE0 SHL PUSH1 0x0 MSTORE PUSH1 0x32 PUSH1 0x4 MSTORE PUSH1 0x0 REVERT JUMPDEST DUP5 PUSH4 0x4E487B71 PUSH1 0xE0 SHL PUSH1 0x0 MSTORE PUSH1 0x32 PUSH1 0x4 MSTORE PUSH1 0x0 REVERT JUMPDEST PUSH1 0x84 DUP5 PUSH1 0x22 PUSH1 0x40 MLOAD SWAP2 PUSH3 0x461BCD PUSH1 0xE5 SHL DUP4 MSTORE PUSH1 0x20 PUSH1 0x4 DUP5 ADD MSTORE DUP3 ADD MSTORE PUSH32 0x547269616E67756C61722070617468206D7573742068617665203420746F6B65 PUSH1 0x44 DUP3 ADD MSTORE PUSH32 0x6E73000000000000000000000000000000000000000000000000000000000000 PUSH1 0x64 DUP3 ADD MSTORE REVERT JUMPDEST CALLVALUE PUSH2 0x2F4 JUMPI PUSH1 0x0 CALLDATASIZE PUSH1 0x3 NOT ADD SLT PUSH2 0x2F4 JUMPI PUSH1 0x20 PUSH1 0x1 PUSH1 0x1 PUSH1 0xA0 SHL SUB PUSH1 0xF SLOAD AND PUSH1 0x40 MLOAD SWAP1 DUP2 MSTORE RETURN JUMPDEST CALLVALUE PUSH2 0x2F4 JUMPI PUSH1 0xA0 CALLDATASIZE PUSH1 0x3 NOT ADD SLT PUSH2 0x2F4 JUMPI PUSH2 0x24A3 PUSH2 0x28FA JUMP JUMPDEST PUSH1 0x24 SWAP1 PUSH1 0x44 CALLDATALOAD SWAP1 PUSH1 0x1 PUSH1 0x1 PUSH1 0xA0 SHL SUB DUP4 CALLDATALOAD PUSH1 0x64 CALLDATALOAD DUP3 DUP2 AND SWAP1 DUP2 SWAP1 SUB PUSH2 0x2F4 JUMPI PUSH1 0x84 CALLDATALOAD PUSH8 0xFFFFFFFFFFFFFFFF DUP2 GT PUSH2 0x2F4 JUMPI PUSH2 0x24E2 SWAP1 CALLDATASIZE SWAP1 PUSH1 0x4 ADD PUSH2 0x2924 JUMP JUMPDEST SWAP1 SWAP2 DUP5 PUSH1 0x3 SLOAD AND CALLER SUB PUSH2 0x27BD JUMPI ADDRESS SUB PUSH2 0x2779 JUMPI SWAP1 PUSH2 0x2502 SWAP2 DUP2 ADD SWAP1 PUSH2 0x2AC0 JUMP JUMPDEST SWAP1 SWAP8 SWAP3 SWAP6 PUSH2 0x2512 PUSH2 0x4E1 DUP9 PUSH2 0x2FF8 JUMP JUMPDEST DUP6 DUP2 AND SWAP4 PUSH1 0x40 MLOAD SWAP10 PUSH4 0x70A08231 PUSH1 0xE0 SHL SWAP2 DUP3 DUP13 MSTORE ADDRESS PUSH1 0x4 DUP14 ADD MSTORE PUSH1 0x20 SWAP12 DUP13 DUP2 DUP4 DUP2 DUP12 GAS STATICCALL SWAP1 DUP2 ISZERO PUSH2 0x712 JUMPI DUP14 SWAP2 PUSH2 0x2750 JUMPI JUMPDEST POP POP DUP5 ISZERO PUSH2 0x273F JUMPI PUSH2 0x2557 DUP11 DUP10 DUP7 PUSH2 0x3610 JUMP JUMPDEST PUSH1 0x40 MLOAD SWAP3 DUP4 MSTORE ADDRESS PUSH1 0x4 DUP5 ADD MSTORE DUP12 DUP4 DUP3 DUP2 DUP11 GAS STATICCALL SWAP3 DUP4 ISZERO PUSH2 0x712 JUMPI DUP12 SWAP1 PUSH1 0x0 SWAP5 PUSH2 0x270B JUMPI JUMPDEST POP PUSH2 0x25B3 PUSH2 0x259D PUSH2 0x258F PUSH2 0x25BB SWAP4 DUP13 PUSH2 0x2B67 JUMP JUMPDEST DUP7 PUSH2 0x581 DUP3 DUP1 SWAP10 LT ISZERO PUSH2 0x2B74 JUMP JUMPDEST SWAP13 PUSH2 0x2710 PUSH2 0x25AD PUSH1 0xC SLOAD DUP14 PUSH2 0x2C17 JUMP JUMPDEST DIV PUSH2 0x2B67 JUMP JUMPDEST DUP13 LT ISZERO PUSH2 0x2BCC JUMP JUMPDEST PUSH1 0x5A DUP3 MUL SWAP2 DUP1 DUP4 DIV PUSH1 0x5A EQ SWAP1 ISZERO OR ISZERO PUSH2 0x26F7 JUMPI POP PUSH2 0x261A SWAP3 SWAP2 PUSH2 0x25E4 PUSH1 0x64 DUP14 SWAP4 DIV DUP13 LT ISZERO PUSH2 0x2C2A JUMP JUMPDEST DUP9 PUSH1 0x3 SLOAD AND PUSH1 0x40 MLOAD SWAP5 DUP6 SWAP3 DUP4 SWAP3 PUSH4 0x95EA7B3 PUSH1 0xE0 SHL DUP5 MSTORE PUSH1 0x4 DUP5 ADD PUSH1 0x20 SWAP1 SWAP4 SWAP3 SWAP2 SWAP4 PUSH1 0x1 PUSH1 0x1 PUSH1 0xA0 SHL SUB PUSH1 0x40 DUP3 ADD SWAP6 AND DUP2 MSTORE ADD MSTORE JUMP JUMPDEST SUB DUP2 PUSH1 0x0 DUP10 GAS CALL SWAP1 DUP2 ISZERO PUSH2 0x712 JUMPI PUSH2 0x2639 SWAP3 DUP11 SWAP3 PUSH2 0x26DA JUMPI JUMPDEST POP PUSH2 0x39EF JUMP JUMPDEST ISZERO PUSH2 0x2695 JUMPI POP POP PUSH1 0x40 PUSH32 0x511DC6C70263758503FF9AEE3E77F3E7BEF3CABEE21A4EB0B017E7CF0438F2F2 SWAP2 DUP4 PUSH2 0x266E DUP7 PUSH2 0x2C8D JUMP JUMPDEST MLOAD AND SWAP4 PUSH2 0x267E DUP2 PUSH2 0x67C DUP9 PUSH2 0x2C9A JUMP JUMPDEST MLOAD AND SWAP6 DUP3 MLOAD SWAP2 DUP3 MSTORE DUP8 DUP3 ADD MSTORE LOG4 JUMPDEST PUSH1 0x40 MLOAD PUSH1 0x1 DUP2 MSTORE RETURN JUMPDEST PUSH1 0x40 DUP1 MLOAD SWAP4 DUP5 MSTORE PUSH1 0x20 DUP5 ADD SWAP7 SWAP1 SWAP7 MSTORE ISZERO ISZERO SWAP5 DUP3 ADD SWAP5 SWAP1 SWAP5 MSTORE PUSH32 0x5625C164577E109E0C8964AB47768B235A36D08F5146DFA9858A382FA5C5EFD SWAP3 POP PUSH1 0x60 SWAP2 POP LOG2 PUSH2 0x268C JUMP JUMPDEST PUSH2 0x26F0 SWAP1 DUP13 DUP14 RETURNDATASIZE LT PUSH2 0x70B JUMPI PUSH2 0x6FC DUP2 DUP4 PUSH2 0x2A30 JUMP JUMPDEST POP DUP12 PUSH2 0x2633 JUMP JUMPDEST PUSH4 0x4E487B71 PUSH1 0xE0 SHL PUSH1 0x0 MSTORE PUSH1 0x11 PUSH1 0x4 MSTORE PUSH1 0x0 REVERT JUMPDEST DUP1 SWAP5 POP DUP14 DUP1 SWAP3 POP RETURNDATASIZE DUP4 GT PUSH2 0x2738 JUMPI JUMPDEST PUSH2 0x2724 DUP2 DUP4 PUSH2 0x2A30 JUMP JUMPDEST DUP2 ADD SUB SLT PUSH2 0x2F4 JUMPI SWAP2 MLOAD SWAP2 DUP11 PUSH2 0x25B3 PUSH2 0x257B JUMP JUMPDEST POP RETURNDATASIZE PUSH2 0x271A JUMP JUMPDEST PUSH2 0x274B DUP7 DUP12 DUP11 DUP8 PUSH2 0x31D5 JUMP JUMPDEST PUSH2 0x2557 JUMP JUMPDEST DUP2 RETURNDATASIZE DUP4 GT PUSH2 0x2772 JUMPI JUMPDEST PUSH2 0x2763 DUP2 DUP4 PUSH2 0x2A30 JUMP JUMPDEST DUP2 ADD SUB SLT PUSH2 0x2F4 JUMPI DUP12 DUP14 PUSH2 0x2544 JUMP JUMPDEST POP RETURNDATASIZE PUSH2 0x2759 JUMP JUMPDEST PUSH1 0x64 DUP8 PUSH1 0x11 PUSH1 0x40 MLOAD SWAP2 PUSH3 0x461BCD PUSH1 0xE5 SHL DUP4 MSTORE PUSH1 0x20 PUSH1 0x4 DUP5 ADD MSTORE DUP3 ADD MSTORE PUSH32 0x496E76616C696420696E69746961746F72000000000000000000000000000000 PUSH1 0x44 DUP3 ADD MSTORE REVERT JUMPDEST PUSH1 0x64 DUP9 PUSH1 0xE PUSH1 0x40 MLOAD SWAP2 PUSH3 0x461BCD PUSH1 0xE5 SHL DUP4 MSTORE PUSH1 0x20 PUSH1 0x4 DUP5 ADD MSTORE DUP3 ADD MSTORE PUSH32 0x4F6E6C79204161766520706F6F6C000000000000000000000000000000000000 PUSH1 0x44 DUP3 ADD MSTORE REVERT JUMPDEST CALLVALUE PUSH2 0x2F4 JUMPI PUSH1 0x0 CALLDATASIZE PUSH1 0x3 NOT ADD SLT PUSH2 0x2F4 JUMPI PUSH1 0x20 PUSH1 0x40 MLOAD PUSH20 0x4752BA5DBC23F44D87826276BF6FD6B1C372AD24 DUP2 MSTORE RETURN JUMPDEST CALLVALUE PUSH2 0x2F4 JUMPI PUSH1 0x0 CALLDATASIZE PUSH1 0x3 NOT ADD SLT PUSH2 0x2F4 JUMPI PUSH1 0x20 PUSH1 0x40 MLOAD PUSH20 0x2ABF469074DC0B54D793850807E6EB5FAF2625B1 DUP2 MSTORE RETURN JUMPDEST CALLVALUE PUSH2 0x2F4 JUMPI PUSH1 0x20 CALLDATASIZE PUSH1 0x3 NOT ADD SLT PUSH2 0x2F4 JUMPI PUSH1 0x4 CALLDATALOAD PUSH2 0x287B PUSH2 0x2F89 JUMP JUMPDEST PUSH2 0x1F4 DUP2 GT PUSH2 0x2889 JUMPI PUSH1 0xB SSTORE STOP JUMPDEST PUSH1 0x64 PUSH1 0x40 MLOAD PUSH3 0x461BCD PUSH1 0xE5 SHL DUP2 MSTORE PUSH1 0x20 PUSH1 0x4 DUP3 ADD MSTORE PUSH1 0x11 PUSH1 0x24 DUP3 ADD MSTORE PUSH32 0x536C69707061676520746F6F2068696768000000000000000000000000000000 PUSH1 0x44 DUP3 ADD MSTORE REVERT JUMPDEST CALLVALUE PUSH2 0x2F4 JUMPI PUSH1 0x0 CALLDATASIZE PUSH1 0x3 NOT ADD SLT PUSH2 0x2F4 JUMPI DUP1 PUSH20 0xF2614A233C7C3E7F08B1F887BA133A13F1EB2C55 PUSH1 0x20 SWAP3 MSTORE RETURN JUMPDEST PUSH1 0x4 CALLDATALOAD SWAP1 PUSH1 0x1 PUSH1 0x1 PUSH1 0xA0 SHL SUB DUP3 AND DUP3 SUB PUSH2 0x2F4 JUMPI JUMP JUMPDEST CALLDATALOAD SWAP1 PUSH1 0x1 PUSH1 0x1 PUSH1 0xA0 SHL SUB DUP3 AND DUP3 SUB PUSH2 0x2F4 JUMPI JUMP JUMPDEST SWAP2 DUP2 PUSH1 0x1F DUP5 ADD SLT ISZERO PUSH2 0x2F4 JUMPI DUP3 CALLDATALOAD SWAP2 PUSH8 0xFFFFFFFFFFFFFFFF DUP4 GT PUSH2 0x2F4 JUMPI PUSH1 0x20 DUP4 DUP2 DUP7 ADD SWAP6 ADD ADD GT PUSH2 0x2F4 JUMPI JUMP JUMPDEST SWAP2 DUP2 PUSH1 0x1F DUP5 ADD SLT ISZERO PUSH2 0x2F4 JUMPI DUP3 CALLDATALOAD SWAP2 PUSH8 0xFFFFFFFFFFFFFFFF DUP4 GT PUSH2 0x2F4 JUMPI PUSH1 0x20 DUP1 DUP6 ADD SWAP5 DUP5 PUSH1 0x5 SHL ADD ADD GT PUSH2 0x2F4 JUMPI JUMP JUMPDEST CALLVALUE PUSH2 0x2F4 JUMPI PUSH1 0x0 CALLDATASIZE PUSH1 0x3 NOT ADD SLT PUSH2 0x2F4 JUMPI PUSH1 0x20 PUSH1 0x40 MLOAD PUSH20 0x794A61358D6845594F94DC1DB02A252B5B4814AD DUP2 MSTORE RETURN JUMPDEST PUSH1 0x64 CALLDATALOAD SWAP1 DUP2 ISZERO ISZERO DUP3 SUB PUSH2 0x2F4 JUMPI JUMP JUMPDEST CALLDATALOAD SWAP1 DUP2 ISZERO ISZERO DUP3 SUB PUSH2 0x2F4 JUMPI JUMP JUMPDEST PUSH8 0xFFFFFFFFFFFFFFFF DUP2 GT PUSH2 0x29E2 JUMPI PUSH1 0x40 MSTORE JUMP JUMPDEST PUSH4 0x4E487B71 PUSH1 0xE0 SHL PUSH1 0x0 MSTORE PUSH1 0x41 PUSH1 0x4 MSTORE PUSH1 0x24 PUSH1 0x0 REVERT JUMPDEST PUSH1 0x60 DUP2 ADD SWAP1 DUP2 LT PUSH8 0xFFFFFFFFFFFFFFFF DUP3 GT OR PUSH2 0x29E2 JUMPI PUSH1 0x40 MSTORE JUMP JUMPDEST PUSH1 0x40 DUP2 ADD SWAP1 DUP2 LT PUSH8 0xFFFFFFFFFFFFFFFF DUP3 GT OR PUSH2 0x29E2 JUMPI PUSH1 0x40 MSTORE JUMP JUMPDEST SWAP1 PUSH1 0x1F DUP1 NOT SWAP2 ADD AND DUP2 ADD SWAP1 DUP2 LT PUSH8 0xFFFFFFFFFFFFFFFF DUP3 GT OR PUSH2 0x29E2 JUMPI PUSH1 0x40 MSTORE JUMP JUMPDEST PUSH8 0xFFFFFFFFFFFFFFFF DUP2 GT PUSH2 0x29E2 JUMPI PUSH1 0x5 SHL PUSH1 0x20 ADD SWAP1 JUMP JUMPDEST SWAP3 SWAP2 PUSH2 0x2A75 DUP3 PUSH2 0x2A52 JUMP JUMPDEST SWAP2 PUSH2 0x2A83 PUSH1 0x40 MLOAD SWAP4 DUP5 PUSH2 0x2A30 JUMP JUMPDEST DUP3 SWAP5 DUP2 DUP5 MSTORE PUSH1 0x20 DUP1 SWAP5 ADD SWAP2 PUSH1 0x5 SHL DUP2 ADD SWAP3 DUP4 GT PUSH2 0x2F4 JUMPI SWAP1 JUMPDEST DUP3 DUP3 LT PUSH2 0x2AA9 JUMPI POP POP POP POP JUMP JUMPDEST DUP4 DUP1 SWAP2 PUSH2 0x2AB5 DUP5 PUSH2 0x2910 JUMP JUMPDEST DUP2 MSTORE ADD SWAP2 ADD SWAP1 PUSH2 0x2A9C JUMP JUMPDEST SWAP2 SWAP1 PUSH1 0x80 DUP4 DUP3 SUB SLT PUSH2 0x2F4 JUMPI DUP3 CALLDATALOAD PUSH8 0xFFFFFFFFFFFFFFFF DUP2 GT PUSH2 0x2F4 JUMPI DUP4 ADD SWAP1 DUP1 PUSH1 0x1F DUP4 ADD SLT ISZERO PUSH2 0x2F4 JUMPI DUP2 PUSH1 0x20 PUSH2 0x2AFA SWAP4 CALLDATALOAD SWAP2 ADD PUSH2 0x2A6A JUMP JUMPDEST SWAP2 PUSH2 0x2B07 PUSH1 0x20 DUP3 ADD PUSH2 0x29C1 JUMP JUMPDEST SWAP2 PUSH2 0x2B19 PUSH1 0x60 PUSH1 0x40 DUP5 ADD CALLDATALOAD SWAP4 ADD PUSH2 0x29C1 JUMP JUMPDEST SWAP1 JUMP JUMPDEST ISZERO PUSH2 0x2B23 JUMPI JUMP JUMPDEST PUSH1 0x64 PUSH1 0x40 MLOAD PUSH3 0x461BCD PUSH1 0xE5 SHL DUP2 MSTORE PUSH1 0x20 PUSH1 0x4 DUP3 ADD MSTORE PUSH1 0x12 PUSH1 0x24 DUP3 ADD MSTORE PUSH32 0x496E76616C696420707269636520666565640000000000000000000000000000 PUSH1 0x44 DUP3 ADD MSTORE REVERT JUMPDEST SWAP2 SWAP1 DUP3 ADD DUP1 SWAP3 GT PUSH2 0x71E JUMPI JUMP JUMPDEST ISZERO PUSH2 0x2B7B JUMPI JUMP JUMPDEST PUSH1 0x64 PUSH1 0x40 MLOAD PUSH3 0x461BCD PUSH1 0xE5 SHL DUP2 MSTORE PUSH1 0x20 PUSH1 0x4 DUP3 ADD MSTORE PUSH1 0xC PUSH1 0x24 DUP3 ADD MSTORE PUSH32 0x556E70726F66697461626C650000000000000000000000000000000000000000 PUSH1 0x44 DUP3 ADD MSTORE REVERT JUMPDEST SWAP2 SWAP1 DUP3 SUB SWAP2 DUP3 GT PUSH2 0x71E JUMPI JUMP JUMPDEST ISZERO PUSH2 0x2BD3 JUMPI JUMP JUMPDEST PUSH1 0x64 PUSH1 0x40 MLOAD PUSH3 0x461BCD PUSH1 0xE5 SHL DUP2 MSTORE PUSH1 0x20 PUSH1 0x4 DUP3 ADD MSTORE PUSH1 0xE PUSH1 0x24 DUP3 ADD MSTORE PUSH32 0x50726F66697420746F6F206C6F77000000000000000000000000000000000000 PUSH1 0x44 DUP3 ADD MSTORE REVERT JUMPDEST DUP2 DUP2 MUL SWAP3 SWAP2 DUP2 ISZERO SWAP2 DUP5 DIV EQ OR ISZERO PUSH2 0x71E JUMPI JUMP JUMPDEST ISZERO PUSH2 0x2C31 JUMPI JUMP JUMPDEST PUSH1 0x64 PUSH1 0x40 MLOAD PUSH3 0x461BCD PUSH1 0xE5 SHL DUP2 MSTORE PUSH1 0x20 PUSH1 0x4 DUP3 ADD MSTORE PUSH1 0x19 PUSH1 0x24 DUP3 ADD MSTORE PUSH32 0x50726F66697420646576696174696F6E20746F6F206869676800000000000000 PUSH1 0x44 DUP3 ADD MSTORE REVERT JUMPDEST SWAP1 DUP2 PUSH1 0x20 SWAP2 SUB SLT PUSH2 0x2F4 JUMPI MLOAD DUP1 ISZERO ISZERO DUP2 SUB PUSH2 0x2F4 JUMPI SWAP1 JUMP JUMPDEST DUP1 MLOAD ISZERO PUSH2 0x734 JUMPI PUSH1 0x20 ADD SWAP1 JUMP JUMPDEST DUP1 MLOAD PUSH1 0x1 LT ISZERO PUSH2 0x734 JUMPI PUSH1 0x40 ADD SWAP1 JUMP JUMPDEST DUP1 MLOAD PUSH1 0x2 LT ISZERO PUSH2 0x734 JUMPI PUSH1 0x60 ADD SWAP1 JUMP JUMPDEST DUP1 MLOAD DUP3 LT ISZERO PUSH2 0x734 JUMPI PUSH1 0x20 SWAP2 PUSH1 0x5 SHL ADD ADD SWAP1 JUMP JUMPDEST CALLDATALOAD PUSH1 0x1 PUSH1 0x1 PUSH1 0xA0 SHL SUB DUP2 AND DUP2 SUB PUSH2 0x2F4 JUMPI SWAP1 JUMP JUMPDEST ISZERO PUSH2 0x2CE9 JUMPI JUMP JUMPDEST PUSH1 0x84 PUSH1 0x40 MLOAD PUSH3 0x461BCD PUSH1 0xE5 SHL DUP2 MSTORE PUSH1 0x20 PUSH1 0x4 DUP3 ADD MSTORE PUSH1 0x27 PUSH1 0x24 DUP3 ADD MSTORE PUSH32 0x50617468206D75737420737461727420616E6420656E6420776974682073616D PUSH1 0x44 DUP3 ADD MSTORE PUSH32 0x6520746F6B656E00000000000000000000000000000000000000000000000000 PUSH1 0x64 DUP3 ADD MSTORE REVERT JUMPDEST PUSH1 0x20 SWAP1 DUP2 DUP2 DUP5 SUB SLT PUSH2 0x2F4 JUMPI DUP1 MLOAD SWAP1 PUSH8 0xFFFFFFFFFFFFFFFF DUP3 GT PUSH2 0x2F4 JUMPI ADD SWAP2 DUP1 PUSH1 0x1F DUP5 ADD SLT ISZERO PUSH2 0x2F4 JUMPI DUP3 MLOAD PUSH2 0x2D89 DUP2 PUSH2 0x2A52 JUMP JUMPDEST SWAP4 PUSH2 0x2D97 PUSH1 0x40 MLOAD SWAP6 DUP7 PUSH2 0x2A30 JUMP JUMPDEST DUP2 DUP6 MSTORE DUP4 DUP1 DUP7 ADD SWAP3 PUSH1 0x5 SHL DUP3 ADD ADD SWAP3 DUP4 GT PUSH2 0x2F4 JUMPI DUP4 ADD SWAP1 JUMPDEST DUP3 DUP3 LT PUSH2 0x2DBE JUMPI POP POP POP POP SWAP1 JUMP JUMPDEST DUP2 MLOAD DUP2 MSTORE SWAP1 DUP4 ADD SWAP1 DUP4 ADD PUSH2 0x2DB0 JUMP JUMPDEST SWAP1 DUP2 MLOAD DUP1 DUP3 MSTORE PUSH1 0x20 DUP1 DUP1 SWAP4 ADD SWAP4 ADD SWAP2 PUSH1 0x0 JUMPDEST DUP3 DUP2 LT PUSH2 0x2DED JUMPI POP POP POP POP SWAP1 JUMP JUMPDEST DUP4 MLOAD PUSH1 0x1 PUSH1 0x1 PUSH1 0xA0 SHL SUB AND DUP6 MSTORE SWAP4 DUP2 ADD SWAP4 SWAP3 DUP2 ADD SWAP3 PUSH1 0x1 ADD PUSH2 0x2DDF JUMP JUMPDEST PUSH1 0x60 SWAP1 SWAP4 SWAP2 SWAP3 SWAP4 PUSH1 0x40 DUP2 ADD SWAP4 DUP2 MSTORE DUP3 PUSH1 0x20 SWAP5 PUSH1 0x40 PUSH1 0x20 DUP5 ADD MSTORE MSTORE ADD SWAP3 SWAP2 PUSH1 0x0 JUMPDEST DUP3 DUP2 LT PUSH2 0x2E38 JUMPI POP POP POP POP SWAP1 JUMP JUMPDEST SWAP1 SWAP2 SWAP3 SWAP4 DUP3 DUP1 PUSH1 0x1 SWAP3 PUSH1 0x1 PUSH1 0x1 PUSH1 0xA0 SHL SUB PUSH2 0x2E52 DUP10 PUSH2 0x2910 JUMP JUMPDEST AND DUP2 MSTORE ADD SWAP6 ADD SWAP4 SWAP3 SWAP2 ADD PUSH2 0x2E2A JUMP JUMPDEST ISZERO PUSH2 0x2E68 JUMPI JUMP JUMPDEST PUSH1 0x64 PUSH1 0x40 MLOAD PUSH3 0x461BCD PUSH1 0xE5 SHL DUP2 MSTORE PUSH1 0x20 PUSH1 0x4 DUP3 ADD MSTORE PUSH1 0xE PUSH1 0x24 DUP3 ADD MSTORE PUSH32 0x4E6F7420617574686F72697A6564000000000000000000000000000000000000 PUSH1 0x44 DUP3 ADD MSTORE REVERT JUMPDEST ISZERO PUSH2 0x2EB3 JUMPI JUMP JUMPDEST PUSH1 0x64 PUSH1 0x40 MLOAD PUSH3 0x461BCD PUSH1 0xE5 SHL DUP2 MSTORE PUSH1 0x20 PUSH1 0x4 DUP3 ADD MSTORE PUSH1 0x17 PUSH1 0x24 DUP3 ADD MSTORE PUSH32 0x416D6F756E74206D75737420626520706F736974697665000000000000000000 PUSH1 0x44 DUP3 ADD MSTORE REVERT JUMPDEST ISZERO PUSH2 0x2EFE JUMPI JUMP JUMPDEST PUSH1 0x64 PUSH1 0x40 MLOAD PUSH3 0x461BCD PUSH1 0xE5 SHL DUP2 MSTORE PUSH1 0x20 PUSH1 0x4 DUP3 ADD MSTORE PUSH1 0x20 PUSH1 0x24 DUP3 ADD MSTORE PUSH32 0x45787065637465642070726F666974206D75737420626520706F736974697665 PUSH1 0x44 DUP3 ADD MSTORE REVERT JUMPDEST SWAP1 CALLDATALOAD SWAP1 PUSH1 0x1E NOT DUP2 CALLDATASIZE SUB ADD DUP3 SLT ISZERO PUSH2 0x2F4 JUMPI ADD DUP1 CALLDATALOAD SWAP1 PUSH8 0xFFFFFFFFFFFFFFFF DUP3 GT PUSH2 0x2F4 JUMPI PUSH1 0x20 ADD SWAP2 PUSH1 0xE0 DUP3 MUL CALLDATASIZE SUB DUP4 SGT PUSH2 0x2F4 JUMPI JUMP JUMPDEST CALLDATALOAD SWAP1 PUSH4 0xFFFFFFFF DUP3 AND DUP3 SUB PUSH2 0x2F4 JUMPI JUMP JUMPDEST PUSH1 0x1 PUSH1 0x1 PUSH1 0xA0 SHL SUB PUSH1 0x0 SLOAD AND CALLER SUB PUSH2 0x2F9D JUMPI JUMP JUMPDEST PUSH1 0x64 PUSH1 0x40 MLOAD PUSH3 0x461BCD PUSH1 0xE5 SHL DUP2 MSTORE PUSH1 0x20 PUSH1 0x4 DUP3 ADD MSTORE PUSH1 0x20 PUSH1 0x24 DUP3 ADD MSTORE PUSH32 0x4F776E61626C653A2063616C6C6572206973206E6F7420746865206F776E6572 PUSH1 0x44 DUP3 ADD MSTORE REVERT JUMPDEST MLOAD SWAP1 PUSH10 0xFFFFFFFFFFFFFFFFFFFF DUP3 AND DUP3 SUB PUSH2 0x2F4 JUMPI JUMP JUMPDEST PUSH1 0x0 JUMPDEST DUP2 MLOAD DUP2 LT ISZERO PUSH2 0x3196 JUMPI PUSH1 0x1 PUSH1 0x1 PUSH1 0xA0 SHL SUB DUP1 PUSH2 0x3017 DUP4 DUP6 PUSH2 0x2CBA JUMP JUMPDEST MLOAD AND PUSH1 0x0 MSTORE PUSH1 0xD PUSH1 0x20 DUP2 DUP2 MSTORE PUSH1 0x40 SWAP3 DUP1 DUP5 PUSH1 0x0 KECCAK256 SLOAD AND PUSH2 0x303E JUMPI JUMPDEST POP POP POP POP PUSH1 0x1 ADD PUSH2 0x2FFB JUMP JUMPDEST DUP1 PUSH2 0x3049 DUP7 DUP9 PUSH2 0x2CBA JUMP JUMPDEST MLOAD AND PUSH1 0x0 MSTORE DUP3 DUP3 MSTORE DUP4 PUSH1 0x0 KECCAK256 SLOAD AND SWAP3 DUP1 MLOAD DUP1 DUP1 SWAP6 PUSH32 0xFEAF968C00000000000000000000000000000000000000000000000000000000 DUP3 MSTORE PUSH1 0xA0 SWAP2 DUP3 SWAP2 PUSH1 0x4 SWAP9 DUP10 SWAP2 GAS STATICCALL SWAP2 DUP3 ISZERO PUSH2 0x318B JUMPI PUSH1 0x0 SWAP2 DUP3 SWAP4 PUSH2 0x3138 JUMPI JUMPDEST POP POP PUSH1 0x0 SLT ISZERO PUSH2 0x30F8 JUMPI PUSH2 0x30B4 PUSH2 0xE10 SWAP2 TIMESTAMP PUSH2 0x2BBF JUMP JUMPDEST LT PUSH2 0x3032 JUMPI PUSH1 0x64 SWAP5 POP MLOAD SWAP3 PUSH3 0x461BCD PUSH1 0xE5 SHL DUP5 MSTORE DUP4 ADD MSTORE PUSH1 0x24 DUP3 ADD MSTORE PUSH32 0x507269636520746F6F206F6C6400000000000000000000000000000000000000 PUSH1 0x44 DUP3 ADD MSTORE REVERT JUMPDEST POP PUSH1 0x64 SWAP5 POP MLOAD SWAP3 PUSH3 0x461BCD PUSH1 0xE5 SHL DUP5 MSTORE DUP4 ADD MSTORE PUSH1 0x24 DUP3 ADD MSTORE PUSH32 0x496E76616C696420707269636500000000000000000000000000000000000000 PUSH1 0x44 DUP3 ADD MSTORE REVERT JUMPDEST SWAP1 DUP1 SWAP4 POP DUP2 RETURNDATASIZE DUP4 GT PUSH2 0x3184 JUMPI JUMPDEST PUSH2 0x314F DUP2 DUP4 PUSH2 0x2A30 JUMP JUMPDEST DUP2 ADD SUB SLT PUSH2 0x3181 JUMPI POP PUSH2 0x3161 DUP2 PUSH2 0x2FE1 JUMP JUMPDEST POP PUSH1 0x0 DUP4 DUP3 ADD MLOAD PUSH2 0x3179 PUSH1 0x80 PUSH1 0x60 DUP6 ADD MLOAD SWAP5 ADD PUSH2 0x2FE1 JUMP JUMPDEST POP SWAP1 CODESIZE PUSH2 0x309D JUMP JUMPDEST DUP1 REVERT JUMPDEST POP RETURNDATASIZE PUSH2 0x3145 JUMP JUMPDEST DUP4 MLOAD RETURNDATASIZE PUSH1 0x0 DUP3 RETURNDATACOPY RETURNDATASIZE SWAP1 REVERT JUMPDEST POP POP PUSH1 0x1 SWAP1 JUMP JUMPDEST SWAP2 PUSH1 0x80 SWAP4 PUSH2 0x31CA SWAP2 PUSH1 0x1 PUSH1 0x1 PUSH1 0xA0 SHL SUB SWAP4 SWAP9 SWAP8 SWAP7 SWAP9 DUP6 MSTORE PUSH1 0x20 DUP6 ADD MSTORE PUSH1 0xA0 PUSH1 0x40 DUP6 ADD MSTORE PUSH1 0xA0 DUP5 ADD SWAP1 PUSH2 0x2DCD JUMP JUMPDEST SWAP6 AND PUSH1 0x60 DUP3 ADD MSTORE ADD MSTORE JUMP JUMPDEST PUSH1 0x4 DUP1 SLOAD PUSH1 0x40 DUP1 MLOAD PUSH4 0x95EA7B3 PUSH1 0xE0 SHL DUP1 DUP3 MSTORE PUSH1 0x1 PUSH1 0x1 PUSH1 0xA0 SHL SUB SWAP4 DUP5 AND DUP3 DUP7 ADD MSTORE PUSH1 0x24 DUP3 ADD DUP8 SWAP1 MSTORE PUSH1 0x0 SWAP9 SWAP7 SWAP8 SWAP3 SWAP7 SWAP4 SWAP6 SWAP1 SWAP4 PUSH1 0x20 SWAP3 SWAP1 SWAP2 DUP8 AND SWAP1 DUP4 DUP2 PUSH1 0x44 DUP2 DUP15 DUP7 GAS CALL DUP1 ISZERO PUSH2 0x35CC JUMPI PUSH2 0x35F3 JUMPI JUMPDEST POP DUP9 DUP4 DUP10 DUP13 DUP10 DUP10 PUSH2 0x325C DUP14 PUSH1 0x5 SLOAD AND SWAP5 MLOAD SWAP7 DUP8 SWAP6 DUP7 SWAP5 DUP6 SWAP5 DUP6 MSTORE DUP5 ADD PUSH1 0x20 SWAP1 SWAP4 SWAP3 SWAP2 SWAP4 PUSH1 0x1 PUSH1 0x1 PUSH1 0xA0 SHL SUB PUSH1 0x40 DUP3 ADD SWAP6 AND DUP2 MSTORE ADD MSTORE JUMP JUMPDEST SUB SWAP2 DUP7 GAS CALL DUP1 ISZERO PUSH2 0x35CC JUMPI PUSH2 0x35D6 JUMPI JUMPDEST POP DUP9 DUP4 DUP10 DUP13 DUP10 DUP10 PUSH2 0x32A3 DUP14 PUSH1 0x7 SLOAD AND SWAP5 MLOAD SWAP7 DUP8 SWAP6 DUP7 SWAP5 DUP6 SWAP5 DUP6 MSTORE DUP5 ADD PUSH1 0x20 SWAP1 SWAP4 SWAP3 SWAP2 SWAP4 PUSH1 0x1 PUSH1 0x1 PUSH1 0xA0 SHL SUB PUSH1 0x40 DUP3 ADD SWAP6 AND DUP2 MSTORE ADD MSTORE JUMP JUMPDEST SUB SWAP2 DUP7 GAS CALL DUP1 ISZERO PUSH2 0x35CC JUMPI DUP11 SWAP3 DUP6 SWAP3 DUP12 SWAP3 PUSH2 0x35AF JUMPI JUMPDEST POP DUP9 DUP14 DUP10 PUSH2 0x32ED DUP14 PUSH1 0x8 SLOAD AND SWAP6 MLOAD SWAP8 DUP9 SWAP7 DUP8 SWAP6 DUP7 SWAP5 DUP6 MSTORE DUP5 ADD PUSH1 0x20 SWAP1 SWAP4 SWAP3 SWAP2 SWAP4 PUSH1 0x1 PUSH1 0x1 PUSH1 0xA0 SHL SUB PUSH1 0x40 DUP3 ADD SWAP6 AND DUP2 MSTORE ADD MSTORE JUMP JUMPDEST SUB SWAP3 GAS CALL DUP1 ISZERO PUSH2 0x346A JUMPI PUSH2 0x3592 JUMPI JUMPDEST POP ISZERO PUSH2 0x34A1 JUMPI PUSH2 0x330C DUP3 DUP9 PUSH2 0x3FAE JUMP JUMPDEST SWAP3 DUP6 PUSH2 0x3316 PUSH2 0x3CD3 JUMP JUMPDEST AND SWAP8 PUSH2 0x12C TIMESTAMP ADD SWAP9 DUP10 TIMESTAMP GT PUSH2 0x3474 JUMPI DUP11 SWAP2 DUP3 SWAP2 DUP12 DUP12 MLOAD SWAP5 DUP6 DUP1 SWAP5 DUP2 SWAP4 DUP14 DUP13 PUSH4 0x38ED1739 PUSH1 0xE0 SHL SWAP15 DUP16 DUP7 MSTORE ADDRESS SWAP3 DUP7 ADD SWAP5 PUSH2 0x334E SWAP6 PUSH2 0x319D JUMP JUMPDEST SUB SWAP3 GAS CALL SWAP1 DUP2 ISZERO PUSH2 0x346A JUMPI DUP11 SWAP2 PUSH2 0x3487 JUMPI JUMPDEST POP DUP1 MLOAD PUSH1 0x0 NOT DUP2 ADD SWAP2 SWAP1 DUP3 GT PUSH2 0x3474 JUMPI SWAP3 PUSH2 0x3380 DUP2 SWAP4 SWAP3 DUP11 SWAP8 SWAP7 SWAP6 PUSH2 0x2CBA JUMP JUMPDEST MLOAD SWAP6 DUP7 SWAP3 DUP9 DUP14 DUP12 PUSH2 0x3390 DUP10 PUSH2 0x2C9A JUMP JUMPDEST MLOAD AND SWAP3 PUSH2 0x33C8 DUP14 PUSH2 0x339F PUSH2 0x3CB1 JUMP JUMPDEST AND SWAP6 MLOAD SWAP8 DUP9 SWAP7 DUP8 SWAP6 DUP7 SWAP5 DUP6 MSTORE DUP5 ADD PUSH1 0x20 SWAP1 SWAP4 SWAP3 SWAP2 SWAP4 PUSH1 0x1 PUSH1 0x1 PUSH1 0xA0 SHL SUB PUSH1 0x40 DUP3 ADD SWAP6 AND DUP2 MSTORE ADD MSTORE JUMP JUMPDEST SUB SWAP3 GAS CALL DUP1 ISZERO PUSH2 0x346A JUMPI DUP11 SWAP8 SWAP7 SWAP6 SWAP5 SWAP3 SWAP4 DUP9 SWAP5 PUSH2 0x3419 SWAP4 PUSH2 0x33EF SWAP4 PUSH2 0x344C JUMPI JUMPDEST POP POP PUSH2 0x3D13 JUMP JUMPDEST SWAP9 PUSH2 0x33FA DUP11 DUP7 PUSH2 0x3EE7 JUMP JUMPDEST SWAP7 PUSH2 0x3403 PUSH2 0x3CB1 JUMP JUMPDEST AND SWAP6 DUP10 MLOAD SWAP11 DUP12 SWAP9 DUP10 SWAP8 DUP9 SWAP7 DUP8 MSTORE ADDRESS SWAP4 DUP8 ADD PUSH2 0x319D JUMP JUMPDEST SUB SWAP3 GAS CALL SWAP1 DUP2 ISZERO PUSH2 0x3443 JUMPI POP PUSH2 0x342D JUMPI POP POP JUMP JUMPDEST PUSH2 0x3440 SWAP2 RETURNDATASIZE DUP1 SWAP2 DUP4 RETURNDATACOPY PUSH2 0x17D7 DUP2 DUP4 PUSH2 0x2A30 JUMP JUMPDEST POP JUMP JUMPDEST MLOAD RETURNDATASIZE DUP5 DUP3 RETURNDATACOPY RETURNDATASIZE SWAP1 REVERT JUMPDEST DUP2 PUSH2 0x3462 SWAP3 SWAP1 RETURNDATASIZE LT PUSH2 0x70B JUMPI PUSH2 0x6FC DUP2 DUP4 PUSH2 0x2A30 JUMP JUMPDEST POP CODESIZE DUP1 PUSH2 0x33E8 JUMP JUMPDEST DUP9 MLOAD RETURNDATASIZE DUP13 DUP3 RETURNDATACOPY RETURNDATASIZE SWAP1 REVERT JUMPDEST PUSH1 0x24 DUP12 PUSH1 0x11 DUP10 PUSH4 0x4E487B71 PUSH1 0xE0 SHL DUP4 MSTORE MSTORE REVERT JUMPDEST PUSH2 0x349B SWAP2 POP RETURNDATASIZE DUP1 DUP13 DUP4 RETURNDATACOPY PUSH2 0x17D7 DUP2 DUP4 PUSH2 0x2A30 JUMP JUMPDEST CODESIZE PUSH2 0x3360 JUMP JUMPDEST PUSH2 0x34AB DUP3 DUP9 PUSH2 0x3EE7 JUMP JUMPDEST SWAP3 DUP6 PUSH2 0x34B5 PUSH2 0x3CB1 JUMP JUMPDEST AND SWAP8 PUSH2 0x12C TIMESTAMP ADD SWAP9 DUP10 TIMESTAMP GT PUSH2 0x3474 JUMPI DUP11 SWAP2 DUP3 SWAP2 DUP12 DUP12 MLOAD SWAP5 DUP6 DUP1 SWAP5 DUP2 SWAP4 DUP14 DUP13 PUSH4 0x38ED1739 PUSH1 0xE0 SHL SWAP15 DUP16 DUP7 MSTORE ADDRESS SWAP3 DUP7 ADD SWAP5 PUSH2 0x34ED SWAP6 PUSH2 0x319D JUMP JUMPDEST SUB SWAP3 GAS CALL SWAP1 DUP2 ISZERO PUSH2 0x346A JUMPI DUP11 SWAP2 PUSH2 0x3578 JUMPI JUMPDEST POP DUP1 MLOAD PUSH1 0x0 NOT DUP2 ADD SWAP2 SWAP1 DUP3 GT PUSH2 0x3474 JUMPI SWAP3 PUSH2 0x351F DUP2 SWAP4 SWAP3 DUP11 SWAP8 SWAP7 SWAP6 PUSH2 0x2CBA JUMP JUMPDEST MLOAD SWAP6 DUP7 SWAP3 DUP9 DUP14 DUP12 PUSH2 0x352F DUP10 PUSH2 0x2C9A JUMP JUMPDEST MLOAD AND SWAP3 PUSH2 0x353E DUP14 PUSH2 0x339F PUSH2 0x3CD3 JUMP JUMPDEST SUB SWAP3 GAS CALL DUP1 ISZERO PUSH2 0x346A JUMPI DUP11 SWAP8 SWAP7 SWAP6 SWAP5 SWAP3 SWAP4 DUP9 SWAP5 PUSH2 0x3419 SWAP4 PUSH2 0x3564 SWAP4 PUSH2 0x344C JUMPI POP POP PUSH2 0x3D13 JUMP JUMPDEST SWAP9 PUSH2 0x356F DUP11 DUP7 PUSH2 0x3FAE JUMP JUMPDEST SWAP7 PUSH2 0x3403 PUSH2 0x3CD3 JUMP JUMPDEST PUSH2 0x358C SWAP2 POP RETURNDATASIZE DUP1 DUP13 DUP4 RETURNDATACOPY PUSH2 0x17D7 DUP2 DUP4 PUSH2 0x2A30 JUMP JUMPDEST CODESIZE PUSH2 0x34FF JUMP JUMPDEST PUSH2 0x35A8 SWAP1 DUP4 RETURNDATASIZE DUP6 GT PUSH2 0x70B JUMPI PUSH2 0x6FC DUP2 DUP4 PUSH2 0x2A30 JUMP JUMPDEST POP CODESIZE PUSH2 0x32FC JUMP JUMPDEST PUSH2 0x35C5 SWAP1 DUP5 RETURNDATASIZE DUP7 GT PUSH2 0x70B JUMPI PUSH2 0x6FC DUP2 DUP4 PUSH2 0x2A30 JUMP JUMPDEST POP CODESIZE PUSH2 0x32B9 JUMP JUMPDEST DUP10 MLOAD RETURNDATASIZE DUP14 DUP3 RETURNDATACOPY RETURNDATASIZE SWAP1 REVERT JUMPDEST PUSH2 0x35EC SWAP1 DUP5 RETURNDATASIZE DUP7 GT PUSH2 0x70B JUMPI PUSH2 0x6FC DUP2 DUP4 PUSH2 0x2A30 JUMP JUMPDEST POP CODESIZE PUSH2 0x326C JUMP JUMPDEST PUSH2 0x3609 SWAP1 DUP5 RETURNDATASIZE DUP7 GT PUSH2 0x70B JUMPI PUSH2 0x6FC DUP2 DUP4 PUSH2 0x2A30 JUMP JUMPDEST POP CODESIZE PUSH2 0x3225 JUMP JUMPDEST PUSH1 0x7 SLOAD PUSH1 0x40 DUP1 MLOAD PUSH4 0x95EA7B3 PUSH1 0xE0 SHL DUP1 DUP3 MSTORE PUSH1 0x1 PUSH1 0x1 PUSH1 0xA0 SHL SUB SWAP4 DUP5 AND PUSH1 0x4 DUP1 DUP5 ADD SWAP2 SWAP1 SWAP2 MSTORE PUSH1 0x24 DUP4 ADD DUP8 SWAP1 MSTORE PUSH1 0x0 SWAP8 SWAP7 SWAP4 SWAP6 SWAP1 SWAP4 SWAP2 SWAP3 PUSH1 0x20 SWAP2 DUP7 AND SWAP1 DUP3 DUP2 PUSH1 0x44 DUP2 DUP14 DUP7 GAS CALL DUP1 ISZERO PUSH2 0x346A JUMPI PUSH2 0x3699 SWAP3 DUP5 SWAP3 DUP7 SWAP3 PUSH2 0x39D2 JUMPI JUMPDEST POP DUP9 PUSH1 0x8 SLOAD AND DUP13 DUP12 MLOAD DUP1 SWAP7 DUP2 SWAP6 DUP3 SWAP5 DUP13 DUP5 MSTORE DUP14 DUP5 ADD PUSH1 0x20 SWAP1 SWAP4 SWAP3 SWAP2 SWAP4 PUSH1 0x1 PUSH1 0x1 PUSH1 0xA0 SHL SUB PUSH1 0x40 DUP3 ADD SWAP6 AND DUP2 MSTORE ADD MSTORE JUMP JUMPDEST SUB SWAP3 GAS CALL DUP1 ISZERO PUSH2 0x39C8 JUMPI PUSH2 0x39AB JUMPI JUMPDEST POP DUP6 MLOAD SWAP1 PUSH2 0x36B5 DUP3 PUSH2 0x29F8 JUMP JUMPDEST PUSH1 0x2 DUP3 MSTORE DUP7 CALLDATASIZE DUP3 DUP5 ADD CALLDATACOPY DUP6 PUSH2 0x36C9 DUP10 PUSH2 0x2C8D JUMP JUMPDEST MLOAD AND PUSH2 0x36D4 DUP4 PUSH2 0x2C8D JUMP JUMPDEST MSTORE DUP6 PUSH2 0x36DF DUP10 PUSH2 0x2C9A JUMP JUMPDEST MLOAD AND PUSH2 0x36EA DUP4 PUSH2 0x2C9A JUMP JUMPDEST MSTORE PUSH2 0x36F5 DUP3 DUP5 PUSH2 0x3EE7 JUMP JUMPDEST SWAP2 DUP7 PUSH1 0x7 SLOAD AND SWAP1 PUSH2 0x12C TIMESTAMP ADD SWAP4 DUP5 TIMESTAMP GT PUSH2 0x397E JUMPI DUP5 SWAP3 DUP13 SWAP3 DUP4 DUP11 SWAP4 PUSH2 0x3731 DUP15 MLOAD SWAP8 DUP9 SWAP7 DUP8 SWAP6 DUP7 SWAP5 PUSH4 0x38ED1739 PUSH1 0xE0 SHL SWAP15 DUP16 DUP8 MSTORE ADDRESS SWAP4 DUP8 ADD PUSH2 0x319D JUMP JUMPDEST SUB SWAP3 GAS CALL SWAP1 DUP2 ISZERO PUSH2 0x346A JUMPI DUP11 SWAP2 PUSH2 0x3991 JUMPI JUMPDEST POP DUP1 MLOAD PUSH1 0x0 NOT SWAP2 DUP3 DUP3 ADD SWAP2 DUP3 GT PUSH2 0x397E JUMPI DUP12 DUP5 DUP12 DUP12 PUSH2 0x3764 DUP16 SWAP7 DUP14 SWAP7 PUSH2 0x2CBA JUMP JUMPDEST MLOAD SWAP5 DUP6 SWAP5 DUP13 PUSH2 0x37E8 DUP5 PUSH2 0x37B9 DUP8 MLOAD SWAP12 PUSH2 0x377C DUP14 PUSH2 0x29F8 JUMP JUMPDEST PUSH1 0x2 DUP14 MSTORE DUP9 CALLDATASIZE DUP12 DUP16 ADD CALLDATACOPY DUP13 PUSH2 0x379C DUP5 PUSH2 0x3794 DUP5 PUSH2 0x2C9A JUMP JUMPDEST MLOAD AND SWAP2 PUSH2 0x2C8D JUMP JUMPDEST MSTORE DUP13 PUSH2 0x37B3 DUP5 PUSH2 0x37AB DUP5 PUSH2 0x2CAA JUMP JUMPDEST MLOAD AND SWAP2 PUSH2 0x2C9A JUMP JUMPDEST MSTORE PUSH2 0x2C9A JUMP JUMPDEST MLOAD AND SWAP5 PUSH1 0x8 SLOAD AND SWAP6 MLOAD SWAP8 DUP9 SWAP7 DUP8 SWAP6 DUP7 SWAP5 DUP6 MSTORE DUP5 ADD PUSH1 0x20 SWAP1 SWAP4 SWAP3 SWAP2 SWAP4 PUSH1 0x1 PUSH1 0x1 PUSH1 0xA0 SHL SUB PUSH1 0x40 DUP3 ADD SWAP6 AND DUP2 MSTORE ADD MSTORE JUMP JUMPDEST SUB SWAP3 GAS CALL DUP1 ISZERO PUSH2 0x3974 JUMPI DUP14 SWAP3 DUP4 DUP10 PUSH2 0x382A DUP16 SWAP5 DUP16 SWAP7 DUP16 SWAP1 DUP14 SWAP3 PUSH2 0x3957 JUMPI JUMPDEST POP PUSH2 0x3811 DUP11 DUP8 PUSH2 0x3FAE JUMP JUMPDEST SWAP8 PUSH1 0x8 SLOAD AND SWAP7 MLOAD SWAP10 DUP11 SWAP9 DUP10 SWAP8 DUP9 SWAP7 DUP8 MSTORE ADDRESS SWAP4 DUP8 ADD PUSH2 0x319D JUMP JUMPDEST SUB SWAP3 GAS CALL SWAP1 DUP2 ISZERO PUSH2 0x35CC JUMPI DUP12 SWAP2 PUSH2 0x393D JUMPI JUMPDEST POP DUP1 MLOAD SWAP2 DUP3 ADD SWAP2 DUP3 GT PUSH2 0x3474 JUMPI PUSH2 0x3855 DUP12 SWAP3 DUP5 SWAP3 PUSH2 0x2CBA JUMP JUMPDEST MLOAD SWAP6 DUP9 DUP11 MLOAD SWAP12 PUSH2 0x3864 DUP14 PUSH2 0x29F8 JUMP JUMPDEST PUSH1 0x2 DUP14 MSTORE DUP12 CALLDATASIZE DUP6 DUP16 ADD CALLDATACOPY DUP13 DUP3 PUSH2 0x3879 DUP4 PUSH2 0x2CAA JUMP JUMPDEST MLOAD AND SWAP1 PUSH2 0x3885 SWAP1 PUSH2 0x2C8D JUMP JUMPDEST MSTORE DUP13 DUP3 PUSH2 0x3891 DUP4 PUSH2 0x2C8D JUMP JUMPDEST MLOAD AND SWAP1 PUSH2 0x389D SWAP1 PUSH2 0x2C9A JUMP JUMPDEST MSTORE PUSH2 0x38A7 SWAP1 PUSH2 0x2CAA JUMP JUMPDEST MLOAD AND DUP10 PUSH1 0x7 SLOAD AND SWAP2 DUP12 MLOAD SWAP5 DUP6 DUP1 SWAP5 DUP2 SWAP4 DUP3 MSTORE DUP12 DUP14 DUP4 ADD SWAP2 PUSH2 0x38DD SWAP3 PUSH1 0x20 SWAP1 SWAP4 SWAP3 SWAP2 SWAP4 PUSH1 0x1 PUSH1 0x1 PUSH1 0xA0 SHL SUB PUSH1 0x40 DUP3 ADD SWAP6 AND DUP2 MSTORE ADD MSTORE JUMP JUMPDEST SUB SWAP3 GAS CALL DUP1 ISZERO PUSH2 0x346A JUMPI SWAP3 DUP11 SWAP8 SWAP7 SWAP6 SWAP5 SWAP3 PUSH2 0x3419 SWAP3 DUP10 SWAP6 PUSH2 0x391F JUMPI JUMPDEST POP POP PUSH2 0x3905 DUP11 DUP7 PUSH2 0x3EE7 JUMP JUMPDEST SWAP7 PUSH1 0x7 SLOAD AND SWAP6 DUP10 MLOAD SWAP11 DUP12 SWAP9 DUP10 SWAP8 DUP9 SWAP7 DUP8 MSTORE ADDRESS SWAP4 DUP8 ADD PUSH2 0x319D JUMP JUMPDEST DUP2 PUSH2 0x3935 SWAP3 SWAP1 RETURNDATASIZE LT PUSH2 0x70B JUMPI PUSH2 0x6FC DUP2 DUP4 PUSH2 0x2A30 JUMP JUMPDEST POP CODESIZE DUP1 PUSH2 0x38F9 JUMP JUMPDEST PUSH2 0x3951 SWAP2 POP RETURNDATASIZE DUP1 DUP14 DUP4 RETURNDATACOPY PUSH2 0x17D7 DUP2 DUP4 PUSH2 0x2A30 JUMP JUMPDEST CODESIZE PUSH2 0x383C JUMP JUMPDEST PUSH2 0x396D SWAP1 DUP14 DUP1 RETURNDATASIZE LT PUSH2 0x70B JUMPI PUSH2 0x6FC DUP2 DUP4 PUSH2 0x2A30 JUMP JUMPDEST POP CODESIZE PUSH2 0x3806 JUMP JUMPDEST DUP12 MLOAD RETURNDATASIZE DUP16 DUP3 RETURNDATACOPY RETURNDATASIZE SWAP1 REVERT JUMPDEST PUSH1 0x24 DUP13 PUSH1 0x11 DUP11 PUSH4 0x4E487B71 PUSH1 0xE0 SHL DUP4 MSTORE MSTORE REVERT JUMPDEST PUSH2 0x39A5 SWAP2 POP RETURNDATASIZE DUP1 DUP13 DUP4 RETURNDATACOPY PUSH2 0x17D7 DUP2 DUP4 PUSH2 0x2A30 JUMP JUMPDEST CODESIZE PUSH2 0x3743 JUMP JUMPDEST PUSH2 0x39C1 SWAP1 DUP3 RETURNDATASIZE DUP5 GT PUSH2 0x70B JUMPI PUSH2 0x6FC DUP2 DUP4 PUSH2 0x2A30 JUMP JUMPDEST POP CODESIZE PUSH2 0x36A8 JUMP JUMPDEST DUP8 MLOAD RETURNDATASIZE DUP12 DUP3 RETURNDATACOPY RETURNDATASIZE SWAP1 REVERT JUMPDEST PUSH2 0x39E8 SWAP1 DUP5 RETURNDATASIZE DUP7 GT PUSH2 0x70B JUMPI PUSH2 0x6FC DUP2 DUP4 PUSH2 0x2A30 JUMP JUMPDEST POP CODESIZE PUSH2 0x3669 JUMP JUMPDEST SWAP1 PUSH1 0x1 PUSH1 0x1 PUSH1 0xA0 SHL SUB SWAP1 DUP2 PUSH1 0x10 SLOAD AND SWAP1 DUP2 ISZERO ISZERO DUP1 PUSH2 0x3B4B JUMPI JUMPDEST DUP1 PUSH2 0x3B42 JUMPI JUMPDEST PUSH2 0x3A19 JUMPI JUMPDEST POP POP POP POP JUMP JUMPDEST PUSH2 0x3A29 PUSH2 0x2710 SWAP2 PUSH1 0x11 SLOAD SWAP1 PUSH2 0x2C17 JUMP JUMPDEST DIV SWAP3 DUP4 ISZERO PUSH2 0x3A13 JUMPI DUP3 AND SWAP2 PUSH1 0x40 MLOAD SWAP1 PUSH4 0x70A08231 PUSH1 0xE0 SHL DUP3 MSTORE ADDRESS PUSH1 0x4 DUP4 ADD MSTORE PUSH1 0x20 SWAP2 DUP3 DUP2 PUSH1 0x24 DUP2 DUP9 GAS STATICCALL DUP1 ISZERO PUSH2 0x712 JUMPI DUP7 SWAP2 PUSH1 0x0 SWAP2 PUSH2 0x3B11 JUMPI JUMPDEST POP LT ISZERO PUSH2 0x3A71 JUMPI JUMPDEST POP PUSH2 0x3A13 JUMP JUMPDEST PUSH1 0x40 MLOAD PUSH4 0xA9059CBB PUSH1 0xE0 SHL DUP2 MSTORE PUSH1 0x1 PUSH1 0x1 PUSH1 0xA0 SHL SUB SWAP4 SWAP1 SWAP4 AND PUSH1 0x4 DUP5 ADD MSTORE PUSH1 0x24 DUP4 ADD DUP6 SWAP1 MSTORE DUP2 DUP4 PUSH1 0x44 DUP2 PUSH1 0x0 DUP9 GAS CALL SWAP3 DUP4 ISZERO PUSH2 0x712 JUMPI PUSH32 0xAE31919ED2F5E0AFD03E95E56D2D512A4CFDFDFE29AE313F92DFCCD88B47E68F SWAP4 PUSH2 0x3AF4 JUMPI JUMPDEST POP PUSH2 0x3ADB DUP6 PUSH1 0x12 SLOAD PUSH2 0x2B67 JUMP JUMPDEST PUSH1 0x12 SSTORE PUSH1 0x10 SLOAD AND SWAP4 PUSH1 0x40 MLOAD SWAP1 DUP2 MSTORE LOG3 CODESIZE DUP1 DUP1 DUP1 DUP1 PUSH2 0x3A6B JUMP JUMPDEST PUSH2 0x3B0A SWAP1 DUP4 RETURNDATASIZE DUP6 GT PUSH2 0x70B JUMPI PUSH2 0x6FC DUP2 DUP4 PUSH2 0x2A30 JUMP JUMPDEST POP CODESIZE PUSH2 0x3ACE JUMP JUMPDEST DUP1 SWAP3 POP DUP5 DUP1 SWAP3 POP RETURNDATASIZE DUP4 GT PUSH2 0x3B3B JUMPI JUMPDEST PUSH2 0x3B2A DUP2 DUP4 PUSH2 0x2A30 JUMP JUMPDEST DUP2 ADD SUB SLT PUSH2 0x2F4 JUMPI DUP6 SWAP1 MLOAD CODESIZE PUSH2 0x3A63 JUMP JUMPDEST POP RETURNDATASIZE PUSH2 0x3B20 JUMP JUMPDEST POP DUP1 ISZERO ISZERO PUSH2 0x3A0E JUMP JUMPDEST POP PUSH1 0x11 SLOAD ISZERO ISZERO PUSH2 0x3A08 JUMP JUMPDEST PUSH1 0x20 PUSH1 0x1 PUSH1 0x1 PUSH1 0xA0 SHL SUB PUSH1 0x24 DUP2 PUSH1 0x2 SLOAD PUSH1 0x8 SHR AND SWAP4 PUSH1 0x40 MLOAD SWAP5 DUP6 SWAP4 DUP5 SWAP3 PUSH32 0x613255AB00000000000000000000000000000000000000000000000000000000 DUP5 MSTORE AND PUSH1 0x4 DUP4 ADD MSTORE GAS STATICCALL SWAP1 DUP2 ISZERO PUSH2 0x712 JUMPI PUSH1 0x0 SWAP2 PUSH2 0x3BBE JUMPI JUMPDEST POP LT ISZERO PUSH2 0x3BB9 JUMPI PUSH1 0x1 SWAP1 JUMP JUMPDEST PUSH1 0x0 SWAP1 JUMP JUMPDEST SWAP1 POP PUSH1 0x20 DUP2 RETURNDATASIZE PUSH1 0x20 GT PUSH2 0x3BE8 JUMPI JUMPDEST DUP2 PUSH2 0x3BD9 PUSH1 0x20 SWAP4 DUP4 PUSH2 0x2A30 JUMP JUMPDEST DUP2 ADD SUB SLT PUSH2 0x2F4 JUMPI MLOAD CODESIZE PUSH2 0x3BAD JUMP JUMPDEST RETURNDATASIZE SWAP2 POP PUSH2 0x3BCC JUMP JUMPDEST PUSH1 0x4 PUSH1 0x20 PUSH1 0x1 PUSH1 0x1 PUSH1 0xA0 SHL SUB PUSH1 0x3 SLOAD AND PUSH1 0x40 MLOAD SWAP3 DUP4 DUP1 SWAP3 PUSH32 0x74B2E4300000000000000000000000000000000000000000000000000000000 DUP3 MSTORE GAS STATICCALL SWAP1 DUP2 ISZERO PUSH2 0x712 JUMPI PUSH1 0x0 SWAP2 PUSH2 0x3C60 JUMPI JUMPDEST POP PUSH2 0x2710 SWAP2 PUSH16 0xFFFFFFFFFFFFFFFFFFFFFFFFFFFFFFFF PUSH2 0x3C5C SWAP3 AND SWAP1 PUSH2 0x2C17 JUMP JUMPDEST DIV SWAP1 JUMP JUMPDEST PUSH1 0x20 DUP2 RETURNDATASIZE PUSH1 0x20 GT PUSH2 0x3CA9 JUMPI JUMPDEST DUP2 PUSH2 0x3C79 PUSH1 0x20 SWAP4 DUP4 PUSH2 0x2A30 JUMP JUMPDEST DUP2 ADD SUB SLT PUSH2 0x3CA5 JUMPI MLOAD SWAP1 PUSH16 0xFFFFFFFFFFFFFFFFFFFFFFFFFFFFFFFF DUP3 AND DUP3 SUB PUSH2 0x3181 JUMPI POP PUSH2 0x2710 PUSH2 0x3C3B JUMP JUMPDEST POP DUP1 REVERT JUMPDEST RETURNDATASIZE SWAP2 POP PUSH2 0x3C6C JUMP JUMPDEST PUSH1 0x7 SLOAD PUSH1 0x1 PUSH1 0x1 PUSH1 0xA0 SHL SUB SWAP1 DUP2 AND SWAP1 DUP2 ISZERO PUSH2 0x3CCA JUMPI POP SWAP1 JUMP JUMPDEST SWAP1 POP PUSH1 0x5 SLOAD AND SWAP1 JUMP JUMPDEST PUSH1 0x8 SLOAD PUSH1 0x1 PUSH1 0x1 PUSH1 0xA0 SHL SUB SWAP1 DUP2 AND SWAP1 DUP2 ISZERO PUSH2 0x3CEC JUMPI POP SWAP1 JUMP JUMPDEST SWAP1 POP PUSH1 0x4 SLOAD AND SWAP1 JUMP JUMPDEST ISZERO PUSH2 0x3CB1 JUMPI PUSH1 0x8 SLOAD PUSH1 0x1 PUSH1 0x1 PUSH1 0xA0 SHL SUB SWAP1 DUP2 AND SWAP1 DUP2 ISZERO PUSH2 0x3CEC JUMPI POP SWAP1 JUMP JUMPDEST SWAP1 DUP2 MLOAD PUSH2 0x3D1F DUP2 PUSH2 0x2A52 JUMP JUMPDEST SWAP1 PUSH2 0x3D2D PUSH1 0x40 MLOAD SWAP3 DUP4 PUSH2 0x2A30 JUMP JUMPDEST DUP1 DUP3 MSTORE PUSH2 0x3D3C PUSH1 0x1F NOT SWAP2 PUSH2 0x2A52 JUMP JUMPDEST ADD CALLDATASIZE PUSH1 0x20 DUP4 ADD CALLDATACOPY DUP1 SWAP2 PUSH1 0x0 DUP1 JUMPDEST DUP6 MLOAD DUP1 DUP3 LT ISZERO PUSH2 0x3DA4 JUMPI PUSH1 0x0 NOT DUP2 ADD SWAP1 DUP2 GT PUSH2 0x3D90 JUMPI SWAP1 PUSH1 0x1 PUSH1 0x1 PUSH1 0xA0 SHL SUB PUSH2 0x3D7D PUSH2 0x3D77 DUP4 PUSH1 0x1 SWAP6 PUSH2 0x2BBF JUMP JUMPDEST DUP10 PUSH2 0x2CBA JUMP JUMPDEST MLOAD AND PUSH2 0x3D89 DUP3 DUP8 PUSH2 0x2CBA JUMP JUMPDEST MSTORE ADD PUSH2 0x3D49 JUMP JUMPDEST PUSH1 0x24 DUP4 PUSH4 0x4E487B71 PUSH1 0xE0 SHL DUP2 MSTORE PUSH1 0x11 PUSH1 0x4 MSTORE REVERT JUMPDEST POP POP POP SWAP2 SWAP3 POP POP JUMP JUMPDEST PUSH1 0xFF PUSH1 0x2 SLOAD AND PUSH2 0x3DB9 JUMPI JUMP JUMPDEST PUSH1 0x64 PUSH1 0x40 MLOAD PUSH3 0x461BCD PUSH1 0xE5 SHL DUP2 MSTORE PUSH1 0x20 PUSH1 0x4 DUP3 ADD MSTORE PUSH1 0x10 PUSH1 0x24 DUP3 ADD MSTORE PUSH32 0x5061757361626C653A2070617573656400000000000000000000000000000000 PUSH1 0x44 DUP3 ADD MSTORE REVERT JUMPDEST PUSH1 0x2 PUSH1 0x1 SLOAD EQ PUSH2 0x3E0E JUMPI PUSH1 0x2 PUSH1 0x1 SSTORE JUMP JUMPDEST PUSH1 0x64 PUSH1 0x40 MLOAD PUSH3 0x461BCD PUSH1 0xE5 SHL DUP2 MSTORE PUSH1 0x20 PUSH1 0x4 DUP3 ADD MSTORE PUSH1 0x1F PUSH1 0x24 DUP3 ADD MSTORE PUSH32 0x5265656E7472616E637947756172643A207265656E7472616E742063616C6C00 PUSH1 0x44 DUP3 ADD MSTORE REVERT JUMPDEST PUSH1 0x0 SWAP3 SWAP5 SWAP4 PUSH2 0x3E6B PUSH1 0x60 SWAP4 PUSH1 0x80 DUP5 MSTORE PUSH1 0x80 DUP5 ADD SWAP1 PUSH2 0x2DCD JUMP JUMPDEST SWAP6 ISZERO ISZERO PUSH1 0x20 DUP4 ADD MSTORE PUSH1 0x40 DUP3 ADD MSTORE ADD MSTORE JUMP JUMPDEST PUSH1 0x60 SWAP1 PUSH2 0x3E96 PUSH1 0x1 SWAP4 SWAP6 SWAP5 SWAP6 PUSH1 0x80 DUP4 MSTORE PUSH1 0x80 DUP4 ADD SWAP1 PUSH2 0x2DCD JUMP JUMPDEST SWAP5 PUSH1 0x0 PUSH1 0x20 DUP4 ADD MSTORE PUSH1 0x40 DUP3 ADD MSTORE ADD MSTORE JUMP JUMPDEST SWAP2 SWAP1 DUP3 MLOAD SWAP3 DUP4 DUP3 MSTORE PUSH1 0x0 JUMPDEST DUP5 DUP2 LT PUSH2 0x3ED3 JUMPI POP POP DUP3 PUSH1 0x0 PUSH1 0x20 DUP1 SWAP5 SWAP6 DUP5 ADD ADD MSTORE PUSH1 0x1F DUP1 NOT SWAP2 ADD AND ADD ADD SWAP1 JUMP JUMPDEST PUSH1 0x20 DUP2 DUP4 ADD DUP2 ADD MLOAD DUP5 DUP4 ADD DUP3 ADD MSTORE ADD PUSH2 0x3EB2 JUMP JUMPDEST PUSH2 0x3F2A SWAP2 PUSH1 0x1 PUSH1 0x1 PUSH1 0xA0 SHL SUB PUSH2 0x3EFB PUSH2 0x3CB1 JUMP JUMPDEST AND SWAP2 PUSH1 0x40 MLOAD SWAP3 DUP4 SWAP2 PUSH4 0xD06CA61F PUSH1 0xE0 SHL DUP4 MSTORE PUSH1 0x4 DUP4 ADD MSTORE PUSH1 0x40 PUSH1 0x24 DUP4 ADD MSTORE DUP2 DUP1 PUSH1 0x0 SWAP7 DUP8 SWAP6 PUSH1 0x44 DUP4 ADD SWAP1 PUSH2 0x2DCD JUMP JUMPDEST SUB SWAP2 GAS STATICCALL SWAP1 DUP2 ISZERO PUSH2 0x3FA3 JUMPI DUP3 SWAP2 PUSH2 0x3F89 JUMPI JUMPDEST POP DUP1 MLOAD PUSH1 0x0 NOT DUP2 ADD SWAP2 SWAP1 DUP3 GT PUSH2 0x3D90 JUMPI SWAP1 PUSH2 0x3F56 SWAP2 PUSH2 0x2CBA JUMP JUMPDEST MLOAD SWAP1 PUSH1 0xB SLOAD SWAP2 PUSH2 0x2710 SWAP3 DUP4 SUB SWAP2 DUP4 DUP4 GT PUSH2 0x3F75 JUMPI POP SWAP1 PUSH2 0x3C5C SWAP2 PUSH2 0x2C17 JUMP JUMPDEST DUP1 PUSH4 0x4E487B71 PUSH1 0xE0 SHL PUSH1 0x24 SWAP3 MSTORE PUSH1 0x11 PUSH1 0x4 MSTORE REVERT JUMPDEST PUSH2 0x3F9D SWAP2 POP RETURNDATASIZE DUP1 DUP5 DUP4 RETURNDATACOPY PUSH2 0x17D7 DUP2 DUP4 PUSH2 0x2A30 JUMP JUMPDEST CODESIZE PUSH2 0x3F3C JUMP JUMPDEST PUSH1 0x40 MLOAD RETURNDATASIZE DUP5 DUP3 RETURNDATACOPY RETURNDATASIZE SWAP1 REVERT JUMPDEST PUSH2 0x3F2A SWAP2 PUSH1 0x1 PUSH1 0x1 PUSH1 0xA0 SHL SUB PUSH2 0x3EFB PUSH2 0x3CD3 JUMP INVALID LOG2 PUSH5 0x6970667358 0x22 SLT KECCAK256 CHAINID PREVRANDAO RETURN 0xE6 0xA7 SWAP12 TIMESTAMP 0xED CODECOPY 0xDA 0x4B 0xC3 SHL JUMPDEST 0xCD ADD JUMPI ADDRESS DUP6 0xA6 PUSH12 0x73DA3DC36BFE1F443C663564 PUSH20 0x6F6C634300081800330000000000000000000000 "},"methodIdentifiers":{"AAVE_POOL_ARBITRUM()":"ed6f1f4c","AAVE_POOL_OPTIMISM()":"3cd3d2ec","MAX_GAS_FUNDING_PERCENTAGE()":"acfcc895","MAX_SLIPPAGE()":"f9759518","MIN_PROFIT_BPS()":"507a2291","SUSHI_ROUTER_NEW()":"004670f1","SUSHI_ROUTER_OPT()":"15482ab2","UNI_V2_ROUTER_NEW()":"18d0b3ce","UNI_V2_ROUTER_OPT()":"3c988982","USDC()":"89a30271","USDT()":"c54e44eb","WBTC()":"4dede3de","WETH()":"ad5c4648","aavePool()":"a03e4bc3","authorizedCallers(address)":"536fff6c","currentChainId()":"6cbadbfa","disableGasFunding()":"7448f575","emergencyWithdraw(address)":"6ff1c9bc","executeArb(address,uint256,address[],bool,uint256)":"c69aec56","executeBatchArbitrage(((address,uint96,address,address,bool,uint32,uint32)[],uint256))":"d138b28e","executeOperation(address,uint256,uint256,address,bytes)":"1b11d0ff","executeTriangularArb(address,uint256,address[],uint256)":"ee9ed9d7","gasFundingPercentage()":"c257cdc3","gasFundingWallet()":"dad0b87c","getGasFundingStats()":"c6265576","getOptimalProvider(address,uint256)":"a6fed78e","isArbitrum()":"29f2c8f0","isOptimism()":"ec961a05","minProfitBps()":"383aeeae","owner()":"8da5cb5b","pause()":"8456cb59","paused()":"5c975abb","priceFeeds(address)":"9dcb511a","profitWallet()":"2301d775","receiveFlashLoan(address[],uint256[],uint256[],bytes)":"f04f2707","renounceOwnership()":"715018a6","setAuthorizedCaller(address,bool)":"454bbd29","setGasFundingPercentage(uint256)":"c2dd302b","setGasFundingWallet(address)":"d66d5b08","setMinProfitBps(uint256)":"fcff2c28","setPriceFeed(address,address)":"76e11286","setProfitWallet(address)":"da2ca9b5","setSlippageTolerance(uint256)":"117da1ee","simulateArbitrage(address,uint256,address[],bool)":"c01f2524","simulateTriangularArbitrage(address,uint256,address[])":"277dd7e0","slippageTolerance()":"d03153aa","sushiRouter()":"6d13582c","sushiRouterNew()":"ea046659","totalGasFundingTransferred()":"314cce8a","transferOwnership(address)":"f2fde38b","uniRouter()":"a0e47bf6","uniV2RouterNew()":"3b9debf6","uniV3Quoter()":"795674ff","unpause()":"3f4ba83a","vault()":"fbfa77cf","withdraw(address)":"51cff8d9"}}}}}