{"contracts/FlashArbBotBalancer.sol":{"FlashArbBotBalancer":{"abi":[{"inputs":[{"internalType":"address","name":"_vault","type":"address"},{"internalType":"address","name":"_sushiRouter","type":"address"},{"internalType":"address","name":"_uniRouter","type":"address"},{"internalType":"address","name":"_uniV3Quoter","type":"address"}],"stateMutability":"nonpayable","type":"constructor"},{"anonymous":false,"inputs":[{"indexed":true,"internalType":"address","name":"asset","type":"address"},{"indexed":false,"internalType":"uint256","name":"amount","type":"uint256"},{"indexed":false,"internalType":"uint256","name":"profit","type":"uint256"},{"indexed":false,"internalType":"bool","name":"sushiFirst","type":"bool"}],"name":"ArbitrageExecuted","type":"event"},{"anonymous":false,"inputs":[{"indexed":true,"internalType":"uint256","name":"chainId","type":"uint256"},{"indexed":true,"internalType":"address","name":"asset","type":"address"},{"indexed":false,"internalType":"uint256","name":"spread","type":"uint256"},{"indexed":false,"internalType":"uint256","name":"estimatedProfit","type":"uint256"}],"name":"CrossChainOpportunityDetected","type":"event"},{"anonymous":false,"inputs":[{"indexed":true,"internalType":"address","name":"previousOwner","type":"address"},{"indexed":true,"internalType":"address","name":"newOwner","type":"address"}],"name":"OwnershipTransferred","type":"event"},{"anonymous":false,"inputs":[{"indexed":false,"internalType":"address","name":"account","type":"address"}],"name":"Paused","type":"event"},{"anonymous":false,"inputs":[{"indexed":true,"internalType":"address","name":"token","type":"address"},{"indexed":false,"internalType":"uint256","name":"amount","type":"uint256"}],"name":"ProfitWithdrawn","type":"event"},{"anonymous":false,"inputs":[{"indexed":true,"internalType":"address","name":"tokenA","type":"address"},{"indexed":true,"internalType":"address","name":"tokenB","type":"address"},{"indexed":true,"internalType":"address","name":"tokenC","type":"address"},{"indexed":false,"internalType":"uint256","name":"amount","type":"uint256"},{"indexed":false,"internalType":"uint256","name":"profit","type":"uint256"}],"name":"TriangularArbitrageExecuted","type":"event"},{"anonymous":false,"inputs":[{"indexed":false,"internalType":"address","name":"account","type":"address"}],"name":"Unpaused","type":"event"},{"inputs":[],"name":"MAX_SLIPPAGE","outputs":[{"internalType":"uint256","name":"","type":"uint256"}],"stateMutability":"view","type":"function"},{"inputs":[],"name":"MIN_PROFIT_BPS","outputs":[{"internalType":"uint256","name":"","type":"uint256"}],"stateMutability":"view","type":"function"},{"inputs":[],"name":"SUSHI_ROUTER_NEW","outputs":[{"internalType":"address","name":"","type":"address"}],"stateMutability":"view","type":"function"},{"inputs":[],"name":"SUSHI_ROUTER_OPT","outputs":[{"internalType":"address","name":"","type":"address"}],"stateMutability":"view","type":"function"},{"inputs":[],"name":"UNI_V2_ROUTER_NEW","outputs":[{"internalType":"address","name":"","type":"address"}],"stateMutability":"view","type":"function"},{"inputs":[],"name":"UNI_V2_ROUTER_OPT","outputs":[{"internalType":"address","name":"","type":"address"}],"stateMutability":"view","type":"function"},{"inputs":[],"name":"USDC","outputs":[{"internalType":"address","name":"","type":"address"}],"stateMutability":"view","type":"function"},{"inputs":[],"name":"USDT","outputs":[{"internalType":"address","name":"","type":"address"}],"stateMutability":"view","type":"function"},{"inputs":[],"name":"WBTC","outputs":[{"internalType":"address","name":"","type":"address"}],"stateMutability":"view","type":"function"},{"inputs":[],"name":"WETH","outputs":[{"internalType":"address","name":"","type":"address"}],"stateMutability":"view","type":"function"},{"inputs":[{"internalType":"address","name":"","type":"address"}],"name":"authorizedCallers","outputs":[{"internalType":"bool","name":"","type":"bool"}],"stateMutability":"view","type":"function"},{"inputs":[],"name":"currentChainId","outputs":[{"internalType":"uint256","name":"","type":"uint256"}],"stateMutability":"view","type":"function"},{"inputs":[{"internalType":"address","name":"token","type":"address"}],"name":"emergencyWithdraw","outputs":[],"stateMutability":"nonpayable","type":"function"},{"inputs":[{"internalType":"address","name":"asset","type":"address"},{"internalType":"uint256","name":"amount","type":"uint256"},{"internalType":"address[]","name":"path","type":"address[]"},{"internalType":"bool","name":"sushiFirst","type":"bool"},{"internalType":"uint256","name":"expectedProfit","type":"uint256"}],"name":"executeArb","outputs":[],"stateMutability":"nonpayable","type":"function"},{"inputs":[{"internalType":"address","name":"asset","type":"address"},{"internalType":"uint256","name":"amount","type":"uint256"},{"internalType":"address[]","name":"path","type":"address[]"},{"internalType":"uint256","name":"expectedProfit","type":"uint256"}],"name":"executeTriangularArb","outputs":[],"stateMutability":"nonpayable","type":"function"},{"inputs":[],"name":"isArbitrum","outputs":[{"internalType":"bool","name":"","type":"bool"}],"stateMutability":"view","type":"function"},{"inputs":[],"name":"isOptimism","outputs":[{"internalType":"bool","name":"","type":"bool"}],"stateMutability":"view","type":"function"},{"inputs":[],"name":"minProfitBps","outputs":[{"internalType":"uint256","name":"","type":"uint256"}],"stateMutability":"view","type":"function"},{"inputs":[],"name":"owner","outputs":[{"internalType":"address","name":"","type":"address"}],"stateMutability":"view","type":"function"},{"inputs":[],"name":"pause","outputs":[],"stateMutability":"nonpayable","type":"function"},{"inputs":[],"name":"paused","outputs":[{"internalType":"bool","name":"","type":"bool"}],"stateMutability":"view","type":"function"},{"inputs":[{"internalType":"address","name":"","type":"address"}],"name":"priceFeeds","outputs":[{"internalType":"address","name":"","type":"address"}],"stateMutability":"view","type":"function"},{"inputs":[{"internalType":"address[]","name":"tokens","type":"address[]"},{"internalType":"uint256[]","name":"amounts","type":"uint256[]"},{"internalType":"uint256[]","name":"feeAmounts","type":"uint256[]"},{"internalType":"bytes","name":"userData","type":"bytes"}],"name":"receiveFlashLoan","outputs":[],"stateMutability":"nonpayable","type":"function"},{"inputs":[],"name":"renounceOwnership","outputs":[],"stateMutability":"nonpayable","type":"function"},{"inputs":[{"internalType":"address","name":"caller","type":"address"},{"internalType":"bool","name":"authorized","type":"bool"}],"name":"setAuthorizedCaller","outputs":[],"stateMutability":"nonpayable","type":"function"},{"inputs":[{"internalType":"uint256","name":"_minProfit","type":"uint256"}],"name":"setMinProfitBps","outputs":[],"stateMutability":"nonpayable","type":"function"},{"inputs":[{"internalType":"address","name":"token","type":"address"},{"internalType":"address","name":"feed","type":"address"}],"name":"setPriceFeed","outputs":[],"stateMutability":"nonpayable","type":"function"},{"inputs":[{"internalType":"uint256","name":"_slippage","type":"uint256"}],"name":"setSlippageTolerance","outputs":[],"stateMutability":"nonpayable","type":"function"},{"inputs":[{"internalType":"address","name":"asset","type":"address"},{"internalType":"uint256","name":"amount","type":"uint256"},{"internalType":"address[]","name":"path","type":"address[]"},{"internalType":"bool","name":"sushiFirst","type":"bool"}],"name":"simulateArbitrage","outputs":[{"internalType":"uint256","name":"profit","type":"uint256"}],"stateMutability":"view","type":"function"},{"inputs":[{"internalType":"address","name":"asset","type":"address"},{"internalType":"uint256","name":"amount","type":"uint256"},{"internalType":"address[]","name":"path","type":"address[]"}],"name":"simulateTriangularArbitrage","outputs":[{"internalType":"uint256","name":"profit","type":"uint256"}],"stateMutability":"view","type":"function"},{"inputs":[],"name":"slippageTolerance","outputs":[{"internalType":"uint256","name":"","type":"uint256"}],"stateMutability":"view","type":"function"},{"inputs":[],"name":"sushiRouter","outputs":[{"internalType":"contract IUniswapV2Router02","name":"","type":"address"}],"stateMutability":"view","type":"function"},{"inputs":[],"name":"sushiRouterNew","outputs":[{"internalType":"contract IUniswapV2Router02","name":"","type":"address"}],"stateMutability":"view","type":"function"},{"inputs":[{"internalType":"address","name":"newOwner","type":"address"}],"name":"transferOwnership","outputs":[],"stateMutability":"nonpayable","type":"function"},{"inputs":[],"name":"uniRouter","outputs":[{"internalType":"contract IUniswapV2Router02","name":"","type":"address"}],"stateMutability":"view","type":"function"},{"inputs":[],"name":"uniV2RouterNew","outputs":[{"internalType":"contract IUniswapV2Router02","name":"","type":"address"}],"stateMutability":"view","type":"function"},{"inputs":[],"name":"uniV3Quoter","outputs":[{"internalType":"contract IUniswapV3Quoter","name":"","type":"address"}],"stateMutability":"view","type":"function"},{"inputs":[],"name":"unpause","outputs":[],"stateMutability":"nonpayable","type":"function"},{"inputs":[],"name":"vault","outputs":[{"internalType":"contract IBalancerVault","name":"","type":"address"}],"stateMutability":"view","type":"function"},{"inputs":[{"internalType":"address","name":"token","type":"address"}],"name":"withdraw","outputs":[],"stateMutability":"nonpayable","type":"function"}],"evm":{"bytecode":{"linkReferences":{},"object":"608034620001e757601f620030c738819003918201601f19168301916001600160401b03831184841017620001ec57808492608094604052833981010312620001e7576200004d8162000202565b6200005b6020830162000202565b91620000786060620000706040840162000202565b920162000202565b60008054336001600160a01b0319808316821784556040519790966001600160a01b039687959094869491908516907f8be0079c531659141344cd1fd0a4f28419497f9722a3daafe3b4186f6b6457e09080a3600180556002549060c8600a55601e600b55610100600160a81b039060081b169060018060a81b031916176002551685600354161760035516836004541617600455168160055416176005554660085560095460ff80600a461416809261ff0061a4b1461460081b169061ffff191617178060095560081c1660001462000197575080734752ba5dbc23f44d87826276bf6fd6b1c372ad2473f2614a233c7c3e7f08b1f887ba133a13f1eb2c5592600654161760065560075416176007555b612eaf9081620002188239f35b620001a4575b506200018a565b80734a7b5da61326a6379179b40d00f57e5bbdc962c2732abf469074dc0b54d793850807e6eb5faf2625b19260065416176006556007541617600755386200019d565b600080fd5b634e487b7160e01b600052604160045260246000fd5b51906001600160a01b0382168203620001e75756fe608080604052600436101561001357600080fd5b600090813560e01c9081624670f11461263457508063117da1ee146125c457806315482ab21461259557806318d0b3ce14612566578063277dd7e0146121a857806329f2c8f014612182578063383aeeae146121645780633b9debf61461213d5780633c9889821461210e5780633f4ba83a14612071578063454bbd291461201c5780634dede3de14611fed578063507a229114611fd157806351cff8d914611e73578063536fff6c14611e365780635c975abb14611e135780636cbadbfa14611df55780636d13582c14611dce5780636ff1c9bc14611ccd578063715018a614611c6757806376e1128614611c02578063795674ff14611bdb5780638456cb5914611b8057806389a3027114611b515780638da5cb5b14611b2b5780639dcb511a14611af0578063a0e47bf614611ac9578063ad5c464814611a9a578063c01f252414611824578063c54e44eb146117f5578063c69aec5614611613578063d03153aa146115f5578063ea046659146115ce578063ec961a05146115ab578063ee9ed9d71461135f578063f04f270714610375578063f2fde38b1461028e578063f975951814610271578063fbfa77cf146102475763fcff2c28146101d857600080fd5b34610244576020366003190112610244576004356101f4612b5d565b801561020057600b5580f35b606460405162461bcd60e51b815260206004820152601b60248201527f4d696e2070726f666974206d75737420626520706f73697469766500000000006044820152fd5b80fd5b503461024457806003193601126102445760206001600160a01b0360025460081c16604051908152f35b503461024457806003193601126102445760206040516101f48152f35b5034610244576020366003190112610244576102a8612662565b6102b0612b5d565b6001600160a01b0380911690811561030b576000548273ffffffffffffffffffffffffffffffffffffffff19821617600055167f8be0079c531659141344cd1fd0a4f28419497f9722a3daafe3b4186f6b6457e0600080a380f35b608460405162461bcd60e51b815260206004820152602660248201527f4f776e61626c653a206e6577206f776e657220697320746865207a65726f206160448201527f64647265737300000000000000000000000000000000000000000000000000006064820152fd5b50346102445760803660031901126102445767ffffffffffffffff60043581811161135b576103a890369060040161268c565b92909160243581811161135b576103c390369060040161268c565b604435838111611357576103db90369060040161268c565b95909660643594808611611353573660238701121561135357856004013581811161130757860190602482019136831161134f576001600160a01b0360025460081c16330361130b57876080910312611307576024870135908111611307578601816043820112156113075790816044602461045a9401359101612973565b96610467604487016126cc565b92610474608488016126cc565b92156112f357610483906126d9565b93156112df57865b8851811015610642576001600160a01b036104a6828b61283d565b51168852600c6020908082526001600160a01b0360408b2054166104cf575b505060010161048b565b6001600160a01b036104e1848d61283d565b51168a5281526001600160a01b0360408a20541660405180917ffeaf968c00000000000000000000000000000000000000000000000000000000825281600460a09384935afa91821561063757908b91829183946105e3575b5050131561059f5761054f610e109142612908565b101561055b57806104c5565b6064906040519062461bcd60e51b82526004820152600d60248201527f507269636520746f6f206f6c64000000000000000000000000000000000000006044820152fd5b6064826040519062461bcd60e51b82526004820152600d60248201527f496e76616c6964207072696365000000000000000000000000000000000000006044820152fd5b925092505081813d8311610630575b6105fc81836127c0565b8101031261062c5761060d81612d56565b508982820151610624608060608501519401612d56565b50388061053a565b8980fd5b503d6105f2565b6040513d8d823e3d90fd5b5088979596976040516370a0823160e01b81523060048201526020816024816001600160a01b038a165afa8015610d1c576112b4575b508215610e2c5760065460405163095ea7b360e01b81526001600160a01b03909116600482015286356024820152602081806044810103818d6001600160a01b038b165af18015610d1c57610e0d575b5060075460405163095ea7b360e01b81526001600160a01b03909116600482015286356024820152602081806044810103818d6001600160a01b038b165af18015610d1c57610dee575b5060405161071f81612788565b6002815260403660208301376001600160a01b0361073c896127fa565b5116610747826127fa565b526001600160a01b036107598961281d565b51166107648261281d565b52610770818835612da5565b906001600160a01b03600654169061012c42014211610dda57918b9189836107b895604051968795869485936338ed173960e01b855261012c42019230923560048701612d6d565b03925af1908115610d1c578a91610dc0575b50805180600019810111610d73576107eb610884928c92600019019061283d565b516040516020826001600160a01b036108438e61080786612788565b60028652604036868801378261081c8261281d565b5116610827876127fa565b52826108328261282d565b511661083d8761281d565b5261281d565b51166001600160a01b03600754168660405180998195829463095ea7b360e01b845260048401602090939291936001600160a01b0360408201951681520152565b03925af1938415610d68576108d794610da1575b506108a38183612e65565b91836001600160a01b036007541692604051968795869485936338ed173960e01b855261012c420192309260048701612d6d565b03925af1908115610d1c578a91610d87575b50805180600019810111610d735761090a6109a3928c92600019019061283d565b516040516020826001600160a01b036109628e61092686612788565b60028652604036868801378261093b8261282d565b5116610946876127fa565b5282610951826127fa565b511661095c8761281d565b5261282d565b51166001600160a01b03600654168660405180998195829463095ea7b360e01b845260048401602090939291936001600160a01b0360408201951681520152565b03925af1938415610d68576109f694610d49575b506109c28183612da5565b91836001600160a01b036006541692604051968795869485936338ed173960e01b855261012c420192309260048701612d6d565b03925af18015610d1c57610d27575b505b604051916370a0823160e01b83523060048401526020836024816001600160a01b038a165afa928315610d1c578a93610ce3575b5015610ccf57358535019081863511610cb957818110610c755781610a5f91612908565b96612710610a70600b548835612b4a565b048810610c315760640135605f8181029180159083049091141715610c1d57606490048710610bd95760025460405163095ea7b360e01b815260089190911c6001600160a01b031660048201526024810191909152602081806044810103818b6001600160a01b0389165af18015610bce57610b9f575b5015610b555750507f511dc6c70263758503ff9aee3e77f3e7bef3cabee21a4eb0b017e7cf0438f2f260406001600160a01b03610b23856127fa565b5116926001600160a01b03610b4381610b3b8861281d565b51169661282d565b5116958251913582526020820152a480f35b7f05625c164577e109e0c8964ab47768b235a36d08f5146dfa9858a382fa5c5efd9350906001600160a01b039160609395604051963587526020870152151560408601521692a280f35b610bc09060203d602011610bc7575b610bb881836127c0565b810190612915565b5087610ae7565b503d610bae565b6040513d8a823e3d90fd5b606460405162461bcd60e51b815260206004820152601960248201527f50726f66697420646576696174696f6e20746f6f2068696768000000000000006044820152fd5b602489634e487b7160e01b81526011600452fd5b606460405162461bcd60e51b815260206004820152600e60248201527f50726f66697420746f6f206c6f770000000000000000000000000000000000006044820152fd5b606460405162461bcd60e51b815260206004820152600c60248201527f556e70726f66697461626c6500000000000000000000000000000000000000006044820152fd5b634e487b7160e01b600052601160045260246000fd5b602489634e487b7160e01b81526032600452fd5b9092506020813d602011610d14575b81610cff602093836127c0565b81010312610d0f5751918a610a3b565b600080fd5b3d9150610cf2565b6040513d8c823e3d90fd5b610d42903d808c833e610d3a81836127c0565b810190612851565b5089610a05565b610d619060203d602011610bc757610bb881836127c0565b508d6109b7565b6040513d85823e3d90fd5b60248b634e487b7160e01b81526011600452fd5b610d9b91503d808c833e610d3a81836127c0565b8a6108e9565b610db99060203d602011610bc757610bb881836127c0565b508d610898565b610dd491503d808c833e610d3a81836127c0565b8a6107ca565b60248c634e487b7160e01b81526011600452fd5b610e069060203d602011610bc757610bb881836127c0565b5089610712565b610e259060203d602011610bc757610bb881836127c0565b50896106c8565b60035460405163095ea7b360e01b81526001600160a01b03909116600482015286356024820152602081806044810103818d6001600160a01b038b165af18015610d1c57611295575b506004805460405163095ea7b360e01b81526001600160a01b039091169181019190915286356024820152602081806044810103818d6001600160a01b038b165af18015610d1c57611276575b5060065460405163095ea7b360e01b81526001600160a01b03909116600482015286356024820152602081806044810103818d6001600160a01b038b165af18015610d1c57611257575b5060075460405163095ea7b360e01b81526001600160a01b03909116600482015286356024820152602081806044810103818d6001600160a01b038b165af18015610d1c57611238575b50831561111557610f68878735612e65565b6001600160a01b03610f78612bd7565b1661012c42014211610d7357610fb3918b9189838c604051968795869485936338ed173960e01b855261012c42019230923560048701612d6d565b03925af1908115610d1c578a916110fb575b50805180600019810111610d7357610fe6611041928c92600019019061283d565b516020816001600160a01b03610ffb8d61281d565b51166001600160a01b0361100d612bb5565b168560405180988195829463095ea7b360e01b845260048401602090939291936001600160a01b0360408201951681520152565b03925af19283156110f0576110a2936110d1575b5061105f8a612c17565b6110698183612da5565b91836001600160a01b0361107b612bb5565b1692604051968795869485936338ed173960e01b855261012c420192309260048701612d6d565b03925af18015610d1c576110b7575b50610a07565b6110ca903d808c833e610d3a81836127c0565b50896110b1565b6110e99060203d602011610bc757610bb881836127c0565b508c611055565b6040513d84823e3d90fd5b61110f91503d808c833e610d3a81836127c0565b8a610fc5565b611120878735612da5565b6001600160a01b03611130612bb5565b1661012c42014211610d735761116b918b9189838c604051968795869485936338ed173960e01b855261012c42019230923560048701612d6d565b03925af1908115610d1c578a9161121e575b50805180600019810111610d735761119e6111c5928c92600019019061283d565b516020816001600160a01b036111b38d61281d565b51166001600160a01b0361100d612bd7565b03925af19283156110f0576110a2936111ff575b506111e38a612c17565b6111ed8183612e65565b91836001600160a01b0361107b612bd7565b6112179060203d602011610bc757610bb881836127c0565b508c6111d9565b61123291503d808c833e610d3a81836127c0565b8a61117d565b6112509060203d602011610bc757610bb881836127c0565b5089610f56565b61126f9060203d602011610bc757610bb881836127c0565b5089610f0c565b61128e9060203d602011610bc757610bb881836127c0565b5089610ec2565b6112ad9060203d602011610bc757610bb881836127c0565b5089610e75565b602090813d83116112d8575b6112ca81836127c0565b81010312610d0f5789610678565b503d6112c0565b602487634e487b7160e01b81526032600452fd5b602488634e487b7160e01b81526032600452fd5b8780fd5b606460405162461bcd60e51b815260206004820152601360248201527f4f6e6c792042616c616e636572207661756c74000000000000000000000000006044820152fd5b8880fd5b8680fd5b8480fd5b8280fd5b503461024457608036600319011261024457611379612662565b9060243560443567ffffffffffffffff811161135b5761139d90369060040161268c565b9390606435338552602091600d835260ff6040872054168015611593575b6113c4906129c9565b6113cc612cb1565b6113d4612d01565b60048703611529578615611515576113eb816126d9565b9680600310156112df57928697926114956114b7936080966114266001600160a01b0397888061141d606087016126d9565b169116146126ed565b6114318a1515612a14565b61143c841515612a5f565b604051986114498a6127a4565b60018a528536818c01378761145d8b6127fa565b911690526040519961146e8b6127a4565b60018b528536818d01376114818b6127fa565b5260405197889586015260a085019161292d565b906000604084015260608301526001608083015203601f1981018452836127c0565b60025460081c16803b15611357576114ea9385809460405196879586948593632e1c224f60e11b85523060048601612aaa565b03925af180156110f057611501575b506001805580f35b61150a9061275e565b6102445780386114f9565b602486634e487b7160e01b81526032600452fd5b6084836040519062461bcd60e51b82526004820152602f60248201527f547269616e67756c61722070617468206d7573742068617665203420746f6b6560448201527f6e732028412d3e422d3e432d3e412900000000000000000000000000000000006064820152fd5b506113c46001600160a01b03875416331490506113bb565b5034610244578060031936011261024457602060ff600954166040519015158152f35b503461024457806003193601126102445760206001600160a01b0360075416604051908152f35b50346102445780600319360112610244576020600a54604051908152f35b50346102445760a03660031901126102445761162d612662565b60243560443567ffffffffffffffff81116117955761165090369060040161268c565b929061165a6126bd565b608435338752602092600d845260ff60408920541680156117dd575b61167f906129c9565b611687612cb1565b61168f612d01565b6002871061179957926080949261173e9261171d88966116b18c9a1515612a14565b6116bc831515612a5f565b6040519a6116c98c6127a4565b60018c528536818e01376116dc8c6127fa565b6001600160a01b038099169052604051986116f68a6127a4565b60018a528636818c01376117098a6127fa565b52604051998a9687015260a086019161292d565b9115156040840152606083015286608083015203601f1981018552846127c0565b60025460081c1690813b1561179557836117709560405196879586948593632e1c224f60e11b85523060048601612aaa565b03925af180156110f05761178657506001805580f35b61178f9061275e565b386114f9565b8380fd5b6064846040519062461bcd60e51b82526004820152600c60248201527f496e76616c6964207061746800000000000000000000000000000000000000006044820152fd5b5061167f6001600160a01b0389541633149050611676565b5034610244578060031936011261024457602060405173fd086bc7cd5c481dcc9c85ebe478a1c0b69fcbb98152f35b50346102445760803660031901126102445761183e612662565b50602490813560443567ffffffffffffffff811161135b5761186490369060040161268c565b61186c6126bd565b61187581612bf9565b916118808215612bf9565b91156119d6576001600160a01b03604051878163d06ca61f60e01b9687825289600483015260408c8301528185816118bd8c8a604484019161292d565b0392165afa908115610bce579088959493929186916119bc575b50805160001981019081116119a95761192a976118fa611903926119089461283d565b51943691612973565b612c17565b93604051968795869485938452600484015260408c84015260448301906128cb565b0392165afa908115610d6857839161198f575b505b805160001981019490851161197d575060209361195b9161283d565b51818111156119765761196e9250612908565b604051908152f35b505061196e565b83634e487b7160e01b81526011600452fd5b6119a391503d8085833e610d3a81836127c0565b3861193d565b8a87634e487b7160e01b81526011600452fd5b6119d091503d8088833e610d3a81836127c0565b386118d7565b6001600160a01b03929192604051878163d06ca61f60e01b9687825289600483015260408c830152818581611a108c8a604484019161292d565b0392165afa908115610bce57908895949392918691611a80575b50805160001981019081116119a957611a4d976118fa611903926119089461283d565b0392165afa908115610d68578391611a66575b5061193f565b611a7a91503d8085833e610d3a81836127c0565b38611a60565b611a9491503d8088833e610d3a81836127c0565b38611a2a565b503461024457806003193601126102445760206040517382af49447d8a07e3bd95bd0d56f35241523fbab18152f35b503461024457806003193601126102445760206001600160a01b0360045416604051908152f35b50346102445760203660031901126102445760209060406001600160a01b039182611b19612662565b168152600c8452205416604051908152f35b50346102445780600319360112610244576001600160a01b036020915416604051908152f35b5034610244578060031936011261024457602060405173ff970a61a04b1ca14834a43f5de4533ebddb5cc88152f35b5034610244578060031936011261024457611b99612b5d565b611ba1612cb1565b600160ff1960025416176002557f62e78cea01bee320cd4e420270b5ea74000d11b0c9f74754ebdbfc544b05a2586020604051338152a180f35b503461024457806003193601126102445760206001600160a01b0360055416604051908152f35b503461024457604036600319011261024457611c1c612662565b602435906001600160a01b039081831680930361179557611c3b612b5d565b168252600c602052604082209073ffffffffffffffffffffffffffffffffffffffff1982541617905580f35b5034610244578060031936011261024457611c80612b5d565b806001600160a01b03815473ffffffffffffffffffffffffffffffffffffffff1981168355167f8be0079c531659141344cd1fd0a4f28419497f9722a3daafe3b4186f6b6457e08280a380f35b503461024457602080600319360112611dca57611ce8612662565b611cf0612b5d565b6001600160a01b03809116906040516370a0823160e01b81523060048201528381602481865afa908115611dbf578591611d92575b5080611d2f578480f35b845460405163a9059cbb60e01b815292166001600160a01b03166004830152602482015290829082908186816044810103925af18015610d6857611d74575b80808480f35b81611d8a92903d10610bc757610bb881836127c0565b503880611d6e565b90508381813d8311611db8575b611da981836127c0565b81010312611357575138611d25565b503d611d9f565b6040513d87823e3d90fd5b5080fd5b503461024457806003193601126102445760206001600160a01b0360035416604051908152f35b50346102445780600319360112610244576020600854604051908152f35b5034610244578060031936011261024457602060ff600254166040519015158152f35b50346102445760203660031901126102445760ff60406020926001600160a01b03611e5f612662565b168152600d84522054166040519015158152f35b503461024457602080600319360112611dca57611e8e612662565b90611e97612b5d565b6040516370a0823160e01b81523060048201526001600160a01b03928316928282602481875afa918215611dbf578592611fa2575b508115611f5e57845460405163a9059cbb60e01b815291166001600160a01b0316600482015260248101829052919081838060448101038188885af1928315611dbf577f016e128b6bdadd9e9068abd0b18db2fc8b27ed3dbced50e4aa6cc0a6934251ab93611f41575b50604051908152a280f35b611f5790833d8511610bc757610bb881836127c0565b5038611f36565b6064836040519062461bcd60e51b82526004820152601660248201527f4e6f2062616c616e636520746f207769746864726177000000000000000000006044820152fd5b9091508281813d8311611fca575b611fba81836127c0565b8101031261135757519038611ecc565b503d611fb0565b5034610244578060031936011261024457602060405160328152f35b50346102445780600319360112610244576020604051732f2a2543b76a4166549f7aab2e75bef0aefc5b0f8152f35b503461024457604036600319011261024457612036612662565b6024359081151580920361135b576001600160a01b0390612055612b5d565b168252600d602052604082209060ff8019835416911617905580f35b503461024457806003193601126102445761208a612b5d565b60025460ff8116156120ca5760ff19166002557f5db9ee0a495bf2e6ff9c91a7834c1ba4fdd244a5e8aa4e537bd38aeae4b073aa6020604051338152a180f35b606460405162461bcd60e51b815260206004820152601460248201527f5061757361626c653a206e6f74207061757365640000000000000000000000006044820152fd5b50346102445780600319360112610244576020604051734a7b5da61326a6379179b40d00f57e5bbdc962c28152f35b503461024457806003193601126102445760206001600160a01b0360065416604051908152f35b50346102445780600319360112610244576020600b54604051908152f35b5034610244578060031936011261024457602060ff60095460081c166040519015158152f35b5034610244576060366003190112610244576121c2612662565b50602490813560443567ffffffffffffffff811161135b576121e890369060040161268c565b90939060031981016124fc5780156124e957612203856126d9565b81600310156124d6576122266001600160a01b0391828061141d60608b016126d9565b6040519561223387612788565b600287526040366020890137612248816126d9565b82612252896127fa565b9116905282600110156124c357602081019661226d886126d9565b836122778361281d565b9116905282600654169260405198888a806122ad63d06ca61f60e01b968783528c600484015260408c84015260448301906128cb565b0381885afa998a1561247657899a6124a7575b5089516000199a8b820191821161249457906122db9161283d565b51956122fe604051926122ed84612788565b6002845260403660208601376126d9565b83612308846127fa565b91169052600210156124815788604080860197612324896126d9565b8561232e8661281d565b911690528985600754169161235a8451968795869485948c8652600486015284015260448301906128cb565b03915afa90811561247657899161245c575b508051908a820191821161244957916123c76123918b9795936123f69a99979561283d565b51936123b4604051976123a389612788565b6002895260403660208b01376126d9565b836123be896127fa565b911690526126d9565b906123d18661281d565b91169052604051968794859384938452600484015260408884015260448301906128cb565b03915afa91821561243e578492612422575b50815194850194851161197d575060209361195b9161283d565b6124379192503d8086833e610d3a81836127c0565b9038612408565b6040513d86823e3d90fd5b878a634e487b7160e01b81526011600452fd5b61247091503d808b833e610d3a81836127c0565b3861236c565b6040513d8b823e3d90fd5b8689634e487b7160e01b81526032600452fd5b888b634e487b7160e01b81526011600452fd5b6124bc919a503d808b833e610d3a81836127c0565b98386122c0565b8386634e487b7160e01b81526032600452fd5b8285634e487b7160e01b81526032600452fd5b5082634e487b7160e01b81526032600452fd5b60848260226040519162461bcd60e51b8352602060048401528201527f547269616e67756c61722070617468206d7573742068617665203420746f6b6560448201527f6e730000000000000000000000000000000000000000000000000000000000006064820152fd5b50346102445780600319360112610244576020604051734752ba5dbc23f44d87826276bf6fd6b1c372ad248152f35b50346102445780600319360112610244576020604051732abf469074dc0b54d793850807e6eb5faf2625b18152f35b5034610244576020366003190112610244576004356125e1612b5d565b6101f481116125f057600a5580f35b606460405162461bcd60e51b815260206004820152601160248201527f536c69707061676520746f6f20686967680000000000000000000000000000006044820152fd5b905034611dca5781600319360112611dca578073f2614a233c7c3e7f08b1f887ba133a13f1eb2c5560209252f35b600435906001600160a01b0382168203610d0f57565b35906001600160a01b0382168203610d0f57565b9181601f84011215610d0f5782359167ffffffffffffffff8311610d0f576020808501948460051b010111610d0f57565b606435908115158203610d0f57565b35908115158203610d0f57565b356001600160a01b0381168103610d0f5790565b156126f457565b608460405162461bcd60e51b815260206004820152602760248201527f50617468206d75737420737461727420616e6420656e6420776974682073616d60448201527f6520746f6b656e000000000000000000000000000000000000000000000000006064820152fd5b67ffffffffffffffff811161277257604052565b634e487b7160e01b600052604160045260246000fd5b6060810190811067ffffffffffffffff82111761277257604052565b6040810190811067ffffffffffffffff82111761277257604052565b90601f8019910116810190811067ffffffffffffffff82111761277257604052565b67ffffffffffffffff81116127725760051b60200190565b8051156128075760200190565b634e487b7160e01b600052603260045260246000fd5b8051600110156128075760400190565b8051600210156128075760600190565b80518210156128075760209160051b010190565b6020908181840312610d0f5780519067ffffffffffffffff8211610d0f57019180601f84011215610d0f578251612887816127e2565b9361289560405195866127c0565b818552838086019260051b820101928311610d0f578301905b8282106128bc575050505090565b815181529083019083016128ae565b90815180825260208080930193019160005b8281106128eb575050505090565b83516001600160a01b0316855293810193928101926001016128dd565b91908203918211610cb957565b90816020910312610d0f57518015158103610d0f5790565b91908082526020809201929160005b82811061294a575050505090565b9091929382806001926001600160a01b0361296489612678565b1681520195019392910161293c565b929161297e826127e2565b9161298c60405193846127c0565b829481845260208094019160051b8101928311610d0f57905b8282106129b25750505050565b8380916129be84612678565b8152019101906129a5565b156129d057565b606460405162461bcd60e51b815260206004820152600e60248201527f4e6f7420617574686f72697a65640000000000000000000000000000000000006044820152fd5b15612a1b57565b606460405162461bcd60e51b815260206004820152601760248201527f416d6f756e74206d75737420626520706f7369746976650000000000000000006044820152fd5b15612a6657565b606460405162461bcd60e51b815260206004820152602060248201527f45787065637465642070726f666974206d75737420626520706f7369746976656044820152fd5b906001600160a01b0390949294168152612ad060209460808684015260808301906128cb565b818103604083015284808551928381520194019060005b86828210612b36575050505060608184039101528051908183528360005b838110612b225750600091508284010152601f8019910116010190565b818184010151828287010152018490612b05565b835187529586019590920191600101612ae7565b81810292918115918404141715610cb957565b6001600160a01b03600054163303612b7157565b606460405162461bcd60e51b815260206004820152602060248201527f4f776e61626c653a2063616c6c6572206973206e6f7420746865206f776e65726044820152fd5b6006546001600160a01b03908116908115612bce575090565b90506004541690565b6007546001600160a01b03908116908115612bf0575090565b90506003541690565b15612bb5576007546001600160a01b03908116908115612bf0575090565b908151612c23816127e2565b90612c3160405192836127c0565b808252612c40601f19916127e2565b0136602083013780916000805b855180821015612ca8576000198101908111612c9457906001600160a01b03612c81612c7b83600195612908565b8961283d565b5116612c8d828761283d565b5201612c4d565b602483634e487b7160e01b81526011600452fd5b50505091925050565b60ff60025416612cbd57565b606460405162461bcd60e51b815260206004820152601060248201527f5061757361626c653a20706175736564000000000000000000000000000000006044820152fd5b600260015414612d12576002600155565b606460405162461bcd60e51b815260206004820152601f60248201527f5265656e7472616e637947756172643a207265656e7472616e742063616c6c006044820152fd5b519069ffffffffffffffffffff82168203610d0f57565b91608093612d9a916001600160a01b0393989796988552602085015260a0604085015260a08401906128cb565b951660608201520152565b612de8916001600160a01b03612db9612bb5565b169160405192839163d06ca61f60e01b83526004830152604060248301528180600096879560448301906128cb565b03915afa9081156110f0578291612e4b575b508051600019810191908211612c945790612e149161283d565b5190600a549161271092830391838311612e37575090612e3391612b4a565b0490565b80634e487b7160e01b602492526011600452fd5b612e5f91503d8084833e610d3a81836127c0565b38612dfa565b612de8916001600160a01b03612db9612bd756fea2646970667358221220aeaea44e86f0abcc08bba424b8dcc4a2a0f17cfb86f750d85873d73b6f5ff45e64736f6c63430008180033","opcodes":"PUSH1 0x80 CALLVALUE PUSH3 0x1E7 JUMPI PUSH1 0x1F PUSH3 0x30C7 CODESIZE DUP2 SWAP1 SUB SWAP2 DUP3 ADD PUSH1 0x1F NOT AND DUP4 ADD SWAP2 PUSH1 0x1 PUSH1 0x1 PUSH1 0x40 SHL SUB DUP4 GT DUP5 DUP5 LT OR PUSH3 0x1EC JUMPI DUP1 DUP5 SWAP3 PUSH1 0x80 SWAP5 PUSH1 0x40 MSTORE DUP4 CODECOPY DUP2 ADD SUB SLT PUSH3 0x1E7 JUMPI PUSH3 0x4D DUP2 PUSH3 0x202 JUMP JUMPDEST PUSH3 0x5B PUSH1 0x20 DUP4 ADD PUSH3 0x202 JUMP JUMPDEST SWAP2 PUSH3 0x78 PUSH1 0x60 PUSH3 0x70 PUSH1 0x40 DUP5 ADD PUSH3 0x202 JUMP JUMPDEST SWAP3 ADD PUSH3 0x202 JUMP JUMPDEST PUSH1 0x0 DUP1 SLOAD CALLER PUSH1 0x1 PUSH1 0x1 PUSH1 0xA0 SHL SUB NOT DUP1 DUP4 AND DUP3 OR DUP5 SSTORE PUSH1 0x40 MLOAD SWAP8 SWAP1 SWAP7 PUSH1 0x1 PUSH1 0x1 PUSH1 0xA0 SHL SUB SWAP7 DUP8 SWAP6 SWAP1 SWAP5 DUP7 SWAP5 SWAP2 SWAP1 DUP6 AND SWAP1 PUSH32 0x8BE0079C531659141344CD1FD0A4F28419497F9722A3DAAFE3B4186F6B6457E0 SWAP1 DUP1 LOG3 PUSH1 0x1 DUP1 SSTORE PUSH1 0x2 SLOAD SWAP1 PUSH1 0xC8 PUSH1 0xA SSTORE PUSH1 0x1E PUSH1 0xB SSTORE PUSH2 0x100 PUSH1 0x1 PUSH1 0xA8 SHL SUB SWAP1 PUSH1 0x8 SHL AND SWAP1 PUSH1 0x1 DUP1 PUSH1 0xA8 SHL SUB NOT AND OR PUSH1 0x2 SSTORE AND DUP6 PUSH1 0x3 SLOAD AND OR PUSH1 0x3 SSTORE AND DUP4 PUSH1 0x4 SLOAD AND OR PUSH1 0x4 SSTORE AND DUP2 PUSH1 0x5 SLOAD AND OR PUSH1 0x5 SSTORE CHAINID PUSH1 0x8 SSTORE PUSH1 0x9 SLOAD PUSH1 0xFF DUP1 PUSH1 0xA CHAINID EQ AND DUP1 SWAP3 PUSH2 0xFF00 PUSH2 0xA4B1 CHAINID EQ PUSH1 0x8 SHL AND SWAP1 PUSH2 0xFFFF NOT AND OR OR DUP1 PUSH1 0x9 SSTORE PUSH1 0x8 SHR AND PUSH1 0x0 EQ PUSH3 0x197 JUMPI POP DUP1 PUSH20 0x4752BA5DBC23F44D87826276BF6FD6B1C372AD24 PUSH20 0xF2614A233C7C3E7F08B1F887BA133A13F1EB2C55 SWAP3 PUSH1 0x6 SLOAD AND OR PUSH1 0x6 SSTORE PUSH1 0x7 SLOAD AND OR PUSH1 0x7 SSTORE JUMPDEST PUSH2 0x2EAF SWAP1 DUP2 PUSH3 0x218 DUP3 CODECOPY RETURN JUMPDEST PUSH3 0x1A4 JUMPI JUMPDEST POP PUSH3 0x18A JUMP JUMPDEST DUP1 PUSH20 0x4A7B5DA61326A6379179B40D00F57E5BBDC962C2 PUSH20 0x2ABF469074DC0B54D793850807E6EB5FAF2625B1 SWAP3 PUSH1 0x6 SLOAD AND OR PUSH1 0x6 SSTORE PUSH1 0x7 SLOAD AND OR PUSH1 0x7 SSTORE CODESIZE PUSH3 0x19D JUMP JUMPDEST PUSH1 0x0 DUP1 REVERT JUMPDEST PUSH4 0x4E487B71 PUSH1 0xE0 SHL PUSH1 0x0 MSTORE PUSH1 0x41 PUSH1 0x4 MSTORE PUSH1 0x24 PUSH1 0x0 REVERT JUMPDEST MLOAD SWAP1 PUSH1 0x1 PUSH1 0x1 PUSH1 0xA0 SHL SUB DUP3 AND DUP3 SUB PUSH3 0x1E7 JUMPI JUMP INVALID PUSH1 0x80 DUP1 PUSH1 0x40 MSTORE PUSH1 0x4 CALLDATASIZE LT ISZERO PUSH2 0x13 JUMPI PUSH1 0x0 DUP1 REVERT JUMPDEST PUSH1 0x0 SWAP1 DUP2 CALLDATALOAD PUSH1 0xE0 SHR SWAP1 DUP2 PUSH3 0x4670F1 EQ PUSH2 0x2634 JUMPI POP DUP1 PUSH4 0x117DA1EE EQ PUSH2 0x25C4 JUMPI DUP1 PUSH4 0x15482AB2 EQ PUSH2 0x2595 JUMPI DUP1 PUSH4 0x18D0B3CE EQ PUSH2 0x2566 JUMPI DUP1 PUSH4 0x277DD7E0 EQ PUSH2 0x21A8 JUMPI DUP1 PUSH4 0x29F2C8F0 EQ PUSH2 0x2182 JUMPI DUP1 PUSH4 0x383AEEAE EQ PUSH2 0x2164 JUMPI DUP1 PUSH4 0x3B9DEBF6 EQ PUSH2 0x213D JUMPI DUP1 PUSH4 0x3C988982 EQ PUSH2 0x210E JUMPI DUP1 PUSH4 0x3F4BA83A EQ PUSH2 0x2071 JUMPI DUP1 PUSH4 0x454BBD29 EQ PUSH2 0x201C JUMPI DUP1 PUSH4 0x4DEDE3DE EQ PUSH2 0x1FED JUMPI DUP1 PUSH4 0x507A2291 EQ PUSH2 0x1FD1 JUMPI DUP1 PUSH4 0x51CFF8D9 EQ PUSH2 0x1E73 JUMPI DUP1 PUSH4 0x536FFF6C EQ PUSH2 0x1E36 JUMPI DUP1 PUSH4 0x5C975ABB EQ PUSH2 0x1E13 JUMPI DUP1 PUSH4 0x6CBADBFA EQ PUSH2 0x1DF5 JUMPI DUP1 PUSH4 0x6D13582C EQ PUSH2 0x1DCE JUMPI DUP1 PUSH4 0x6FF1C9BC EQ PUSH2 0x1CCD JUMPI DUP1 PUSH4 0x715018A6 EQ PUSH2 0x1C67 JUMPI DUP1 PUSH4 0x76E11286 EQ PUSH2 0x1C02 JUMPI DUP1 PUSH4 0x795674FF EQ PUSH2 0x1BDB JUMPI DUP1 PUSH4 0x8456CB59 EQ PUSH2 0x1B80 JUMPI DUP1 PUSH4 0x89A30271 EQ PUSH2 0x1B51 JUMPI DUP1 PUSH4 0x8DA5CB5B EQ PUSH2 0x1B2B JUMPI DUP1 PUSH4 0x9DCB511A EQ PUSH2 0x1AF0 JUMPI DUP1 PUSH4 0xA0E47BF6 EQ PUSH2 0x1AC9 JUMPI DUP1 PUSH4 0xAD5C4648 EQ PUSH2 0x1A9A JUMPI DUP1 PUSH4 0xC01F2524 EQ PUSH2 0x1824 JUMPI DUP1 PUSH4 0xC54E44EB EQ PUSH2 0x17F5 JUMPI DUP1 PUSH4 0xC69AEC56 EQ PUSH2 0x1613 JUMPI DUP1 PUSH4 0xD03153AA EQ PUSH2 0x15F5 JUMPI DUP1 PUSH4 0xEA046659 EQ PUSH2 0x15CE JUMPI DUP1 PUSH4 0xEC961A05 EQ PUSH2 0x15AB JUMPI DUP1 PUSH4 0xEE9ED9D7 EQ PUSH2 0x135F JUMPI DUP1 PUSH4 0xF04F2707 EQ PUSH2 0x375 JUMPI DUP1 PUSH4 0xF2FDE38B EQ PUSH2 0x28E JUMPI DUP1 PUSH4 0xF9759518 EQ PUSH2 0x271 JUMPI DUP1 PUSH4 0xFBFA77CF EQ PUSH2 0x247 JUMPI PUSH4 0xFCFF2C28 EQ PUSH2 0x1D8 JUMPI PUSH1 0x0 DUP1 REVERT JUMPDEST CALLVALUE PUSH2 0x244 JUMPI PUSH1 0x20 CALLDATASIZE PUSH1 0x3 NOT ADD SLT PUSH2 0x244 JUMPI PUSH1 0x4 CALLDATALOAD PUSH2 0x1F4 PUSH2 0x2B5D JUMP JUMPDEST DUP1 ISZERO PUSH2 0x200 JUMPI PUSH1 0xB SSTORE DUP1 RETURN JUMPDEST PUSH1 0x64 PUSH1 0x40 MLOAD PUSH3 0x461BCD PUSH1 0xE5 SHL DUP2 MSTORE PUSH1 0x20 PUSH1 0x4 DUP3 ADD MSTORE PUSH1 0x1B PUSH1 0x24 DUP3 ADD MSTORE PUSH32 0x4D696E2070726F666974206D75737420626520706F7369746976650000000000 PUSH1 0x44 DUP3 ADD MSTORE REVERT JUMPDEST DUP1 REVERT JUMPDEST POP CALLVALUE PUSH2 0x244 JUMPI DUP1 PUSH1 0x3 NOT CALLDATASIZE ADD SLT PUSH2 0x244 JUMPI PUSH1 0x20 PUSH1 0x1 PUSH1 0x1 PUSH1 0xA0 SHL SUB PUSH1 0x2 SLOAD PUSH1 0x8 SHR AND PUSH1 0x40 MLOAD SWAP1 DUP2 MSTORE RETURN JUMPDEST POP CALLVALUE PUSH2 0x244 JUMPI DUP1 PUSH1 0x3 NOT CALLDATASIZE ADD SLT PUSH2 0x244 JUMPI PUSH1 0x20 PUSH1 0x40 MLOAD PUSH2 0x1F4 DUP2 MSTORE RETURN JUMPDEST POP CALLVALUE PUSH2 0x244 JUMPI PUSH1 0x20 CALLDATASIZE PUSH1 0x3 NOT ADD SLT PUSH2 0x244 JUMPI PUSH2 0x2A8 PUSH2 0x2662 JUMP JUMPDEST PUSH2 0x2B0 PUSH2 0x2B5D JUMP JUMPDEST PUSH1 0x1 PUSH1 0x1 PUSH1 0xA0 SHL SUB DUP1 SWAP2 AND SWAP1 DUP2 ISZERO PUSH2 0x30B JUMPI PUSH1 0x0 SLOAD DUP3 PUSH20 0xFFFFFFFFFFFFFFFFFFFFFFFFFFFFFFFFFFFFFFFF NOT DUP3 AND OR PUSH1 0x0 SSTORE AND PUSH32 0x8BE0079C531659141344CD1FD0A4F28419497F9722A3DAAFE3B4186F6B6457E0 PUSH1 0x0 DUP1 LOG3 DUP1 RETURN JUMPDEST PUSH1 0x84 PUSH1 0x40 MLOAD PUSH3 0x461BCD PUSH1 0xE5 SHL DUP2 MSTORE PUSH1 0x20 PUSH1 0x4 DUP3 ADD MSTORE PUSH1 0x26 PUSH1 0x24 DUP3 ADD MSTORE PUSH32 0x4F776E61626C653A206E6577206F776E657220697320746865207A65726F2061 PUSH1 0x44 DUP3 ADD MSTORE PUSH32 0x6464726573730000000000000000000000000000000000000000000000000000 PUSH1 0x64 DUP3 ADD MSTORE REVERT JUMPDEST POP CALLVALUE PUSH2 0x244 JUMPI PUSH1 0x80 CALLDATASIZE PUSH1 0x3 NOT ADD SLT PUSH2 0x244 JUMPI PUSH8 0xFFFFFFFFFFFFFFFF PUSH1 0x4 CALLDATALOAD DUP2 DUP2 GT PUSH2 0x135B JUMPI PUSH2 0x3A8 SWAP1 CALLDATASIZE SWAP1 PUSH1 0x4 ADD PUSH2 0x268C JUMP JUMPDEST SWAP3 SWAP1 SWAP2 PUSH1 0x24 CALLDATALOAD DUP2 DUP2 GT PUSH2 0x135B JUMPI PUSH2 0x3C3 SWAP1 CALLDATASIZE SWAP1 PUSH1 0x4 ADD PUSH2 0x268C JUMP JUMPDEST PUSH1 0x44 CALLDATALOAD DUP4 DUP2 GT PUSH2 0x1357 JUMPI PUSH2 0x3DB SWAP1 CALLDATASIZE SWAP1 PUSH1 0x4 ADD PUSH2 0x268C JUMP JUMPDEST SWAP6 SWAP1 SWAP7 PUSH1 0x64 CALLDATALOAD SWAP5 DUP1 DUP7 GT PUSH2 0x1353 JUMPI CALLDATASIZE PUSH1 0x23 DUP8 ADD SLT ISZERO PUSH2 0x1353 JUMPI DUP6 PUSH1 0x4 ADD CALLDATALOAD DUP2 DUP2 GT PUSH2 0x1307 JUMPI DUP7 ADD SWAP1 PUSH1 0x24 DUP3 ADD SWAP2 CALLDATASIZE DUP4 GT PUSH2 0x134F JUMPI PUSH1 0x1 PUSH1 0x1 PUSH1 0xA0 SHL SUB PUSH1 0x2 SLOAD PUSH1 0x8 SHR AND CALLER SUB PUSH2 0x130B JUMPI DUP8 PUSH1 0x80 SWAP2 SUB SLT PUSH2 0x1307 JUMPI PUSH1 0x24 DUP8 ADD CALLDATALOAD SWAP1 DUP2 GT PUSH2 0x1307 JUMPI DUP7 ADD DUP2 PUSH1 0x43 DUP3 ADD SLT ISZERO PUSH2 0x1307 JUMPI SWAP1 DUP2 PUSH1 0x44 PUSH1 0x24 PUSH2 0x45A SWAP5 ADD CALLDATALOAD SWAP2 ADD PUSH2 0x2973 JUMP JUMPDEST SWAP7 PUSH2 0x467 PUSH1 0x44 DUP8 ADD PUSH2 0x26CC JUMP JUMPDEST SWAP3 PUSH2 0x474 PUSH1 0x84 DUP9 ADD PUSH2 0x26CC JUMP JUMPDEST SWAP3 ISZERO PUSH2 0x12F3 JUMPI PUSH2 0x483 SWAP1 PUSH2 0x26D9 JUMP JUMPDEST SWAP4 ISZERO PUSH2 0x12DF JUMPI DUP7 JUMPDEST DUP9 MLOAD DUP2 LT ISZERO PUSH2 0x642 JUMPI PUSH1 0x1 PUSH1 0x1 PUSH1 0xA0 SHL SUB PUSH2 0x4A6 DUP3 DUP12 PUSH2 0x283D JUMP JUMPDEST MLOAD AND DUP9 MSTORE PUSH1 0xC PUSH1 0x20 SWAP1 DUP1 DUP3 MSTORE PUSH1 0x1 PUSH1 0x1 PUSH1 0xA0 SHL SUB PUSH1 0x40 DUP12 KECCAK256 SLOAD AND PUSH2 0x4CF JUMPI JUMPDEST POP POP PUSH1 0x1 ADD PUSH2 0x48B JUMP JUMPDEST PUSH1 0x1 PUSH1 0x1 PUSH1 0xA0 SHL SUB PUSH2 0x4E1 DUP5 DUP14 PUSH2 0x283D JUMP JUMPDEST MLOAD AND DUP11 MSTORE DUP2 MSTORE PUSH1 0x1 PUSH1 0x1 PUSH1 0xA0 SHL SUB PUSH1 0x40 DUP11 KECCAK256 SLOAD AND PUSH1 0x40 MLOAD DUP1 SWAP2 PUSH32 0xFEAF968C00000000000000000000000000000000000000000000000000000000 DUP3 MSTORE DUP2 PUSH1 0x4 PUSH1 0xA0 SWAP4 DUP5 SWAP4 GAS STATICCALL SWAP2 DUP3 ISZERO PUSH2 0x637 JUMPI SWAP1 DUP12 SWAP2 DUP3 SWAP2 DUP4 SWAP5 PUSH2 0x5E3 JUMPI JUMPDEST POP POP SGT ISZERO PUSH2 0x59F JUMPI PUSH2 0x54F PUSH2 0xE10 SWAP2 TIMESTAMP PUSH2 0x2908 JUMP JUMPDEST LT ISZERO PUSH2 0x55B JUMPI DUP1 PUSH2 0x4C5 JUMP JUMPDEST PUSH1 0x64 SWAP1 PUSH1 0x40 MLOAD SWAP1 PUSH3 0x461BCD PUSH1 0xE5 SHL DUP3 MSTORE PUSH1 0x4 DUP3 ADD MSTORE PUSH1 0xD PUSH1 0x24 DUP3 ADD MSTORE PUSH32 0x507269636520746F6F206F6C6400000000000000000000000000000000000000 PUSH1 0x44 DUP3 ADD MSTORE REVERT JUMPDEST PUSH1 0x64 DUP3 PUSH1 0x40 MLOAD SWAP1 PUSH3 0x461BCD PUSH1 0xE5 SHL DUP3 MSTORE PUSH1 0x4 DUP3 ADD MSTORE PUSH1 0xD PUSH1 0x24 DUP3 ADD MSTORE PUSH32 0x496E76616C696420707269636500000000000000000000000000000000000000 PUSH1 0x44 DUP3 ADD MSTORE REVERT JUMPDEST SWAP3 POP SWAP3 POP POP DUP2 DUP2 RETURNDATASIZE DUP4 GT PUSH2 0x630 JUMPI JUMPDEST PUSH2 0x5FC DUP2 DUP4 PUSH2 0x27C0 JUMP JUMPDEST DUP2 ADD SUB SLT PUSH2 0x62C JUMPI PUSH2 0x60D DUP2 PUSH2 0x2D56 JUMP JUMPDEST POP DUP10 DUP3 DUP3 ADD MLOAD PUSH2 0x624 PUSH1 0x80 PUSH1 0x60 DUP6 ADD MLOAD SWAP5 ADD PUSH2 0x2D56 JUMP JUMPDEST POP CODESIZE DUP1 PUSH2 0x53A JUMP JUMPDEST DUP10 DUP1 REVERT JUMPDEST POP RETURNDATASIZE PUSH2 0x5F2 JUMP JUMPDEST PUSH1 0x40 MLOAD RETURNDATASIZE DUP14 DUP3 RETURNDATACOPY RETURNDATASIZE SWAP1 REVERT JUMPDEST POP DUP9 SWAP8 SWAP6 SWAP7 SWAP8 PUSH1 0x40 MLOAD PUSH4 0x70A08231 PUSH1 0xE0 SHL DUP2 MSTORE ADDRESS PUSH1 0x4 DUP3 ADD MSTORE PUSH1 0x20 DUP2 PUSH1 0x24 DUP2 PUSH1 0x1 PUSH1 0x1 PUSH1 0xA0 SHL SUB DUP11 AND GAS STATICCALL DUP1 ISZERO PUSH2 0xD1C JUMPI PUSH2 0x12B4 JUMPI JUMPDEST POP DUP3 ISZERO PUSH2 0xE2C JUMPI PUSH1 0x6 SLOAD PUSH1 0x40 MLOAD PUSH4 0x95EA7B3 PUSH1 0xE0 SHL DUP2 MSTORE PUSH1 0x1 PUSH1 0x1 PUSH1 0xA0 SHL SUB SWAP1 SWAP2 AND PUSH1 0x4 DUP3 ADD MSTORE DUP7 CALLDATALOAD PUSH1 0x24 DUP3 ADD MSTORE PUSH1 0x20 DUP2 DUP1 PUSH1 0x44 DUP2 ADD SUB DUP2 DUP14 PUSH1 0x1 PUSH1 0x1 PUSH1 0xA0 SHL SUB DUP12 AND GAS CALL DUP1 ISZERO PUSH2 0xD1C JUMPI PUSH2 0xE0D JUMPI JUMPDEST POP PUSH1 0x7 SLOAD PUSH1 0x40 MLOAD PUSH4 0x95EA7B3 PUSH1 0xE0 SHL DUP2 MSTORE PUSH1 0x1 PUSH1 0x1 PUSH1 0xA0 SHL SUB SWAP1 SWAP2 AND PUSH1 0x4 DUP3 ADD MSTORE DUP7 CALLDATALOAD PUSH1 0x24 DUP3 ADD MSTORE PUSH1 0x20 DUP2 DUP1 PUSH1 0x44 DUP2 ADD SUB DUP2 DUP14 PUSH1 0x1 PUSH1 0x1 PUSH1 0xA0 SHL SUB DUP12 AND GAS CALL DUP1 ISZERO PUSH2 0xD1C JUMPI PUSH2 0xDEE JUMPI JUMPDEST POP PUSH1 0x40 MLOAD PUSH2 0x71F DUP2 PUSH2 0x2788 JUMP JUMPDEST PUSH1 0x2 DUP2 MSTORE PUSH1 0x40 CALLDATASIZE PUSH1 0x20 DUP4 ADD CALLDATACOPY PUSH1 0x1 PUSH1 0x1 PUSH1 0xA0 SHL SUB PUSH2 0x73C DUP10 PUSH2 0x27FA JUMP JUMPDEST MLOAD AND PUSH2 0x747 DUP3 PUSH2 0x27FA JUMP JUMPDEST MSTORE PUSH1 0x1 PUSH1 0x1 PUSH1 0xA0 SHL SUB PUSH2 0x759 DUP10 PUSH2 0x281D JUMP JUMPDEST MLOAD AND PUSH2 0x764 DUP3 PUSH2 0x281D JUMP JUMPDEST MSTORE PUSH2 0x770 DUP2 DUP9 CALLDATALOAD PUSH2 0x2DA5 JUMP JUMPDEST SWAP1 PUSH1 0x1 PUSH1 0x1 PUSH1 0xA0 SHL SUB PUSH1 0x6 SLOAD AND SWAP1 PUSH2 0x12C TIMESTAMP ADD TIMESTAMP GT PUSH2 0xDDA JUMPI SWAP2 DUP12 SWAP2 DUP10 DUP4 PUSH2 0x7B8 SWAP6 PUSH1 0x40 MLOAD SWAP7 DUP8 SWAP6 DUP7 SWAP5 DUP6 SWAP4 PUSH4 0x38ED1739 PUSH1 0xE0 SHL DUP6 MSTORE PUSH2 0x12C TIMESTAMP ADD SWAP3 ADDRESS SWAP3 CALLDATALOAD PUSH1 0x4 DUP8 ADD PUSH2 0x2D6D JUMP JUMPDEST SUB SWAP3 GAS CALL SWAP1 DUP2 ISZERO PUSH2 0xD1C JUMPI DUP11 SWAP2 PUSH2 0xDC0 JUMPI JUMPDEST POP DUP1 MLOAD DUP1 PUSH1 0x0 NOT DUP2 ADD GT PUSH2 0xD73 JUMPI PUSH2 0x7EB PUSH2 0x884 SWAP3 DUP13 SWAP3 PUSH1 0x0 NOT ADD SWAP1 PUSH2 0x283D JUMP JUMPDEST MLOAD PUSH1 0x40 MLOAD PUSH1 0x20 DUP3 PUSH1 0x1 PUSH1 0x1 PUSH1 0xA0 SHL SUB PUSH2 0x843 DUP15 PUSH2 0x807 DUP7 PUSH2 0x2788 JUMP JUMPDEST PUSH1 0x2 DUP7 MSTORE PUSH1 0x40 CALLDATASIZE DUP7 DUP9 ADD CALLDATACOPY DUP3 PUSH2 0x81C DUP3 PUSH2 0x281D JUMP JUMPDEST MLOAD AND PUSH2 0x827 DUP8 PUSH2 0x27FA JUMP JUMPDEST MSTORE DUP3 PUSH2 0x832 DUP3 PUSH2 0x282D JUMP JUMPDEST MLOAD AND PUSH2 0x83D DUP8 PUSH2 0x281D JUMP JUMPDEST MSTORE PUSH2 0x281D JUMP JUMPDEST MLOAD AND PUSH1 0x1 PUSH1 0x1 PUSH1 0xA0 SHL SUB PUSH1 0x7 SLOAD AND DUP7 PUSH1 0x40 MLOAD DUP1 SWAP10 DUP2 SWAP6 DUP3 SWAP5 PUSH4 0x95EA7B3 PUSH1 0xE0 SHL DUP5 MSTORE PUSH1 0x4 DUP5 ADD PUSH1 0x20 SWAP1 SWAP4 SWAP3 SWAP2 SWAP4 PUSH1 0x1 PUSH1 0x1 PUSH1 0xA0 SHL SUB PUSH1 0x40 DUP3 ADD SWAP6 AND DUP2 MSTORE ADD MSTORE JUMP JUMPDEST SUB SWAP3 GAS CALL SWAP4 DUP5 ISZERO PUSH2 0xD68 JUMPI PUSH2 0x8D7 SWAP5 PUSH2 0xDA1 JUMPI JUMPDEST POP PUSH2 0x8A3 DUP2 DUP4 PUSH2 0x2E65 JUMP JUMPDEST SWAP2 DUP4 PUSH1 0x1 PUSH1 0x1 PUSH1 0xA0 SHL SUB PUSH1 0x7 SLOAD AND SWAP3 PUSH1 0x40 MLOAD SWAP7 DUP8 SWAP6 DUP7 SWAP5 DUP6 SWAP4 PUSH4 0x38ED1739 PUSH1 0xE0 SHL DUP6 MSTORE PUSH2 0x12C TIMESTAMP ADD SWAP3 ADDRESS SWAP3 PUSH1 0x4 DUP8 ADD PUSH2 0x2D6D JUMP JUMPDEST SUB SWAP3 GAS CALL SWAP1 DUP2 ISZERO PUSH2 0xD1C JUMPI DUP11 SWAP2 PUSH2 0xD87 JUMPI JUMPDEST POP DUP1 MLOAD DUP1 PUSH1 0x0 NOT DUP2 ADD GT PUSH2 0xD73 JUMPI PUSH2 0x90A PUSH2 0x9A3 SWAP3 DUP13 SWAP3 PUSH1 0x0 NOT ADD SWAP1 PUSH2 0x283D JUMP JUMPDEST MLOAD PUSH1 0x40 MLOAD PUSH1 0x20 DUP3 PUSH1 0x1 PUSH1 0x1 PUSH1 0xA0 SHL SUB PUSH2 0x962 DUP15 PUSH2 0x926 DUP7 PUSH2 0x2788 JUMP JUMPDEST PUSH1 0x2 DUP7 MSTORE PUSH1 0x40 CALLDATASIZE DUP7 DUP9 ADD CALLDATACOPY DUP3 PUSH2 0x93B DUP3 PUSH2 0x282D JUMP JUMPDEST MLOAD AND PUSH2 0x946 DUP8 PUSH2 0x27FA JUMP JUMPDEST MSTORE DUP3 PUSH2 0x951 DUP3 PUSH2 0x27FA JUMP JUMPDEST MLOAD AND PUSH2 0x95C DUP8 PUSH2 0x281D JUMP JUMPDEST MSTORE PUSH2 0x282D JUMP JUMPDEST MLOAD AND PUSH1 0x1 PUSH1 0x1 PUSH1 0xA0 SHL SUB PUSH1 0x6 SLOAD AND DUP7 PUSH1 0x40 MLOAD DUP1 SWAP10 DUP2 SWAP6 DUP3 SWAP5 PUSH4 0x95EA7B3 PUSH1 0xE0 SHL DUP5 MSTORE PUSH1 0x4 DUP5 ADD PUSH1 0x20 SWAP1 SWAP4 SWAP3 SWAP2 SWAP4 PUSH1 0x1 PUSH1 0x1 PUSH1 0xA0 SHL SUB PUSH1 0x40 DUP3 ADD SWAP6 AND DUP2 MSTORE ADD MSTORE JUMP JUMPDEST SUB SWAP3 GAS CALL SWAP4 DUP5 ISZERO PUSH2 0xD68 JUMPI PUSH2 0x9F6 SWAP5 PUSH2 0xD49 JUMPI JUMPDEST POP PUSH2 0x9C2 DUP2 DUP4 PUSH2 0x2DA5 JUMP JUMPDEST SWAP2 DUP4 PUSH1 0x1 PUSH1 0x1 PUSH1 0xA0 SHL SUB PUSH1 0x6 SLOAD AND SWAP3 PUSH1 0x40 MLOAD SWAP7 DUP8 SWAP6 DUP7 SWAP5 DUP6 SWAP4 PUSH4 0x38ED1739 PUSH1 0xE0 SHL DUP6 MSTORE PUSH2 0x12C TIMESTAMP ADD SWAP3 ADDRESS SWAP3 PUSH1 0x4 DUP8 ADD PUSH2 0x2D6D JUMP JUMPDEST SUB SWAP3 GAS CALL DUP1 ISZERO PUSH2 0xD1C JUMPI PUSH2 0xD27 JUMPI JUMPDEST POP JUMPDEST PUSH1 0x40 MLOAD SWAP2 PUSH4 0x70A08231 PUSH1 0xE0 SHL DUP4 MSTORE ADDRESS PUSH1 0x4 DUP5 ADD MSTORE PUSH1 0x20 DUP4 PUSH1 0x24 DUP2 PUSH1 0x1 PUSH1 0x1 PUSH1 0xA0 SHL SUB DUP11 AND GAS STATICCALL SWAP3 DUP4 ISZERO PUSH2 0xD1C JUMPI DUP11 SWAP4 PUSH2 0xCE3 JUMPI JUMPDEST POP ISZERO PUSH2 0xCCF JUMPI CALLDATALOAD DUP6 CALLDATALOAD ADD SWAP1 DUP2 DUP7 CALLDATALOAD GT PUSH2 0xCB9 JUMPI DUP2 DUP2 LT PUSH2 0xC75 JUMPI DUP2 PUSH2 0xA5F SWAP2 PUSH2 0x2908 JUMP JUMPDEST SWAP7 PUSH2 0x2710 PUSH2 0xA70 PUSH1 0xB SLOAD DUP9 CALLDATALOAD PUSH2 0x2B4A JUMP JUMPDEST DIV DUP9 LT PUSH2 0xC31 JUMPI PUSH1 0x64 ADD CALLDATALOAD PUSH1 0x5F DUP2 DUP2 MUL SWAP2 DUP1 ISZERO SWAP1 DUP4 DIV SWAP1 SWAP2 EQ OR ISZERO PUSH2 0xC1D JUMPI PUSH1 0x64 SWAP1 DIV DUP8 LT PUSH2 0xBD9 JUMPI PUSH1 0x2 SLOAD PUSH1 0x40 MLOAD PUSH4 0x95EA7B3 PUSH1 0xE0 SHL DUP2 MSTORE PUSH1 0x8 SWAP2 SWAP1 SWAP2 SHR PUSH1 0x1 PUSH1 0x1 PUSH1 0xA0 SHL SUB AND PUSH1 0x4 DUP3 ADD MSTORE PUSH1 0x24 DUP2 ADD SWAP2 SWAP1 SWAP2 MSTORE PUSH1 0x20 DUP2 DUP1 PUSH1 0x44 DUP2 ADD SUB DUP2 DUP12 PUSH1 0x1 PUSH1 0x1 PUSH1 0xA0 SHL SUB DUP10 AND GAS CALL DUP1 ISZERO PUSH2 0xBCE JUMPI PUSH2 0xB9F JUMPI JUMPDEST POP ISZERO PUSH2 0xB55 JUMPI POP POP PUSH32 0x511DC6C70263758503FF9AEE3E77F3E7BEF3CABEE21A4EB0B017E7CF0438F2F2 PUSH1 0x40 PUSH1 0x1 PUSH1 0x1 PUSH1 0xA0 SHL SUB PUSH2 0xB23 DUP6 PUSH2 0x27FA JUMP JUMPDEST MLOAD AND SWAP3 PUSH1 0x1 PUSH1 0x1 PUSH1 0xA0 SHL SUB PUSH2 0xB43 DUP2 PUSH2 0xB3B DUP9 PUSH2 0x281D JUMP JUMPDEST MLOAD AND SWAP7 PUSH2 0x282D JUMP JUMPDEST MLOAD AND SWAP6 DUP3 MLOAD SWAP2 CALLDATALOAD DUP3 MSTORE PUSH1 0x20 DUP3 ADD MSTORE LOG4 DUP1 RETURN JUMPDEST PUSH32 0x5625C164577E109E0C8964AB47768B235A36D08F5146DFA9858A382FA5C5EFD SWAP4 POP SWAP1 PUSH1 0x1 PUSH1 0x1 PUSH1 0xA0 SHL SUB SWAP2 PUSH1 0x60 SWAP4 SWAP6 PUSH1 0x40 MLOAD SWAP7 CALLDATALOAD DUP8 MSTORE PUSH1 0x20 DUP8 ADD MSTORE ISZERO ISZERO PUSH1 0x40 DUP7 ADD MSTORE AND SWAP3 LOG2 DUP1 RETURN JUMPDEST PUSH2 0xBC0 SWAP1 PUSH1 0x20 RETURNDATASIZE PUSH1 0x20 GT PUSH2 0xBC7 JUMPI JUMPDEST PUSH2 0xBB8 DUP2 DUP4 PUSH2 0x27C0 JUMP JUMPDEST DUP2 ADD SWAP1 PUSH2 0x2915 JUMP JUMPDEST POP DUP8 PUSH2 0xAE7 JUMP JUMPDEST POP RETURNDATASIZE PUSH2 0xBAE JUMP JUMPDEST PUSH1 0x40 MLOAD RETURNDATASIZE DUP11 DUP3 RETURNDATACOPY RETURNDATASIZE SWAP1 REVERT JUMPDEST PUSH1 0x64 PUSH1 0x40 MLOAD PUSH3 0x461BCD PUSH1 0xE5 SHL DUP2 MSTORE PUSH1 0x20 PUSH1 0x4 DUP3 ADD MSTORE PUSH1 0x19 PUSH1 0x24 DUP3 ADD MSTORE PUSH32 0x50726F66697420646576696174696F6E20746F6F206869676800000000000000 PUSH1 0x44 DUP3 ADD MSTORE REVERT JUMPDEST PUSH1 0x24 DUP10 PUSH4 0x4E487B71 PUSH1 0xE0 SHL DUP2 MSTORE PUSH1 0x11 PUSH1 0x4 MSTORE REVERT JUMPDEST PUSH1 0x64 PUSH1 0x40 MLOAD PUSH3 0x461BCD PUSH1 0xE5 SHL DUP2 MSTORE PUSH1 0x20 PUSH1 0x4 DUP3 ADD MSTORE PUSH1 0xE PUSH1 0x24 DUP3 ADD MSTORE PUSH32 0x50726F66697420746F6F206C6F77000000000000000000000000000000000000 PUSH1 0x44 DUP3 ADD MSTORE REVERT JUMPDEST PUSH1 0x64 PUSH1 0x40 MLOAD PUSH3 0x461BCD PUSH1 0xE5 SHL DUP2 MSTORE PUSH1 0x20 PUSH1 0x4 DUP3 ADD MSTORE PUSH1 0xC PUSH1 0x24 DUP3 ADD MSTORE PUSH32 0x556E70726F66697461626C650000000000000000000000000000000000000000 PUSH1 0x44 DUP3 ADD MSTORE REVERT JUMPDEST PUSH4 0x4E487B71 PUSH1 0xE0 SHL PUSH1 0x0 MSTORE PUSH1 0x11 PUSH1 0x4 MSTORE PUSH1 0x24 PUSH1 0x0 REVERT JUMPDEST PUSH1 0x24 DUP10 PUSH4 0x4E487B71 PUSH1 0xE0 SHL DUP2 MSTORE PUSH1 0x32 PUSH1 0x4 MSTORE REVERT JUMPDEST SWAP1 SWAP3 POP PUSH1 0x20 DUP2 RETURNDATASIZE PUSH1 0x20 GT PUSH2 0xD14 JUMPI JUMPDEST DUP2 PUSH2 0xCFF PUSH1 0x20 SWAP4 DUP4 PUSH2 0x27C0 JUMP JUMPDEST DUP2 ADD SUB SLT PUSH2 0xD0F JUMPI MLOAD SWAP2 DUP11 PUSH2 0xA3B JUMP JUMPDEST PUSH1 0x0 DUP1 REVERT JUMPDEST RETURNDATASIZE SWAP2 POP PUSH2 0xCF2 JUMP JUMPDEST PUSH1 0x40 MLOAD RETURNDATASIZE DUP13 DUP3 RETURNDATACOPY RETURNDATASIZE SWAP1 REVERT JUMPDEST PUSH2 0xD42 SWAP1 RETURNDATASIZE DUP1 DUP13 DUP4 RETURNDATACOPY PUSH2 0xD3A DUP2 DUP4 PUSH2 0x27C0 JUMP JUMPDEST DUP2 ADD SWAP1 PUSH2 0x2851 JUMP JUMPDEST POP DUP10 PUSH2 0xA05 JUMP JUMPDEST PUSH2 0xD61 SWAP1 PUSH1 0x20 RETURNDATASIZE PUSH1 0x20 GT PUSH2 0xBC7 JUMPI PUSH2 0xBB8 DUP2 DUP4 PUSH2 0x27C0 JUMP JUMPDEST POP DUP14 PUSH2 0x9B7 JUMP JUMPDEST PUSH1 0x40 MLOAD RETURNDATASIZE DUP6 DUP3 RETURNDATACOPY RETURNDATASIZE SWAP1 REVERT JUMPDEST PUSH1 0x24 DUP12 PUSH4 0x4E487B71 PUSH1 0xE0 SHL DUP2 MSTORE PUSH1 0x11 PUSH1 0x4 MSTORE REVERT JUMPDEST PUSH2 0xD9B SWAP2 POP RETURNDATASIZE DUP1 DUP13 DUP4 RETURNDATACOPY PUSH2 0xD3A DUP2 DUP4 PUSH2 0x27C0 JUMP JUMPDEST DUP11 PUSH2 0x8E9 JUMP JUMPDEST PUSH2 0xDB9 SWAP1 PUSH1 0x20 RETURNDATASIZE PUSH1 0x20 GT PUSH2 0xBC7 JUMPI PUSH2 0xBB8 DUP2 DUP4 PUSH2 0x27C0 JUMP JUMPDEST POP DUP14 PUSH2 0x898 JUMP JUMPDEST PUSH2 0xDD4 SWAP2 POP RETURNDATASIZE DUP1 DUP13 DUP4 RETURNDATACOPY PUSH2 0xD3A DUP2 DUP4 PUSH2 0x27C0 JUMP JUMPDEST DUP11 PUSH2 0x7CA JUMP JUMPDEST PUSH1 0x24 DUP13 PUSH4 0x4E487B71 PUSH1 0xE0 SHL DUP2 MSTORE PUSH1 0x11 PUSH1 0x4 MSTORE REVERT JUMPDEST PUSH2 0xE06 SWAP1 PUSH1 0x20 RETURNDATASIZE PUSH1 0x20 GT PUSH2 0xBC7 JUMPI PUSH2 0xBB8 DUP2 DUP4 PUSH2 0x27C0 JUMP JUMPDEST POP DUP10 PUSH2 0x712 JUMP JUMPDEST PUSH2 0xE25 SWAP1 PUSH1 0x20 RETURNDATASIZE PUSH1 0x20 GT PUSH2 0xBC7 JUMPI PUSH2 0xBB8 DUP2 DUP4 PUSH2 0x27C0 JUMP JUMPDEST POP DUP10 PUSH2 0x6C8 JUMP JUMPDEST PUSH1 0x3 SLOAD PUSH1 0x40 MLOAD PUSH4 0x95EA7B3 PUSH1 0xE0 SHL DUP2 MSTORE PUSH1 0x1 PUSH1 0x1 PUSH1 0xA0 SHL SUB SWAP1 SWAP2 AND PUSH1 0x4 DUP3 ADD MSTORE DUP7 CALLDATALOAD PUSH1 0x24 DUP3 ADD MSTORE PUSH1 0x20 DUP2 DUP1 PUSH1 0x44 DUP2 ADD SUB DUP2 DUP14 PUSH1 0x1 PUSH1 0x1 PUSH1 0xA0 SHL SUB DUP12 AND GAS CALL DUP1 ISZERO PUSH2 0xD1C JUMPI PUSH2 0x1295 JUMPI JUMPDEST POP PUSH1 0x4 DUP1 SLOAD PUSH1 0x40 MLOAD PUSH4 0x95EA7B3 PUSH1 0xE0 SHL DUP2 MSTORE PUSH1 0x1 PUSH1 0x1 PUSH1 0xA0 SHL SUB SWAP1 SWAP2 AND SWAP2 DUP2 ADD SWAP2 SWAP1 SWAP2 MSTORE DUP7 CALLDATALOAD PUSH1 0x24 DUP3 ADD MSTORE PUSH1 0x20 DUP2 DUP1 PUSH1 0x44 DUP2 ADD SUB DUP2 DUP14 PUSH1 0x1 PUSH1 0x1 PUSH1 0xA0 SHL SUB DUP12 AND GAS CALL DUP1 ISZERO PUSH2 0xD1C JUMPI PUSH2 0x1276 JUMPI JUMPDEST POP PUSH1 0x6 SLOAD PUSH1 0x40 MLOAD PUSH4 0x95EA7B3 PUSH1 0xE0 SHL DUP2 MSTORE PUSH1 0x1 PUSH1 0x1 PUSH1 0xA0 SHL SUB SWAP1 SWAP2 AND PUSH1 0x4 DUP3 ADD MSTORE DUP7 CALLDATALOAD PUSH1 0x24 DUP3 ADD MSTORE PUSH1 0x20 DUP2 DUP1 PUSH1 0x44 DUP2 ADD SUB DUP2 DUP14 PUSH1 0x1 PUSH1 0x1 PUSH1 0xA0 SHL SUB DUP12 AND GAS CALL DUP1 ISZERO PUSH2 0xD1C JUMPI PUSH2 0x1257 JUMPI JUMPDEST POP PUSH1 0x7 SLOAD PUSH1 0x40 MLOAD PUSH4 0x95EA7B3 PUSH1 0xE0 SHL DUP2 MSTORE PUSH1 0x1 PUSH1 0x1 PUSH1 0xA0 SHL SUB SWAP1 SWAP2 AND PUSH1 0x4 DUP3 ADD MSTORE DUP7 CALLDATALOAD PUSH1 0x24 DUP3 ADD MSTORE PUSH1 0x20 DUP2 DUP1 PUSH1 0x44 DUP2 ADD SUB DUP2 DUP14 PUSH1 0x1 PUSH1 0x1 PUSH1 0xA0 SHL SUB DUP12 AND GAS CALL DUP1 ISZERO PUSH2 0xD1C JUMPI PUSH2 0x1238 JUMPI JUMPDEST POP DUP4 ISZERO PUSH2 0x1115 JUMPI PUSH2 0xF68 DUP8 DUP8 CALLDATALOAD PUSH2 0x2E65 JUMP JUMPDEST PUSH1 0x1 PUSH1 0x1 PUSH1 0xA0 SHL SUB PUSH2 0xF78 PUSH2 0x2BD7 JUMP JUMPDEST AND PUSH2 0x12C TIMESTAMP ADD TIMESTAMP GT PUSH2 0xD73 JUMPI PUSH2 0xFB3 SWAP2 DUP12 SWAP2 DUP10 DUP4 DUP13 PUSH1 0x40 MLOAD SWAP7 DUP8 SWAP6 DUP7 SWAP5 DUP6 SWAP4 PUSH4 0x38ED1739 PUSH1 0xE0 SHL DUP6 MSTORE PUSH2 0x12C TIMESTAMP ADD SWAP3 ADDRESS SWAP3 CALLDATALOAD PUSH1 0x4 DUP8 ADD PUSH2 0x2D6D JUMP JUMPDEST SUB SWAP3 GAS CALL SWAP1 DUP2 ISZERO PUSH2 0xD1C JUMPI DUP11 SWAP2 PUSH2 0x10FB JUMPI JUMPDEST POP DUP1 MLOAD DUP1 PUSH1 0x0 NOT DUP2 ADD GT PUSH2 0xD73 JUMPI PUSH2 0xFE6 PUSH2 0x1041 SWAP3 DUP13 SWAP3 PUSH1 0x0 NOT ADD SWAP1 PUSH2 0x283D JUMP JUMPDEST MLOAD PUSH1 0x20 DUP2 PUSH1 0x1 PUSH1 0x1 PUSH1 0xA0 SHL SUB PUSH2 0xFFB DUP14 PUSH2 0x281D JUMP JUMPDEST MLOAD AND PUSH1 0x1 PUSH1 0x1 PUSH1 0xA0 SHL SUB PUSH2 0x100D PUSH2 0x2BB5 JUMP JUMPDEST AND DUP6 PUSH1 0x40 MLOAD DUP1 SWAP9 DUP2 SWAP6 DUP3 SWAP5 PUSH4 0x95EA7B3 PUSH1 0xE0 SHL DUP5 MSTORE PUSH1 0x4 DUP5 ADD PUSH1 0x20 SWAP1 SWAP4 SWAP3 SWAP2 SWAP4 PUSH1 0x1 PUSH1 0x1 PUSH1 0xA0 SHL SUB PUSH1 0x40 DUP3 ADD SWAP6 AND DUP2 MSTORE ADD MSTORE JUMP JUMPDEST SUB SWAP3 GAS CALL SWAP3 DUP4 ISZERO PUSH2 0x10F0 JUMPI PUSH2 0x10A2 SWAP4 PUSH2 0x10D1 JUMPI JUMPDEST POP PUSH2 0x105F DUP11 PUSH2 0x2C17 JUMP JUMPDEST PUSH2 0x1069 DUP2 DUP4 PUSH2 0x2DA5 JUMP JUMPDEST SWAP2 DUP4 PUSH1 0x1 PUSH1 0x1 PUSH1 0xA0 SHL SUB PUSH2 0x107B PUSH2 0x2BB5 JUMP JUMPDEST AND SWAP3 PUSH1 0x40 MLOAD SWAP7 DUP8 SWAP6 DUP7 SWAP5 DUP6 SWAP4 PUSH4 0x38ED1739 PUSH1 0xE0 SHL DUP6 MSTORE PUSH2 0x12C TIMESTAMP ADD SWAP3 ADDRESS SWAP3 PUSH1 0x4 DUP8 ADD PUSH2 0x2D6D JUMP JUMPDEST SUB SWAP3 GAS CALL DUP1 ISZERO PUSH2 0xD1C JUMPI PUSH2 0x10B7 JUMPI JUMPDEST POP PUSH2 0xA07 JUMP JUMPDEST PUSH2 0x10CA SWAP1 RETURNDATASIZE DUP1 DUP13 DUP4 RETURNDATACOPY PUSH2 0xD3A DUP2 DUP4 PUSH2 0x27C0 JUMP JUMPDEST POP DUP10 PUSH2 0x10B1 JUMP JUMPDEST PUSH2 0x10E9 SWAP1 PUSH1 0x20 RETURNDATASIZE PUSH1 0x20 GT PUSH2 0xBC7 JUMPI PUSH2 0xBB8 DUP2 DUP4 PUSH2 0x27C0 JUMP JUMPDEST POP DUP13 PUSH2 0x1055 JUMP JUMPDEST PUSH1 0x40 MLOAD RETURNDATASIZE DUP5 DUP3 RETURNDATACOPY RETURNDATASIZE SWAP1 REVERT JUMPDEST PUSH2 0x110F SWAP2 POP RETURNDATASIZE DUP1 DUP13 DUP4 RETURNDATACOPY PUSH2 0xD3A DUP2 DUP4 PUSH2 0x27C0 JUMP JUMPDEST DUP11 PUSH2 0xFC5 JUMP JUMPDEST PUSH2 0x1120 DUP8 DUP8 CALLDATALOAD PUSH2 0x2DA5 JUMP JUMPDEST PUSH1 0x1 PUSH1 0x1 PUSH1 0xA0 SHL SUB PUSH2 0x1130 PUSH2 0x2BB5 JUMP JUMPDEST AND PUSH2 0x12C TIMESTAMP ADD TIMESTAMP GT PUSH2 0xD73 JUMPI PUSH2 0x116B SWAP2 DUP12 SWAP2 DUP10 DUP4 DUP13 PUSH1 0x40 MLOAD SWAP7 DUP8 SWAP6 DUP7 SWAP5 DUP6 SWAP4 PUSH4 0x38ED1739 PUSH1 0xE0 SHL DUP6 MSTORE PUSH2 0x12C TIMESTAMP ADD SWAP3 ADDRESS SWAP3 CALLDATALOAD PUSH1 0x4 DUP8 ADD PUSH2 0x2D6D JUMP JUMPDEST SUB SWAP3 GAS CALL SWAP1 DUP2 ISZERO PUSH2 0xD1C JUMPI DUP11 SWAP2 PUSH2 0x121E JUMPI JUMPDEST POP DUP1 MLOAD DUP1 PUSH1 0x0 NOT DUP2 ADD GT PUSH2 0xD73 JUMPI PUSH2 0x119E PUSH2 0x11C5 SWAP3 DUP13 SWAP3 PUSH1 0x0 NOT ADD SWAP1 PUSH2 0x283D JUMP JUMPDEST MLOAD PUSH1 0x20 DUP2 PUSH1 0x1 PUSH1 0x1 PUSH1 0xA0 SHL SUB PUSH2 0x11B3 DUP14 PUSH2 0x281D JUMP JUMPDEST MLOAD AND PUSH1 0x1 PUSH1 0x1 PUSH1 0xA0 SHL SUB PUSH2 0x100D PUSH2 0x2BD7 JUMP JUMPDEST SUB SWAP3 GAS CALL SWAP3 DUP4 ISZERO PUSH2 0x10F0 JUMPI PUSH2 0x10A2 SWAP4 PUSH2 0x11FF JUMPI JUMPDEST POP PUSH2 0x11E3 DUP11 PUSH2 0x2C17 JUMP JUMPDEST PUSH2 0x11ED DUP2 DUP4 PUSH2 0x2E65 JUMP JUMPDEST SWAP2 DUP4 PUSH1 0x1 PUSH1 0x1 PUSH1 0xA0 SHL SUB PUSH2 0x107B PUSH2 0x2BD7 JUMP JUMPDEST PUSH2 0x1217 SWAP1 PUSH1 0x20 RETURNDATASIZE PUSH1 0x20 GT PUSH2 0xBC7 JUMPI PUSH2 0xBB8 DUP2 DUP4 PUSH2 0x27C0 JUMP JUMPDEST POP DUP13 PUSH2 0x11D9 JUMP JUMPDEST PUSH2 0x1232 SWAP2 POP RETURNDATASIZE DUP1 DUP13 DUP4 RETURNDATACOPY PUSH2 0xD3A DUP2 DUP4 PUSH2 0x27C0 JUMP JUMPDEST DUP11 PUSH2 0x117D JUMP JUMPDEST PUSH2 0x1250 SWAP1 PUSH1 0x20 RETURNDATASIZE PUSH1 0x20 GT PUSH2 0xBC7 JUMPI PUSH2 0xBB8 DUP2 DUP4 PUSH2 0x27C0 JUMP JUMPDEST POP DUP10 PUSH2 0xF56 JUMP JUMPDEST PUSH2 0x126F SWAP1 PUSH1 0x20 RETURNDATASIZE PUSH1 0x20 GT PUSH2 0xBC7 JUMPI PUSH2 0xBB8 DUP2 DUP4 PUSH2 0x27C0 JUMP JUMPDEST POP DUP10 PUSH2 0xF0C JUMP JUMPDEST PUSH2 0x128E SWAP1 PUSH1 0x20 RETURNDATASIZE PUSH1 0x20 GT PUSH2 0xBC7 JUMPI PUSH2 0xBB8 DUP2 DUP4 PUSH2 0x27C0 JUMP JUMPDEST POP DUP10 PUSH2 0xEC2 JUMP JUMPDEST PUSH2 0x12AD SWAP1 PUSH1 0x20 RETURNDATASIZE PUSH1 0x20 GT PUSH2 0xBC7 JUMPI PUSH2 0xBB8 DUP2 DUP4 PUSH2 0x27C0 JUMP JUMPDEST POP DUP10 PUSH2 0xE75 JUMP JUMPDEST PUSH1 0x20 SWAP1 DUP2 RETURNDATASIZE DUP4 GT PUSH2 0x12D8 JUMPI JUMPDEST PUSH2 0x12CA DUP2 DUP4 PUSH2 0x27C0 JUMP JUMPDEST DUP2 ADD SUB SLT PUSH2 0xD0F JUMPI DUP10 PUSH2 0x678 JUMP JUMPDEST POP RETURNDATASIZE PUSH2 0x12C0 JUMP JUMPDEST PUSH1 0x24 DUP8 PUSH4 0x4E487B71 PUSH1 0xE0 SHL DUP2 MSTORE PUSH1 0x32 PUSH1 0x4 MSTORE REVERT JUMPDEST PUSH1 0x24 DUP9 PUSH4 0x4E487B71 PUSH1 0xE0 SHL DUP2 MSTORE PUSH1 0x32 PUSH1 0x4 MSTORE REVERT JUMPDEST DUP8 DUP1 REVERT JUMPDEST PUSH1 0x64 PUSH1 0x40 MLOAD PUSH3 0x461BCD PUSH1 0xE5 SHL DUP2 MSTORE PUSH1 0x20 PUSH1 0x4 DUP3 ADD MSTORE PUSH1 0x13 PUSH1 0x24 DUP3 ADD MSTORE PUSH32 0x4F6E6C792042616C616E636572207661756C7400000000000000000000000000 PUSH1 0x44 DUP3 ADD MSTORE REVERT JUMPDEST DUP9 DUP1 REVERT JUMPDEST DUP7 DUP1 REVERT JUMPDEST DUP5 DUP1 REVERT JUMPDEST DUP3 DUP1 REVERT JUMPDEST POP CALLVALUE PUSH2 0x244 JUMPI PUSH1 0x80 CALLDATASIZE PUSH1 0x3 NOT ADD SLT PUSH2 0x244 JUMPI PUSH2 0x1379 PUSH2 0x2662 JUMP JUMPDEST SWAP1 PUSH1 0x24 CALLDATALOAD PUSH1 0x44 CALLDATALOAD PUSH8 0xFFFFFFFFFFFFFFFF DUP2 GT PUSH2 0x135B JUMPI PUSH2 0x139D SWAP1 CALLDATASIZE SWAP1 PUSH1 0x4 ADD PUSH2 0x268C JUMP JUMPDEST SWAP4 SWAP1 PUSH1 0x64 CALLDATALOAD CALLER DUP6 MSTORE PUSH1 0x20 SWAP2 PUSH1 0xD DUP4 MSTORE PUSH1 0xFF PUSH1 0x40 DUP8 KECCAK256 SLOAD AND DUP1 ISZERO PUSH2 0x1593 JUMPI JUMPDEST PUSH2 0x13C4 SWAP1 PUSH2 0x29C9 JUMP JUMPDEST PUSH2 0x13CC PUSH2 0x2CB1 JUMP JUMPDEST PUSH2 0x13D4 PUSH2 0x2D01 JUMP JUMPDEST PUSH1 0x4 DUP8 SUB PUSH2 0x1529 JUMPI DUP7 ISZERO PUSH2 0x1515 JUMPI PUSH2 0x13EB DUP2 PUSH2 0x26D9 JUMP JUMPDEST SWAP7 DUP1 PUSH1 0x3 LT ISZERO PUSH2 0x12DF JUMPI SWAP3 DUP7 SWAP8 SWAP3 PUSH2 0x1495 PUSH2 0x14B7 SWAP4 PUSH1 0x80 SWAP7 PUSH2 0x1426 PUSH1 0x1 PUSH1 0x1 PUSH1 0xA0 SHL SUB SWAP8 DUP9 DUP1 PUSH2 0x141D PUSH1 0x60 DUP8 ADD PUSH2 0x26D9 JUMP JUMPDEST AND SWAP2 AND EQ PUSH2 0x26ED JUMP JUMPDEST PUSH2 0x1431 DUP11 ISZERO ISZERO PUSH2 0x2A14 JUMP JUMPDEST PUSH2 0x143C DUP5 ISZERO ISZERO PUSH2 0x2A5F JUMP JUMPDEST PUSH1 0x40 MLOAD SWAP9 PUSH2 0x1449 DUP11 PUSH2 0x27A4 JUMP JUMPDEST PUSH1 0x1 DUP11 MSTORE DUP6 CALLDATASIZE DUP2 DUP13 ADD CALLDATACOPY DUP8 PUSH2 0x145D DUP12 PUSH2 0x27FA JUMP JUMPDEST SWAP2 AND SWAP1 MSTORE PUSH1 0x40 MLOAD SWAP10 PUSH2 0x146E DUP12 PUSH2 0x27A4 JUMP JUMPDEST PUSH1 0x1 DUP12 MSTORE DUP6 CALLDATASIZE DUP2 DUP14 ADD CALLDATACOPY PUSH2 0x1481 DUP12 PUSH2 0x27FA JUMP JUMPDEST MSTORE PUSH1 0x40 MLOAD SWAP8 DUP9 SWAP6 DUP7 ADD MSTORE PUSH1 0xA0 DUP6 ADD SWAP2 PUSH2 0x292D JUMP JUMPDEST SWAP1 PUSH1 0x0 PUSH1 0x40 DUP5 ADD MSTORE PUSH1 0x60 DUP4 ADD MSTORE PUSH1 0x1 PUSH1 0x80 DUP4 ADD MSTORE SUB PUSH1 0x1F NOT DUP2 ADD DUP5 MSTORE DUP4 PUSH2 0x27C0 JUMP JUMPDEST PUSH1 0x2 SLOAD PUSH1 0x8 SHR AND DUP1 EXTCODESIZE ISZERO PUSH2 0x1357 JUMPI PUSH2 0x14EA SWAP4 DUP6 DUP1 SWAP5 PUSH1 0x40 MLOAD SWAP7 DUP8 SWAP6 DUP7 SWAP5 DUP6 SWAP4 PUSH4 0x2E1C224F PUSH1 0xE1 SHL DUP6 MSTORE ADDRESS PUSH1 0x4 DUP7 ADD PUSH2 0x2AAA JUMP JUMPDEST SUB SWAP3 GAS CALL DUP1 ISZERO PUSH2 0x10F0 JUMPI PUSH2 0x1501 JUMPI JUMPDEST POP PUSH1 0x1 DUP1 SSTORE DUP1 RETURN JUMPDEST PUSH2 0x150A SWAP1 PUSH2 0x275E JUMP JUMPDEST PUSH2 0x244 JUMPI DUP1 CODESIZE PUSH2 0x14F9 JUMP JUMPDEST PUSH1 0x24 DUP7 PUSH4 0x4E487B71 PUSH1 0xE0 SHL DUP2 MSTORE PUSH1 0x32 PUSH1 0x4 MSTORE REVERT JUMPDEST PUSH1 0x84 DUP4 PUSH1 0x40 MLOAD SWAP1 PUSH3 0x461BCD PUSH1 0xE5 SHL DUP3 MSTORE PUSH1 0x4 DUP3 ADD MSTORE PUSH1 0x2F PUSH1 0x24 DUP3 ADD MSTORE PUSH32 0x547269616E67756C61722070617468206D7573742068617665203420746F6B65 PUSH1 0x44 DUP3 ADD MSTORE PUSH32 0x6E732028412D3E422D3E432D3E41290000000000000000000000000000000000 PUSH1 0x64 DUP3 ADD MSTORE REVERT JUMPDEST POP PUSH2 0x13C4 PUSH1 0x1 PUSH1 0x1 PUSH1 0xA0 SHL SUB DUP8 SLOAD AND CALLER EQ SWAP1 POP PUSH2 0x13BB JUMP JUMPDEST POP CALLVALUE PUSH2 0x244 JUMPI DUP1 PUSH1 0x3 NOT CALLDATASIZE ADD SLT PUSH2 0x244 JUMPI PUSH1 0x20 PUSH1 0xFF PUSH1 0x9 SLOAD AND PUSH1 0x40 MLOAD SWAP1 ISZERO ISZERO DUP2 MSTORE RETURN JUMPDEST POP CALLVALUE PUSH2 0x244 JUMPI DUP1 PUSH1 0x3 NOT CALLDATASIZE ADD SLT PUSH2 0x244 JUMPI PUSH1 0x20 PUSH1 0x1 PUSH1 0x1 PUSH1 0xA0 SHL SUB PUSH1 0x7 SLOAD AND PUSH1 0x40 MLOAD SWAP1 DUP2 MSTORE RETURN JUMPDEST POP CALLVALUE PUSH2 0x244 JUMPI DUP1 PUSH1 0x3 NOT CALLDATASIZE ADD SLT PUSH2 0x244 JUMPI PUSH1 0x20 PUSH1 0xA SLOAD PUSH1 0x40 MLOAD SWAP1 DUP2 MSTORE RETURN JUMPDEST POP CALLVALUE PUSH2 0x244 JUMPI PUSH1 0xA0 CALLDATASIZE PUSH1 0x3 NOT ADD SLT PUSH2 0x244 JUMPI PUSH2 0x162D PUSH2 0x2662 JUMP JUMPDEST PUSH1 0x24 CALLDATALOAD PUSH1 0x44 CALLDATALOAD PUSH8 0xFFFFFFFFFFFFFFFF DUP2 GT PUSH2 0x1795 JUMPI PUSH2 0x1650 SWAP1 CALLDATASIZE SWAP1 PUSH1 0x4 ADD PUSH2 0x268C JUMP JUMPDEST SWAP3 SWAP1 PUSH2 0x165A PUSH2 0x26BD JUMP JUMPDEST PUSH1 0x84 CALLDATALOAD CALLER DUP8 MSTORE PUSH1 0x20 SWAP3 PUSH1 0xD DUP5 MSTORE PUSH1 0xFF PUSH1 0x40 DUP10 KECCAK256 SLOAD AND DUP1 ISZERO PUSH2 0x17DD JUMPI JUMPDEST PUSH2 0x167F SWAP1 PUSH2 0x29C9 JUMP JUMPDEST PUSH2 0x1687 PUSH2 0x2CB1 JUMP JUMPDEST PUSH2 0x168F PUSH2 0x2D01 JUMP JUMPDEST PUSH1 0x2 DUP8 LT PUSH2 0x1799 JUMPI SWAP3 PUSH1 0x80 SWAP5 SWAP3 PUSH2 0x173E SWAP3 PUSH2 0x171D DUP9 SWAP7 PUSH2 0x16B1 DUP13 SWAP11 ISZERO ISZERO PUSH2 0x2A14 JUMP JUMPDEST PUSH2 0x16BC DUP4 ISZERO ISZERO PUSH2 0x2A5F JUMP JUMPDEST PUSH1 0x40 MLOAD SWAP11 PUSH2 0x16C9 DUP13 PUSH2 0x27A4 JUMP JUMPDEST PUSH1 0x1 DUP13 MSTORE DUP6 CALLDATASIZE DUP2 DUP15 ADD CALLDATACOPY PUSH2 0x16DC DUP13 PUSH2 0x27FA JUMP JUMPDEST PUSH1 0x1 PUSH1 0x1 PUSH1 0xA0 SHL SUB DUP1 SWAP10 AND SWAP1 MSTORE PUSH1 0x40 MLOAD SWAP9 PUSH2 0x16F6 DUP11 PUSH2 0x27A4 JUMP JUMPDEST PUSH1 0x1 DUP11 MSTORE DUP7 CALLDATASIZE DUP2 DUP13 ADD CALLDATACOPY PUSH2 0x1709 DUP11 PUSH2 0x27FA JUMP JUMPDEST MSTORE PUSH1 0x40 MLOAD SWAP10 DUP11 SWAP7 DUP8 ADD MSTORE PUSH1 0xA0 DUP7 ADD SWAP2 PUSH2 0x292D JUMP JUMPDEST SWAP2 ISZERO ISZERO PUSH1 0x40 DUP5 ADD MSTORE PUSH1 0x60 DUP4 ADD MSTORE DUP7 PUSH1 0x80 DUP4 ADD MSTORE SUB PUSH1 0x1F NOT DUP2 ADD DUP6 MSTORE DUP5 PUSH2 0x27C0 JUMP JUMPDEST PUSH1 0x2 SLOAD PUSH1 0x8 SHR AND SWAP1 DUP2 EXTCODESIZE ISZERO PUSH2 0x1795 JUMPI DUP4 PUSH2 0x1770 SWAP6 PUSH1 0x40 MLOAD SWAP7 DUP8 SWAP6 DUP7 SWAP5 DUP6 SWAP4 PUSH4 0x2E1C224F PUSH1 0xE1 SHL DUP6 MSTORE ADDRESS PUSH1 0x4 DUP7 ADD PUSH2 0x2AAA JUMP JUMPDEST SUB SWAP3 GAS CALL DUP1 ISZERO PUSH2 0x10F0 JUMPI PUSH2 0x1786 JUMPI POP PUSH1 0x1 DUP1 SSTORE DUP1 RETURN JUMPDEST PUSH2 0x178F SWAP1 PUSH2 0x275E JUMP JUMPDEST CODESIZE PUSH2 0x14F9 JUMP JUMPDEST DUP4 DUP1 REVERT JUMPDEST PUSH1 0x64 DUP5 PUSH1 0x40 MLOAD SWAP1 PUSH3 0x461BCD PUSH1 0xE5 SHL DUP3 MSTORE PUSH1 0x4 DUP3 ADD MSTORE PUSH1 0xC PUSH1 0x24 DUP3 ADD MSTORE PUSH32 0x496E76616C696420706174680000000000000000000000000000000000000000 PUSH1 0x44 DUP3 ADD MSTORE REVERT JUMPDEST POP PUSH2 0x167F PUSH1 0x1 PUSH1 0x1 PUSH1 0xA0 SHL SUB DUP10 SLOAD AND CALLER EQ SWAP1 POP PUSH2 0x1676 JUMP JUMPDEST POP CALLVALUE PUSH2 0x244 JUMPI DUP1 PUSH1 0x3 NOT CALLDATASIZE ADD SLT PUSH2 0x244 JUMPI PUSH1 0x20 PUSH1 0x40 MLOAD PUSH20 0xFD086BC7CD5C481DCC9C85EBE478A1C0B69FCBB9 DUP2 MSTORE RETURN JUMPDEST POP CALLVALUE PUSH2 0x244 JUMPI PUSH1 0x80 CALLDATASIZE PUSH1 0x3 NOT ADD SLT PUSH2 0x244 JUMPI PUSH2 0x183E PUSH2 0x2662 JUMP JUMPDEST POP PUSH1 0x24 SWAP1 DUP2 CALLDATALOAD PUSH1 0x44 CALLDATALOAD PUSH8 0xFFFFFFFFFFFFFFFF DUP2 GT PUSH2 0x135B JUMPI PUSH2 0x1864 SWAP1 CALLDATASIZE SWAP1 PUSH1 0x4 ADD PUSH2 0x268C JUMP JUMPDEST PUSH2 0x186C PUSH2 0x26BD JUMP JUMPDEST PUSH2 0x1875 DUP2 PUSH2 0x2BF9 JUMP JUMPDEST SWAP2 PUSH2 0x1880 DUP3 ISZERO PUSH2 0x2BF9 JUMP JUMPDEST SWAP2 ISZERO PUSH2 0x19D6 JUMPI PUSH1 0x1 PUSH1 0x1 PUSH1 0xA0 SHL SUB PUSH1 0x40 MLOAD DUP8 DUP2 PUSH4 0xD06CA61F PUSH1 0xE0 SHL SWAP7 DUP8 DUP3 MSTORE DUP10 PUSH1 0x4 DUP4 ADD MSTORE PUSH1 0x40 DUP13 DUP4 ADD MSTORE DUP2 DUP6 DUP2 PUSH2 0x18BD DUP13 DUP11 PUSH1 0x44 DUP5 ADD SWAP2 PUSH2 0x292D JUMP JUMPDEST SUB SWAP3 AND GAS STATICCALL SWAP1 DUP2 ISZERO PUSH2 0xBCE JUMPI SWAP1 DUP9 SWAP6 SWAP5 SWAP4 SWAP3 SWAP2 DUP7 SWAP2 PUSH2 0x19BC JUMPI JUMPDEST POP DUP1 MLOAD PUSH1 0x0 NOT DUP2 ADD SWAP1 DUP2 GT PUSH2 0x19A9 JUMPI PUSH2 0x192A SWAP8 PUSH2 0x18FA PUSH2 0x1903 SWAP3 PUSH2 0x1908 SWAP5 PUSH2 0x283D JUMP JUMPDEST MLOAD SWAP5 CALLDATASIZE SWAP2 PUSH2 0x2973 JUMP JUMPDEST PUSH2 0x2C17 JUMP JUMPDEST SWAP4 PUSH1 0x40 MLOAD SWAP7 DUP8 SWAP6 DUP7 SWAP5 DUP6 SWAP4 DUP5 MSTORE PUSH1 0x4 DUP5 ADD MSTORE PUSH1 0x40 DUP13 DUP5 ADD MSTORE PUSH1 0x44 DUP4 ADD SWAP1 PUSH2 0x28CB JUMP JUMPDEST SUB SWAP3 AND GAS STATICCALL SWAP1 DUP2 ISZERO PUSH2 0xD68 JUMPI DUP4 SWAP2 PUSH2 0x198F JUMPI JUMPDEST POP JUMPDEST DUP1 MLOAD PUSH1 0x0 NOT DUP2 ADD SWAP5 SWAP1 DUP6 GT PUSH2 0x197D JUMPI POP PUSH1 0x20 SWAP4 PUSH2 0x195B SWAP2 PUSH2 0x283D JUMP JUMPDEST MLOAD DUP2 DUP2 GT ISZERO PUSH2 0x1976 JUMPI PUSH2 0x196E SWAP3 POP PUSH2 0x2908 JUMP JUMPDEST PUSH1 0x40 MLOAD SWAP1 DUP2 MSTORE RETURN JUMPDEST POP POP PUSH2 0x196E JUMP JUMPDEST DUP4 PUSH4 0x4E487B71 PUSH1 0xE0 SHL DUP2 MSTORE PUSH1 0x11 PUSH1 0x4 MSTORE REVERT JUMPDEST PUSH2 0x19A3 SWAP2 POP RETURNDATASIZE DUP1 DUP6 DUP4 RETURNDATACOPY PUSH2 0xD3A DUP2 DUP4 PUSH2 0x27C0 JUMP JUMPDEST CODESIZE PUSH2 0x193D JUMP JUMPDEST DUP11 DUP8 PUSH4 0x4E487B71 PUSH1 0xE0 SHL DUP2 MSTORE PUSH1 0x11 PUSH1 0x4 MSTORE REVERT JUMPDEST PUSH2 0x19D0 SWAP2 POP RETURNDATASIZE DUP1 DUP9 DUP4 RETURNDATACOPY PUSH2 0xD3A DUP2 DUP4 PUSH2 0x27C0 JUMP JUMPDEST CODESIZE PUSH2 0x18D7 JUMP JUMPDEST PUSH1 0x1 PUSH1 0x1 PUSH1 0xA0 SHL SUB SWAP3 SWAP2 SWAP3 PUSH1 0x40 MLOAD DUP8 DUP2 PUSH4 0xD06CA61F PUSH1 0xE0 SHL SWAP7 DUP8 DUP3 MSTORE DUP10 PUSH1 0x4 DUP4 ADD MSTORE PUSH1 0x40 DUP13 DUP4 ADD MSTORE DUP2 DUP6 DUP2 PUSH2 0x1A10 DUP13 DUP11 PUSH1 0x44 DUP5 ADD SWAP2 PUSH2 0x292D JUMP JUMPDEST SUB SWAP3 AND GAS STATICCALL SWAP1 DUP2 ISZERO PUSH2 0xBCE JUMPI SWAP1 DUP9 SWAP6 SWAP5 SWAP4 SWAP3 SWAP2 DUP7 SWAP2 PUSH2 0x1A80 JUMPI JUMPDEST POP DUP1 MLOAD PUSH1 0x0 NOT DUP2 ADD SWAP1 DUP2 GT PUSH2 0x19A9 JUMPI PUSH2 0x1A4D SWAP8 PUSH2 0x18FA PUSH2 0x1903 SWAP3 PUSH2 0x1908 SWAP5 PUSH2 0x283D JUMP JUMPDEST SUB SWAP3 AND GAS STATICCALL SWAP1 DUP2 ISZERO PUSH2 0xD68 JUMPI DUP4 SWAP2 PUSH2 0x1A66 JUMPI JUMPDEST POP PUSH2 0x193F JUMP JUMPDEST PUSH2 0x1A7A SWAP2 POP RETURNDATASIZE DUP1 DUP6 DUP4 RETURNDATACOPY PUSH2 0xD3A DUP2 DUP4 PUSH2 0x27C0 JUMP JUMPDEST CODESIZE PUSH2 0x1A60 JUMP JUMPDEST PUSH2 0x1A94 SWAP2 POP RETURNDATASIZE DUP1 DUP9 DUP4 RETURNDATACOPY PUSH2 0xD3A DUP2 DUP4 PUSH2 0x27C0 JUMP JUMPDEST CODESIZE PUSH2 0x1A2A JUMP JUMPDEST POP CALLVALUE PUSH2 0x244 JUMPI DUP1 PUSH1 0x3 NOT CALLDATASIZE ADD SLT PUSH2 0x244 JUMPI PUSH1 0x20 PUSH1 0x40 MLOAD PUSH20 0x82AF49447D8A07E3BD95BD0D56F35241523FBAB1 DUP2 MSTORE RETURN JUMPDEST POP CALLVALUE PUSH2 0x244 JUMPI DUP1 PUSH1 0x3 NOT CALLDATASIZE ADD SLT PUSH2 0x244 JUMPI PUSH1 0x20 PUSH1 0x1 PUSH1 0x1 PUSH1 0xA0 SHL SUB PUSH1 0x4 SLOAD AND PUSH1 0x40 MLOAD SWAP1 DUP2 MSTORE RETURN JUMPDEST POP CALLVALUE PUSH2 0x244 JUMPI PUSH1 0x20 CALLDATASIZE PUSH1 0x3 NOT ADD SLT PUSH2 0x244 JUMPI PUSH1 0x20 SWAP1 PUSH1 0x40 PUSH1 0x1 PUSH1 0x1 PUSH1 0xA0 SHL SUB SWAP2 DUP3 PUSH2 0x1B19 PUSH2 0x2662 JUMP JUMPDEST AND DUP2 MSTORE PUSH1 0xC DUP5 MSTORE KECCAK256 SLOAD AND PUSH1 0x40 MLOAD SWAP1 DUP2 MSTORE RETURN JUMPDEST POP CALLVALUE PUSH2 0x244 JUMPI DUP1 PUSH1 0x3 NOT CALLDATASIZE ADD SLT PUSH2 0x244 JUMPI PUSH1 0x1 PUSH1 0x1 PUSH1 0xA0 SHL SUB PUSH1 0x20 SWAP2 SLOAD AND PUSH1 0x40 MLOAD SWAP1 DUP2 MSTORE RETURN JUMPDEST POP CALLVALUE PUSH2 0x244 JUMPI DUP1 PUSH1 0x3 NOT CALLDATASIZE ADD SLT PUSH2 0x244 JUMPI PUSH1 0x20 PUSH1 0x40 MLOAD PUSH20 0xFF970A61A04B1CA14834A43F5DE4533EBDDB5CC8 DUP2 MSTORE RETURN JUMPDEST POP CALLVALUE PUSH2 0x244 JUMPI DUP1 PUSH1 0x3 NOT CALLDATASIZE ADD SLT PUSH2 0x244 JUMPI PUSH2 0x1B99 PUSH2 0x2B5D JUMP JUMPDEST PUSH2 0x1BA1 PUSH2 0x2CB1 JUMP JUMPDEST PUSH1 0x1 PUSH1 0xFF NOT PUSH1 0x2 SLOAD AND OR PUSH1 0x2 SSTORE PUSH32 0x62E78CEA01BEE320CD4E420270B5EA74000D11B0C9F74754EBDBFC544B05A258 PUSH1 0x20 PUSH1 0x40 MLOAD CALLER DUP2 MSTORE LOG1 DUP1 RETURN JUMPDEST POP CALLVALUE PUSH2 0x244 JUMPI DUP1 PUSH1 0x3 NOT CALLDATASIZE ADD SLT PUSH2 0x244 JUMPI PUSH1 0x20 PUSH1 0x1 PUSH1 0x1 PUSH1 0xA0 SHL SUB PUSH1 0x5 SLOAD AND PUSH1 0x40 MLOAD SWAP1 DUP2 MSTORE RETURN JUMPDEST POP CALLVALUE PUSH2 0x244 JUMPI PUSH1 0x40 CALLDATASIZE PUSH1 0x3 NOT ADD SLT PUSH2 0x244 JUMPI PUSH2 0x1C1C PUSH2 0x2662 JUMP JUMPDEST PUSH1 0x24 CALLDATALOAD SWAP1 PUSH1 0x1 PUSH1 0x1 PUSH1 0xA0 SHL SUB SWAP1 DUP2 DUP4 AND DUP1 SWAP4 SUB PUSH2 0x1795 JUMPI PUSH2 0x1C3B PUSH2 0x2B5D JUMP JUMPDEST AND DUP3 MSTORE PUSH1 0xC PUSH1 0x20 MSTORE PUSH1 0x40 DUP3 KECCAK256 SWAP1 PUSH20 0xFFFFFFFFFFFFFFFFFFFFFFFFFFFFFFFFFFFFFFFF NOT DUP3 SLOAD AND OR SWAP1 SSTORE DUP1 RETURN JUMPDEST POP CALLVALUE PUSH2 0x244 JUMPI DUP1 PUSH1 0x3 NOT CALLDATASIZE ADD SLT PUSH2 0x244 JUMPI PUSH2 0x1C80 PUSH2 0x2B5D JUMP JUMPDEST DUP1 PUSH1 0x1 PUSH1 0x1 PUSH1 0xA0 SHL SUB DUP2 SLOAD PUSH20 0xFFFFFFFFFFFFFFFFFFFFFFFFFFFFFFFFFFFFFFFF NOT DUP2 AND DUP4 SSTORE AND PUSH32 0x8BE0079C531659141344CD1FD0A4F28419497F9722A3DAAFE3B4186F6B6457E0 DUP3 DUP1 LOG3 DUP1 RETURN JUMPDEST POP CALLVALUE PUSH2 0x244 JUMPI PUSH1 0x20 DUP1 PUSH1 0x3 NOT CALLDATASIZE ADD SLT PUSH2 0x1DCA JUMPI PUSH2 0x1CE8 PUSH2 0x2662 JUMP JUMPDEST PUSH2 0x1CF0 PUSH2 0x2B5D JUMP JUMPDEST PUSH1 0x1 PUSH1 0x1 PUSH1 0xA0 SHL SUB DUP1 SWAP2 AND SWAP1 PUSH1 0x40 MLOAD PUSH4 0x70A08231 PUSH1 0xE0 SHL DUP2 MSTORE ADDRESS PUSH1 0x4 DUP3 ADD MSTORE DUP4 DUP2 PUSH1 0x24 DUP2 DUP7 GAS STATICCALL SWAP1 DUP2 ISZERO PUSH2 0x1DBF JUMPI DUP6 SWAP2 PUSH2 0x1D92 JUMPI JUMPDEST POP DUP1 PUSH2 0x1D2F JUMPI DUP5 DUP1 RETURN JUMPDEST DUP5 SLOAD PUSH1 0x40 MLOAD PUSH4 0xA9059CBB PUSH1 0xE0 SHL DUP2 MSTORE SWAP3 AND PUSH1 0x1 PUSH1 0x1 PUSH1 0xA0 SHL SUB AND PUSH1 0x4 DUP4 ADD MSTORE PUSH1 0x24 DUP3 ADD MSTORE SWAP1 DUP3 SWAP1 DUP3 SWAP1 DUP2 DUP7 DUP2 PUSH1 0x44 DUP2 ADD SUB SWAP3 GAS CALL DUP1 ISZERO PUSH2 0xD68 JUMPI PUSH2 0x1D74 JUMPI JUMPDEST DUP1 DUP1 DUP5 DUP1 RETURN JUMPDEST DUP2 PUSH2 0x1D8A SWAP3 SWAP1 RETURNDATASIZE LT PUSH2 0xBC7 JUMPI PUSH2 0xBB8 DUP2 DUP4 PUSH2 0x27C0 JUMP JUMPDEST POP CODESIZE DUP1 PUSH2 0x1D6E JUMP JUMPDEST SWAP1 POP DUP4 DUP2 DUP2 RETURNDATASIZE DUP4 GT PUSH2 0x1DB8 JUMPI JUMPDEST PUSH2 0x1DA9 DUP2 DUP4 PUSH2 0x27C0 JUMP JUMPDEST DUP2 ADD SUB SLT PUSH2 0x1357 JUMPI MLOAD CODESIZE PUSH2 0x1D25 JUMP JUMPDEST POP RETURNDATASIZE PUSH2 0x1D9F JUMP JUMPDEST PUSH1 0x40 MLOAD RETURNDATASIZE DUP8 DUP3 RETURNDATACOPY RETURNDATASIZE SWAP1 REVERT JUMPDEST POP DUP1 REVERT JUMPDEST POP CALLVALUE PUSH2 0x244 JUMPI DUP1 PUSH1 0x3 NOT CALLDATASIZE ADD SLT PUSH2 0x244 JUMPI PUSH1 0x20 PUSH1 0x1 PUSH1 0x1 PUSH1 0xA0 SHL SUB PUSH1 0x3 SLOAD AND PUSH1 0x40 MLOAD SWAP1 DUP2 MSTORE RETURN JUMPDEST POP CALLVALUE PUSH2 0x244 JUMPI DUP1 PUSH1 0x3 NOT CALLDATASIZE ADD SLT PUSH2 0x244 JUMPI PUSH1 0x20 PUSH1 0x8 SLOAD PUSH1 0x40 MLOAD SWAP1 DUP2 MSTORE RETURN JUMPDEST POP CALLVALUE PUSH2 0x244 JUMPI DUP1 PUSH1 0x3 NOT CALLDATASIZE ADD SLT PUSH2 0x244 JUMPI PUSH1 0x20 PUSH1 0xFF PUSH1 0x2 SLOAD AND PUSH1 0x40 MLOAD SWAP1 ISZERO ISZERO DUP2 MSTORE RETURN JUMPDEST POP CALLVALUE PUSH2 0x244 JUMPI PUSH1 0x20 CALLDATASIZE PUSH1 0x3 NOT ADD SLT PUSH2 0x244 JUMPI PUSH1 0xFF PUSH1 0x40 PUSH1 0x20 SWAP3 PUSH1 0x1 PUSH1 0x1 PUSH1 0xA0 SHL SUB PUSH2 0x1E5F PUSH2 0x2662 JUMP JUMPDEST AND DUP2 MSTORE PUSH1 0xD DUP5 MSTORE KECCAK256 SLOAD AND PUSH1 0x40 MLOAD SWAP1 ISZERO ISZERO DUP2 MSTORE RETURN JUMPDEST POP CALLVALUE PUSH2 0x244 JUMPI PUSH1 0x20 DUP1 PUSH1 0x3 NOT CALLDATASIZE ADD SLT PUSH2 0x1DCA JUMPI PUSH2 0x1E8E PUSH2 0x2662 JUMP JUMPDEST SWAP1 PUSH2 0x1E97 PUSH2 0x2B5D JUMP JUMPDEST PUSH1 0x40 MLOAD PUSH4 0x70A08231 PUSH1 0xE0 SHL DUP2 MSTORE ADDRESS PUSH1 0x4 DUP3 ADD MSTORE PUSH1 0x1 PUSH1 0x1 PUSH1 0xA0 SHL SUB SWAP3 DUP4 AND SWAP3 DUP3 DUP3 PUSH1 0x24 DUP2 DUP8 GAS STATICCALL SWAP2 DUP3 ISZERO PUSH2 0x1DBF JUMPI DUP6 SWAP3 PUSH2 0x1FA2 JUMPI JUMPDEST POP DUP2 ISZERO PUSH2 0x1F5E JUMPI DUP5 SLOAD PUSH1 0x40 MLOAD PUSH4 0xA9059CBB PUSH1 0xE0 SHL DUP2 MSTORE SWAP2 AND PUSH1 0x1 PUSH1 0x1 PUSH1 0xA0 SHL SUB AND PUSH1 0x4 DUP3 ADD MSTORE PUSH1 0x24 DUP2 ADD DUP3 SWAP1 MSTORE SWAP2 SWAP1 DUP2 DUP4 DUP1 PUSH1 0x44 DUP2 ADD SUB DUP2 DUP9 DUP9 GAS CALL SWAP3 DUP4 ISZERO PUSH2 0x1DBF JUMPI PUSH32 0x16E128B6BDADD9E9068ABD0B18DB2FC8B27ED3DBCED50E4AA6CC0A6934251AB SWAP4 PUSH2 0x1F41 JUMPI JUMPDEST POP PUSH1 0x40 MLOAD SWAP1 DUP2 MSTORE LOG2 DUP1 RETURN JUMPDEST PUSH2 0x1F57 SWAP1 DUP4 RETURNDATASIZE DUP6 GT PUSH2 0xBC7 JUMPI PUSH2 0xBB8 DUP2 DUP4 PUSH2 0x27C0 JUMP JUMPDEST POP CODESIZE PUSH2 0x1F36 JUMP JUMPDEST PUSH1 0x64 DUP4 PUSH1 0x40 MLOAD SWAP1 PUSH3 0x461BCD PUSH1 0xE5 SHL DUP3 MSTORE PUSH1 0x4 DUP3 ADD MSTORE PUSH1 0x16 PUSH1 0x24 DUP3 ADD MSTORE PUSH32 0x4E6F2062616C616E636520746F20776974686472617700000000000000000000 PUSH1 0x44 DUP3 ADD MSTORE REVERT JUMPDEST SWAP1 SWAP2 POP DUP3 DUP2 DUP2 RETURNDATASIZE DUP4 GT PUSH2 0x1FCA JUMPI JUMPDEST PUSH2 0x1FBA DUP2 DUP4 PUSH2 0x27C0 JUMP JUMPDEST DUP2 ADD SUB SLT PUSH2 0x1357 JUMPI MLOAD SWAP1 CODESIZE PUSH2 0x1ECC JUMP JUMPDEST POP RETURNDATASIZE PUSH2 0x1FB0 JUMP JUMPDEST POP CALLVALUE PUSH2 0x244 JUMPI DUP1 PUSH1 0x3 NOT CALLDATASIZE ADD SLT PUSH2 0x244 JUMPI PUSH1 0x20 PUSH1 0x40 MLOAD PUSH1 0x32 DUP2 MSTORE RETURN JUMPDEST POP CALLVALUE PUSH2 0x244 JUMPI DUP1 PUSH1 0x3 NOT CALLDATASIZE ADD SLT PUSH2 0x244 JUMPI PUSH1 0x20 PUSH1 0x40 MLOAD PUSH20 0x2F2A2543B76A4166549F7AAB2E75BEF0AEFC5B0F DUP2 MSTORE RETURN JUMPDEST POP CALLVALUE PUSH2 0x244 JUMPI PUSH1 0x40 CALLDATASIZE PUSH1 0x3 NOT ADD SLT PUSH2 0x244 JUMPI PUSH2 0x2036 PUSH2 0x2662 JUMP JUMPDEST PUSH1 0x24 CALLDATALOAD SWAP1 DUP2 ISZERO ISZERO DUP1 SWAP3 SUB PUSH2 0x135B JUMPI PUSH1 0x1 PUSH1 0x1 PUSH1 0xA0 SHL SUB SWAP1 PUSH2 0x2055 PUSH2 0x2B5D JUMP JUMPDEST AND DUP3 MSTORE PUSH1 0xD PUSH1 0x20 MSTORE PUSH1 0x40 DUP3 KECCAK256 SWAP1 PUSH1 0xFF DUP1 NOT DUP4 SLOAD AND SWAP2 AND OR SWAP1 SSTORE DUP1 RETURN JUMPDEST POP CALLVALUE PUSH2 0x244 JUMPI DUP1 PUSH1 0x3 NOT CALLDATASIZE ADD SLT PUSH2 0x244 JUMPI PUSH2 0x208A PUSH2 0x2B5D JUMP JUMPDEST PUSH1 0x2 SLOAD PUSH1 0xFF DUP2 AND ISZERO PUSH2 0x20CA JUMPI PUSH1 0xFF NOT AND PUSH1 0x2 SSTORE PUSH32 0x5DB9EE0A495BF2E6FF9C91A7834C1BA4FDD244A5E8AA4E537BD38AEAE4B073AA PUSH1 0x20 PUSH1 0x40 MLOAD CALLER DUP2 MSTORE LOG1 DUP1 RETURN JUMPDEST PUSH1 0x64 PUSH1 0x40 MLOAD PUSH3 0x461BCD PUSH1 0xE5 SHL DUP2 MSTORE PUSH1 0x20 PUSH1 0x4 DUP3 ADD MSTORE PUSH1 0x14 PUSH1 0x24 DUP3 ADD MSTORE PUSH32 0x5061757361626C653A206E6F7420706175736564000000000000000000000000 PUSH1 0x44 DUP3 ADD MSTORE REVERT JUMPDEST POP CALLVALUE PUSH2 0x244 JUMPI DUP1 PUSH1 0x3 NOT CALLDATASIZE ADD SLT PUSH2 0x244 JUMPI PUSH1 0x20 PUSH1 0x40 MLOAD PUSH20 0x4A7B5DA61326A6379179B40D00F57E5BBDC962C2 DUP2 MSTORE RETURN JUMPDEST POP CALLVALUE PUSH2 0x244 JUMPI DUP1 PUSH1 0x3 NOT CALLDATASIZE ADD SLT PUSH2 0x244 JUMPI PUSH1 0x20 PUSH1 0x1 PUSH1 0x1 PUSH1 0xA0 SHL SUB PUSH1 0x6 SLOAD AND PUSH1 0x40 MLOAD SWAP1 DUP2 MSTORE RETURN JUMPDEST POP CALLVALUE PUSH2 0x244 JUMPI DUP1 PUSH1 0x3 NOT CALLDATASIZE ADD SLT PUSH2 0x244 JUMPI PUSH1 0x20 PUSH1 0xB SLOAD PUSH1 0x40 MLOAD SWAP1 DUP2 MSTORE RETURN JUMPDEST POP CALLVALUE PUSH2 0x244 JUMPI DUP1 PUSH1 0x3 NOT CALLDATASIZE ADD SLT PUSH2 0x244 JUMPI PUSH1 0x20 PUSH1 0xFF PUSH1 0x9 SLOAD PUSH1 0x8 SHR AND PUSH1 0x40 MLOAD SWAP1 ISZERO ISZERO DUP2 MSTORE RETURN JUMPDEST POP CALLVALUE PUSH2 0x244 JUMPI PUSH1 0x60 CALLDATASIZE PUSH1 0x3 NOT ADD SLT PUSH2 0x244 JUMPI PUSH2 0x21C2 PUSH2 0x2662 JUMP JUMPDEST POP PUSH1 0x24 SWAP1 DUP2 CALLDATALOAD PUSH1 0x44 CALLDATALOAD PUSH8 0xFFFFFFFFFFFFFFFF DUP2 GT PUSH2 0x135B JUMPI PUSH2 0x21E8 SWAP1 CALLDATASIZE SWAP1 PUSH1 0x4 ADD PUSH2 0x268C JUMP JUMPDEST SWAP1 SWAP4 SWAP1 PUSH1 0x3 NOT DUP2 ADD PUSH2 0x24FC JUMPI DUP1 ISZERO PUSH2 0x24E9 JUMPI PUSH2 0x2203 DUP6 PUSH2 0x26D9 JUMP JUMPDEST DUP2 PUSH1 0x3 LT ISZERO PUSH2 0x24D6 JUMPI PUSH2 0x2226 PUSH1 0x1 PUSH1 0x1 PUSH1 0xA0 SHL SUB SWAP2 DUP3 DUP1 PUSH2 0x141D PUSH1 0x60 DUP12 ADD PUSH2 0x26D9 JUMP JUMPDEST PUSH1 0x40 MLOAD SWAP6 PUSH2 0x2233 DUP8 PUSH2 0x2788 JUMP JUMPDEST PUSH1 0x2 DUP8 MSTORE PUSH1 0x40 CALLDATASIZE PUSH1 0x20 DUP10 ADD CALLDATACOPY PUSH2 0x2248 DUP2 PUSH2 0x26D9 JUMP JUMPDEST DUP3 PUSH2 0x2252 DUP10 PUSH2 0x27FA JUMP JUMPDEST SWAP2 AND SWAP1 MSTORE DUP3 PUSH1 0x1 LT ISZERO PUSH2 0x24C3 JUMPI PUSH1 0x20 DUP2 ADD SWAP7 PUSH2 0x226D DUP9 PUSH2 0x26D9 JUMP JUMPDEST DUP4 PUSH2 0x2277 DUP4 PUSH2 0x281D JUMP JUMPDEST SWAP2 AND SWAP1 MSTORE DUP3 PUSH1 0x6 SLOAD AND SWAP3 PUSH1 0x40 MLOAD SWAP9 DUP9 DUP11 DUP1 PUSH2 0x22AD PUSH4 0xD06CA61F PUSH1 0xE0 SHL SWAP7 DUP8 DUP4 MSTORE DUP13 PUSH1 0x4 DUP5 ADD MSTORE PUSH1 0x40 DUP13 DUP5 ADD MSTORE PUSH1 0x44 DUP4 ADD SWAP1 PUSH2 0x28CB JUMP JUMPDEST SUB DUP2 DUP9 GAS STATICCALL SWAP10 DUP11 ISZERO PUSH2 0x2476 JUMPI DUP10 SWAP11 PUSH2 0x24A7 JUMPI JUMPDEST POP DUP10 MLOAD PUSH1 0x0 NOT SWAP11 DUP12 DUP3 ADD SWAP2 DUP3 GT PUSH2 0x2494 JUMPI SWAP1 PUSH2 0x22DB SWAP2 PUSH2 0x283D JUMP JUMPDEST MLOAD SWAP6 PUSH2 0x22FE PUSH1 0x40 MLOAD SWAP3 PUSH2 0x22ED DUP5 PUSH2 0x2788 JUMP JUMPDEST PUSH1 0x2 DUP5 MSTORE PUSH1 0x40 CALLDATASIZE PUSH1 0x20 DUP7 ADD CALLDATACOPY PUSH2 0x26D9 JUMP JUMPDEST DUP4 PUSH2 0x2308 DUP5 PUSH2 0x27FA JUMP JUMPDEST SWAP2 AND SWAP1 MSTORE PUSH1 0x2 LT ISZERO PUSH2 0x2481 JUMPI DUP9 PUSH1 0x40 DUP1 DUP7 ADD SWAP8 PUSH2 0x2324 DUP10 PUSH2 0x26D9 JUMP JUMPDEST DUP6 PUSH2 0x232E DUP7 PUSH2 0x281D JUMP JUMPDEST SWAP2 AND SWAP1 MSTORE DUP10 DUP6 PUSH1 0x7 SLOAD AND SWAP2 PUSH2 0x235A DUP5 MLOAD SWAP7 DUP8 SWAP6 DUP7 SWAP5 DUP6 SWAP5 DUP13 DUP7 MSTORE PUSH1 0x4 DUP7 ADD MSTORE DUP5 ADD MSTORE PUSH1 0x44 DUP4 ADD SWAP1 PUSH2 0x28CB JUMP JUMPDEST SUB SWAP2 GAS STATICCALL SWAP1 DUP2 ISZERO PUSH2 0x2476 JUMPI DUP10 SWAP2 PUSH2 0x245C JUMPI JUMPDEST POP DUP1 MLOAD SWAP1 DUP11 DUP3 ADD SWAP2 DUP3 GT PUSH2 0x2449 JUMPI SWAP2 PUSH2 0x23C7 PUSH2 0x2391 DUP12 SWAP8 SWAP6 SWAP4 PUSH2 0x23F6 SWAP11 SWAP10 SWAP8 SWAP6 PUSH2 0x283D JUMP JUMPDEST MLOAD SWAP4 PUSH2 0x23B4 PUSH1 0x40 MLOAD SWAP8 PUSH2 0x23A3 DUP10 PUSH2 0x2788 JUMP JUMPDEST PUSH1 0x2 DUP10 MSTORE PUSH1 0x40 CALLDATASIZE PUSH1 0x20 DUP12 ADD CALLDATACOPY PUSH2 0x26D9 JUMP JUMPDEST DUP4 PUSH2 0x23BE DUP10 PUSH2 0x27FA JUMP JUMPDEST SWAP2 AND SWAP1 MSTORE PUSH2 0x26D9 JUMP JUMPDEST SWAP1 PUSH2 0x23D1 DUP7 PUSH2 0x281D JUMP JUMPDEST SWAP2 AND SWAP1 MSTORE PUSH1 0x40 MLOAD SWAP7 DUP8 SWAP5 DUP6 SWAP4 DUP5 SWAP4 DUP5 MSTORE PUSH1 0x4 DUP5 ADD MSTORE PUSH1 0x40 DUP9 DUP5 ADD MSTORE PUSH1 0x44 DUP4 ADD SWAP1 PUSH2 0x28CB JUMP JUMPDEST SUB SWAP2 GAS STATICCALL SWAP2 DUP3 ISZERO PUSH2 0x243E JUMPI DUP5 SWAP3 PUSH2 0x2422 JUMPI JUMPDEST POP DUP2 MLOAD SWAP5 DUP6 ADD SWAP5 DUP6 GT PUSH2 0x197D JUMPI POP PUSH1 0x20 SWAP4 PUSH2 0x195B SWAP2 PUSH2 0x283D JUMP JUMPDEST PUSH2 0x2437 SWAP2 SWAP3 POP RETURNDATASIZE DUP1 DUP7 DUP4 RETURNDATACOPY PUSH2 0xD3A DUP2 DUP4 PUSH2 0x27C0 JUMP JUMPDEST SWAP1 CODESIZE PUSH2 0x2408 JUMP JUMPDEST PUSH1 0x40 MLOAD RETURNDATASIZE DUP7 DUP3 RETURNDATACOPY RETURNDATASIZE SWAP1 REVERT JUMPDEST DUP8 DUP11 PUSH4 0x4E487B71 PUSH1 0xE0 SHL DUP2 MSTORE PUSH1 0x11 PUSH1 0x4 MSTORE REVERT JUMPDEST PUSH2 0x2470 SWAP2 POP RETURNDATASIZE DUP1 DUP12 DUP4 RETURNDATACOPY PUSH2 0xD3A DUP2 DUP4 PUSH2 0x27C0 JUMP JUMPDEST CODESIZE PUSH2 0x236C JUMP JUMPDEST PUSH1 0x40 MLOAD RETURNDATASIZE DUP12 DUP3 RETURNDATACOPY RETURNDATASIZE SWAP1 REVERT JUMPDEST DUP7 DUP10 PUSH4 0x4E487B71 PUSH1 0xE0 SHL DUP2 MSTORE PUSH1 0x32 PUSH1 0x4 MSTORE REVERT JUMPDEST DUP9 DUP12 PUSH4 0x4E487B71 PUSH1 0xE0 SHL DUP2 MSTORE PUSH1 0x11 PUSH1 0x4 MSTORE REVERT JUMPDEST PUSH2 0x24BC SWAP2 SWAP11 POP RETURNDATASIZE DUP1 DUP12 DUP4 RETURNDATACOPY PUSH2 0xD3A DUP2 DUP4 PUSH2 0x27C0 JUMP JUMPDEST SWAP9 CODESIZE PUSH2 0x22C0 JUMP JUMPDEST DUP4 DUP7 PUSH4 0x4E487B71 PUSH1 0xE0 SHL DUP2 MSTORE PUSH1 0x32 PUSH1 0x4 MSTORE REVERT JUMPDEST DUP3 DUP6 PUSH4 0x4E487B71 PUSH1 0xE0 SHL DUP2 MSTORE PUSH1 0x32 PUSH1 0x4 MSTORE REVERT JUMPDEST POP DUP3 PUSH4 0x4E487B71 PUSH1 0xE0 SHL DUP2 MSTORE PUSH1 0x32 PUSH1 0x4 MSTORE REVERT JUMPDEST PUSH1 0x84 DUP3 PUSH1 0x22 PUSH1 0x40 MLOAD SWAP2 PUSH3 0x461BCD PUSH1 0xE5 SHL DUP4 MSTORE PUSH1 0x20 PUSH1 0x4 DUP5 ADD MSTORE DUP3 ADD MSTORE PUSH32 0x547269616E67756C61722070617468206D7573742068617665203420746F6B65 PUSH1 0x44 DUP3 ADD MSTORE PUSH32 0x6E73000000000000000000000000000000000000000000000000000000000000 PUSH1 0x64 DUP3 ADD MSTORE REVERT JUMPDEST POP CALLVALUE PUSH2 0x244 JUMPI DUP1 PUSH1 0x3 NOT CALLDATASIZE ADD SLT PUSH2 0x244 JUMPI PUSH1 0x20 PUSH1 0x40 MLOAD PUSH20 0x4752BA5DBC23F44D87826276BF6FD6B1C372AD24 DUP2 MSTORE RETURN JUMPDEST POP CALLVALUE PUSH2 0x244 JUMPI DUP1 PUSH1 0x3 NOT CALLDATASIZE ADD SLT PUSH2 0x244 JUMPI PUSH1 0x20 PUSH1 0x40 MLOAD PUSH20 0x2ABF469074DC0B54D793850807E6EB5FAF2625B1 DUP2 MSTORE RETURN JUMPDEST POP CALLVALUE PUSH2 0x244 JUMPI PUSH1 0x20 CALLDATASIZE PUSH1 0x3 NOT ADD SLT PUSH2 0x244 JUMPI PUSH1 0x4 CALLDATALOAD PUSH2 0x25E1 PUSH2 0x2B5D JUMP JUMPDEST PUSH2 0x1F4 DUP2 GT PUSH2 0x25F0 JUMPI PUSH1 0xA SSTORE DUP1 RETURN JUMPDEST PUSH1 0x64 PUSH1 0x40 MLOAD PUSH3 0x461BCD PUSH1 0xE5 SHL DUP2 MSTORE PUSH1 0x20 PUSH1 0x4 DUP3 ADD MSTORE PUSH1 0x11 PUSH1 0x24 DUP3 ADD MSTORE PUSH32 0x536C69707061676520746F6F2068696768000000000000000000000000000000 PUSH1 0x44 DUP3 ADD MSTORE REVERT JUMPDEST SWAP1 POP CALLVALUE PUSH2 0x1DCA JUMPI DUP2 PUSH1 0x3 NOT CALLDATASIZE ADD SLT PUSH2 0x1DCA JUMPI DUP1 PUSH20 0xF2614A233C7C3E7F08B1F887BA133A13F1EB2C55 PUSH1 0x20 SWAP3 MSTORE RETURN JUMPDEST PUSH1 0x4 CALLDATALOAD SWAP1 PUSH1 0x1 PUSH1 0x1 PUSH1 0xA0 SHL SUB DUP3 AND DUP3 SUB PUSH2 0xD0F JUMPI JUMP JUMPDEST CALLDATALOAD SWAP1 PUSH1 0x1 PUSH1 0x1 PUSH1 0xA0 SHL SUB DUP3 AND DUP3 SUB PUSH2 0xD0F JUMPI JUMP JUMPDEST SWAP2 DUP2 PUSH1 0x1F DUP5 ADD SLT ISZERO PUSH2 0xD0F JUMPI DUP3 CALLDATALOAD SWAP2 PUSH8 0xFFFFFFFFFFFFFFFF DUP4 GT PUSH2 0xD0F JUMPI PUSH1 0x20 DUP1 DUP6 ADD SWAP5 DUP5 PUSH1 0x5 SHL ADD ADD GT PUSH2 0xD0F JUMPI JUMP JUMPDEST PUSH1 0x64 CALLDATALOAD SWAP1 DUP2 ISZERO ISZERO DUP3 SUB PUSH2 0xD0F JUMPI JUMP JUMPDEST CALLDATALOAD SWAP1 DUP2 ISZERO ISZERO DUP3 SUB PUSH2 0xD0F JUMPI JUMP JUMPDEST CALLDATALOAD PUSH1 0x1 PUSH1 0x1 PUSH1 0xA0 SHL SUB DUP2 AND DUP2 SUB PUSH2 0xD0F JUMPI SWAP1 JUMP JUMPDEST ISZERO PUSH2 0x26F4 JUMPI JUMP JUMPDEST PUSH1 0x84 PUSH1 0x40 MLOAD PUSH3 0x461BCD PUSH1 0xE5 SHL DUP2 MSTORE PUSH1 0x20 PUSH1 0x4 DUP3 ADD MSTORE PUSH1 0x27 PUSH1 0x24 DUP3 ADD MSTORE PUSH32 0x50617468206D75737420737461727420616E6420656E6420776974682073616D PUSH1 0x44 DUP3 ADD MSTORE PUSH32 0x6520746F6B656E00000000000000000000000000000000000000000000000000 PUSH1 0x64 DUP3 ADD MSTORE REVERT JUMPDEST PUSH8 0xFFFFFFFFFFFFFFFF DUP2 GT PUSH2 0x2772 JUMPI PUSH1 0x40 MSTORE JUMP JUMPDEST PUSH4 0x4E487B71 PUSH1 0xE0 SHL PUSH1 0x0 MSTORE PUSH1 0x41 PUSH1 0x4 MSTORE PUSH1 0x24 PUSH1 0x0 REVERT JUMPDEST PUSH1 0x60 DUP2 ADD SWAP1 DUP2 LT PUSH8 0xFFFFFFFFFFFFFFFF DUP3 GT OR PUSH2 0x2772 JUMPI PUSH1 0x40 MSTORE JUMP JUMPDEST PUSH1 0x40 DUP2 ADD SWAP1 DUP2 LT PUSH8 0xFFFFFFFFFFFFFFFF DUP3 GT OR PUSH2 0x2772 JUMPI PUSH1 0x40 MSTORE JUMP JUMPDEST SWAP1 PUSH1 0x1F DUP1 NOT SWAP2 ADD AND DUP2 ADD SWAP1 DUP2 LT PUSH8 0xFFFFFFFFFFFFFFFF DUP3 GT OR PUSH2 0x2772 JUMPI PUSH1 0x40 MSTORE JUMP JUMPDEST PUSH8 0xFFFFFFFFFFFFFFFF DUP2 GT PUSH2 0x2772 JUMPI PUSH1 0x5 SHL PUSH1 0x20 ADD SWAP1 JUMP JUMPDEST DUP1 MLOAD ISZERO PUSH2 0x2807 JUMPI PUSH1 0x20 ADD SWAP1 JUMP JUMPDEST PUSH4 0x4E487B71 PUSH1 0xE0 SHL PUSH1 0x0 MSTORE PUSH1 0x32 PUSH1 0x4 MSTORE PUSH1 0x24 PUSH1 0x0 REVERT JUMPDEST DUP1 MLOAD PUSH1 0x1 LT ISZERO PUSH2 0x2807 JUMPI PUSH1 0x40 ADD SWAP1 JUMP JUMPDEST DUP1 MLOAD PUSH1 0x2 LT ISZERO PUSH2 0x2807 JUMPI PUSH1 0x60 ADD SWAP1 JUMP JUMPDEST DUP1 MLOAD DUP3 LT ISZERO PUSH2 0x2807 JUMPI PUSH1 0x20 SWAP2 PUSH1 0x5 SHL ADD ADD SWAP1 JUMP JUMPDEST PUSH1 0x20 SWAP1 DUP2 DUP2 DUP5 SUB SLT PUSH2 0xD0F JUMPI DUP1 MLOAD SWAP1 PUSH8 0xFFFFFFFFFFFFFFFF DUP3 GT PUSH2 0xD0F JUMPI ADD SWAP2 DUP1 PUSH1 0x1F DUP5 ADD SLT ISZERO PUSH2 0xD0F JUMPI DUP3 MLOAD PUSH2 0x2887 DUP2 PUSH2 0x27E2 JUMP JUMPDEST SWAP4 PUSH2 0x2895 PUSH1 0x40 MLOAD SWAP6 DUP7 PUSH2 0x27C0 JUMP JUMPDEST DUP2 DUP6 MSTORE DUP4 DUP1 DUP7 ADD SWAP3 PUSH1 0x5 SHL DUP3 ADD ADD SWAP3 DUP4 GT PUSH2 0xD0F JUMPI DUP4 ADD SWAP1 JUMPDEST DUP3 DUP3 LT PUSH2 0x28BC JUMPI POP POP POP POP SWAP1 JUMP JUMPDEST DUP2 MLOAD DUP2 MSTORE SWAP1 DUP4 ADD SWAP1 DUP4 ADD PUSH2 0x28AE JUMP JUMPDEST SWAP1 DUP2 MLOAD DUP1 DUP3 MSTORE PUSH1 0x20 DUP1 DUP1 SWAP4 ADD SWAP4 ADD SWAP2 PUSH1 0x0 JUMPDEST DUP3 DUP2 LT PUSH2 0x28EB JUMPI POP POP POP POP SWAP1 JUMP JUMPDEST DUP4 MLOAD PUSH1 0x1 PUSH1 0x1 PUSH1 0xA0 SHL SUB AND DUP6 MSTORE SWAP4 DUP2 ADD SWAP4 SWAP3 DUP2 ADD SWAP3 PUSH1 0x1 ADD PUSH2 0x28DD JUMP JUMPDEST SWAP2 SWAP1 DUP3 SUB SWAP2 DUP3 GT PUSH2 0xCB9 JUMPI JUMP JUMPDEST SWAP1 DUP2 PUSH1 0x20 SWAP2 SUB SLT PUSH2 0xD0F JUMPI MLOAD DUP1 ISZERO ISZERO DUP2 SUB PUSH2 0xD0F JUMPI SWAP1 JUMP JUMPDEST SWAP2 SWAP1 DUP1 DUP3 MSTORE PUSH1 0x20 DUP1 SWAP3 ADD SWAP3 SWAP2 PUSH1 0x0 JUMPDEST DUP3 DUP2 LT PUSH2 0x294A JUMPI POP POP POP POP SWAP1 JUMP JUMPDEST SWAP1 SWAP2 SWAP3 SWAP4 DUP3 DUP1 PUSH1 0x1 SWAP3 PUSH1 0x1 PUSH1 0x1 PUSH1 0xA0 SHL SUB PUSH2 0x2964 DUP10 PUSH2 0x2678 JUMP JUMPDEST AND DUP2 MSTORE ADD SWAP6 ADD SWAP4 SWAP3 SWAP2 ADD PUSH2 0x293C JUMP JUMPDEST SWAP3 SWAP2 PUSH2 0x297E DUP3 PUSH2 0x27E2 JUMP JUMPDEST SWAP2 PUSH2 0x298C PUSH1 0x40 MLOAD SWAP4 DUP5 PUSH2 0x27C0 JUMP JUMPDEST DUP3 SWAP5 DUP2 DUP5 MSTORE PUSH1 0x20 DUP1 SWAP5 ADD SWAP2 PUSH1 0x5 SHL DUP2 ADD SWAP3 DUP4 GT PUSH2 0xD0F JUMPI SWAP1 JUMPDEST DUP3 DUP3 LT PUSH2 0x29B2 JUMPI POP POP POP POP JUMP JUMPDEST DUP4 DUP1 SWAP2 PUSH2 0x29BE DUP5 PUSH2 0x2678 JUMP JUMPDEST DUP2 MSTORE ADD SWAP2 ADD SWAP1 PUSH2 0x29A5 JUMP JUMPDEST ISZERO PUSH2 0x29D0 JUMPI JUMP JUMPDEST PUSH1 0x64 PUSH1 0x40 MLOAD PUSH3 0x461BCD PUSH1 0xE5 SHL DUP2 MSTORE PUSH1 0x20 PUSH1 0x4 DUP3 ADD MSTORE PUSH1 0xE PUSH1 0x24 DUP3 ADD MSTORE PUSH32 0x4E6F7420617574686F72697A6564000000000000000000000000000000000000 PUSH1 0x44 DUP3 ADD MSTORE REVERT JUMPDEST ISZERO PUSH2 0x2A1B JUMPI JUMP JUMPDEST PUSH1 0x64 PUSH1 0x40 MLOAD PUSH3 0x461BCD PUSH1 0xE5 SHL DUP2 MSTORE PUSH1 0x20 PUSH1 0x4 DUP3 ADD MSTORE PUSH1 0x17 PUSH1 0x24 DUP3 ADD MSTORE PUSH32 0x416D6F756E74206D75737420626520706F736974697665000000000000000000 PUSH1 0x44 DUP3 ADD MSTORE REVERT JUMPDEST ISZERO PUSH2 0x2A66 JUMPI JUMP JUMPDEST PUSH1 0x64 PUSH1 0x40 MLOAD PUSH3 0x461BCD PUSH1 0xE5 SHL DUP2 MSTORE PUSH1 0x20 PUSH1 0x4 DUP3 ADD MSTORE PUSH1 0x20 PUSH1 0x24 DUP3 ADD MSTORE PUSH32 0x45787065637465642070726F666974206D75737420626520706F736974697665 PUSH1 0x44 DUP3 ADD MSTORE REVERT JUMPDEST SWAP1 PUSH1 0x1 PUSH1 0x1 PUSH1 0xA0 SHL SUB SWAP1 SWAP5 SWAP3 SWAP5 AND DUP2 MSTORE PUSH2 0x2AD0 PUSH1 0x20 SWAP5 PUSH1 0x80 DUP7 DUP5 ADD MSTORE PUSH1 0x80 DUP4 ADD SWAP1 PUSH2 0x28CB JUMP JUMPDEST DUP2 DUP2 SUB PUSH1 0x40 DUP4 ADD MSTORE DUP5 DUP1 DUP6 MLOAD SWAP3 DUP4 DUP2 MSTORE ADD SWAP5 ADD SWAP1 PUSH1 0x0 JUMPDEST DUP7 DUP3 DUP3 LT PUSH2 0x2B36 JUMPI POP POP POP POP PUSH1 0x60 DUP2 DUP5 SUB SWAP2 ADD MSTORE DUP1 MLOAD SWAP1 DUP2 DUP4 MSTORE DUP4 PUSH1 0x0 JUMPDEST DUP4 DUP2 LT PUSH2 0x2B22 JUMPI POP PUSH1 0x0 SWAP2 POP DUP3 DUP5 ADD ADD MSTORE PUSH1 0x1F DUP1 NOT SWAP2 ADD AND ADD ADD SWAP1 JUMP JUMPDEST DUP2 DUP2 DUP5 ADD ADD MLOAD DUP3 DUP3 DUP8 ADD ADD MSTORE ADD DUP5 SWAP1 PUSH2 0x2B05 JUMP JUMPDEST DUP4 MLOAD DUP8 MSTORE SWAP6 DUP7 ADD SWAP6 SWAP1 SWAP3 ADD SWAP2 PUSH1 0x1 ADD PUSH2 0x2AE7 JUMP JUMPDEST DUP2 DUP2 MUL SWAP3 SWAP2 DUP2 ISZERO SWAP2 DUP5 DIV EQ OR ISZERO PUSH2 0xCB9 JUMPI JUMP JUMPDEST PUSH1 0x1 PUSH1 0x1 PUSH1 0xA0 SHL SUB PUSH1 0x0 SLOAD AND CALLER SUB PUSH2 0x2B71 JUMPI JUMP JUMPDEST PUSH1 0x64 PUSH1 0x40 MLOAD PUSH3 0x461BCD PUSH1 0xE5 SHL DUP2 MSTORE PUSH1 0x20 PUSH1 0x4 DUP3 ADD MSTORE PUSH1 0x20 PUSH1 0x24 DUP3 ADD MSTORE PUSH32 0x4F776E61626C653A2063616C6C6572206973206E6F7420746865206F776E6572 PUSH1 0x44 DUP3 ADD MSTORE REVERT JUMPDEST PUSH1 0x6 SLOAD PUSH1 0x1 PUSH1 0x1 PUSH1 0xA0 SHL SUB SWAP1 DUP2 AND SWAP1 DUP2 ISZERO PUSH2 0x2BCE JUMPI POP SWAP1 JUMP JUMPDEST SWAP1 POP PUSH1 0x4 SLOAD AND SWAP1 JUMP JUMPDEST PUSH1 0x7 SLOAD PUSH1 0x1 PUSH1 0x1 PUSH1 0xA0 SHL SUB SWAP1 DUP2 AND SWAP1 DUP2 ISZERO PUSH2 0x2BF0 JUMPI POP SWAP1 JUMP JUMPDEST SWAP1 POP PUSH1 0x3 SLOAD AND SWAP1 JUMP JUMPDEST ISZERO PUSH2 0x2BB5 JUMPI PUSH1 0x7 SLOAD PUSH1 0x1 PUSH1 0x1 PUSH1 0xA0 SHL SUB SWAP1 DUP2 AND SWAP1 DUP2 ISZERO PUSH2 0x2BF0 JUMPI POP SWAP1 JUMP JUMPDEST SWAP1 DUP2 MLOAD PUSH2 0x2C23 DUP2 PUSH2 0x27E2 JUMP JUMPDEST SWAP1 PUSH2 0x2C31 PUSH1 0x40 MLOAD SWAP3 DUP4 PUSH2 0x27C0 JUMP JUMPDEST DUP1 DUP3 MSTORE PUSH2 0x2C40 PUSH1 0x1F NOT SWAP2 PUSH2 0x27E2 JUMP JUMPDEST ADD CALLDATASIZE PUSH1 0x20 DUP4 ADD CALLDATACOPY DUP1 SWAP2 PUSH1 0x0 DUP1 JUMPDEST DUP6 MLOAD DUP1 DUP3 LT ISZERO PUSH2 0x2CA8 JUMPI PUSH1 0x0 NOT DUP2 ADD SWAP1 DUP2 GT PUSH2 0x2C94 JUMPI SWAP1 PUSH1 0x1 PUSH1 0x1 PUSH1 0xA0 SHL SUB PUSH2 0x2C81 PUSH2 0x2C7B DUP4 PUSH1 0x1 SWAP6 PUSH2 0x2908 JUMP JUMPDEST DUP10 PUSH2 0x283D JUMP JUMPDEST MLOAD AND PUSH2 0x2C8D DUP3 DUP8 PUSH2 0x283D JUMP JUMPDEST MSTORE ADD PUSH2 0x2C4D JUMP JUMPDEST PUSH1 0x24 DUP4 PUSH4 0x4E487B71 PUSH1 0xE0 SHL DUP2 MSTORE PUSH1 0x11 PUSH1 0x4 MSTORE REVERT JUMPDEST POP POP POP SWAP2 SWAP3 POP POP JUMP JUMPDEST PUSH1 0xFF PUSH1 0x2 SLOAD AND PUSH2 0x2CBD JUMPI JUMP JUMPDEST PUSH1 0x64 PUSH1 0x40 MLOAD PUSH3 0x461BCD PUSH1 0xE5 SHL DUP2 MSTORE PUSH1 0x20 PUSH1 0x4 DUP3 ADD MSTORE PUSH1 0x10 PUSH1 0x24 DUP3 ADD MSTORE PUSH32 0x5061757361626C653A2070617573656400000000000000000000000000000000 PUSH1 0x44 DUP3 ADD MSTORE REVERT JUMPDEST PUSH1 0x2 PUSH1 0x1 SLOAD EQ PUSH2 0x2D12 JUMPI PUSH1 0x2 PUSH1 0x1 SSTORE JUMP JUMPDEST PUSH1 0x64 PUSH1 0x40 MLOAD PUSH3 0x461BCD PUSH1 0xE5 SHL DUP2 MSTORE PUSH1 0x20 PUSH1 0x4 DUP3 ADD MSTORE PUSH1 0x1F PUSH1 0x24 DUP3 ADD MSTORE PUSH32 0x5265656E7472616E637947756172643A207265656E7472616E742063616C6C00 PUSH1 0x44 DUP3 ADD MSTORE REVERT JUMPDEST MLOAD SWAP1 PUSH10 0xFFFFFFFFFFFFFFFFFFFF DUP3 AND DUP3 SUB PUSH2 0xD0F JUMPI JUMP JUMPDEST SWAP2 PUSH1 0x80 SWAP4 PUSH2 0x2D9A SWAP2 PUSH1 0x1 PUSH1 0x1 PUSH1 0xA0 SHL SUB SWAP4 SWAP9 SWAP8 SWAP7 SWAP9 DUP6 MSTORE PUSH1 0x20 DUP6 ADD MSTORE PUSH1 0xA0 PUSH1 0x40 DUP6 ADD MSTORE PUSH1 0xA0 DUP5 ADD SWAP1 PUSH2 0x28CB JUMP JUMPDEST SWAP6 AND PUSH1 0x60 DUP3 ADD MSTORE ADD MSTORE JUMP JUMPDEST PUSH2 0x2DE8 SWAP2 PUSH1 0x1 PUSH1 0x1 PUSH1 0xA0 SHL SUB PUSH2 0x2DB9 PUSH2 0x2BB5 JUMP JUMPDEST AND SWAP2 PUSH1 0x40 MLOAD SWAP3 DUP4 SWAP2 PUSH4 0xD06CA61F PUSH1 0xE0 SHL DUP4 MSTORE PUSH1 0x4 DUP4 ADD MSTORE PUSH1 0x40 PUSH1 0x24 DUP4 ADD MSTORE DUP2 DUP1 PUSH1 0x0 SWAP7 DUP8 SWAP6 PUSH1 0x44 DUP4 ADD SWAP1 PUSH2 0x28CB JUMP JUMPDEST SUB SWAP2 GAS STATICCALL SWAP1 DUP2 ISZERO PUSH2 0x10F0 JUMPI DUP3 SWAP2 PUSH2 0x2E4B JUMPI JUMPDEST POP DUP1 MLOAD PUSH1 0x0 NOT DUP2 ADD SWAP2 SWAP1 DUP3 GT PUSH2 0x2C94 JUMPI SWAP1 PUSH2 0x2E14 SWAP2 PUSH2 0x283D JUMP JUMPDEST MLOAD SWAP1 PUSH1 0xA SLOAD SWAP2 PUSH2 0x2710 SWAP3 DUP4 SUB SWAP2 DUP4 DUP4 GT PUSH2 0x2E37 JUMPI POP SWAP1 PUSH2 0x2E33 SWAP2 PUSH2 0x2B4A JUMP JUMPDEST DIV SWAP1 JUMP JUMPDEST DUP1 PUSH4 0x4E487B71 PUSH1 0xE0 SHL PUSH1 0x24 SWAP3 MSTORE PUSH1 0x11 PUSH1 0x4 MSTORE REVERT JUMPDEST PUSH2 0x2E5F SWAP2 POP RETURNDATASIZE DUP1 DUP5 DUP4 RETURNDATACOPY PUSH2 0xD3A DUP2 DUP4 PUSH2 0x27C0 JUMP JUMPDEST CODESIZE PUSH2 0x2DFA JUMP JUMPDEST PUSH2 0x2DE8 SWAP2 PUSH1 0x1 PUSH1 0x1 PUSH1 0xA0 SHL SUB PUSH2 0x2DB9 PUSH2 0x2BD7 JUMP INVALID LOG2 PUSH5 0x6970667358 0x22 SLT KECCAK256 0xAE 0xAE LOG4 0x4E DUP7 CREATE 0xAB 0xCC ADDMOD 0xBB LOG4 0x24 0xB8 0xDC 0xC4 LOG2 LOG0 CALL PUSH29 0xFB86F750D85873D73B6F5FF45E64736F6C634300081800330000000000 "},"methodIdentifiers":{"MAX_SLIPPAGE()":"f9759518","MIN_PROFIT_BPS()":"507a2291","SUSHI_ROUTER_NEW()":"004670f1","SUSHI_ROUTER_OPT()":"15482ab2","UNI_V2_ROUTER_NEW()":"18d0b3ce","UNI_V2_ROUTER_OPT()":"3c988982","USDC()":"89a30271","USDT()":"c54e44eb","WBTC()":"4dede3de","WETH()":"ad5c4648","authorizedCallers(address)":"536fff6c","currentChainId()":"6cbadbfa","emergencyWithdraw(address)":"6ff1c9bc","executeArb(address,uint256,address[],bool,uint256)":"c69aec56","executeTriangularArb(address,uint256,address[],uint256)":"ee9ed9d7","isArbitrum()":"29f2c8f0","isOptimism()":"ec961a05","minProfitBps()":"383aeeae","owner()":"8da5cb5b","pause()":"8456cb59","paused()":"5c975abb","priceFeeds(address)":"9dcb511a","receiveFlashLoan(address[],uint256[],uint256[],bytes)":"f04f2707","renounceOwnership()":"715018a6","setAuthorizedCaller(address,bool)":"454bbd29","setMinProfitBps(uint256)":"fcff2c28","setPriceFeed(address,address)":"76e11286","setSlippageTolerance(uint256)":"117da1ee","simulateArbitrage(address,uint256,address[],bool)":"c01f2524","simulateTriangularArbitrage(address,uint256,address[])":"277dd7e0","slippageTolerance()":"d03153aa","sushiRouter()":"6d13582c","sushiRouterNew()":"ea046659","transferOwnership(address)":"f2fde38b","uniRouter()":"a0e47bf6","uniV2RouterNew()":"3b9debf6","uniV3Quoter()":"795674ff","unpause()":"3f4ba83a","vault()":"fbfa77cf","withdraw(address)":"51cff8d9"}}}}}